{
  "_format": "hh-sol-artifact-1",
  "contractName": "MediTrustRoles",
  "sourceName": "contracts/MediTrustRoles.sol",
  "abi": [
    {
      "inputs": [],
      "stateMutability": "nonpayable",
      "type": "constructor"
    },
    {
      "inputs": [
        {
          "internalType": "address",
          "name": "owner",
          "type": "address"
        }
      ],
      "name": "OwnableInvalidOwner",
      "type": "error"
    },
    {
      "inputs": [
        {
          "internalType": "address",
          "name": "account",
          "type": "address"
        }
      ],
      "name": "OwnableUnauthorizedAccount",
      "type": "error"
    },
    {
      "anonymous": false,
      "inputs": [
        {
          "indexed": true,
          "internalType": "address",
          "name": "previousOwner",
          "type": "address"
        },
        {
          "indexed": true,
          "internalType": "address",
          "name": "newOwner",
          "type": "address"
        }
      ],
      "name": "OwnershipTransferred",
      "type": "event"
    },
    {
      "inputs": [
        {
          "internalType": "address",
          "name": "",
          "type": "address"
        }
      ],
      "name": "DAOMembers",
      "outputs": [
        {
          "internalType": "bool",
          "name": "",
          "type": "bool"
        }
      ],
      "stateMutability": "view",
      "type": "function"
    },
    {
      "inputs": [
        {
          "internalType": "address",
          "name": "member",
          "type": "address"
        }
      ],
      "name": "addDAOMember",
      "outputs": [],
      "stateMutability": "nonpayable",
      "type": "function"
    },
    {
      "inputs": [
        {
          "internalType": "address",
          "name": "rep",
          "type": "address"
        }
      ],
      "name": "addHospitalRep",
      "outputs": [],
      "stateMutability": "nonpayable",
      "type": "function"
    },
    {
      "inputs": [],
      "name": "getTotalDAOMembers",
      "outputs": [
        {
          "internalType": "uint256",
          "name": "",
          "type": "uint256"
        }
      ],
      "stateMutability": "view",
      "type": "function"
    },
    {
      "inputs": [],
      "name": "getTotalHospitalRep",
      "outputs": [
        {
          "internalType": "uint256",
          "name": "",
          "type": "uint256"
        }
      ],
      "stateMutability": "view",
      "type": "function"
    },
    {
      "inputs": [
        {
          "internalType": "address",
          "name": "",
          "type": "address"
        }
      ],
      "name": "hospitalRepresentatives",
      "outputs": [
        {
          "internalType": "bool",
          "name": "",
          "type": "bool"
        }
      ],
      "stateMutability": "view",
      "type": "function"
    },
    {
      "inputs": [
        {
          "internalType": "address",
          "name": "addr",
          "type": "address"
        }
      ],
      "name": "isDAOMember",
      "outputs": [
        {
          "internalType": "bool",
          "name": "",
          "type": "bool"
        }
      ],
      "stateMutability": "view",
      "type": "function"
    },
    {
      "inputs": [
        {
          "internalType": "address",
          "name": "addr",
          "type": "address"
        }
      ],
      "name": "isHospitalRep",
      "outputs": [
        {
          "internalType": "bool",
          "name": "",
          "type": "bool"
        }
      ],
      "stateMutability": "view",
      "type": "function"
    },
    {
      "inputs": [
        {
          "internalType": "address",
          "name": "addr",
          "type": "address"
        }
      ],
      "name": "isPlatformAdmin",
      "outputs": [
        {
          "internalType": "bool",
          "name": "",
          "type": "bool"
        }
      ],
      "stateMutability": "view",
      "type": "function"
    },
    {
      "inputs": [],
      "name": "owner",
      "outputs": [
        {
          "internalType": "address",
          "name": "",
          "type": "address"
        }
      ],
      "stateMutability": "view",
      "type": "function"
    },
    {
      "inputs": [
        {
          "internalType": "address",
          "name": "member",
          "type": "address"
        }
      ],
      "name": "removeDAOMember",
      "outputs": [],
      "stateMutability": "nonpayable",
      "type": "function"
    },
    {
      "inputs": [
        {
          "internalType": "address",
          "name": "rep",
          "type": "address"
        }
      ],
      "name": "removeHospitalRep",
      "outputs": [],
      "stateMutability": "nonpayable",
      "type": "function"
    },
    {
      "inputs": [],
      "name": "renounceOwnership",
      "outputs": [],
      "stateMutability": "nonpayable",
      "type": "function"
    },
    {
      "inputs": [],
      "name": "totalDAOMembers",
      "outputs": [
        {
          "internalType": "uint256",
          "name": "",
          "type": "uint256"
        }
      ],
      "stateMutability": "view",
      "type": "function"
    },
    {
      "inputs": [],
      "name": "totalHospitalRep",
      "outputs": [
        {
          "internalType": "uint256",
          "name": "",
          "type": "uint256"
        }
      ],
      "stateMutability": "view",
      "type": "function"
    },
    {
      "inputs": [
        {
          "internalType": "address",
          "name": "newOwner",
          "type": "address"
        }
      ],
      "name": "transferOwnership",
      "outputs": [],
      "stateMutability": "nonpayable",
      "type": "function"
    }
  ],
  "bytecode": "0x608060405234801561001057600080fd5b5033600073ffffffffffffffffffffffffffffffffffffffff168173ffffffffffffffffffffffffffffffffffffffff16036100845760006040517f1e4fbdf700000000000000000000000000000000000000000000000000000000815260040161007b919061019e565b60405180910390fd5b6100938161009960201b60201c565b506101b9565b60008060009054906101000a900473ffffffffffffffffffffffffffffffffffffffff169050816000806101000a81548173ffffffffffffffffffffffffffffffffffffffff021916908373ffffffffffffffffffffffffffffffffffffffff1602179055508173ffffffffffffffffffffffffffffffffffffffff168173ffffffffffffffffffffffffffffffffffffffff167f8be0079c531659141344cd1fd0a4f28419497f9722a3daafe3b4186f6b6457e060405160405180910390a35050565b600073ffffffffffffffffffffffffffffffffffffffff82169050919050565b60006101888261015d565b9050919050565b6101988161017d565b82525050565b60006020820190506101b3600083018461018f565b92915050565b6111d7806101c86000396000f3fe608060405234801561001057600080fd5b50600436106101005760003560e01c8063b1e44d8f11610097578063d686f45911610066578063d686f4591461029d578063dde01955146102b9578063f2fde38b146102d5578063f9183854146102f157610100565b8063b1e44d8f14610213578063b8c3de3514610243578063c77dbf6814610261578063ce2ef58d1461027f57610100565b8063715018a6116100d3578063715018a61461019f5780637667984d146101a957806387d85ee1146101d95780638da5cb5b146101f557610100565b806322a9e01b1461010557806325c99679146101355780635ea58e77146101515780636da1a9f81461016f575b600080fd5b61011f600480360381019061011a9190610c31565b610321565b60405161012c9190610c79565b60405180910390f35b61014f600480360381019061014a9190610c31565b610341565b005b610159610448565b6040516101669190610cad565b60405180910390f35b61018960048036038101906101849190610c31565b610452565b6040516101969190610c79565b60405180910390f35b6101a7610472565b005b6101c360048036038101906101be9190610c31565b610486565b6040516101d09190610c79565b60405180910390f35b6101f360048036038101906101ee9190610c31565b6104dc565b005b6101fd610658565b60405161020a9190610cd7565b60405180910390f35b61022d60048036038101906102289190610c31565b610681565b60405161023a9190610c79565b60405180910390f35b61024b6106d7565b6040516102589190610cad565b60405180910390f35b6102696106dd565b6040516102769190610cad565b60405180910390f35b6102876106e3565b6040516102949190610cad565b60405180910390f35b6102b760048036038101906102b29190610c31565b6106ed565b005b6102d360048036038101906102ce9190610c31565b6108ae565b005b6102ef60048036038101906102ea9190610c31565b6109b6565b005b61030b60048036038101906103069190610c31565b610a3c565b6040516103189190610c79565b60405180910390f35b60016020528060005260406000206000915054906101000a900460ff1681565b610349610a7b565b600160008273ffffffffffffffffffffffffffffffffffffffff1673ffffffffffffffffffffffffffffffffffffffff16815260200190815260200160002060009054906101000a900460ff166103d5576040517f08c379a00000000000000000000000000000000000000000000000000000000081526004016103cc90610d75565b60405180910390fd5b6000600160008373ffffffffffffffffffffffffffffffffffffffff1673ffffffffffffffffffffffffffffffffffffffff16815260200190815260200160002060006101000a81548160ff0219169083151502179055506004600081548092919061044090610dc4565b919050555050565b6000600454905090565b60026020528060005260406000206000915054906101000a900460ff1681565b61047a610a7b565b6104846000610b02565b565b6000600160008373ffffffffffffffffffffffffffffffffffffffff1673ffffffffffffffffffffffffffffffffffffffff16815260200190815260200160002060009054906101000a900460ff169050919050565b6104e4610a7b565b6104ec610658565b73ffffffffffffffffffffffffffffffffffffffff168173ffffffffffffffffffffffffffffffffffffffff1603610559576040517f08c379a000000000000000000000000000000000000000000000000000000000815260040161055090610e85565b60405180910390fd5b600160008273ffffffffffffffffffffffffffffffffffffffff1673ffffffffffffffffffffffffffffffffffffffff16815260200190815260200160002060009054906101000a900460ff16156105e6576040517f08c379a00000000000000000000000000000000000000000000000000000000081526004016105dd90610f17565b60405180910390fd5b60018060008373ffffffffffffffffffffffffffffffffffffffff1673ffffffffffffffffffffffffffffffffffffffff16815260200190815260200160002060006101000a81548160ff0219169083151502179055506004600081548092919061065090610f37565b919050555050565b60008060009054906101000a900473ffffffffffffffffffffffffffffffffffffffff16905090565b6000600260008373ffffffffffffffffffffffffffffffffffffffff1673ffffffffffffffffffffffffffffffffffffffff16815260200190815260200160002060009054906101000a900460ff169050919050565b60045481565b60035481565b6000600354905090565b6106f5610a7b565b6106fd610658565b73ffffffffffffffffffffffffffffffffffffffff168173ffffffffffffffffffffffffffffffffffffffff160361076a576040517f08c379a000000000000000000000000000000000000000000000000000000000815260040161076190610ff1565b60405180910390fd5b600260008273ffffffffffffffffffffffffffffffffffffffff1673ffffffffffffffffffffffffffffffffffffffff16815260200190815260200160002060009054906101000a900460ff166107f6576040517f08c379a00000000000000000000000000000000000000000000000000000000081526004016107ed90611083565b60405180910390fd5b60016003541161083b576040517f08c379a0000000000000000000000000000000000000000000000000000000008152600401610832906110ef565b60405180910390fd5b6000600260008373ffffffffffffffffffffffffffffffffffffffff1673ffffffffffffffffffffffffffffffffffffffff16815260200190815260200160002060006101000a81548160ff021916908315150217905550600360008154809291906108a690610dc4565b919050555050565b6108b6610a7b565b600260008273ffffffffffffffffffffffffffffffffffffffff1673ffffffffffffffffffffffffffffffffffffffff16815260200190815260200160002060009054906101000a900460ff1615610943576040517f08c379a000000000000000000000000000000000000000000000000000000000815260040161093a90611181565b60405180910390fd5b6001600260008373ffffffffffffffffffffffffffffffffffffffff1673ffffffffffffffffffffffffffffffffffffffff16815260200190815260200160002060006101000a81548160ff021916908315150217905550600360008154809291906109ae90610f37565b919050555050565b6109be610a7b565b600073ffffffffffffffffffffffffffffffffffffffff168173ffffffffffffffffffffffffffffffffffffffff1603610a305760006040517f1e4fbdf7000000000000000000000000000000000000000000000000000000008152600401610a279190610cd7565b60405180910390fd5b610a3981610b02565b50565b6000610a46610658565b73ffffffffffffffffffffffffffffffffffffffff168273ffffffffffffffffffffffffffffffffffffffff16149050919050565b610a83610bc6565b73ffffffffffffffffffffffffffffffffffffffff16610aa1610658565b73ffffffffffffffffffffffffffffffffffffffff1614610b0057610ac4610bc6565b6040517f118cdaa7000000000000000000000000000000000000000000000000000000008152600401610af79190610cd7565b60405180910390fd5b565b60008060009054906101000a900473ffffffffffffffffffffffffffffffffffffffff169050816000806101000a81548173ffffffffffffffffffffffffffffffffffffffff021916908373ffffffffffffffffffffffffffffffffffffffff1602179055508173ffffffffffffffffffffffffffffffffffffffff168173ffffffffffffffffffffffffffffffffffffffff167f8be0079c531659141344cd1fd0a4f28419497f9722a3daafe3b4186f6b6457e060405160405180910390a35050565b600033905090565b600080fd5b600073ffffffffffffffffffffffffffffffffffffffff82169050919050565b6000610bfe82610bd3565b9050919050565b610c0e81610bf3565b8114610c1957600080fd5b50565b600081359050610c2b81610c05565b92915050565b600060208284031215610c4757610c46610bce565b5b6000610c5584828501610c1c565b91505092915050565b60008115159050919050565b610c7381610c5e565b82525050565b6000602082019050610c8e6000830184610c6a565b92915050565b6000819050919050565b610ca781610c94565b82525050565b6000602082019050610cc26000830184610c9e565b92915050565b610cd181610bf3565b82525050565b6000602082019050610cec6000830184610cc8565b92915050565b600082825260208201905092915050565b7f556e61626c6520746f2072656d6f76652c206e6f74206120686f73706974616c60008201527f20726570726573656e7461746976650000000000000000000000000000000000602082015250565b6000610d5f602f83610cf2565b9150610d6a82610d03565b604082019050919050565b60006020820190508181036000830152610d8e81610d52565b9050919050565b7f4e487b7100000000000000000000000000000000000000000000000000000000600052601160045260246000fd5b6000610dcf82610c94565b915060008203610de257610de1610d95565b5b600182039050919050565b7f556e61626c6520746f206164642c20706c6174666f726d2061646d696e20636160008201527f6e6e6f74206265206120686f73706974616c20726570726573656e746174697660208201527f6500000000000000000000000000000000000000000000000000000000000000604082015250565b6000610e6f604183610cf2565b9150610e7a82610ded565b606082019050919050565b60006020820190508181036000830152610e9e81610e62565b9050919050565b7f556e61626c6520746f206164642c20616c7265616479206120686f737069746160008201527f6c20726570726573656e74617469766500000000000000000000000000000000602082015250565b6000610f01603083610cf2565b9150610f0c82610ea5565b604082019050919050565b60006020820190508181036000830152610f3081610ef4565b9050919050565b6000610f4282610c94565b91507fffffffffffffffffffffffffffffffffffffffffffffffffffffffffffffffff8203610f7457610f73610d95565b5b600182019050919050565b7f556e61626c6520746f206164642c20706c6174666f726d2061646d696e20636160008201527f6e6e6f7420626520612044414f206d656d626572000000000000000000000000602082015250565b6000610fdb603483610cf2565b9150610fe682610f7f565b604082019050919050565b6000602082019050818103600083015261100a81610fce565b9050919050565b7f556e61626c6520746f2072656d6f76652c206e6f7420612044414f206d656d6260008201527f6572000000000000000000000000000000000000000000000000000000000000602082015250565b600061106d602283610cf2565b915061107882611011565b604082019050919050565b6000602082019050818103600083015261109c81611060565b9050919050565b7f43616e6e6f742072656d6f7665206c6173742044414f206d656d626572000000600082015250565b60006110d9601d83610cf2565b91506110e4826110a3565b602082019050919050565b60006020820190508181036000830152611108816110cc565b9050919050565b7f556e61626c6520746f206164642c20616c726561647920612044414f206d656d60008201527f6265720000000000000000000000000000000000000000000000000000000000602082015250565b600061116b602383610cf2565b91506111768261110f565b604082019050919050565b6000602082019050818103600083015261119a8161115e565b905091905056fea2646970667358221220733e825a1c2cad0406c616e90019d90dc2889aac740c7ba124f780f9c1a249ac64736f6c634300081c0033",
  "linkReferences": {},
  "deployedLinkReferences": {}
}