{
  "_format": "hh-sol-artifact-1",
  "contractName": "MediTrustCampaign",
  "sourceName": "contracts/MediTrustCampaign.sol",
  "abi": [
    {
      "inputs": [
        {
          "internalType": "address",
          "name": "roleAddress",
          "type": "address"
        }
      ],
      "stateMutability": "nonpayable",
      "type": "constructor"
    },
    {
      "anonymous": false,
      "inputs": [
        {
          "indexed": true,
          "internalType": "uint256",
          "name": "campaignID",
          "type": "uint256"
        }
      ],
      "name": "CampaignApprove",
      "type": "event"
    },
    {
      "anonymous": false,
      "inputs": [
        {
          "indexed": true,
          "internalType": "uint256",
          "name": "campaignID",
          "type": "uint256"
        }
      ],
      "name": "CampaignComplete",
      "type": "event"
    },
    {
      "anonymous": false,
      "inputs": [
        {
          "indexed": true,
          "internalType": "uint256",
          "name": "campaignID",
          "type": "uint256"
        }
      ],
      "name": "CampaignReject",
      "type": "event"
    },
    {
      "anonymous": false,
      "inputs": [
        {
          "indexed": true,
          "internalType": "uint256",
          "name": "campaignID",
          "type": "uint256"
        },
        {
          "indexed": true,
          "internalType": "address",
          "name": "patient",
          "type": "address"
        },
        {
          "indexed": false,
          "internalType": "uint256",
          "name": "target",
          "type": "uint256"
        },
        {
          "indexed": false,
          "internalType": "string",
          "name": "diagnosisHash",
          "type": "string"
        },
        {
          "indexed": false,
          "internalType": "string",
          "name": "quotationHash",
          "type": "string"
        }
      ],
      "name": "CampaignSubmit",
      "type": "event"
    },
    {
      "inputs": [
        {
          "internalType": "uint256",
          "name": "campaignID",
          "type": "uint256"
        }
      ],
      "name": "approveCampaign",
      "outputs": [],
      "stateMutability": "nonpayable",
      "type": "function"
    },
    {
      "inputs": [],
      "name": "campaignCount",
      "outputs": [
        {
          "internalType": "uint256",
          "name": "",
          "type": "uint256"
        }
      ],
      "stateMutability": "view",
      "type": "function"
    },
    {
      "inputs": [
        {
          "internalType": "uint256",
          "name": "",
          "type": "uint256"
        }
      ],
      "name": "campaigns",
      "outputs": [
        {
          "internalType": "address",
          "name": "patient",
          "type": "address"
        },
        {
          "internalType": "uint256",
          "name": "target",
          "type": "uint256"
        },
        {
          "internalType": "uint256",
          "name": "raised",
          "type": "uint256"
        },
        {
          "internalType": "uint256",
          "name": "duration",
          "type": "uint256"
        },
        {
          "internalType": "string",
          "name": "diagnosisHash",
          "type": "string"
        },
        {
          "internalType": "string",
          "name": "quotationHash",
          "type": "string"
        },
        {
          "internalType": "enum MediTrustCampaign.CampaignStatus",
          "name": "status",
          "type": "uint8"
        },
        {
          "internalType": "uint256",
          "name": "startDate",
          "type": "uint256"
        }
      ],
      "stateMutability": "view",
      "type": "function"
    },
    {
      "inputs": [],
      "name": "fundsAddress",
      "outputs": [
        {
          "internalType": "address",
          "name": "",
          "type": "address"
        }
      ],
      "stateMutability": "view",
      "type": "function"
    },
    {
      "inputs": [
        {
          "internalType": "uint256",
          "name": "campaignID",
          "type": "uint256"
        }
      ],
      "name": "getCampaign",
      "outputs": [
        {
          "internalType": "address",
          "name": "patient",
          "type": "address"
        },
        {
          "internalType": "uint256",
          "name": "target",
          "type": "uint256"
        },
        {
          "internalType": "uint256",
          "name": "raised",
          "type": "uint256"
        },
        {
          "internalType": "uint256",
          "name": "duration",
          "type": "uint256"
        },
        {
          "internalType": "string",
          "name": "diagnosisHash",
          "type": "string"
        },
        {
          "internalType": "string",
          "name": "quotationHash",
          "type": "string"
        },
        {
          "internalType": "enum MediTrustCampaign.CampaignStatus",
          "name": "status",
          "type": "uint8"
        }
      ],
      "stateMutability": "view",
      "type": "function"
    },
    {
      "inputs": [
        {
          "internalType": "enum MediTrustCampaign.CampaignStatus",
          "name": "status",
          "type": "uint8"
        }
      ],
      "name": "getCampaignCount",
      "outputs": [
        {
          "internalType": "uint256",
          "name": "",
          "type": "uint256"
        }
      ],
      "stateMutability": "view",
      "type": "function"
    },
    {
      "inputs": [],
      "name": "getFundsContract",
      "outputs": [
        {
          "internalType": "address",
          "name": "",
          "type": "address"
        }
      ],
      "stateMutability": "view",
      "type": "function"
    },
    {
      "inputs": [
        {
          "internalType": "uint256",
          "name": "campaignID",
          "type": "uint256"
        }
      ],
      "name": "isCampaignActive",
      "outputs": [
        {
          "internalType": "bool",
          "name": "",
          "type": "bool"
        }
      ],
      "stateMutability": "view",
      "type": "function"
    },
    {
      "inputs": [
        {
          "internalType": "uint256",
          "name": "campaignID",
          "type": "uint256"
        }
      ],
      "name": "isPatient",
      "outputs": [
        {
          "internalType": "bool",
          "name": "",
          "type": "bool"
        }
      ],
      "stateMutability": "view",
      "type": "function"
    },
    {
      "inputs": [
        {
          "internalType": "uint256",
          "name": "campaignID",
          "type": "uint256"
        }
      ],
      "name": "rejectCampaign",
      "outputs": [],
      "stateMutability": "nonpayable",
      "type": "function"
    },
    {
      "inputs": [],
      "name": "roleContract",
      "outputs": [
        {
          "internalType": "contract MediTrustRoles",
          "name": "",
          "type": "address"
        }
      ],
      "stateMutability": "view",
      "type": "function"
    },
    {
      "inputs": [
        {
          "internalType": "address",
          "name": "funds",
          "type": "address"
        }
      ],
      "name": "setFundsContract",
      "outputs": [],
      "stateMutability": "nonpayable",
      "type": "function"
    },
    {
      "inputs": [
        {
          "internalType": "uint256",
          "name": "campaignID",
          "type": "uint256"
        },
        {
          "internalType": "uint256",
          "name": "amount",
          "type": "uint256"
        }
      ],
      "name": "setRaised",
      "outputs": [],
      "stateMutability": "nonpayable",
      "type": "function"
    },
    {
      "inputs": [
        {
          "internalType": "uint256",
          "name": "target",
          "type": "uint256"
        },
        {
          "internalType": "uint256",
          "name": "duration",
          "type": "uint256"
        },
        {
          "internalType": "string",
          "name": "diagnosisHash",
          "type": "string"
        },
        {
          "internalType": "string",
          "name": "quotationHash",
          "type": "string"
        }
      ],
      "name": "submitCampaign",
      "outputs": [
        {
          "internalType": "uint256",
          "name": "",
          "type": "uint256"
        }
      ],
      "stateMutability": "nonpayable",
      "type": "function"
    }
  ],
  "bytecode": "0x608060405234801561001057600080fd5b506040516122d03803806122d0833981810160405281019061003291906100db565b806000806101000a81548173ffffffffffffffffffffffffffffffffffffffff021916908373ffffffffffffffffffffffffffffffffffffffff16021790555050610108565b600080fd5b600073ffffffffffffffffffffffffffffffffffffffff82169050919050565b60006100a88261007d565b9050919050565b6100b88161009d565b81146100c357600080fd5b50565b6000815190506100d5816100af565b92915050565b6000602082840312156100f1576100f0610078565b5b60006100ff848285016100c6565b91505092915050565b6121b9806101176000396000f3fe608060405234801561001057600080fd5b50600436106100ea5760003560e01c806399384fd91161008c578063ee4e1b5311610066578063ee4e1b531461027e578063effa334c1461029a578063f53bded1146102ca578063f89723b8146102e6576100ea565b806399384fd914610200578063a77ccd6e14610230578063e1e330091461024e576100ea565b80632c9932ec116100c85780632c9932ec1461015e5780634c16ad041461017c5780635598f8cc146101ac5780637274e30d146101e2576100ea565b80630161ca79146100ef578063034d09da1461010b578063141961bc14610127575b600080fd5b61010960048036038101906101049190611120565b610304565b005b61012560048036038101906101209190611183565b6103d9565b005b610141600480360381019061013c9190611183565b61059f565b6040516101559897969594939291906112d5565b60405180910390f35b610166610724565b6040516101739190611361565b60405180910390f35b610196600480360381019061019191906113a1565b61074e565b6040516101a391906113ce565b60405180910390f35b6101c660048036038101906101c19190611183565b6107d6565b6040516101d997969594939291906113e9565b60405180910390f35b6101ea610977565b6040516101f791906113ce565b60405180910390f35b61021a6004803603810190610215919061159b565b61097d565b60405161022791906113ce565b60405180910390f35b610238610be5565b6040516102459190611361565b60405180910390f35b61026860048036038101906102639190611183565b610c0b565b6040516102759190611655565b60405180910390f35b61029860048036038101906102939190611183565b610c91565b005b6102b460048036038101906102af9190611183565b610ebb565b6040516102c19190611655565b60405180910390f35b6102e460048036038101906102df9190611670565b610f29565b005b6102ee61108a565b6040516102fb919061170f565b60405180910390f35b600073ffffffffffffffffffffffffffffffffffffffff16600160009054906101000a900473ffffffffffffffffffffffffffffffffffffffff1673ffffffffffffffffffffffffffffffffffffffff1614610395576040517f08c379a000000000000000000000000000000000000000000000000000000000815260040161038c9061179c565b60405180910390fd5b80600160006101000a81548173ffffffffffffffffffffffffffffffffffffffff021916908373ffffffffffffffffffffffffffffffffffffffff16021790555050565b60008054906101000a900473ffffffffffffffffffffffffffffffffffffffff1673ffffffffffffffffffffffffffffffffffffffff16637667984d336040518263ffffffff1660e01b81526004016104329190611361565b602060405180830381865afa15801561044f573d6000803e3d6000fd5b505050506040513d601f19601f8201168201806040525081019061047391906117e8565b6104b2576040517f08c379a00000000000000000000000000000000000000000000000000000000081526004016104a990611887565b60405180910390fd5b6000600260008381526020019081526020016000209050600060038111156104dd576104dc61125e565b5b8160060160009054906101000a900460ff1660038111156105015761050061125e565b5b14610541576040517f08c379a000000000000000000000000000000000000000000000000000000000815260040161053890611919565b60405180910390fd5b60028160060160006101000a81548160ff021916908360038111156105695761056861125e565b5b0217905550817fda5aab8af1d17b76a11bb897fbd425a6c81bc66c59a3549e52622c5336fa834160405160405180910390a25050565b60026020528060005260406000206000915090508060000160009054906101000a900473ffffffffffffffffffffffffffffffffffffffff16908060010154908060020154908060030154908060040180546105fa90611968565b80601f016020809104026020016040519081016040528092919081815260200182805461062690611968565b80156106735780601f1061064857610100808354040283529160200191610673565b820191906000526020600020905b81548152906001019060200180831161065657829003601f168201915b50505050509080600501805461068890611968565b80601f01602080910402602001604051908101604052809291908181526020018280546106b490611968565b80156107015780601f106106d657610100808354040283529160200191610701565b820191906000526020600020905b8154815290600101906020018083116106e457829003601f168201915b5050505050908060060160009054906101000a900460ff16908060070154905088565b6000600160009054906101000a900473ffffffffffffffffffffffffffffffffffffffff16905090565b6000806000905060005b6003548110156107cc578360038111156107755761077461125e565b5b6002600083815260200190815260200160002060060160009054906101000a900460ff1660038111156107ab576107aa61125e565b5b036107bf5781806107bb906119c8565b9250505b8080600101915050610758565b5080915050919050565b600080600080606080600080600260008a815260200190815260200160002090508060000160009054906101000a900473ffffffffffffffffffffffffffffffffffffffff1681600101548260020154836003015484600401856005018660060160009054906101000a900460ff1682805461085190611968565b80601f016020809104026020016040519081016040528092919081815260200182805461087d90611968565b80156108ca5780601f1061089f576101008083540402835291602001916108ca565b820191906000526020600020905b8154815290600101906020018083116108ad57829003601f168201915b505050505092508180546108dd90611968565b80601f016020809104026020016040519081016040528092919081815260200182805461090990611968565b80156109565780601f1061092b57610100808354040283529160200191610956565b820191906000526020600020905b81548152906001019060200180831161093957829003601f168201915b50505050509150975097509750975097509750975050919395979092949650565b60035481565b60008085116109c1576040517f08c379a00000000000000000000000000000000000000000000000000000000081526004016109b890611a5c565b60405180910390fd5b6000841180156109d3575061016d8411155b610a12576040517f08c379a0000000000000000000000000000000000000000000000000000000008152600401610a0990611ac8565b60405180910390fd5b6000835111610a56576040517f08c379a0000000000000000000000000000000000000000000000000000000008152600401610a4d90611b5a565b60405180910390fd5b6000825111610a9a576040517f08c379a0000000000000000000000000000000000000000000000000000000008152600401610a9190611bec565b60405180910390fd5b600060036000815480929190610aaf906119c8565b9190505590506000600260008381526020019081526020016000209050338160000160006101000a81548173ffffffffffffffffffffffffffffffffffffffff021916908373ffffffffffffffffffffffffffffffffffffffff1602179055508681600101819055506000816002018190555085816003018190555084816004019081610b3c9190611dae565b5083816005019081610b4e9190611dae565b5060008160060160006101000a81548160ff02191690836003811115610b7757610b7661125e565b5b02179055504281600701819055503373ffffffffffffffffffffffffffffffffffffffff16827ff77e2cc7bc169bf4a77704aeff697782ed80d754f8fd942f5ae2cf644b2442e5898888604051610bd093929190611e80565b60405180910390a38192505050949350505050565b600160009054906101000a900473ffffffffffffffffffffffffffffffffffffffff1681565b60008060026000848152602001908152602001600020905060016003811115610c3757610c3661125e565b5b8160060160009054906101000a900460ff166003811115610c5b57610c5a61125e565b5b148015610c895750620151808160030154610c769190611ec5565b8160070154610c859190611f07565b4211155b915050919050565b60008054906101000a900473ffffffffffffffffffffffffffffffffffffffff1673ffffffffffffffffffffffffffffffffffffffff16637667984d336040518263ffffffff1660e01b8152600401610cea9190611361565b602060405180830381865afa158015610d07573d6000803e3d6000fd5b505050506040513d601f19601f82011682018060405250810190610d2b91906117e8565b610d6a576040517f08c379a0000000000000000000000000000000000000000000000000000000008152600401610d6190611fad565b60405180910390fd5b600060026000838152602001908152602001600020905060006003811115610d9557610d9461125e565b5b8160060160009054906101000a900460ff166003811115610db957610db861125e565b5b14610df9576040517f08c379a0000000000000000000000000000000000000000000000000000000008152600401610df09061203f565b60405180910390fd5b620151808160030154610e0c9190611ec5565b8160070154610e1b9190611f07565b421115610e5d576040517f08c379a0000000000000000000000000000000000000000000000000000000008152600401610e54906120d1565b60405180910390fd5b60018160060160006101000a81548160ff02191690836003811115610e8557610e8461125e565b5b0217905550817fb598c2ae1ba3b00520d1d2a92173108bc8935593bfa8bac8bf7facfe767528a860405160405180910390a25050565b60006002600083815260200190815260200160002060000160009054906101000a900473ffffffffffffffffffffffffffffffffffffffff1673ffffffffffffffffffffffffffffffffffffffff163373ffffffffffffffffffffffffffffffffffffffff16149050919050565b600160009054906101000a900473ffffffffffffffffffffffffffffffffffffffff1673ffffffffffffffffffffffffffffffffffffffff163373ffffffffffffffffffffffffffffffffffffffff1614610fb9576040517f08c379a0000000000000000000000000000000000000000000000000000000008152600401610fb090612163565b60405180910390fd5b80600260008481526020019081526020016000206002016000828254610fdf9190611f07565b9250508190555060026000838152602001908152602001600020600101546002600084815260200190815260200160002060020154106110865760036002600084815260200190815260200160002060060160006101000a81548160ff021916908360038111156110535761105261125e565b5b0217905550817f7c9ef824eb9b2b83356339e0f54e1b1d33beaa78fbfcecf1f6b92a93d150037f60405160405180910390a25b5050565b60008054906101000a900473ffffffffffffffffffffffffffffffffffffffff1681565b6000604051905090565b600080fd5b600080fd5b600073ffffffffffffffffffffffffffffffffffffffff82169050919050565b60006110ed826110c2565b9050919050565b6110fd816110e2565b811461110857600080fd5b50565b60008135905061111a816110f4565b92915050565b600060208284031215611136576111356110b8565b5b60006111448482850161110b565b91505092915050565b6000819050919050565b6111608161114d565b811461116b57600080fd5b50565b60008135905061117d81611157565b92915050565b600060208284031215611199576111986110b8565b5b60006111a78482850161116e565b91505092915050565b6111b9816110e2565b82525050565b6111c88161114d565b82525050565b600081519050919050565b600082825260208201905092915050565b60005b838110156112085780820151818401526020810190506111ed565b60008484015250505050565b6000601f19601f8301169050919050565b6000611230826111ce565b61123a81856111d9565b935061124a8185602086016111ea565b61125381611214565b840191505092915050565b7f4e487b7100000000000000000000000000000000000000000000000000000000600052602160045260246000fd5b6004811061129e5761129d61125e565b5b50565b60008190506112af8261128d565b919050565b60006112bf826112a1565b9050919050565b6112cf816112b4565b82525050565b6000610100820190506112eb600083018b6111b0565b6112f8602083018a6111bf565b61130560408301896111bf565b61131260608301886111bf565b81810360808301526113248187611225565b905081810360a08301526113388186611225565b905061134760c08301856112c6565b61135460e08301846111bf565b9998505050505050505050565b600060208201905061137660008301846111b0565b92915050565b6004811061138957600080fd5b50565b60008135905061139b8161137c565b92915050565b6000602082840312156113b7576113b66110b8565b5b60006113c58482850161138c565b91505092915050565b60006020820190506113e360008301846111bf565b92915050565b600060e0820190506113fe600083018a6111b0565b61140b60208301896111bf565b61141860408301886111bf565b61142560608301876111bf565b81810360808301526114378186611225565b905081810360a083015261144b8185611225565b905061145a60c08301846112c6565b98975050505050505050565b600080fd5b600080fd5b7f4e487b7100000000000000000000000000000000000000000000000000000000600052604160045260246000fd5b6114a882611214565b810181811067ffffffffffffffff821117156114c7576114c6611470565b5b80604052505050565b60006114da6110ae565b90506114e6828261149f565b919050565b600067ffffffffffffffff82111561150657611505611470565b5b61150f82611214565b9050602081019050919050565b82818337600083830152505050565b600061153e611539846114eb565b6114d0565b90508281526020810184848401111561155a5761155961146b565b5b61156584828561151c565b509392505050565b600082601f83011261158257611581611466565b5b813561159284826020860161152b565b91505092915050565b600080600080608085870312156115b5576115b46110b8565b5b60006115c38782880161116e565b94505060206115d48782880161116e565b935050604085013567ffffffffffffffff8111156115f5576115f46110bd565b5b6116018782880161156d565b925050606085013567ffffffffffffffff811115611622576116216110bd565b5b61162e8782880161156d565b91505092959194509250565b60008115159050919050565b61164f8161163a565b82525050565b600060208201905061166a6000830184611646565b92915050565b60008060408385031215611687576116866110b8565b5b60006116958582860161116e565b92505060206116a68582860161116e565b9150509250929050565b6000819050919050565b60006116d56116d06116cb846110c2565b6116b0565b6110c2565b9050919050565b60006116e7826116ba565b9050919050565b60006116f9826116dc565b9050919050565b611709816116ee565b82525050565b60006020820190506117246000830184611700565b92915050565b7f556e617574686f72697a65642c2066756e647320636f6e747261637420616c7260008201527f6561647920736574000000000000000000000000000000000000000000000000602082015250565b60006117866028836111d9565b91506117918261172a565b604082019050919050565b600060208201905081810360008301526117b581611779565b9050919050565b6117c58161163a565b81146117d057600080fd5b50565b6000815190506117e2816117bc565b92915050565b6000602082840312156117fe576117fd6110b8565b5b600061180c848285016117d3565b91505092915050565b7f536f7272792c206f6e6c7920686f73706974616c20726570726573656e74617460008201527f697665732063616e2072656a6563740000000000000000000000000000000000602082015250565b6000611871602f836111d9565b915061187c82611815565b604082019050919050565b600060208201905081810360008301526118a081611864565b9050919050565b7f556e61626c6520746f2072656a6563742c2063616d706169676e206e6f74207060008201527f656e64696e670000000000000000000000000000000000000000000000000000602082015250565b60006119036026836111d9565b915061190e826118a7565b604082019050919050565b60006020820190508181036000830152611932816118f6565b9050919050565b7f4e487b7100000000000000000000000000000000000000000000000000000000600052602260045260246000fd5b6000600282049050600182168061198057607f821691505b60208210810361199357611992611939565b5b50919050565b7f4e487b7100000000000000000000000000000000000000000000000000000000600052601160045260246000fd5b60006119d38261114d565b91507fffffffffffffffffffffffffffffffffffffffffffffffffffffffffffffffff8203611a0557611a04611999565b5b600182019050919050565b7f54727920616761696e2c20696e76616c69642074617267657420616d6f756e74600082015250565b6000611a466020836111d9565b9150611a5182611a10565b602082019050919050565b60006020820190508181036000830152611a7581611a39565b9050919050565b7f54727920616761696e2c20696e76616c6964206475726174696f6e0000000000600082015250565b6000611ab2601b836111d9565b9150611abd82611a7c565b602082019050919050565b60006020820190508181036000830152611ae181611aa5565b9050919050565b7f54727920616761696e2c204d65646963616c20446961676e6f7369732068617360008201527f6820726571756972656400000000000000000000000000000000000000000000602082015250565b6000611b44602a836111d9565b9150611b4f82611ae8565b604082019050919050565b60006020820190508181036000830152611b7381611b37565b9050919050565b7f54727920616761696e2c2054726561746d656e7420517561746174696f6e206860008201527f6173682072657175697265640000000000000000000000000000000000000000602082015250565b6000611bd6602c836111d9565b9150611be182611b7a565b604082019050919050565b60006020820190508181036000830152611c0581611bc9565b9050919050565b60008190508160005260206000209050919050565b60006020601f8301049050919050565b600082821b905092915050565b600060088302611c6e7fffffffffffffffffffffffffffffffffffffffffffffffffffffffffffffffff82611c31565b611c788683611c31565b95508019841693508086168417925050509392505050565b6000611cab611ca6611ca18461114d565b6116b0565b61114d565b9050919050565b6000819050919050565b611cc583611c90565b611cd9611cd182611cb2565b848454611c3e565b825550505050565b600090565b611cee611ce1565b611cf9818484611cbc565b505050565b5b81811015611d1d57611d12600082611ce6565b600181019050611cff565b5050565b601f821115611d6257611d3381611c0c565b611d3c84611c21565b81016020851015611d4b578190505b611d5f611d5785611c21565b830182611cfe565b50505b505050565b600082821c905092915050565b6000611d8560001984600802611d67565b1980831691505092915050565b6000611d9e8383611d74565b9150826002028217905092915050565b611db7826111ce565b67ffffffffffffffff811115611dd057611dcf611470565b5b611dda8254611968565b611de5828285611d21565b600060209050601f831160018114611e185760008415611e06578287015190505b611e108582611d92565b865550611e78565b601f198416611e2686611c0c565b60005b82811015611e4e57848901518255600182019150602085019450602081019050611e29565b86831015611e6b5784890151611e67601f891682611d74565b8355505b6001600288020188555050505b505050505050565b6000606082019050611e9560008301866111bf565b8181036020830152611ea78185611225565b90508181036040830152611ebb8184611225565b9050949350505050565b6000611ed08261114d565b9150611edb8361114d565b9250828202611ee98161114d565b91508282048414831517611f0057611eff611999565b5b5092915050565b6000611f128261114d565b9150611f1d8361114d565b9250828201905080821115611f3557611f34611999565b5b92915050565b7f536f7272792c206f6e6c7920686f73706974616c20726570726573656e74617460008201527f697665732063616e20617070726f766500000000000000000000000000000000602082015250565b6000611f976030836111d9565b9150611fa282611f3b565b604082019050919050565b60006020820190508181036000830152611fc681611f8a565b9050919050565b7f556e61626c6520746f20617070726f76652c2063616d706169676e206e6f742060008201527f70656e64696e6700000000000000000000000000000000000000000000000000602082015250565b60006120296027836111d9565b915061203482611fcd565b604082019050919050565b600060208201905081810360008301526120588161201c565b9050919050565b7f556e61626c6520746f20617070726f76652c2063616d706169676e206578706960008201527f7265640000000000000000000000000000000000000000000000000000000000602082015250565b60006120bb6023836111d9565b91506120c68261205f565b604082019050919050565b600060208201905081810360008301526120ea816120ae565b9050919050565b7f556e617574686f72697a65642c20696e76616c696420636f6e7472616374206160008201527f6464726573730000000000000000000000000000000000000000000000000000602082015250565b600061214d6026836111d9565b9150612158826120f1565b604082019050919050565b6000602082019050818103600083015261217c81612140565b905091905056fea2646970667358221220a7facd67712cc32f0a8c0a73fb2a1c4721ed4debd65c173795822546b726acab64736f6c634300081c0033",
  "linkReferences": {},
  "deployedLinkReferences": {}
}