{
  "_format": "hh-sol-artifact-1",
  "contractName": "MediTrustCampaign",
  "sourceName": "contracts/MediTrustCampaign.sol",
  "abi": [
    {
      "inputs": [
        {
          "internalType": "address",
          "name": "roleAddress",
          "type": "address"
        }
      ],
      "stateMutability": "nonpayable",
      "type": "constructor"
    },
    {
      "anonymous": false,
      "inputs": [
        {
          "indexed": true,
          "internalType": "uint256",
          "name": "campaignID",
          "type": "uint256"
        }
      ],
      "name": "CampaignApprove",
      "type": "event"
    },
    {
      "anonymous": false,
      "inputs": [
        {
          "indexed": true,
          "internalType": "uint256",
          "name": "campaignID",
          "type": "uint256"
        }
      ],
      "name": "CampaignComplete",
      "type": "event"
    },
    {
      "anonymous": false,
      "inputs": [
        {
          "indexed": true,
          "internalType": "uint256",
          "name": "campaignID",
          "type": "uint256"
        }
      ],
      "name": "CampaignReject",
      "type": "event"
    },
    {
      "anonymous": false,
      "inputs": [
        {
          "indexed": true,
          "internalType": "uint256",
          "name": "campaignID",
          "type": "uint256"
        },
        {
          "indexed": true,
          "internalType": "address",
          "name": "patient",
          "type": "address"
        },
        {
          "indexed": false,
          "internalType": "uint256",
          "name": "target",
          "type": "uint256"
        },
        {
          "indexed": false,
          "internalType": "string",
          "name": "diagnosisHash",
          "type": "string"
        },
        {
          "indexed": false,
          "internalType": "string",
          "name": "quotationHash",
          "type": "string"
        }
      ],
      "name": "CampaignSubmit",
      "type": "event"
    },
    {
      "inputs": [
        {
          "internalType": "uint256",
          "name": "campaignID",
          "type": "uint256"
        }
      ],
      "name": "approveCampaign",
      "outputs": [],
      "stateMutability": "nonpayable",
      "type": "function"
    },
    {
      "inputs": [],
      "name": "campaignCount",
      "outputs": [
        {
          "internalType": "uint256",
          "name": "",
          "type": "uint256"
        }
      ],
      "stateMutability": "view",
      "type": "function"
    },
    {
      "inputs": [
        {
          "internalType": "uint256",
          "name": "",
          "type": "uint256"
        }
      ],
      "name": "campaigns",
      "outputs": [
        {
          "internalType": "address",
          "name": "patient",
          "type": "address"
        },
        {
          "internalType": "uint256",
          "name": "target",
          "type": "uint256"
        },
        {
          "internalType": "uint256",
          "name": "raised",
          "type": "uint256"
        },
        {
          "internalType": "uint256",
          "name": "duration",
          "type": "uint256"
        },
        {
          "internalType": "string",
          "name": "diagnosisHash",
          "type": "string"
        },
        {
          "internalType": "string",
          "name": "quotationHash",
          "type": "string"
        },
        {
          "internalType": "enum MediTrustCampaign.CampaignStatus",
          "name": "status",
          "type": "uint8"
        },
        {
          "internalType": "uint256",
          "name": "startDate",
          "type": "uint256"
        }
      ],
      "stateMutability": "view",
      "type": "function"
    },
    {
      "inputs": [],
      "name": "fundsAddress",
      "outputs": [
        {
          "internalType": "address",
          "name": "",
          "type": "address"
        }
      ],
      "stateMutability": "view",
      "type": "function"
    },
    {
      "inputs": [],
      "name": "getAllCampaignIDs",
      "outputs": [
        {
          "internalType": "uint256[]",
          "name": "",
          "type": "uint256[]"
        }
      ],
      "stateMutability": "view",
      "type": "function"
    },
    {
      "inputs": [
        {
          "internalType": "uint256",
          "name": "campaignID",
          "type": "uint256"
        }
      ],
      "name": "getCampaign",
      "outputs": [
        {
          "internalType": "address",
          "name": "patient",
          "type": "address"
        },
        {
          "internalType": "uint256",
          "name": "target",
          "type": "uint256"
        },
        {
          "internalType": "uint256",
          "name": "raised",
          "type": "uint256"
        },
        {
          "internalType": "uint256",
          "name": "duration",
          "type": "uint256"
        },
        {
          "internalType": "string",
          "name": "diagnosisHash",
          "type": "string"
        },
        {
          "internalType": "string",
          "name": "quotationHash",
          "type": "string"
        },
        {
          "internalType": "enum MediTrustCampaign.CampaignStatus",
          "name": "status",
          "type": "uint8"
        }
      ],
      "stateMutability": "view",
      "type": "function"
    },
    {
      "inputs": [
        {
          "internalType": "enum MediTrustCampaign.CampaignStatus",
          "name": "status",
          "type": "uint8"
        }
      ],
      "name": "getCampaignCount",
      "outputs": [
        {
          "internalType": "uint256",
          "name": "",
          "type": "uint256"
        }
      ],
      "stateMutability": "view",
      "type": "function"
    },
    {
      "inputs": [
        {
          "internalType": "enum MediTrustCampaign.CampaignStatus",
          "name": "status",
          "type": "uint8"
        }
      ],
      "name": "getCampaignIDs",
      "outputs": [
        {
          "internalType": "uint256[]",
          "name": "",
          "type": "uint256[]"
        }
      ],
      "stateMutability": "view",
      "type": "function"
    },
    {
      "inputs": [],
      "name": "getFundsContract",
      "outputs": [
        {
          "internalType": "address",
          "name": "",
          "type": "address"
        }
      ],
      "stateMutability": "view",
      "type": "function"
    },
    {
      "inputs": [],
      "name": "getTotalRaised",
      "outputs": [
        {
          "internalType": "uint256",
          "name": "",
          "type": "uint256"
        }
      ],
      "stateMutability": "view",
      "type": "function"
    },
    {
      "inputs": [
        {
          "internalType": "uint256",
          "name": "campaignID",
          "type": "uint256"
        }
      ],
      "name": "isCampaignActive",
      "outputs": [
        {
          "internalType": "bool",
          "name": "",
          "type": "bool"
        }
      ],
      "stateMutability": "view",
      "type": "function"
    },
    {
      "inputs": [
        {
          "internalType": "uint256",
          "name": "campaignID",
          "type": "uint256"
        }
      ],
      "name": "isPatient",
      "outputs": [
        {
          "internalType": "bool",
          "name": "",
          "type": "bool"
        }
      ],
      "stateMutability": "view",
      "type": "function"
    },
    {
      "inputs": [
        {
          "internalType": "uint256",
          "name": "campaignID",
          "type": "uint256"
        }
      ],
      "name": "rejectCampaign",
      "outputs": [],
      "stateMutability": "nonpayable",
      "type": "function"
    },
    {
      "inputs": [],
      "name": "roleContract",
      "outputs": [
        {
          "internalType": "contract MediTrustRoles",
          "name": "",
          "type": "address"
        }
      ],
      "stateMutability": "view",
      "type": "function"
    },
    {
      "inputs": [
        {
          "internalType": "address",
          "name": "funds",
          "type": "address"
        }
      ],
      "name": "setFundsContract",
      "outputs": [],
      "stateMutability": "nonpayable",
      "type": "function"
    },
    {
      "inputs": [
        {
          "internalType": "uint256",
          "name": "campaignID",
          "type": "uint256"
        },
        {
          "internalType": "uint256",
          "name": "amount",
          "type": "uint256"
        }
      ],
      "name": "setRaised",
      "outputs": [],
      "stateMutability": "nonpayable",
      "type": "function"
    },
    {
      "inputs": [
        {
          "internalType": "uint256",
          "name": "target",
          "type": "uint256"
        },
        {
          "internalType": "uint256",
          "name": "duration",
          "type": "uint256"
        },
        {
          "internalType": "string",
          "name": "diagnosisHash",
          "type": "string"
        },
        {
          "internalType": "string",
          "name": "quotationHash",
          "type": "string"
        }
      ],
      "name": "submitCampaign",
      "outputs": [],
      "stateMutability": "nonpayable",
      "type": "function"
    }
  ],
  "bytecode": "0x608060405234801561001057600080fd5b50604051612636380380612636833981810160405281019061003291906100db565b806000806101000a81548173ffffffffffffffffffffffffffffffffffffffff021916908373ffffffffffffffffffffffffffffffffffffffff16021790555050610108565b600080fd5b600073ffffffffffffffffffffffffffffffffffffffff82169050919050565b60006100a88261007d565b9050919050565b6100b88161009d565b81146100c357600080fd5b50565b6000815190506100d5816100af565b92915050565b6000602082840312156100f1576100f0610078565b5b60006100ff848285016100c6565b91505092915050565b61251f806101176000396000f3fe608060405234801561001057600080fd5b506004361061010b5760003560e01c80639f550293116100a2578063e2b0820811610071578063e2b08208146102d9578063ee4e1b53146102f7578063effa334c14610313578063f53bded114610343578063f89723b81461035f5761010b565b80639f5502931461023d578063a77ccd6e1461025b578063b9a9298f14610279578063e1e33009146102a95761010b565b80634c16ad04116100de5780634c16ad041461019d5780635598f8cc146101cd5780637274e30d1461020357806399384fd9146102215761010b565b80630161ca7914610110578063034d09da1461012c578063141961bc146101485780632c9932ec1461017f575b600080fd5b61012a60048036038101906101259190611377565b61037d565b005b610146600480360381019061014191906113da565b610452565b005b610162600480360381019061015d91906113da565b610618565b60405161017698979695949392919061152c565b60405180910390f35b61018761079d565b60405161019491906115b8565b60405180910390f35b6101b760048036038101906101b291906115f8565b6107c7565b6040516101c49190611625565b60405180910390f35b6101e760048036038101906101e291906113da565b610854565b6040516101fa9796959493929190611640565b60405180910390f35b61020b6109f5565b6040516102189190611625565b60405180910390f35b61023b600480360381019061023691906117f2565b6109fb565b005b610245610c5d565b6040516102529190611625565b60405180910390f35b610263610caf565b60405161027091906115b8565b60405180910390f35b610293600480360381019061028e91906115f8565b610cd5565b6040516102a0919061194f565b60405180910390f35b6102c360048036038101906102be91906113da565b610dcf565b6040516102d0919061198c565b60405180910390f35b6102e1610e55565b6040516102ee919061194f565b60405180910390f35b610311600480360381019061030c91906113da565b610ee8565b005b61032d600480360381019061032891906113da565b611112565b60405161033a919061198c565b60405180910390f35b61035d600480360381019061035891906119a7565b611180565b005b6103676112e1565b6040516103749190611a46565b60405180910390f35b600073ffffffffffffffffffffffffffffffffffffffff16600160009054906101000a900473ffffffffffffffffffffffffffffffffffffffff1673ffffffffffffffffffffffffffffffffffffffff161461040e576040517f08c379a000000000000000000000000000000000000000000000000000000000815260040161040590611ad3565b60405180910390fd5b80600160006101000a81548173ffffffffffffffffffffffffffffffffffffffff021916908373ffffffffffffffffffffffffffffffffffffffff16021790555050565b60008054906101000a900473ffffffffffffffffffffffffffffffffffffffff1673ffffffffffffffffffffffffffffffffffffffff16637667984d336040518263ffffffff1660e01b81526004016104ab91906115b8565b602060405180830381865afa1580156104c8573d6000803e3d6000fd5b505050506040513d601f19601f820116820180604052508101906104ec9190611b1f565b61052b576040517f08c379a000000000000000000000000000000000000000000000000000000000815260040161052290611bbe565b60405180910390fd5b600060026000838152602001908152602001600020905060006003811115610556576105556114b5565b5b8160060160009054906101000a900460ff16600381111561057a576105796114b5565b5b146105ba576040517f08c379a00000000000000000000000000000000000000000000000000000000081526004016105b190611c50565b60405180910390fd5b60028160060160006101000a81548160ff021916908360038111156105e2576105e16114b5565b5b0217905550817fda5aab8af1d17b76a11bb897fbd425a6c81bc66c59a3549e52622c5336fa834160405160405180910390a25050565b60026020528060005260406000206000915090508060000160009054906101000a900473ffffffffffffffffffffffffffffffffffffffff169080600101549080600201549080600301549080600401805461067390611c9f565b80601f016020809104026020016040519081016040528092919081815260200182805461069f90611c9f565b80156106ec5780601f106106c1576101008083540402835291602001916106ec565b820191906000526020600020905b8154815290600101906020018083116106cf57829003601f168201915b50505050509080600501805461070190611c9f565b80601f016020809104026020016040519081016040528092919081815260200182805461072d90611c9f565b801561077a5780601f1061074f5761010080835404028352916020019161077a565b820191906000526020600020905b81548152906001019060200180831161075d57829003601f168201915b5050505050908060060160009054906101000a900460ff16908060070154905088565b6000600160009054906101000a900473ffffffffffffffffffffffffffffffffffffffff16905090565b6000806000905060005b600354811161084a578360038111156107ed576107ec6114b5565b5b6002600083815260200190815260200160002060060160009054906101000a900460ff166003811115610823576108226114b5565b5b0361083757818061083390611cff565b9250505b808061084290611cff565b9150506107d1565b5080915050919050565b600080600080606080600080600260008a815260200190815260200160002090508060000160009054906101000a900473ffffffffffffffffffffffffffffffffffffffff1681600101548260020154836003015484600401856005018660060160009054906101000a900460ff168280546108cf90611c9f565b80601f01602080910402602001604051908101604052809291908181526020018280546108fb90611c9f565b80156109485780601f1061091d57610100808354040283529160200191610948565b820191906000526020600020905b81548152906001019060200180831161092b57829003601f168201915b5050505050925081805461095b90611c9f565b80601f016020809104026020016040519081016040528092919081815260200182805461098790611c9f565b80156109d45780601f106109a9576101008083540402835291602001916109d4565b820191906000526020600020905b8154815290600101906020018083116109b757829003601f168201915b50505050509150975097509750975097509750975050919395979092949650565b60035481565b60008411610a3e576040517f08c379a0000000000000000000000000000000000000000000000000000000008152600401610a3590611d93565b60405180910390fd5b600083118015610a50575061016d8311155b610a8f576040517f08c379a0000000000000000000000000000000000000000000000000000000008152600401610a8690611dff565b60405180910390fd5b6000825111610ad3576040517f08c379a0000000000000000000000000000000000000000000000000000000008152600401610aca90611e91565b60405180910390fd5b6000815111610b17576040517f08c379a0000000000000000000000000000000000000000000000000000000008152600401610b0e90611f23565b60405180910390fd5b600060036000815480929190610b2c90611cff565b9190505590506000600260008381526020019081526020016000209050338160000160006101000a81548173ffffffffffffffffffffffffffffffffffffffff021916908373ffffffffffffffffffffffffffffffffffffffff1602179055508581600101819055506000816002018190555084816003018190555083816004019081610bb991906120e5565b5082816005019081610bcb91906120e5565b5060008160060160006101000a81548160ff02191690836003811115610bf457610bf36114b5565b5b02179055504281600701819055503373ffffffffffffffffffffffffffffffffffffffff16827ff77e2cc7bc169bf4a77704aeff697782ed80d754f8fd942f5ae2cf644b2442e5888787604051610c4d939291906121b7565b60405180910390a3505050505050565b6000806000905060005b6003548111610ca757600260008281526020019081526020016000206002015482610c9291906121fc565b91508080610c9f90611cff565b915050610c67565b508091505090565b600160009054906101000a900473ffffffffffffffffffffffffffffffffffffffff1681565b60606000610ce2836107c7565b67ffffffffffffffff811115610cfb57610cfa6116c7565b5b604051908082528060200260200182016040528015610d295781602001602082028036833780820191505090505b5090506000805b600354811015610dc457846003811115610d4d57610d4c6114b5565b5b6002600083815260200190815260200160002060060160009054906101000a900460ff166003811115610d8357610d826114b5565b5b03610db75780838381518110610d9c57610d9b612230565b5b6020026020010181815250508180610db390611cff565b9250505b8080600101915050610d30565b508192505050919050565b60008060026000848152602001908152602001600020905060016003811115610dfb57610dfa6114b5565b5b8160060160009054906101000a900460ff166003811115610e1f57610e1e6114b5565b5b148015610e4d5750620151808160030154610e3a919061225f565b8160070154610e4991906121fc565b4211155b915050919050565b6060600060035467ffffffffffffffff811115610e7557610e746116c7565b5b604051908082528060200260200182016040528015610ea35781602001602082028036833780820191505090505b50905060005b600354811015610ee05780828281518110610ec757610ec6612230565b5b6020026020010181815250508080600101915050610ea9565b508091505090565b60008054906101000a900473ffffffffffffffffffffffffffffffffffffffff1673ffffffffffffffffffffffffffffffffffffffff16637667984d336040518263ffffffff1660e01b8152600401610f4191906115b8565b602060405180830381865afa158015610f5e573d6000803e3d6000fd5b505050506040513d601f19601f82011682018060405250810190610f829190611b1f565b610fc1576040517f08c379a0000000000000000000000000000000000000000000000000000000008152600401610fb890612313565b60405180910390fd5b600060026000838152602001908152602001600020905060006003811115610fec57610feb6114b5565b5b8160060160009054906101000a900460ff1660038111156110105761100f6114b5565b5b14611050576040517f08c379a0000000000000000000000000000000000000000000000000000000008152600401611047906123a5565b60405180910390fd5b620151808160030154611063919061225f565b816007015461107291906121fc565b4211156110b4576040517f08c379a00000000000000000000000000000000000000000000000000000000081526004016110ab90612437565b60405180910390fd5b60018160060160006101000a81548160ff021916908360038111156110dc576110db6114b5565b5b0217905550817fb598c2ae1ba3b00520d1d2a92173108bc8935593bfa8bac8bf7facfe767528a860405160405180910390a25050565b60006002600083815260200190815260200160002060000160009054906101000a900473ffffffffffffffffffffffffffffffffffffffff1673ffffffffffffffffffffffffffffffffffffffff163373ffffffffffffffffffffffffffffffffffffffff16149050919050565b600160009054906101000a900473ffffffffffffffffffffffffffffffffffffffff1673ffffffffffffffffffffffffffffffffffffffff163373ffffffffffffffffffffffffffffffffffffffff1614611210576040517f08c379a0000000000000000000000000000000000000000000000000000000008152600401611207906124c9565b60405180910390fd5b8060026000848152602001908152602001600020600201600082825461123691906121fc565b9250508190555060026000838152602001908152602001600020600101546002600084815260200190815260200160002060020154106112dd5760036002600084815260200190815260200160002060060160006101000a81548160ff021916908360038111156112aa576112a96114b5565b5b0217905550817f7c9ef824eb9b2b83356339e0f54e1b1d33beaa78fbfcecf1f6b92a93d150037f60405160405180910390a25b5050565b60008054906101000a900473ffffffffffffffffffffffffffffffffffffffff1681565b6000604051905090565b600080fd5b600080fd5b600073ffffffffffffffffffffffffffffffffffffffff82169050919050565b600061134482611319565b9050919050565b61135481611339565b811461135f57600080fd5b50565b6000813590506113718161134b565b92915050565b60006020828403121561138d5761138c61130f565b5b600061139b84828501611362565b91505092915050565b6000819050919050565b6113b7816113a4565b81146113c257600080fd5b50565b6000813590506113d4816113ae565b92915050565b6000602082840312156113f0576113ef61130f565b5b60006113fe848285016113c5565b91505092915050565b61141081611339565b82525050565b61141f816113a4565b82525050565b600081519050919050565b600082825260208201905092915050565b60005b8381101561145f578082015181840152602081019050611444565b60008484015250505050565b6000601f19601f8301169050919050565b600061148782611425565b6114918185611430565b93506114a1818560208601611441565b6114aa8161146b565b840191505092915050565b7f4e487b7100000000000000000000000000000000000000000000000000000000600052602160045260246000fd5b600481106114f5576114f46114b5565b5b50565b6000819050611506826114e4565b919050565b6000611516826114f8565b9050919050565b6115268161150b565b82525050565b600061010082019050611542600083018b611407565b61154f602083018a611416565b61155c6040830189611416565b6115696060830188611416565b818103608083015261157b818761147c565b905081810360a083015261158f818661147c565b905061159e60c083018561151d565b6115ab60e0830184611416565b9998505050505050505050565b60006020820190506115cd6000830184611407565b92915050565b600481106115e057600080fd5b50565b6000813590506115f2816115d3565b92915050565b60006020828403121561160e5761160d61130f565b5b600061161c848285016115e3565b91505092915050565b600060208201905061163a6000830184611416565b92915050565b600060e082019050611655600083018a611407565b6116626020830189611416565b61166f6040830188611416565b61167c6060830187611416565b818103608083015261168e818661147c565b905081810360a08301526116a2818561147c565b90506116b160c083018461151d565b98975050505050505050565b600080fd5b600080fd5b7f4e487b7100000000000000000000000000000000000000000000000000000000600052604160045260246000fd5b6116ff8261146b565b810181811067ffffffffffffffff8211171561171e5761171d6116c7565b5b80604052505050565b6000611731611305565b905061173d82826116f6565b919050565b600067ffffffffffffffff82111561175d5761175c6116c7565b5b6117668261146b565b9050602081019050919050565b82818337600083830152505050565b600061179561179084611742565b611727565b9050828152602081018484840111156117b1576117b06116c2565b5b6117bc848285611773565b509392505050565b600082601f8301126117d9576117d86116bd565b5b81356117e9848260208601611782565b91505092915050565b6000806000806080858703121561180c5761180b61130f565b5b600061181a878288016113c5565b945050602061182b878288016113c5565b935050604085013567ffffffffffffffff81111561184c5761184b611314565b5b611858878288016117c4565b925050606085013567ffffffffffffffff81111561187957611878611314565b5b611885878288016117c4565b91505092959194509250565b600081519050919050565b600082825260208201905092915050565b6000819050602082019050919050565b6118c6816113a4565b82525050565b60006118d883836118bd565b60208301905092915050565b6000602082019050919050565b60006118fc82611891565b611906818561189c565b9350611911836118ad565b8060005b8381101561194257815161192988826118cc565b9750611934836118e4565b925050600181019050611915565b5085935050505092915050565b6000602082019050818103600083015261196981846118f1565b905092915050565b60008115159050919050565b61198681611971565b82525050565b60006020820190506119a1600083018461197d565b92915050565b600080604083850312156119be576119bd61130f565b5b60006119cc858286016113c5565b92505060206119dd858286016113c5565b9150509250929050565b6000819050919050565b6000611a0c611a07611a0284611319565b6119e7565b611319565b9050919050565b6000611a1e826119f1565b9050919050565b6000611a3082611a13565b9050919050565b611a4081611a25565b82525050565b6000602082019050611a5b6000830184611a37565b92915050565b7f556e617574686f72697a65642c2066756e647320636f6e747261637420616c7260008201527f6561647920736574000000000000000000000000000000000000000000000000602082015250565b6000611abd602883611430565b9150611ac882611a61565b604082019050919050565b60006020820190508181036000830152611aec81611ab0565b9050919050565b611afc81611971565b8114611b0757600080fd5b50565b600081519050611b1981611af3565b92915050565b600060208284031215611b3557611b3461130f565b5b6000611b4384828501611b0a565b91505092915050565b7f536f7272792c206f6e6c7920686f73706974616c20726570726573656e74617460008201527f697665732063616e2072656a6563740000000000000000000000000000000000602082015250565b6000611ba8602f83611430565b9150611bb382611b4c565b604082019050919050565b60006020820190508181036000830152611bd781611b9b565b9050919050565b7f556e61626c6520746f2072656a6563742c2063616d706169676e206e6f74207060008201527f656e64696e670000000000000000000000000000000000000000000000000000602082015250565b6000611c3a602683611430565b9150611c4582611bde565b604082019050919050565b60006020820190508181036000830152611c6981611c2d565b9050919050565b7f4e487b7100000000000000000000000000000000000000000000000000000000600052602260045260246000fd5b60006002820490506001821680611cb757607f821691505b602082108103611cca57611cc9611c70565b5b50919050565b7f4e487b7100000000000000000000000000000000000000000000000000000000600052601160045260246000fd5b6000611d0a826113a4565b91507fffffffffffffffffffffffffffffffffffffffffffffffffffffffffffffffff8203611d3c57611d3b611cd0565b5b600182019050919050565b7f54727920616761696e2c20696e76616c69642074617267657420616d6f756e74600082015250565b6000611d7d602083611430565b9150611d8882611d47565b602082019050919050565b60006020820190508181036000830152611dac81611d70565b9050919050565b7f54727920616761696e2c20696e76616c6964206475726174696f6e0000000000600082015250565b6000611de9601b83611430565b9150611df482611db3565b602082019050919050565b60006020820190508181036000830152611e1881611ddc565b9050919050565b7f54727920616761696e2c204d65646963616c20446961676e6f7369732068617360008201527f6820726571756972656400000000000000000000000000000000000000000000602082015250565b6000611e7b602a83611430565b9150611e8682611e1f565b604082019050919050565b60006020820190508181036000830152611eaa81611e6e565b9050919050565b7f54727920616761696e2c2054726561746d656e7420517561746174696f6e206860008201527f6173682072657175697265640000000000000000000000000000000000000000602082015250565b6000611f0d602c83611430565b9150611f1882611eb1565b604082019050919050565b60006020820190508181036000830152611f3c81611f00565b9050919050565b60008190508160005260206000209050919050565b60006020601f8301049050919050565b600082821b905092915050565b600060088302611fa57fffffffffffffffffffffffffffffffffffffffffffffffffffffffffffffffff82611f68565b611faf8683611f68565b95508019841693508086168417925050509392505050565b6000611fe2611fdd611fd8846113a4565b6119e7565b6113a4565b9050919050565b6000819050919050565b611ffc83611fc7565b61201061200882611fe9565b848454611f75565b825550505050565b600090565b612025612018565b612030818484611ff3565b505050565b5b818110156120545761204960008261201d565b600181019050612036565b5050565b601f8211156120995761206a81611f43565b61207384611f58565b81016020851015612082578190505b61209661208e85611f58565b830182612035565b50505b505050565b600082821c905092915050565b60006120bc6000198460080261209e565b1980831691505092915050565b60006120d583836120ab565b9150826002028217905092915050565b6120ee82611425565b67ffffffffffffffff811115612107576121066116c7565b5b6121118254611c9f565b61211c828285612058565b600060209050601f83116001811461214f576000841561213d578287015190505b61214785826120c9565b8655506121af565b601f19841661215d86611f43565b60005b8281101561218557848901518255600182019150602085019450602081019050612160565b868310156121a2578489015161219e601f8916826120ab565b8355505b6001600288020188555050505b505050505050565b60006060820190506121cc6000830186611416565b81810360208301526121de818561147c565b905081810360408301526121f2818461147c565b9050949350505050565b6000612207826113a4565b9150612212836113a4565b925082820190508082111561222a57612229611cd0565b5b92915050565b7f4e487b7100000000000000000000000000000000000000000000000000000000600052603260045260246000fd5b600061226a826113a4565b9150612275836113a4565b9250828202612283816113a4565b9150828204841483151761229a57612299611cd0565b5b5092915050565b7f536f7272792c206f6e6c7920686f73706974616c20726570726573656e74617460008201527f697665732063616e20617070726f766500000000000000000000000000000000602082015250565b60006122fd603083611430565b9150612308826122a1565b604082019050919050565b6000602082019050818103600083015261232c816122f0565b9050919050565b7f556e61626c6520746f20617070726f76652c2063616d706169676e206e6f742060008201527f70656e64696e6700000000000000000000000000000000000000000000000000602082015250565b600061238f602783611430565b915061239a82612333565b604082019050919050565b600060208201905081810360008301526123be81612382565b9050919050565b7f556e61626c6520746f20617070726f76652c2063616d706169676e206578706960008201527f7265640000000000000000000000000000000000000000000000000000000000602082015250565b6000612421602383611430565b915061242c826123c5565b604082019050919050565b6000602082019050818103600083015261245081612414565b9050919050565b7f556e617574686f72697a65642c20696e76616c696420636f6e7472616374206160008201527f6464726573730000000000000000000000000000000000000000000000000000602082015250565b60006124b3602683611430565b91506124be82612457565b604082019050919050565b600060208201905081810360008301526124e2816124a6565b905091905056fea2646970667358221220cb155ffcd769696fb31f2335d332d866aa3677e923d02c0f154a92b6561639a464736f6c634300081c0033",
  "linkReferences": {},
  "deployedLinkReferences": {}
}