{
  "_format": "hh-sol-artifact-1",
  "contractName": "MediTrustCampaign",
  "sourceName": "contracts/MediTrustCampaign.sol",
  "abi": [
    {
      "inputs": [
        {
          "internalType": "address",
          "name": "roleAddress",
          "type": "address"
        }
      ],
      "stateMutability": "nonpayable",
      "type": "constructor"
    },
    {
      "anonymous": false,
      "inputs": [
        {
          "indexed": true,
          "internalType": "uint256",
          "name": "campaignID",
          "type": "uint256"
        }
      ],
      "name": "CampaignApprove",
      "type": "event"
    },
    {
      "anonymous": false,
      "inputs": [
        {
          "indexed": true,
          "internalType": "uint256",
          "name": "campaignID",
          "type": "uint256"
        }
      ],
      "name": "CampaignComplete",
      "type": "event"
    },
    {
      "anonymous": false,
      "inputs": [
        {
          "indexed": true,
          "internalType": "uint256",
          "name": "campaignID",
          "type": "uint256"
        },
        {
          "indexed": false,
          "internalType": "string",
          "name": "reason",
          "type": "string"
        }
      ],
      "name": "CampaignReject",
      "type": "event"
    },
    {
      "anonymous": false,
      "inputs": [
        {
          "indexed": true,
          "internalType": "uint256",
          "name": "campaignID",
          "type": "uint256"
        },
        {
          "indexed": true,
          "internalType": "address",
          "name": "patient",
          "type": "address"
        },
        {
          "indexed": false,
          "internalType": "uint256",
          "name": "target",
          "type": "uint256"
        },
        {
          "indexed": false,
          "internalType": "string",
          "name": "ipfsHash",
          "type": "string"
        }
      ],
      "name": "CampaignSubmit",
      "type": "event"
    },
    {
      "inputs": [
        {
          "internalType": "uint256",
          "name": "campaignID",
          "type": "uint256"
        }
      ],
      "name": "approveCampaign",
      "outputs": [],
      "stateMutability": "nonpayable",
      "type": "function"
    },
    {
      "inputs": [],
      "name": "campaignCount",
      "outputs": [
        {
          "internalType": "uint256",
          "name": "",
          "type": "uint256"
        }
      ],
      "stateMutability": "view",
      "type": "function"
    },
    {
      "inputs": [
        {
          "internalType": "uint256",
          "name": "",
          "type": "uint256"
        }
      ],
      "name": "campaigns",
      "outputs": [
        {
          "internalType": "address",
          "name": "patient",
          "type": "address"
        },
        {
          "internalType": "uint256",
          "name": "target",
          "type": "uint256"
        },
        {
          "internalType": "uint256",
          "name": "raised",
          "type": "uint256"
        },
        {
          "internalType": "uint256",
          "name": "duration",
          "type": "uint256"
        },
        {
          "internalType": "string",
          "name": "ipfsHash",
          "type": "string"
        },
        {
          "internalType": "enum MediTrustCampaign.CampaignStatus",
          "name": "status",
          "type": "uint8"
        },
        {
          "internalType": "uint256",
          "name": "startDate",
          "type": "uint256"
        }
      ],
      "stateMutability": "view",
      "type": "function"
    },
    {
      "inputs": [],
      "name": "fundsAddress",
      "outputs": [
        {
          "internalType": "address",
          "name": "",
          "type": "address"
        }
      ],
      "stateMutability": "view",
      "type": "function"
    },
    {
      "inputs": [
        {
          "internalType": "uint256",
          "name": "campaignID",
          "type": "uint256"
        }
      ],
      "name": "getCampaign",
      "outputs": [
        {
          "internalType": "address",
          "name": "patient",
          "type": "address"
        },
        {
          "internalType": "uint256",
          "name": "target",
          "type": "uint256"
        },
        {
          "internalType": "uint256",
          "name": "raised",
          "type": "uint256"
        },
        {
          "internalType": "uint256",
          "name": "duration",
          "type": "uint256"
        },
        {
          "internalType": "string",
          "name": "ipfsHash",
          "type": "string"
        },
        {
          "internalType": "enum MediTrustCampaign.CampaignStatus",
          "name": "status",
          "type": "uint8"
        },
        {
          "internalType": "uint256",
          "name": "startDate",
          "type": "uint256"
        }
      ],
      "stateMutability": "view",
      "type": "function"
    },
    {
      "inputs": [],
      "name": "getFundsContract",
      "outputs": [
        {
          "internalType": "address",
          "name": "",
          "type": "address"
        }
      ],
      "stateMutability": "view",
      "type": "function"
    },
    {
      "inputs": [
        {
          "internalType": "uint256",
          "name": "campaignID",
          "type": "uint256"
        }
      ],
      "name": "isCampaignActive",
      "outputs": [
        {
          "internalType": "bool",
          "name": "",
          "type": "bool"
        }
      ],
      "stateMutability": "view",
      "type": "function"
    },
    {
      "inputs": [
        {
          "internalType": "uint256",
          "name": "campaignID",
          "type": "uint256"
        }
      ],
      "name": "isPatient",
      "outputs": [
        {
          "internalType": "bool",
          "name": "",
          "type": "bool"
        }
      ],
      "stateMutability": "view",
      "type": "function"
    },
    {
      "inputs": [
        {
          "internalType": "uint256",
          "name": "campaignID",
          "type": "uint256"
        },
        {
          "internalType": "string",
          "name": "reason",
          "type": "string"
        }
      ],
      "name": "rejectCampaign",
      "outputs": [],
      "stateMutability": "nonpayable",
      "type": "function"
    },
    {
      "inputs": [],
      "name": "roleContract",
      "outputs": [
        {
          "internalType": "contract MediTrustRoles",
          "name": "",
          "type": "address"
        }
      ],
      "stateMutability": "view",
      "type": "function"
    },
    {
      "inputs": [
        {
          "internalType": "address",
          "name": "funds",
          "type": "address"
        }
      ],
      "name": "setFundsContract",
      "outputs": [],
      "stateMutability": "nonpayable",
      "type": "function"
    },
    {
      "inputs": [
        {
          "internalType": "uint256",
          "name": "campaignID",
          "type": "uint256"
        },
        {
          "internalType": "uint256",
          "name": "amount",
          "type": "uint256"
        }
      ],
      "name": "setRaised",
      "outputs": [],
      "stateMutability": "nonpayable",
      "type": "function"
    },
    {
      "inputs": [
        {
          "internalType": "uint256",
          "name": "target",
          "type": "uint256"
        },
        {
          "internalType": "uint256",
          "name": "duration",
          "type": "uint256"
        },
        {
          "internalType": "string",
          "name": "ipfsHash",
          "type": "string"
        }
      ],
      "name": "submitCampaign",
      "outputs": [
        {
          "internalType": "uint256",
          "name": "",
          "type": "uint256"
        }
      ],
      "stateMutability": "nonpayable",
      "type": "function"
    }
  ],
  "bytecode": "0x608060405234801561001057600080fd5b50604051611ea1380380611ea1833981810160405281019061003291906100db565b806000806101000a81548173ffffffffffffffffffffffffffffffffffffffff021916908373ffffffffffffffffffffffffffffffffffffffff16021790555050610108565b600080fd5b600073ffffffffffffffffffffffffffffffffffffffff82169050919050565b60006100a88261007d565b9050919050565b6100b88161009d565b81146100c357600080fd5b50565b6000815190506100d5816100af565b92915050565b6000602082840312156100f1576100f0610078565b5b60006100ff848285016100c6565b91505092915050565b611d8a806101176000396000f3fe608060405234801561001057600080fd5b50600436106100cf5760003560e01c8063e1e330091161008c578063effa334c11610066578063effa334c1461021e578063f02319001461024e578063f53bded11461027e578063f89723b81461029a576100cf565b8063e1e33009146101b6578063e8550f8e146101e6578063ee4e1b5314610202576100cf565b80630161ca79146100d4578063141961bc146100f05780632c9932ec146101265780635598f8cc146101445780637274e30d1461017a578063a77ccd6e14610198575b600080fd5b6100ee60048036038101906100e99190610ee7565b6102b8565b005b61010a60048036038101906101059190610f4a565b61038d565b60405161011d979695949392919061109c565b60405180910390f35b61012e610484565b60405161013b9190611112565b60405180910390f35b61015e60048036038101906101599190610f4a565b6104ae565b604051610171979695949392919061109c565b60405180910390f35b6101826105c5565b60405161018f919061112d565b60405180910390f35b6101a06105cb565b6040516101ad9190611112565b60405180910390f35b6101d060048036038101906101cb9190610f4a565b6105f1565b6040516101dd9190611163565b60405180910390f35b61020060048036038101906101fb91906112b3565b610677565b005b61021c60048036038101906102179190610f4a565b610849565b005b61023860048036038101906102339190610f4a565b610a73565b6040516102459190611163565b60405180910390f35b6102686004803603810190610263919061130f565b610ae1565b604051610275919061112d565b60405180910390f35b6102986004803603810190610293919061137e565b610cf0565b005b6102a2610e51565b6040516102af919061141d565b60405180910390f35b600073ffffffffffffffffffffffffffffffffffffffff16600160009054906101000a900473ffffffffffffffffffffffffffffffffffffffff1673ffffffffffffffffffffffffffffffffffffffff1614610349576040517f08c379a0000000000000000000000000000000000000000000000000000000008152600401610340906114aa565b60405180910390fd5b80600160006101000a81548173ffffffffffffffffffffffffffffffffffffffff021916908373ffffffffffffffffffffffffffffffffffffffff16021790555050565b60026020528060005260406000206000915090508060000160009054906101000a900473ffffffffffffffffffffffffffffffffffffffff16908060010154908060020154908060030154908060040180546103e8906114f9565b80601f0160208091040260200160405190810160405280929190818152602001828054610414906114f9565b80156104615780601f1061043657610100808354040283529160200191610461565b820191906000526020600020905b81548152906001019060200180831161044457829003601f168201915b5050505050908060050160009054906101000a900460ff16908060060154905087565b6000600160009054906101000a900473ffffffffffffffffffffffffffffffffffffffff16905090565b60008060008060606000806000600260008a815260200190815260200160002090508060000160009054906101000a900473ffffffffffffffffffffffffffffffffffffffff16816001015482600201548360030154846004018560050160009054906101000a900460ff16866006015482805461052b906114f9565b80601f0160208091040260200160405190810160405280929190818152602001828054610557906114f9565b80156105a45780601f10610579576101008083540402835291602001916105a4565b820191906000526020600020905b81548152906001019060200180831161058757829003601f168201915b50505050509250975097509750975097509750975050919395979092949650565b60035481565b600160009054906101000a900473ffffffffffffffffffffffffffffffffffffffff1681565b6000806002600084815260200190815260200160002090506001600381111561061d5761061c611025565b5b8160050160009054906101000a900460ff16600381111561064157610640611025565b5b14801561066f575062015180816003015461065c9190611559565b816006015461066b919061159b565b4211155b915050919050565b60008054906101000a900473ffffffffffffffffffffffffffffffffffffffff1673ffffffffffffffffffffffffffffffffffffffff16637667984d336040518263ffffffff1660e01b81526004016106d09190611112565b602060405180830381865afa1580156106ed573d6000803e3d6000fd5b505050506040513d601f19601f8201168201806040525081019061071191906115fb565b610750576040517f08c379a00000000000000000000000000000000000000000000000000000000081526004016107479061169a565b60405180910390fd5b60006002600084815260200190815260200160002090506000600381111561077b5761077a611025565b5b8160050160009054906101000a900460ff16600381111561079f5761079e611025565b5b146107df576040517f08c379a00000000000000000000000000000000000000000000000000000000081526004016107d69061172c565b60405180910390fd5b60028160050160006101000a81548160ff0219169083600381111561080757610806611025565b5b0217905550827f49053c9f7438b892a9700a9d154c64ef9a1de0a33a0254a500e2c8ba15b279508360405161083c919061174c565b60405180910390a2505050565b60008054906101000a900473ffffffffffffffffffffffffffffffffffffffff1673ffffffffffffffffffffffffffffffffffffffff16637667984d336040518263ffffffff1660e01b81526004016108a29190611112565b602060405180830381865afa1580156108bf573d6000803e3d6000fd5b505050506040513d601f19601f820116820180604052508101906108e391906115fb565b610922576040517f08c379a0000000000000000000000000000000000000000000000000000000008152600401610919906117e0565b60405180910390fd5b60006002600083815260200190815260200160002090506000600381111561094d5761094c611025565b5b8160050160009054906101000a900460ff16600381111561097157610970611025565b5b146109b1576040517f08c379a00000000000000000000000000000000000000000000000000000000081526004016109a89061172c565b60405180910390fd5b6201518081600301546109c49190611559565b81600601546109d3919061159b565b421115610a15576040517f08c379a0000000000000000000000000000000000000000000000000000000008152600401610a0c90611872565b60405180910390fd5b60018160050160006101000a81548160ff02191690836003811115610a3d57610a3c611025565b5b0217905550817fb598c2ae1ba3b00520d1d2a92173108bc8935593bfa8bac8bf7facfe767528a860405160405180910390a25050565b60006002600083815260200190815260200160002060000160009054906101000a900473ffffffffffffffffffffffffffffffffffffffff1673ffffffffffffffffffffffffffffffffffffffff163373ffffffffffffffffffffffffffffffffffffffff16149050919050565b6000808411610b25576040517f08c379a0000000000000000000000000000000000000000000000000000000008152600401610b1c906118de565b60405180910390fd5b600083118015610b37575061016d8311155b610b76576040517f08c379a0000000000000000000000000000000000000000000000000000000008152600401610b6d9061194a565b60405180910390fd5b6000825111610bba576040517f08c379a0000000000000000000000000000000000000000000000000000000008152600401610bb1906119b6565b60405180910390fd5b600060036000815480929190610bcf906119d6565b9190505590506000600260008381526020019081526020016000209050338160000160006101000a81548173ffffffffffffffffffffffffffffffffffffffff021916908373ffffffffffffffffffffffffffffffffffffffff1602179055508581600101819055506000816002018190555084816003018190555083816004019081610c5c9190611bc0565b5060008160050160006101000a81548160ff02191690836003811115610c8557610c84611025565b5b02179055504281600601819055503373ffffffffffffffffffffffffffffffffffffffff16827f804da53c8d140334345d2fd5e26293bc6fdfa86897c5872ae9486d833b06df758887604051610cdc929190611c92565b60405180910390a381925050509392505050565b600160009054906101000a900473ffffffffffffffffffffffffffffffffffffffff1673ffffffffffffffffffffffffffffffffffffffff163373ffffffffffffffffffffffffffffffffffffffff1614610d80576040517f08c379a0000000000000000000000000000000000000000000000000000000008152600401610d7790611d34565b60405180910390fd5b80600260008481526020019081526020016000206002016000828254610da6919061159b565b925050819055506002600083815260200190815260200160002060010154600260008481526020019081526020016000206002015410610e4d5760036002600084815260200190815260200160002060050160006101000a81548160ff02191690836003811115610e1a57610e19611025565b5b0217905550817f7c9ef824eb9b2b83356339e0f54e1b1d33beaa78fbfcecf1f6b92a93d150037f60405160405180910390a25b5050565b60008054906101000a900473ffffffffffffffffffffffffffffffffffffffff1681565b6000604051905090565b600080fd5b600080fd5b600073ffffffffffffffffffffffffffffffffffffffff82169050919050565b6000610eb482610e89565b9050919050565b610ec481610ea9565b8114610ecf57600080fd5b50565b600081359050610ee181610ebb565b92915050565b600060208284031215610efd57610efc610e7f565b5b6000610f0b84828501610ed2565b91505092915050565b6000819050919050565b610f2781610f14565b8114610f3257600080fd5b50565b600081359050610f4481610f1e565b92915050565b600060208284031215610f6057610f5f610e7f565b5b6000610f6e84828501610f35565b91505092915050565b610f8081610ea9565b82525050565b610f8f81610f14565b82525050565b600081519050919050565b600082825260208201905092915050565b60005b83811015610fcf578082015181840152602081019050610fb4565b60008484015250505050565b6000601f19601f8301169050919050565b6000610ff782610f95565b6110018185610fa0565b9350611011818560208601610fb1565b61101a81610fdb565b840191505092915050565b7f4e487b7100000000000000000000000000000000000000000000000000000000600052602160045260246000fd5b6004811061106557611064611025565b5b50565b600081905061107682611054565b919050565b600061108682611068565b9050919050565b6110968161107b565b82525050565b600060e0820190506110b1600083018a610f77565b6110be6020830189610f86565b6110cb6040830188610f86565b6110d86060830187610f86565b81810360808301526110ea8186610fec565b90506110f960a083018561108d565b61110660c0830184610f86565b98975050505050505050565b60006020820190506111276000830184610f77565b92915050565b60006020820190506111426000830184610f86565b92915050565b60008115159050919050565b61115d81611148565b82525050565b60006020820190506111786000830184611154565b92915050565b600080fd5b600080fd5b7f4e487b7100000000000000000000000000000000000000000000000000000000600052604160045260246000fd5b6111c082610fdb565b810181811067ffffffffffffffff821117156111df576111de611188565b5b80604052505050565b60006111f2610e75565b90506111fe82826111b7565b919050565b600067ffffffffffffffff82111561121e5761121d611188565b5b61122782610fdb565b9050602081019050919050565b82818337600083830152505050565b600061125661125184611203565b6111e8565b90508281526020810184848401111561127257611271611183565b5b61127d848285611234565b509392505050565b600082601f83011261129a5761129961117e565b5b81356112aa848260208601611243565b91505092915050565b600080604083850312156112ca576112c9610e7f565b5b60006112d885828601610f35565b925050602083013567ffffffffffffffff8111156112f9576112f8610e84565b5b61130585828601611285565b9150509250929050565b60008060006060848603121561132857611327610e7f565b5b600061133686828701610f35565b935050602061134786828701610f35565b925050604084013567ffffffffffffffff81111561136857611367610e84565b5b61137486828701611285565b9150509250925092565b6000806040838503121561139557611394610e7f565b5b60006113a385828601610f35565b92505060206113b485828601610f35565b9150509250929050565b6000819050919050565b60006113e36113de6113d984610e89565b6113be565b610e89565b9050919050565b60006113f5826113c8565b9050919050565b6000611407826113ea565b9050919050565b611417816113fc565b82525050565b6000602082019050611432600083018461140e565b92915050565b7f556e617574686f72697a65642c2066756e647320636f6e747261637420616c7260008201527f6561647920736574000000000000000000000000000000000000000000000000602082015250565b6000611494602883610fa0565b915061149f82611438565b604082019050919050565b600060208201905081810360008301526114c381611487565b9050919050565b7f4e487b7100000000000000000000000000000000000000000000000000000000600052602260045260246000fd5b6000600282049050600182168061151157607f821691505b602082108103611524576115236114ca565b5b50919050565b7f4e487b7100000000000000000000000000000000000000000000000000000000600052601160045260246000fd5b600061156482610f14565b915061156f83610f14565b925082820261157d81610f14565b915082820484148315176115945761159361152a565b5b5092915050565b60006115a682610f14565b91506115b183610f14565b92508282019050808211156115c9576115c861152a565b5b92915050565b6115d881611148565b81146115e357600080fd5b50565b6000815190506115f5816115cf565b92915050565b60006020828403121561161157611610610e7f565b5b600061161f848285016115e6565b91505092915050565b7f536f7272792c206f6e6c7920686f73706974616c20726570726573656e74617460008201527f697665732063616e2072656a6563740000000000000000000000000000000000602082015250565b6000611684602f83610fa0565b915061168f82611628565b604082019050919050565b600060208201905081810360008301526116b381611677565b9050919050565b7f556e61626c6520746f20617070726f76652c2063616d706169676e206e6f742060008201527f70656e64696e6700000000000000000000000000000000000000000000000000602082015250565b6000611716602783610fa0565b9150611721826116ba565b604082019050919050565b6000602082019050818103600083015261174581611709565b9050919050565b600060208201905081810360008301526117668184610fec565b905092915050565b7f536f7272792c206f6e6c7920686f73706974616c20726570726573656e74617460008201527f697665732063616e20617070726f766500000000000000000000000000000000602082015250565b60006117ca603083610fa0565b91506117d58261176e565b604082019050919050565b600060208201905081810360008301526117f9816117bd565b9050919050565b7f556e61626c6520746f20617070726f76652c2063616d706169676e206578706960008201527f7265640000000000000000000000000000000000000000000000000000000000602082015250565b600061185c602383610fa0565b915061186782611800565b604082019050919050565b6000602082019050818103600083015261188b8161184f565b9050919050565b7f54727920616761696e2c20696e76616c69642074617267657420616d6f756e74600082015250565b60006118c8602083610fa0565b91506118d382611892565b602082019050919050565b600060208201905081810360008301526118f7816118bb565b9050919050565b7f54727920616761696e2c20696e76616c6964206475726174696f6e0000000000600082015250565b6000611934601b83610fa0565b915061193f826118fe565b602082019050919050565b6000602082019050818103600083015261196381611927565b9050919050565b7f54727920616761696e2c20495046532068617368207265717569726564000000600082015250565b60006119a0601d83610fa0565b91506119ab8261196a565b602082019050919050565b600060208201905081810360008301526119cf81611993565b9050919050565b60006119e182610f14565b91507fffffffffffffffffffffffffffffffffffffffffffffffffffffffffffffffff8203611a1357611a1261152a565b5b600182019050919050565b60008190508160005260206000209050919050565b60006020601f8301049050919050565b600082821b905092915050565b600060088302611a807fffffffffffffffffffffffffffffffffffffffffffffffffffffffffffffffff82611a43565b611a8a8683611a43565b95508019841693508086168417925050509392505050565b6000611abd611ab8611ab384610f14565b6113be565b610f14565b9050919050565b6000819050919050565b611ad783611aa2565b611aeb611ae382611ac4565b848454611a50565b825550505050565b600090565b611b00611af3565b611b0b818484611ace565b505050565b5b81811015611b2f57611b24600082611af8565b600181019050611b11565b5050565b601f821115611b7457611b4581611a1e565b611b4e84611a33565b81016020851015611b5d578190505b611b71611b6985611a33565b830182611b10565b50505b505050565b600082821c905092915050565b6000611b9760001984600802611b79565b1980831691505092915050565b6000611bb08383611b86565b9150826002028217905092915050565b611bc982610f95565b67ffffffffffffffff811115611be257611be1611188565b5b611bec82546114f9565b611bf7828285611b33565b600060209050601f831160018114611c2a5760008415611c18578287015190505b611c228582611ba4565b865550611c8a565b601f198416611c3886611a1e565b60005b82811015611c6057848901518255600182019150602085019450602081019050611c3b565b86831015611c7d5784890151611c79601f891682611b86565b8355505b6001600288020188555050505b505050505050565b6000604082019050611ca76000830185610f86565b8181036020830152611cb98184610fec565b90509392505050565b7f556e617574686f72697a65642c20696e76616c696420636f6e7472616374206160008201527f6464726573730000000000000000000000000000000000000000000000000000602082015250565b6000611d1e602683610fa0565b9150611d2982611cc2565b604082019050919050565b60006020820190508181036000830152611d4d81611d11565b905091905056fea2646970667358221220d08ea012ff3f1c663eea05437c3cca6bdcb6c89289c5ed4f2661b1788fc5b5f264736f6c634300081c0033",
  "linkReferences": {},
  "deployedLinkReferences": {}
}