{
  "_format": "hh-sol-artifact-1",
  "contractName": "MediTrustCampaign",
  "sourceName": "contracts/MediTrustCampaign.sol",
  "abi": [
    {
      "inputs": [
        {
          "internalType": "address",
          "name": "roleAddress",
          "type": "address"
        }
      ],
      "stateMutability": "nonpayable",
      "type": "constructor"
    },
    {
      "anonymous": false,
      "inputs": [
        {
          "indexed": true,
          "internalType": "uint256",
          "name": "campaignID",
          "type": "uint256"
        }
      ],
      "name": "CampaignApprove",
      "type": "event"
    },
    {
      "anonymous": false,
      "inputs": [
        {
          "indexed": true,
          "internalType": "uint256",
          "name": "campaignID",
          "type": "uint256"
        }
      ],
      "name": "CampaignComplete",
      "type": "event"
    },
    {
      "anonymous": false,
      "inputs": [
        {
          "indexed": true,
          "internalType": "uint256",
          "name": "campaignID",
          "type": "uint256"
        },
        {
          "indexed": false,
          "internalType": "string",
          "name": "reason",
          "type": "string"
        }
      ],
      "name": "CampaignReject",
      "type": "event"
    },
    {
      "anonymous": false,
      "inputs": [
        {
          "indexed": true,
          "internalType": "uint256",
          "name": "campaignID",
          "type": "uint256"
        },
        {
          "indexed": true,
          "internalType": "address",
          "name": "patient",
          "type": "address"
        },
        {
          "indexed": false,
          "internalType": "uint256",
          "name": "target",
          "type": "uint256"
        },
        {
          "indexed": false,
          "internalType": "string",
          "name": "ipfsHash",
          "type": "string"
        }
      ],
      "name": "CampaignSubmit",
      "type": "event"
    },
    {
      "inputs": [
        {
          "internalType": "uint256",
          "name": "campaignID",
          "type": "uint256"
        }
      ],
      "name": "approveCampaign",
      "outputs": [],
      "stateMutability": "nonpayable",
      "type": "function"
    },
    {
      "inputs": [],
      "name": "campaignCount",
      "outputs": [
        {
          "internalType": "uint256",
          "name": "",
          "type": "uint256"
        }
      ],
      "stateMutability": "view",
      "type": "function"
    },
    {
      "inputs": [
        {
          "internalType": "uint256",
          "name": "",
          "type": "uint256"
        }
      ],
      "name": "campaigns",
      "outputs": [
        {
          "internalType": "address",
          "name": "patient",
          "type": "address"
        },
        {
          "internalType": "uint256",
          "name": "target",
          "type": "uint256"
        },
        {
          "internalType": "uint256",
          "name": "raised",
          "type": "uint256"
        },
        {
          "internalType": "uint256",
          "name": "duration",
          "type": "uint256"
        },
        {
          "internalType": "string",
          "name": "ipfsHash",
          "type": "string"
        },
        {
          "internalType": "enum MediTrustCampaign.CampaignStatus",
          "name": "status",
          "type": "uint8"
        },
        {
          "internalType": "uint256",
          "name": "startDate",
          "type": "uint256"
        }
      ],
      "stateMutability": "view",
      "type": "function"
    },
    {
      "inputs": [],
      "name": "fundsAddress",
      "outputs": [
        {
          "internalType": "address",
          "name": "",
          "type": "address"
        }
      ],
      "stateMutability": "view",
      "type": "function"
    },
    {
      "inputs": [
        {
          "internalType": "uint256",
          "name": "campaignID",
          "type": "uint256"
        }
      ],
      "name": "getCampaign",
      "outputs": [
        {
          "internalType": "address",
          "name": "patient",
          "type": "address"
        },
        {
          "internalType": "uint256",
          "name": "target",
          "type": "uint256"
        },
        {
          "internalType": "uint256",
          "name": "raised",
          "type": "uint256"
        },
        {
          "internalType": "uint256",
          "name": "duration",
          "type": "uint256"
        },
        {
          "internalType": "string",
          "name": "ipfsHash",
          "type": "string"
        },
        {
          "internalType": "enum MediTrustCampaign.CampaignStatus",
          "name": "status",
          "type": "uint8"
        }
      ],
      "stateMutability": "view",
      "type": "function"
    },
    {
      "inputs": [
        {
          "internalType": "enum MediTrustCampaign.CampaignStatus",
          "name": "status",
          "type": "uint8"
        }
      ],
      "name": "getCampaignCount",
      "outputs": [
        {
          "internalType": "uint256",
          "name": "",
          "type": "uint256"
        }
      ],
      "stateMutability": "view",
      "type": "function"
    },
    {
      "inputs": [],
      "name": "getFundsContract",
      "outputs": [
        {
          "internalType": "address",
          "name": "",
          "type": "address"
        }
      ],
      "stateMutability": "view",
      "type": "function"
    },
    {
      "inputs": [
        {
          "internalType": "uint256",
          "name": "campaignID",
          "type": "uint256"
        }
      ],
      "name": "isCampaignActive",
      "outputs": [
        {
          "internalType": "bool",
          "name": "",
          "type": "bool"
        }
      ],
      "stateMutability": "view",
      "type": "function"
    },
    {
      "inputs": [
        {
          "internalType": "uint256",
          "name": "campaignID",
          "type": "uint256"
        }
      ],
      "name": "isPatient",
      "outputs": [
        {
          "internalType": "bool",
          "name": "",
          "type": "bool"
        }
      ],
      "stateMutability": "view",
      "type": "function"
    },
    {
      "inputs": [
        {
          "internalType": "uint256",
          "name": "campaignID",
          "type": "uint256"
        },
        {
          "internalType": "string",
          "name": "reason",
          "type": "string"
        }
      ],
      "name": "rejectCampaign",
      "outputs": [],
      "stateMutability": "nonpayable",
      "type": "function"
    },
    {
      "inputs": [],
      "name": "roleContract",
      "outputs": [
        {
          "internalType": "contract MediTrustRoles",
          "name": "",
          "type": "address"
        }
      ],
      "stateMutability": "view",
      "type": "function"
    },
    {
      "inputs": [
        {
          "internalType": "address",
          "name": "funds",
          "type": "address"
        }
      ],
      "name": "setFundsContract",
      "outputs": [],
      "stateMutability": "nonpayable",
      "type": "function"
    },
    {
      "inputs": [
        {
          "internalType": "uint256",
          "name": "campaignID",
          "type": "uint256"
        },
        {
          "internalType": "uint256",
          "name": "amount",
          "type": "uint256"
        }
      ],
      "name": "setRaised",
      "outputs": [],
      "stateMutability": "nonpayable",
      "type": "function"
    },
    {
      "inputs": [
        {
          "internalType": "uint256",
          "name": "target",
          "type": "uint256"
        },
        {
          "internalType": "uint256",
          "name": "duration",
          "type": "uint256"
        },
        {
          "internalType": "string",
          "name": "ipfsHash",
          "type": "string"
        }
      ],
      "name": "submitCampaign",
      "outputs": [
        {
          "internalType": "uint256",
          "name": "",
          "type": "uint256"
        }
      ],
      "stateMutability": "nonpayable",
      "type": "function"
    }
  ],
  "bytecode": "0x608060405234801561001057600080fd5b50604051612022380380612022833981810160405281019061003291906100db565b806000806101000a81548173ffffffffffffffffffffffffffffffffffffffff021916908373ffffffffffffffffffffffffffffffffffffffff16021790555050610108565b600080fd5b600073ffffffffffffffffffffffffffffffffffffffff82169050919050565b60006100a88261007d565b9050919050565b6100b88161009d565b81146100c357600080fd5b50565b6000815190506100d5816100af565b92915050565b6000602082840312156100f1576100f0610078565b5b60006100ff848285016100c6565b91505092915050565b611f0b806101176000396000f3fe608060405234801561001057600080fd5b50600436106100ea5760003560e01c8063e1e330091161008c578063effa334c11610066578063effa334c14610268578063f023190014610298578063f53bded1146102c8578063f89723b8146102e4576100ea565b8063e1e3300914610200578063e8550f8e14610230578063ee4e1b531461024c576100ea565b80634c16ad04116100c85780634c16ad041461015f5780635598f8cc1461018f5780637274e30d146101c4578063a77ccd6e146101e2576100ea565b80630161ca79146100ef578063141961bc1461010b5780632c9932ec14610141575b600080fd5b61010960048036038101906101049190610fae565b610302565b005b61012560048036038101906101209190611011565b6103d7565b6040516101389796959493929190611163565b60405180910390f35b6101496104ce565b60405161015691906111d9565b60405180910390f35b61017960048036038101906101749190611219565b6104f8565b6040516101869190611246565b60405180910390f35b6101a960048036038101906101a49190611011565b610580565b6040516101bb96959493929190611261565b60405180910390f35b6101cc61068c565b6040516101d99190611246565b60405180910390f35b6101ea610692565b6040516101f791906111d9565b60405180910390f35b61021a60048036038101906102159190611011565b6106b8565b60405161022791906112e4565b60405180910390f35b61024a60048036038101906102459190611434565b61073e565b005b61026660048036038101906102619190611011565b610910565b005b610282600480360381019061027d9190611011565b610b3a565b60405161028f91906112e4565b60405180910390f35b6102b260048036038101906102ad9190611490565b610ba8565b6040516102bf9190611246565b60405180910390f35b6102e260048036038101906102dd91906114ff565b610db7565b005b6102ec610f18565b6040516102f9919061159e565b60405180910390f35b600073ffffffffffffffffffffffffffffffffffffffff16600160009054906101000a900473ffffffffffffffffffffffffffffffffffffffff1673ffffffffffffffffffffffffffffffffffffffff1614610393576040517f08c379a000000000000000000000000000000000000000000000000000000000815260040161038a9061162b565b60405180910390fd5b80600160006101000a81548173ffffffffffffffffffffffffffffffffffffffff021916908373ffffffffffffffffffffffffffffffffffffffff16021790555050565b60026020528060005260406000206000915090508060000160009054906101000a900473ffffffffffffffffffffffffffffffffffffffff16908060010154908060020154908060030154908060040180546104329061167a565b80601f016020809104026020016040519081016040528092919081815260200182805461045e9061167a565b80156104ab5780601f10610480576101008083540402835291602001916104ab565b820191906000526020600020905b81548152906001019060200180831161048e57829003601f168201915b5050505050908060050160009054906101000a900460ff16908060060154905087565b6000600160009054906101000a900473ffffffffffffffffffffffffffffffffffffffff16905090565b6000806000905060005b6003548110156105765783600381111561051f5761051e6110ec565b5b6002600083815260200190815260200160002060050160009054906101000a900460ff166003811115610555576105546110ec565b5b03610569578180610565906116da565b9250505b8080600101915050610502565b5080915050919050565b60008060008060606000806002600089815260200190815260200160002090508060000160009054906101000a900473ffffffffffffffffffffffffffffffffffffffff16816001015482600201548360030154846004018560050160009054906101000a900460ff168180546105f69061167a565b80601f01602080910402602001604051908101604052809291908181526020018280546106229061167a565b801561066f5780601f106106445761010080835404028352916020019161066f565b820191906000526020600020905b81548152906001019060200180831161065257829003601f168201915b505050505091509650965096509650965096505091939550919395565b60035481565b600160009054906101000a900473ffffffffffffffffffffffffffffffffffffffff1681565b600080600260008481526020019081526020016000209050600160038111156106e4576106e36110ec565b5b8160050160009054906101000a900460ff166003811115610708576107076110ec565b5b14801561073657506201518081600301546107239190611722565b81600601546107329190611764565b4211155b915050919050565b60008054906101000a900473ffffffffffffffffffffffffffffffffffffffff1673ffffffffffffffffffffffffffffffffffffffff16637667984d336040518263ffffffff1660e01b815260040161079791906111d9565b602060405180830381865afa1580156107b4573d6000803e3d6000fd5b505050506040513d601f19601f820116820180604052508101906107d891906117c4565b610817576040517f08c379a000000000000000000000000000000000000000000000000000000000815260040161080e90611863565b60405180910390fd5b600060026000848152602001908152602001600020905060006003811115610842576108416110ec565b5b8160050160009054906101000a900460ff166003811115610866576108656110ec565b5b146108a6576040517f08c379a000000000000000000000000000000000000000000000000000000000815260040161089d906118f5565b60405180910390fd5b60028160050160006101000a81548160ff021916908360038111156108ce576108cd6110ec565b5b0217905550827f49053c9f7438b892a9700a9d154c64ef9a1de0a33a0254a500e2c8ba15b27950836040516109039190611915565b60405180910390a2505050565b60008054906101000a900473ffffffffffffffffffffffffffffffffffffffff1673ffffffffffffffffffffffffffffffffffffffff16637667984d336040518263ffffffff1660e01b815260040161096991906111d9565b602060405180830381865afa158015610986573d6000803e3d6000fd5b505050506040513d601f19601f820116820180604052508101906109aa91906117c4565b6109e9576040517f08c379a00000000000000000000000000000000000000000000000000000000081526004016109e0906119a9565b60405180910390fd5b600060026000838152602001908152602001600020905060006003811115610a1457610a136110ec565b5b8160050160009054906101000a900460ff166003811115610a3857610a376110ec565b5b14610a78576040517f08c379a0000000000000000000000000000000000000000000000000000000008152600401610a6f906118f5565b60405180910390fd5b620151808160030154610a8b9190611722565b8160060154610a9a9190611764565b421115610adc576040517f08c379a0000000000000000000000000000000000000000000000000000000008152600401610ad390611a3b565b60405180910390fd5b60018160050160006101000a81548160ff02191690836003811115610b0457610b036110ec565b5b0217905550817fb598c2ae1ba3b00520d1d2a92173108bc8935593bfa8bac8bf7facfe767528a860405160405180910390a25050565b60006002600083815260200190815260200160002060000160009054906101000a900473ffffffffffffffffffffffffffffffffffffffff1673ffffffffffffffffffffffffffffffffffffffff163373ffffffffffffffffffffffffffffffffffffffff16149050919050565b6000808411610bec576040517f08c379a0000000000000000000000000000000000000000000000000000000008152600401610be390611aa7565b60405180910390fd5b600083118015610bfe575061016d8311155b610c3d576040517f08c379a0000000000000000000000000000000000000000000000000000000008152600401610c3490611b13565b60405180910390fd5b6000825111610c81576040517f08c379a0000000000000000000000000000000000000000000000000000000008152600401610c7890611b7f565b60405180910390fd5b600060036000815480929190610c96906116da565b9190505590506000600260008381526020019081526020016000209050338160000160006101000a81548173ffffffffffffffffffffffffffffffffffffffff021916908373ffffffffffffffffffffffffffffffffffffffff1602179055508581600101819055506000816002018190555084816003018190555083816004019081610d239190611d41565b5060008160050160006101000a81548160ff02191690836003811115610d4c57610d4b6110ec565b5b02179055504281600601819055503373ffffffffffffffffffffffffffffffffffffffff16827f804da53c8d140334345d2fd5e26293bc6fdfa86897c5872ae9486d833b06df758887604051610da3929190611e13565b60405180910390a381925050509392505050565b600160009054906101000a900473ffffffffffffffffffffffffffffffffffffffff1673ffffffffffffffffffffffffffffffffffffffff163373ffffffffffffffffffffffffffffffffffffffff1614610e47576040517f08c379a0000000000000000000000000000000000000000000000000000000008152600401610e3e90611eb5565b60405180910390fd5b80600260008481526020019081526020016000206002016000828254610e6d9190611764565b925050819055506002600083815260200190815260200160002060010154600260008481526020019081526020016000206002015410610f145760036002600084815260200190815260200160002060050160006101000a81548160ff02191690836003811115610ee157610ee06110ec565b5b0217905550817f7c9ef824eb9b2b83356339e0f54e1b1d33beaa78fbfcecf1f6b92a93d150037f60405160405180910390a25b5050565b60008054906101000a900473ffffffffffffffffffffffffffffffffffffffff1681565b6000604051905090565b600080fd5b600080fd5b600073ffffffffffffffffffffffffffffffffffffffff82169050919050565b6000610f7b82610f50565b9050919050565b610f8b81610f70565b8114610f9657600080fd5b50565b600081359050610fa881610f82565b92915050565b600060208284031215610fc457610fc3610f46565b5b6000610fd284828501610f99565b91505092915050565b6000819050919050565b610fee81610fdb565b8114610ff957600080fd5b50565b60008135905061100b81610fe5565b92915050565b60006020828403121561102757611026610f46565b5b600061103584828501610ffc565b91505092915050565b61104781610f70565b82525050565b61105681610fdb565b82525050565b600081519050919050565b600082825260208201905092915050565b60005b8381101561109657808201518184015260208101905061107b565b60008484015250505050565b6000601f19601f8301169050919050565b60006110be8261105c565b6110c88185611067565b93506110d8818560208601611078565b6110e1816110a2565b840191505092915050565b7f4e487b7100000000000000000000000000000000000000000000000000000000600052602160045260246000fd5b6004811061112c5761112b6110ec565b5b50565b600081905061113d8261111b565b919050565b600061114d8261112f565b9050919050565b61115d81611142565b82525050565b600060e082019050611178600083018a61103e565b611185602083018961104d565b611192604083018861104d565b61119f606083018761104d565b81810360808301526111b181866110b3565b90506111c060a0830185611154565b6111cd60c083018461104d565b98975050505050505050565b60006020820190506111ee600083018461103e565b92915050565b6004811061120157600080fd5b50565b600081359050611213816111f4565b92915050565b60006020828403121561122f5761122e610f46565b5b600061123d84828501611204565b91505092915050565b600060208201905061125b600083018461104d565b92915050565b600060c082019050611276600083018961103e565b611283602083018861104d565b611290604083018761104d565b61129d606083018661104d565b81810360808301526112af81856110b3565b90506112be60a0830184611154565b979650505050505050565b60008115159050919050565b6112de816112c9565b82525050565b60006020820190506112f960008301846112d5565b92915050565b600080fd5b600080fd5b7f4e487b7100000000000000000000000000000000000000000000000000000000600052604160045260246000fd5b611341826110a2565b810181811067ffffffffffffffff821117156113605761135f611309565b5b80604052505050565b6000611373610f3c565b905061137f8282611338565b919050565b600067ffffffffffffffff82111561139f5761139e611309565b5b6113a8826110a2565b9050602081019050919050565b82818337600083830152505050565b60006113d76113d284611384565b611369565b9050828152602081018484840111156113f3576113f2611304565b5b6113fe8482856113b5565b509392505050565b600082601f83011261141b5761141a6112ff565b5b813561142b8482602086016113c4565b91505092915050565b6000806040838503121561144b5761144a610f46565b5b600061145985828601610ffc565b925050602083013567ffffffffffffffff81111561147a57611479610f4b565b5b61148685828601611406565b9150509250929050565b6000806000606084860312156114a9576114a8610f46565b5b60006114b786828701610ffc565b93505060206114c886828701610ffc565b925050604084013567ffffffffffffffff8111156114e9576114e8610f4b565b5b6114f586828701611406565b9150509250925092565b6000806040838503121561151657611515610f46565b5b600061152485828601610ffc565b925050602061153585828601610ffc565b9150509250929050565b6000819050919050565b600061156461155f61155a84610f50565b61153f565b610f50565b9050919050565b600061157682611549565b9050919050565b60006115888261156b565b9050919050565b6115988161157d565b82525050565b60006020820190506115b3600083018461158f565b92915050565b7f556e617574686f72697a65642c2066756e647320636f6e747261637420616c7260008201527f6561647920736574000000000000000000000000000000000000000000000000602082015250565b6000611615602883611067565b9150611620826115b9565b604082019050919050565b6000602082019050818103600083015261164481611608565b9050919050565b7f4e487b7100000000000000000000000000000000000000000000000000000000600052602260045260246000fd5b6000600282049050600182168061169257607f821691505b6020821081036116a5576116a461164b565b5b50919050565b7f4e487b7100000000000000000000000000000000000000000000000000000000600052601160045260246000fd5b60006116e582610fdb565b91507fffffffffffffffffffffffffffffffffffffffffffffffffffffffffffffffff8203611717576117166116ab565b5b600182019050919050565b600061172d82610fdb565b915061173883610fdb565b925082820261174681610fdb565b9150828204841483151761175d5761175c6116ab565b5b5092915050565b600061176f82610fdb565b915061177a83610fdb565b9250828201905080821115611792576117916116ab565b5b92915050565b6117a1816112c9565b81146117ac57600080fd5b50565b6000815190506117be81611798565b92915050565b6000602082840312156117da576117d9610f46565b5b60006117e8848285016117af565b91505092915050565b7f536f7272792c206f6e6c7920686f73706974616c20726570726573656e74617460008201527f697665732063616e2072656a6563740000000000000000000000000000000000602082015250565b600061184d602f83611067565b9150611858826117f1565b604082019050919050565b6000602082019050818103600083015261187c81611840565b9050919050565b7f556e61626c6520746f20617070726f76652c2063616d706169676e206e6f742060008201527f70656e64696e6700000000000000000000000000000000000000000000000000602082015250565b60006118df602783611067565b91506118ea82611883565b604082019050919050565b6000602082019050818103600083015261190e816118d2565b9050919050565b6000602082019050818103600083015261192f81846110b3565b905092915050565b7f536f7272792c206f6e6c7920686f73706974616c20726570726573656e74617460008201527f697665732063616e20617070726f766500000000000000000000000000000000602082015250565b6000611993603083611067565b915061199e82611937565b604082019050919050565b600060208201905081810360008301526119c281611986565b9050919050565b7f556e61626c6520746f20617070726f76652c2063616d706169676e206578706960008201527f7265640000000000000000000000000000000000000000000000000000000000602082015250565b6000611a25602383611067565b9150611a30826119c9565b604082019050919050565b60006020820190508181036000830152611a5481611a18565b9050919050565b7f54727920616761696e2c20696e76616c69642074617267657420616d6f756e74600082015250565b6000611a91602083611067565b9150611a9c82611a5b565b602082019050919050565b60006020820190508181036000830152611ac081611a84565b9050919050565b7f54727920616761696e2c20696e76616c6964206475726174696f6e0000000000600082015250565b6000611afd601b83611067565b9150611b0882611ac7565b602082019050919050565b60006020820190508181036000830152611b2c81611af0565b9050919050565b7f54727920616761696e2c20495046532068617368207265717569726564000000600082015250565b6000611b69601d83611067565b9150611b7482611b33565b602082019050919050565b60006020820190508181036000830152611b9881611b5c565b9050919050565b60008190508160005260206000209050919050565b60006020601f8301049050919050565b600082821b905092915050565b600060088302611c017fffffffffffffffffffffffffffffffffffffffffffffffffffffffffffffffff82611bc4565b611c0b8683611bc4565b95508019841693508086168417925050509392505050565b6000611c3e611c39611c3484610fdb565b61153f565b610fdb565b9050919050565b6000819050919050565b611c5883611c23565b611c6c611c6482611c45565b848454611bd1565b825550505050565b600090565b611c81611c74565b611c8c818484611c4f565b505050565b5b81811015611cb057611ca5600082611c79565b600181019050611c92565b5050565b601f821115611cf557611cc681611b9f565b611ccf84611bb4565b81016020851015611cde578190505b611cf2611cea85611bb4565b830182611c91565b50505b505050565b600082821c905092915050565b6000611d1860001984600802611cfa565b1980831691505092915050565b6000611d318383611d07565b9150826002028217905092915050565b611d4a8261105c565b67ffffffffffffffff811115611d6357611d62611309565b5b611d6d825461167a565b611d78828285611cb4565b600060209050601f831160018114611dab5760008415611d99578287015190505b611da38582611d25565b865550611e0b565b601f198416611db986611b9f565b60005b82811015611de157848901518255600182019150602085019450602081019050611dbc565b86831015611dfe5784890151611dfa601f891682611d07565b8355505b6001600288020188555050505b505050505050565b6000604082019050611e28600083018561104d565b8181036020830152611e3a81846110b3565b90509392505050565b7f556e617574686f72697a65642c20696e76616c696420636f6e7472616374206160008201527f6464726573730000000000000000000000000000000000000000000000000000602082015250565b6000611e9f602683611067565b9150611eaa82611e43565b604082019050919050565b60006020820190508181036000830152611ece81611e92565b905091905056fea264697066735822122087def7ed053e28c5969d0e86f9adf20eb229d06ddc61f9afc7d79a7b8211299464736f6c634300081c0033",
  "linkReferences": {},
  "deployedLinkReferences": {}
}