{
  "_format": "hh-sol-artifact-1",
  "contractName": "MediTrustFunds",
  "sourceName": "contracts/MediTrustFunds.sol",
  "abi": [
    {
      "inputs": [
        {
          "internalType": "address",
          "name": "campaignAddress",
          "type": "address"
        },
        {
          "internalType": "address",
          "name": "DAOAddress",
          "type": "address"
        }
      ],
      "stateMutability": "nonpayable",
      "type": "constructor"
    },
    {
      "inputs": [],
      "name": "ReentrancyGuardReentrantCall",
      "type": "error"
    },
    {
      "anonymous": false,
      "inputs": [
        {
          "indexed": true,
          "internalType": "uint256",
          "name": "campaignID",
          "type": "uint256"
        },
        {
          "indexed": true,
          "internalType": "address",
          "name": "donor",
          "type": "address"
        },
        {
          "indexed": false,
          "internalType": "uint256",
          "name": "amount",
          "type": "uint256"
        }
      ],
      "name": "DonationReceive",
      "type": "event"
    },
    {
      "anonymous": false,
      "inputs": [
        {
          "indexed": true,
          "internalType": "uint256",
          "name": "campaignID",
          "type": "uint256"
        },
        {
          "indexed": true,
          "internalType": "uint256",
          "name": "claimID",
          "type": "uint256"
        },
        {
          "indexed": true,
          "internalType": "address",
          "name": "patient",
          "type": "address"
        },
        {
          "indexed": false,
          "internalType": "uint256",
          "name": "amount",
          "type": "uint256"
        }
      ],
      "name": "FundsRelease",
      "type": "event"
    },
    {
      "inputs": [],
      "name": "DAOContract",
      "outputs": [
        {
          "internalType": "contract MediTrustDAO",
          "name": "",
          "type": "address"
        }
      ],
      "stateMutability": "view",
      "type": "function"
    },
    {
      "inputs": [
        {
          "internalType": "uint256",
          "name": "",
          "type": "uint256"
        }
      ],
      "name": "campaignBalance",
      "outputs": [
        {
          "internalType": "uint256",
          "name": "",
          "type": "uint256"
        }
      ],
      "stateMutability": "view",
      "type": "function"
    },
    {
      "inputs": [],
      "name": "campaignContract",
      "outputs": [
        {
          "internalType": "contract MediTrustCampaign",
          "name": "",
          "type": "address"
        }
      ],
      "stateMutability": "view",
      "type": "function"
    },
    {
      "inputs": [
        {
          "internalType": "uint256",
          "name": "campaignID",
          "type": "uint256"
        }
      ],
      "name": "donate",
      "outputs": [],
      "stateMutability": "payable",
      "type": "function"
    },
    {
      "inputs": [
        {
          "internalType": "uint256",
          "name": "",
          "type": "uint256"
        },
        {
          "internalType": "address",
          "name": "",
          "type": "address"
        }
      ],
      "name": "donation",
      "outputs": [
        {
          "internalType": "uint256",
          "name": "",
          "type": "uint256"
        }
      ],
      "stateMutability": "view",
      "type": "function"
    },
    {
      "inputs": [
        {
          "internalType": "uint256",
          "name": "claimID",
          "type": "uint256"
        }
      ],
      "name": "executeMilestoneClaim",
      "outputs": [],
      "stateMutability": "nonpayable",
      "type": "function"
    },
    {
      "inputs": [
        {
          "internalType": "uint256",
          "name": "campaignID",
          "type": "uint256"
        }
      ],
      "name": "getCampaignBalance",
      "outputs": [
        {
          "internalType": "uint256",
          "name": "",
          "type": "uint256"
        }
      ],
      "stateMutability": "view",
      "type": "function"
    },
    {
      "inputs": [
        {
          "internalType": "uint256",
          "name": "campaignID",
          "type": "uint256"
        },
        {
          "internalType": "address",
          "name": "donor",
          "type": "address"
        }
      ],
      "name": "getDonation",
      "outputs": [
        {
          "internalType": "uint256",
          "name": "",
          "type": "uint256"
        }
      ],
      "stateMutability": "view",
      "type": "function"
    }
  ],
  "bytecode": "0x608060405234801561001057600080fd5b5060405161177e38038061177e83398181016040528101906100329190610126565b600160008190555081600160006101000a81548173ffffffffffffffffffffffffffffffffffffffff021916908373ffffffffffffffffffffffffffffffffffffffff16021790555080600260006101000a81548173ffffffffffffffffffffffffffffffffffffffff021916908373ffffffffffffffffffffffffffffffffffffffff1602179055505050610166565b600080fd5b600073ffffffffffffffffffffffffffffffffffffffff82169050919050565b60006100f3826100c8565b9050919050565b610103816100e8565b811461010e57600080fd5b50565b600081519050610120816100fa565b92915050565b6000806040838503121561013d5761013c6100c3565b5b600061014b85828601610111565b925050602061015c85828601610111565b9150509250929050565b611609806101756000396000f3fe60806040526004361061007b5760003560e01c8063bd6c67e91161004e578063bd6c67e91461013c578063c2bacfa814610179578063eb044b97146101b6578063f14faf6f146101f35761007b565b806358ae05cd146100805780638b5c9b64146100ab578063948c5433146100e8578063b377f8ae14610111575b600080fd5b34801561008c57600080fd5b5061009561020f565b6040516100a29190610c13565b60405180910390f35b3480156100b757600080fd5b506100d260048036038101906100cd9190610cb6565b610235565b6040516100df9190610d05565b60405180910390f35b3480156100f457600080fd5b5061010f600480360381019061010a9190610d20565b61025a565b005b34801561011d57600080fd5b5061012661071c565b6040516101339190610d6e565b60405180910390f35b34801561014857600080fd5b50610163600480360381019061015e9190610d20565b610742565b6040516101709190610d05565b60405180910390f35b34801561018557600080fd5b506101a0600480360381019061019b9190610cb6565b61075a565b6040516101ad9190610d05565b60405180910390f35b3480156101c257600080fd5b506101dd60048036038101906101d89190610d20565b6107b5565b6040516101ea9190610d05565b60405180910390f35b61020d60048036038101906102089190610d20565b6107d2565b005b600160009054906101000a900473ffffffffffffffffffffffffffffffffffffffff1681565b6004602052816000526040600020602052806000526040600020600091509150505481565b610262610b44565b600260009054906101000a900473ffffffffffffffffffffffffffffffffffffffff1673ffffffffffffffffffffffffffffffffffffffff1663c646bc67826040518263ffffffff1660e01b81526004016102bd9190610d05565b602060405180830381865afa1580156102da573d6000803e3d6000fd5b505050506040513d601f19601f820116820180604052508101906102fe9190610dc1565b61033d576040517f08c379a000000000000000000000000000000000000000000000000000000000815260040161033490610e71565b60405180910390fd5b600260009054906101000a900473ffffffffffffffffffffffffffffffffffffffff1673ffffffffffffffffffffffffffffffffffffffff16638da4d3c96040518163ffffffff1660e01b8152600401602060405180830381865afa1580156103aa573d6000803e3d6000fd5b505050506040513d601f19601f820116820180604052508101906103ce9190610ea6565b811061040f576040517f08c379a000000000000000000000000000000000000000000000000000000000815260040161040690610f45565b60405180910390fd5b600080600080600260009054906101000a900473ffffffffffffffffffffffffffffffffffffffff1673ffffffffffffffffffffffffffffffffffffffff166358afcd5f866040518263ffffffff1660e01b81526004016104709190610d05565b600060405180830381865afa15801561048d573d6000803e3d6000fd5b505050506040513d6000823e3d601f19601f820116820180604052508101906104b691906110db565b5096505050509350935093508015610503576040517f08c379a00000000000000000000000000000000000000000000000000000000081526004016104fa906111f9565b60405180910390fd5b8160036000868152602001908152602001600020541015610559576040517f08c379a00000000000000000000000000000000000000000000000000000000081526004016105509061128b565b60405180910390fd5b8160036000868152602001908152602001600020600082825461057c91906112da565b92505081905550600260009054906101000a900473ffffffffffffffffffffffffffffffffffffffff1673ffffffffffffffffffffffffffffffffffffffff1663e809bae0866040518263ffffffff1660e01b81526004016105de9190610d05565b600060405180830381600087803b1580156105f857600080fd5b505af115801561060c573d6000803e3d6000fd5b5050505060008373ffffffffffffffffffffffffffffffffffffffff16836040516106369061133f565b60006040518083038185875af1925050503d8060008114610673576040519150601f19603f3d011682016040523d82523d6000602084013e610678565b606091505b50509050806106bc576040517f08c379a00000000000000000000000000000000000000000000000000000000081526004016106b3906113a0565b60405180910390fd5b8373ffffffffffffffffffffffffffffffffffffffff1686867f28f183cb25d6f3eb7baaa599f941b250fa065d6da0ece02bd764cad372376b89866040516107049190610d05565b60405180910390a45050505050610719610b8a565b50565b600260009054906101000a900473ffffffffffffffffffffffffffffffffffffffff1681565b60036020528060005260406000206000915090505481565b60006004600084815260200190815260200160002060008373ffffffffffffffffffffffffffffffffffffffff1673ffffffffffffffffffffffffffffffffffffffff16815260200190815260200160002054905092915050565b600060036000838152602001908152602001600020549050919050565b6107da610b44565b6000341161081d576040517f08c379a000000000000000000000000000000000000000000000000000000000815260040161081490611432565b60405180910390fd5b600160009054906101000a900473ffffffffffffffffffffffffffffffffffffffff1673ffffffffffffffffffffffffffffffffffffffff16637274e30d6040518163ffffffff1660e01b8152600401602060405180830381865afa15801561088a573d6000803e3d6000fd5b505050506040513d601f19601f820116820180604052508101906108ae9190610ea6565b81106108ef576040517f08c379a00000000000000000000000000000000000000000000000000000000081526004016108e6906114c4565b60405180910390fd5b600160009054906101000a900473ffffffffffffffffffffffffffffffffffffffff1673ffffffffffffffffffffffffffffffffffffffff1663e1e33009826040518263ffffffff1660e01b815260040161094a9190610d05565b602060405180830381865afa158015610967573d6000803e3d6000fd5b505050506040513d601f19601f8201168201806040525081019061098b9190610dc1565b6109ca576040517f08c379a00000000000000000000000000000000000000000000000000000000081526004016109c190611556565b60405180910390fd5b346003600083815260200190815260200160002060008282546109ed9190611576565b92505081905550346004600083815260200190815260200160002060003373ffffffffffffffffffffffffffffffffffffffff1673ffffffffffffffffffffffffffffffffffffffff1681526020019081526020016000206000828254610a549190611576565b92505081905550600160009054906101000a900473ffffffffffffffffffffffffffffffffffffffff1673ffffffffffffffffffffffffffffffffffffffff1663f53bded182346040518363ffffffff1660e01b8152600401610ab89291906115aa565b600060405180830381600087803b158015610ad257600080fd5b505af1158015610ae6573d6000803e3d6000fd5b505050503373ffffffffffffffffffffffffffffffffffffffff16817f102f72ea060753baaf6d33969b8f0163bb7f07c99a9b8f6a1839283cef26281b34604051610b319190610d05565b60405180910390a3610b41610b8a565b50565b600260005403610b80576040517f3ee5aeb500000000000000000000000000000000000000000000000000000000815260040160405180910390fd5b6002600081905550565b6001600081905550565b600073ffffffffffffffffffffffffffffffffffffffff82169050919050565b6000819050919050565b6000610bd9610bd4610bcf84610b94565b610bb4565b610b94565b9050919050565b6000610beb82610bbe565b9050919050565b6000610bfd82610be0565b9050919050565b610c0d81610bf2565b82525050565b6000602082019050610c286000830184610c04565b92915050565b6000604051905090565b600080fd5b600080fd5b6000819050919050565b610c5581610c42565b8114610c6057600080fd5b50565b600081359050610c7281610c4c565b92915050565b6000610c8382610b94565b9050919050565b610c9381610c78565b8114610c9e57600080fd5b50565b600081359050610cb081610c8a565b92915050565b60008060408385031215610ccd57610ccc610c38565b5b6000610cdb85828601610c63565b9250506020610cec85828601610ca1565b9150509250929050565b610cff81610c42565b82525050565b6000602082019050610d1a6000830184610cf6565b92915050565b600060208284031215610d3657610d35610c38565b5b6000610d4484828501610c63565b91505092915050565b6000610d5882610be0565b9050919050565b610d6881610d4d565b82525050565b6000602082019050610d836000830184610d5f565b92915050565b60008115159050919050565b610d9e81610d89565b8114610da957600080fd5b50565b600081519050610dbb81610d95565b92915050565b600060208284031215610dd757610dd6610c38565b5b6000610de584828501610dac565b91505092915050565b600082825260208201905092915050565b7f556e61626c6520746f20657865637574652c206d696c6573746f6e6520636c6160008201527f696d206e6f7420617070726f7665642062792044414f00000000000000000000602082015250565b6000610e5b603683610dee565b9150610e6682610dff565b604082019050919050565b60006020820190508181036000830152610e8a81610e4e565b9050919050565b600081519050610ea081610c4c565b92915050565b600060208284031215610ebc57610ebb610c38565b5b6000610eca84828501610e91565b91505092915050565b7f556e61626c6520746f20657865637574652c20696e76616c6964206d696c657360008201527f746f6e6520636c61696d00000000000000000000000000000000000000000000602082015250565b6000610f2f602a83610dee565b9150610f3a82610ed3565b604082019050919050565b60006020820190508181036000830152610f5e81610f22565b9050919050565b600081519050610f7481610c8a565b92915050565b600080fd5b600080fd5b6000601f19601f8301169050919050565b7f4e487b7100000000000000000000000000000000000000000000000000000000600052604160045260246000fd5b610fcd82610f84565b810181811067ffffffffffffffff82111715610fec57610feb610f95565b5b80604052505050565b6000610fff610c2e565b905061100b8282610fc4565b919050565b600067ffffffffffffffff82111561102b5761102a610f95565b5b61103482610f84565b9050602081019050919050565b60005b8381101561105f578082015181840152602081019050611044565b60008484015250505050565b600061107e61107984611010565b610ff5565b90508281526020810184848401111561109a57611099610f7f565b5b6110a5848285611041565b509392505050565b600082601f8301126110c2576110c1610f7a565b5b81516110d284826020860161106b565b91505092915050565b600080600080600080600080610100898b0312156110fc576110fb610c38565b5b600061110a8b828c01610e91565b985050602061111b8b828c01610f65565b975050604061112c8b828c01610e91565b965050606089015167ffffffffffffffff81111561114d5761114c610c3d565b5b6111598b828c016110ad565b955050608061116a8b828c01610e91565b94505060a061117b8b828c01610e91565b93505060c061118c8b828c01610dac565b92505060e061119d8b828c01610e91565b9150509295985092959890939650565b7f436c61696d20616c726561647920657865637574656400000000000000000000600082015250565b60006111e3601683610dee565b91506111ee826111ad565b602082019050919050565b60006020820190508181036000830152611212816111d6565b9050919050565b7f536f7272792c20696e73756666696369656e742063616d706169676e2066756e60008201527f6473000000000000000000000000000000000000000000000000000000000000602082015250565b6000611275602283610dee565b915061128082611219565b604082019050919050565b600060208201905081810360008301526112a481611268565b9050919050565b7f4e487b7100000000000000000000000000000000000000000000000000000000600052601160045260246000fd5b60006112e582610c42565b91506112f083610c42565b9250828203905081811115611308576113076112ab565b5b92915050565b600081905092915050565b50565b600061132960008361130e565b915061133482611319565b600082019050919050565b600061134a8261131c565b9150819050919050565b7f4572726f722c2066756e64207472616e73666572206661696c65640000000000600082015250565b600061138a601b83610dee565b915061139582611354565b602082019050919050565b600060208201905081810360008301526113b98161137d565b9050919050565b7f556e61626c6520746f20646f6e6174652c20616d6f756e74206d75737420626560008201527f206d6f7265207468616e20484554482030000000000000000000000000000000602082015250565b600061141c603183610dee565b9150611427826113c0565b604082019050919050565b6000602082019050818103600083015261144b8161140f565b9050919050565b7f556e61626c6520746f20646f6e6174652c20696e76616c69642063616d70616960008201527f676e204944000000000000000000000000000000000000000000000000000000602082015250565b60006114ae602583610dee565b91506114b982611452565b604082019050919050565b600060208201905081810360008301526114dd816114a1565b9050919050565b7f556e61626c6520746f20646f6e6174652c2063616d706169676e20696e61637460008201527f6976650000000000000000000000000000000000000000000000000000000000602082015250565b6000611540602383610dee565b915061154b826114e4565b604082019050919050565b6000602082019050818103600083015261156f81611533565b9050919050565b600061158182610c42565b915061158c83610c42565b92508282019050808211156115a4576115a36112ab565b5b92915050565b60006040820190506115bf6000830185610cf6565b6115cc6020830184610cf6565b939250505056fea2646970667358221220be6b5cddbd19ac4e8b4712fddcfb5a918afcad30e0a90125affe53886b825c5864736f6c634300081c0033",
  "linkReferences": {},
  "deployedLinkReferences": {}
}