{
  "_format": "hh-sol-artifact-1",
  "contractName": "MediTrustRoles",
  "sourceName": "contracts/MediTrustRoles.sol",
  "abi": [
    {
      "inputs": [],
      "stateMutability": "nonpayable",
      "type": "constructor"
    },
    {
      "inputs": [
        {
          "internalType": "address",
          "name": "owner",
          "type": "address"
        }
      ],
      "name": "OwnableInvalidOwner",
      "type": "error"
    },
    {
      "inputs": [
        {
          "internalType": "address",
          "name": "account",
          "type": "address"
        }
      ],
      "name": "OwnableUnauthorizedAccount",
      "type": "error"
    },
    {
      "anonymous": false,
      "inputs": [
        {
          "indexed": true,
          "internalType": "address",
          "name": "member",
          "type": "address"
        }
      ],
      "name": "DAOMemberAdd",
      "type": "event"
    },
    {
      "anonymous": false,
      "inputs": [
        {
          "indexed": true,
          "internalType": "address",
          "name": "member",
          "type": "address"
        }
      ],
      "name": "DAOMemberRemove",
      "type": "event"
    },
    {
      "anonymous": false,
      "inputs": [
        {
          "indexed": true,
          "internalType": "address",
          "name": "previousOwner",
          "type": "address"
        },
        {
          "indexed": true,
          "internalType": "address",
          "name": "newOwner",
          "type": "address"
        }
      ],
      "name": "OwnershipTransferred",
      "type": "event"
    },
    {
      "anonymous": false,
      "inputs": [
        {
          "indexed": true,
          "internalType": "address",
          "name": "rep",
          "type": "address"
        }
      ],
      "name": "hospitalRepAdd",
      "type": "event"
    },
    {
      "anonymous": false,
      "inputs": [
        {
          "indexed": true,
          "internalType": "address",
          "name": "rep",
          "type": "address"
        }
      ],
      "name": "hospitalRepRemove",
      "type": "event"
    },
    {
      "inputs": [
        {
          "internalType": "address",
          "name": "",
          "type": "address"
        }
      ],
      "name": "DAOMembers",
      "outputs": [
        {
          "internalType": "bool",
          "name": "",
          "type": "bool"
        }
      ],
      "stateMutability": "view",
      "type": "function"
    },
    {
      "inputs": [
        {
          "internalType": "address",
          "name": "member",
          "type": "address"
        }
      ],
      "name": "addDAOMember",
      "outputs": [],
      "stateMutability": "nonpayable",
      "type": "function"
    },
    {
      "inputs": [
        {
          "internalType": "address",
          "name": "rep",
          "type": "address"
        }
      ],
      "name": "addHospitalRep",
      "outputs": [],
      "stateMutability": "nonpayable",
      "type": "function"
    },
    {
      "inputs": [],
      "name": "getTotalDAOMembers",
      "outputs": [
        {
          "internalType": "uint256",
          "name": "",
          "type": "uint256"
        }
      ],
      "stateMutability": "view",
      "type": "function"
    },
    {
      "inputs": [
        {
          "internalType": "address",
          "name": "",
          "type": "address"
        }
      ],
      "name": "hospitalRepresentatives",
      "outputs": [
        {
          "internalType": "bool",
          "name": "",
          "type": "bool"
        }
      ],
      "stateMutability": "view",
      "type": "function"
    },
    {
      "inputs": [
        {
          "internalType": "address",
          "name": "addr",
          "type": "address"
        }
      ],
      "name": "isDAOMember",
      "outputs": [
        {
          "internalType": "bool",
          "name": "",
          "type": "bool"
        }
      ],
      "stateMutability": "view",
      "type": "function"
    },
    {
      "inputs": [
        {
          "internalType": "address",
          "name": "addr",
          "type": "address"
        }
      ],
      "name": "isHospitalRep",
      "outputs": [
        {
          "internalType": "bool",
          "name": "",
          "type": "bool"
        }
      ],
      "stateMutability": "view",
      "type": "function"
    },
    {
      "inputs": [],
      "name": "owner",
      "outputs": [
        {
          "internalType": "address",
          "name": "",
          "type": "address"
        }
      ],
      "stateMutability": "view",
      "type": "function"
    },
    {
      "inputs": [
        {
          "internalType": "address",
          "name": "member",
          "type": "address"
        }
      ],
      "name": "removeDAOMember",
      "outputs": [],
      "stateMutability": "nonpayable",
      "type": "function"
    },
    {
      "inputs": [
        {
          "internalType": "address",
          "name": "rep",
          "type": "address"
        }
      ],
      "name": "removeHospitalRep",
      "outputs": [],
      "stateMutability": "nonpayable",
      "type": "function"
    },
    {
      "inputs": [],
      "name": "renounceOwnership",
      "outputs": [],
      "stateMutability": "nonpayable",
      "type": "function"
    },
    {
      "inputs": [],
      "name": "totalDAOMembers",
      "outputs": [
        {
          "internalType": "uint256",
          "name": "",
          "type": "uint256"
        }
      ],
      "stateMutability": "view",
      "type": "function"
    },
    {
      "inputs": [
        {
          "internalType": "address",
          "name": "newOwner",
          "type": "address"
        }
      ],
      "name": "transferOwnership",
      "outputs": [],
      "stateMutability": "nonpayable",
      "type": "function"
    }
  ],
  "bytecode": "0x608060405234801561001057600080fd5b5033600073ffffffffffffffffffffffffffffffffffffffff168173ffffffffffffffffffffffffffffffffffffffff16036100845760006040517f1e4fbdf700000000000000000000000000000000000000000000000000000000815260040161007b919061019e565b60405180910390fd5b6100938161009960201b60201c565b506101b9565b60008060009054906101000a900473ffffffffffffffffffffffffffffffffffffffff169050816000806101000a81548173ffffffffffffffffffffffffffffffffffffffff021916908373ffffffffffffffffffffffffffffffffffffffff1602179055508173ffffffffffffffffffffffffffffffffffffffff168173ffffffffffffffffffffffffffffffffffffffff167f8be0079c531659141344cd1fd0a4f28419497f9722a3daafe3b4186f6b6457e060405160405180910390a35050565b600073ffffffffffffffffffffffffffffffffffffffff82169050919050565b60006101888261015d565b9050919050565b6101988161017d565b82525050565b60006020820190506101b3600083018461018f565b92915050565b610f93806101c86000396000f3fe608060405234801561001057600080fd5b50600436106100cf5760003560e01c80638da5cb5b1161008c578063ce2ef58d11610066578063ce2ef58d14610212578063d686f45914610230578063dde019551461024c578063f2fde38b14610268576100cf565b80638da5cb5b146101a6578063b1e44d8f146101c4578063c77dbf68146101f4576100cf565b806322a9e01b146100d457806325c99679146101045780636da1a9f814610120578063715018a6146101505780637667984d1461015a57806387d85ee11461018a575b600080fd5b6100ee60048036038101906100e99190610b37565b610284565b6040516100fb9190610b7f565b60405180910390f35b61011e60048036038101906101199190610b37565b6102a4565b005b61013a60048036038101906101359190610b37565b6103d6565b6040516101479190610b7f565b60405180910390f35b6101586103f6565b005b610174600480360381019061016f9190610b37565b61040a565b6040516101819190610b7f565b60405180910390f35b6101a4600480360381019061019f9190610b37565b610460565b005b6101ae610592565b6040516101bb9190610ba9565b60405180910390f35b6101de60048036038101906101d99190610b37565b6105bb565b6040516101eb9190610b7f565b60405180910390f35b6101fc610611565b6040516102099190610bdd565b60405180910390f35b61021a610617565b6040516102279190610bdd565b60405180910390f35b61024a60048036038101906102459190610b37565b610621565b005b61026660048036038101906102619190610b37565b6107b0565b005b610282600480360381019061027d9190610b37565b6108fb565b005b60016020528060005260406000206000915054906101000a900460ff1681565b6102ac610981565b600160008273ffffffffffffffffffffffffffffffffffffffff1673ffffffffffffffffffffffffffffffffffffffff16815260200190815260200160002060009054906101000a900460ff16610338576040517f08c379a000000000000000000000000000000000000000000000000000000000815260040161032f90610c7b565b60405180910390fd5b6000600160008373ffffffffffffffffffffffffffffffffffffffff1673ffffffffffffffffffffffffffffffffffffffff16815260200190815260200160002060006101000a81548160ff0219169083151502179055508073ffffffffffffffffffffffffffffffffffffffff167fb861b1b5f49805731a1a70f27b5e03a1de6d8ba83d023b5ee5032a5690ea14be60405160405180910390a250565b60026020528060005260406000206000915054906101000a900460ff1681565b6103fe610981565b6104086000610a08565b565b6000600160008373ffffffffffffffffffffffffffffffffffffffff1673ffffffffffffffffffffffffffffffffffffffff16815260200190815260200160002060009054906101000a900460ff169050919050565b610468610981565b600160008273ffffffffffffffffffffffffffffffffffffffff1673ffffffffffffffffffffffffffffffffffffffff16815260200190815260200160002060009054906101000a900460ff16156104f5576040517f08c379a00000000000000000000000000000000000000000000000000000000081526004016104ec90610d0d565b60405180910390fd5b60018060008373ffffffffffffffffffffffffffffffffffffffff1673ffffffffffffffffffffffffffffffffffffffff16815260200190815260200160002060006101000a81548160ff0219169083151502179055508073ffffffffffffffffffffffffffffffffffffffff167f533558c74bcba14c4ffa9cdb14483c733479bee0b4da36ddaf16348d39f0d3f960405160405180910390a250565b60008060009054906101000a900473ffffffffffffffffffffffffffffffffffffffff16905090565b6000600260008373ffffffffffffffffffffffffffffffffffffffff1673ffffffffffffffffffffffffffffffffffffffff16815260200190815260200160002060009054906101000a900460ff169050919050565b60035481565b6000600354905090565b610629610981565b600260008273ffffffffffffffffffffffffffffffffffffffff1673ffffffffffffffffffffffffffffffffffffffff16815260200190815260200160002060009054906101000a900460ff166106b5576040517f08c379a00000000000000000000000000000000000000000000000000000000081526004016106ac90610d9f565b60405180910390fd5b6001600354116106fa576040517f08c379a00000000000000000000000000000000000000000000000000000000081526004016106f190610e0b565b60405180910390fd5b6000600260008373ffffffffffffffffffffffffffffffffffffffff1673ffffffffffffffffffffffffffffffffffffffff16815260200190815260200160002060006101000a81548160ff0219169083151502179055506003600081548092919061076590610e5a565b91905055508073ffffffffffffffffffffffffffffffffffffffff167f556f0f131426cb9172ebd574a4b04d8cc446a895b43ab4eebd0308d8edc5bdb260405160405180910390a250565b6107b8610981565b600260008273ffffffffffffffffffffffffffffffffffffffff1673ffffffffffffffffffffffffffffffffffffffff16815260200190815260200160002060009054906101000a900460ff1615610845576040517f08c379a000000000000000000000000000000000000000000000000000000000815260040161083c90610ef5565b60405180910390fd5b6001600260008373ffffffffffffffffffffffffffffffffffffffff1673ffffffffffffffffffffffffffffffffffffffff16815260200190815260200160002060006101000a81548160ff021916908315150217905550600360008154809291906108b090610f15565b91905055508073ffffffffffffffffffffffffffffffffffffffff167f8a50686624f3707e4b4469816c78eeaa934016ad81d575529f13b8ebb28f40fd60405160405180910390a250565b610903610981565b600073ffffffffffffffffffffffffffffffffffffffff168173ffffffffffffffffffffffffffffffffffffffff16036109755760006040517f1e4fbdf700000000000000000000000000000000000000000000000000000000815260040161096c9190610ba9565b60405180910390fd5b61097e81610a08565b50565b610989610acc565b73ffffffffffffffffffffffffffffffffffffffff166109a7610592565b73ffffffffffffffffffffffffffffffffffffffff1614610a06576109ca610acc565b6040517f118cdaa70000000000000000000000000000000000000000000000000000000081526004016109fd9190610ba9565b60405180910390fd5b565b60008060009054906101000a900473ffffffffffffffffffffffffffffffffffffffff169050816000806101000a81548173ffffffffffffffffffffffffffffffffffffffff021916908373ffffffffffffffffffffffffffffffffffffffff1602179055508173ffffffffffffffffffffffffffffffffffffffff168173ffffffffffffffffffffffffffffffffffffffff167f8be0079c531659141344cd1fd0a4f28419497f9722a3daafe3b4186f6b6457e060405160405180910390a35050565b600033905090565b600080fd5b600073ffffffffffffffffffffffffffffffffffffffff82169050919050565b6000610b0482610ad9565b9050919050565b610b1481610af9565b8114610b1f57600080fd5b50565b600081359050610b3181610b0b565b92915050565b600060208284031215610b4d57610b4c610ad4565b5b6000610b5b84828501610b22565b91505092915050565b60008115159050919050565b610b7981610b64565b82525050565b6000602082019050610b946000830184610b70565b92915050565b610ba381610af9565b82525050565b6000602082019050610bbe6000830184610b9a565b92915050565b6000819050919050565b610bd781610bc4565b82525050565b6000602082019050610bf26000830184610bce565b92915050565b600082825260208201905092915050565b7f556e61626c6520746f2072656d6f76652c206e6f74206120686f73706974616c60008201527f20726570726573656e7461746976650000000000000000000000000000000000602082015250565b6000610c65602f83610bf8565b9150610c7082610c09565b604082019050919050565b60006020820190508181036000830152610c9481610c58565b9050919050565b7f556e61626c6520746f206164642c20616c7265616479206120686f737069746160008201527f6c20726570726573656e74617469766500000000000000000000000000000000602082015250565b6000610cf7603083610bf8565b9150610d0282610c9b565b604082019050919050565b60006020820190508181036000830152610d2681610cea565b9050919050565b7f556e61626c6520746f2072656d6f76652c206e6f7420612044414f206d656d6260008201527f6572000000000000000000000000000000000000000000000000000000000000602082015250565b6000610d89602283610bf8565b9150610d9482610d2d565b604082019050919050565b60006020820190508181036000830152610db881610d7c565b9050919050565b7f43616e6e6f742072656d6f7665206c6173742044414f206d656d626572000000600082015250565b6000610df5601d83610bf8565b9150610e0082610dbf565b602082019050919050565b60006020820190508181036000830152610e2481610de8565b9050919050565b7f4e487b7100000000000000000000000000000000000000000000000000000000600052601160045260246000fd5b6000610e6582610bc4565b915060008203610e7857610e77610e2b565b5b600182039050919050565b7f556e61626c6520746f206164642c20616c726561647920612044414f206d656d60008201527f6265720000000000000000000000000000000000000000000000000000000000602082015250565b6000610edf602383610bf8565b9150610eea82610e83565b604082019050919050565b60006020820190508181036000830152610f0e81610ed2565b9050919050565b6000610f2082610bc4565b91507fffffffffffffffffffffffffffffffffffffffffffffffffffffffffffffffff8203610f5257610f51610e2b565b5b60018201905091905056fea264697066735822122037a977f4f83d878f1445dfa33aebdafebeaae1ad9129d9200e5a9083b5f9646564736f6c634300081c0033",
  "linkReferences": {},
  "deployedLinkReferences": {}
}