{
  "_format": "hh-sol-artifact-1",
  "contractName": "MediTrustCampaign",
  "sourceName": "contracts/MediTrustCampaign.sol",
  "abi": [
    {
      "inputs": [
        {
          "internalType": "address",
          "name": "roleAddress",
          "type": "address"
        }
      ],
      "stateMutability": "nonpayable",
      "type": "constructor"
    },
    {
      "anonymous": false,
      "inputs": [
        {
          "indexed": true,
          "internalType": "uint256",
          "name": "campaignID",
          "type": "uint256"
        }
      ],
      "name": "CampaignApprove",
      "type": "event"
    },
    {
      "anonymous": false,
      "inputs": [
        {
          "indexed": true,
          "internalType": "uint256",
          "name": "campaignID",
          "type": "uint256"
        }
      ],
      "name": "CampaignComplete",
      "type": "event"
    },
    {
      "anonymous": false,
      "inputs": [
        {
          "indexed": true,
          "internalType": "uint256",
          "name": "campaignID",
          "type": "uint256"
        }
      ],
      "name": "CampaignReject",
      "type": "event"
    },
    {
      "anonymous": false,
      "inputs": [
        {
          "indexed": true,
          "internalType": "uint256",
          "name": "campaignID",
          "type": "uint256"
        },
        {
          "indexed": true,
          "internalType": "address",
          "name": "patient",
          "type": "address"
        },
        {
          "indexed": false,
          "internalType": "uint256",
          "name": "target",
          "type": "uint256"
        },
        {
          "indexed": false,
          "internalType": "string",
          "name": "diagnosisHash",
          "type": "string"
        },
        {
          "indexed": false,
          "internalType": "string",
          "name": "quotationHash",
          "type": "string"
        }
      ],
      "name": "CampaignSubmit",
      "type": "event"
    },
    {
      "inputs": [
        {
          "internalType": "uint256",
          "name": "campaignID",
          "type": "uint256"
        }
      ],
      "name": "approveCampaign",
      "outputs": [],
      "stateMutability": "nonpayable",
      "type": "function"
    },
    {
      "inputs": [],
      "name": "campaignCount",
      "outputs": [
        {
          "internalType": "uint256",
          "name": "",
          "type": "uint256"
        }
      ],
      "stateMutability": "view",
      "type": "function"
    },
    {
      "inputs": [
        {
          "internalType": "uint256",
          "name": "",
          "type": "uint256"
        }
      ],
      "name": "campaigns",
      "outputs": [
        {
          "internalType": "address",
          "name": "patient",
          "type": "address"
        },
        {
          "internalType": "uint256",
          "name": "target",
          "type": "uint256"
        },
        {
          "internalType": "uint256",
          "name": "raised",
          "type": "uint256"
        },
        {
          "internalType": "uint256",
          "name": "duration",
          "type": "uint256"
        },
        {
          "internalType": "string",
          "name": "diagnosisHash",
          "type": "string"
        },
        {
          "internalType": "string",
          "name": "quotationHash",
          "type": "string"
        },
        {
          "internalType": "enum MediTrustCampaign.CampaignStatus",
          "name": "status",
          "type": "uint8"
        },
        {
          "internalType": "uint256",
          "name": "startDate",
          "type": "uint256"
        }
      ],
      "stateMutability": "view",
      "type": "function"
    },
    {
      "inputs": [],
      "name": "fundsAddress",
      "outputs": [
        {
          "internalType": "address",
          "name": "",
          "type": "address"
        }
      ],
      "stateMutability": "view",
      "type": "function"
    },
    {
      "inputs": [],
      "name": "getAllCampaignIds",
      "outputs": [
        {
          "internalType": "uint256[]",
          "name": "",
          "type": "uint256[]"
        }
      ],
      "stateMutability": "view",
      "type": "function"
    },
    {
      "inputs": [],
      "name": "getApprovedCampaignIds",
      "outputs": [
        {
          "internalType": "uint256[]",
          "name": "",
          "type": "uint256[]"
        }
      ],
      "stateMutability": "view",
      "type": "function"
    },
    {
      "inputs": [
        {
          "internalType": "uint256",
          "name": "campaignID",
          "type": "uint256"
        }
      ],
      "name": "getCampaign",
      "outputs": [
        {
          "internalType": "address",
          "name": "patient",
          "type": "address"
        },
        {
          "internalType": "uint256",
          "name": "target",
          "type": "uint256"
        },
        {
          "internalType": "uint256",
          "name": "raised",
          "type": "uint256"
        },
        {
          "internalType": "uint256",
          "name": "duration",
          "type": "uint256"
        },
        {
          "internalType": "string",
          "name": "diagnosisHash",
          "type": "string"
        },
        {
          "internalType": "string",
          "name": "quotationHash",
          "type": "string"
        },
        {
          "internalType": "enum MediTrustCampaign.CampaignStatus",
          "name": "status",
          "type": "uint8"
        }
      ],
      "stateMutability": "view",
      "type": "function"
    },
    {
      "inputs": [
        {
          "internalType": "enum MediTrustCampaign.CampaignStatus",
          "name": "status",
          "type": "uint8"
        }
      ],
      "name": "getCampaignCount",
      "outputs": [
        {
          "internalType": "uint256",
          "name": "",
          "type": "uint256"
        }
      ],
      "stateMutability": "view",
      "type": "function"
    },
    {
      "inputs": [],
      "name": "getCompletedCampaignIds",
      "outputs": [
        {
          "internalType": "uint256[]",
          "name": "",
          "type": "uint256[]"
        }
      ],
      "stateMutability": "view",
      "type": "function"
    },
    {
      "inputs": [],
      "name": "getFundsContract",
      "outputs": [
        {
          "internalType": "address",
          "name": "",
          "type": "address"
        }
      ],
      "stateMutability": "view",
      "type": "function"
    },
    {
      "inputs": [],
      "name": "getPendingCampaignIds",
      "outputs": [
        {
          "internalType": "uint256[]",
          "name": "",
          "type": "uint256[]"
        }
      ],
      "stateMutability": "view",
      "type": "function"
    },
    {
      "inputs": [],
      "name": "getTotalRaised",
      "outputs": [
        {
          "internalType": "uint256",
          "name": "",
          "type": "uint256"
        }
      ],
      "stateMutability": "view",
      "type": "function"
    },
    {
      "inputs": [
        {
          "internalType": "uint256",
          "name": "campaignID",
          "type": "uint256"
        }
      ],
      "name": "isCampaignActive",
      "outputs": [
        {
          "internalType": "bool",
          "name": "",
          "type": "bool"
        }
      ],
      "stateMutability": "view",
      "type": "function"
    },
    {
      "inputs": [
        {
          "internalType": "uint256",
          "name": "campaignID",
          "type": "uint256"
        }
      ],
      "name": "isPatient",
      "outputs": [
        {
          "internalType": "bool",
          "name": "",
          "type": "bool"
        }
      ],
      "stateMutability": "view",
      "type": "function"
    },
    {
      "inputs": [
        {
          "internalType": "uint256",
          "name": "campaignID",
          "type": "uint256"
        }
      ],
      "name": "rejectCampaign",
      "outputs": [],
      "stateMutability": "nonpayable",
      "type": "function"
    },
    {
      "inputs": [],
      "name": "roleContract",
      "outputs": [
        {
          "internalType": "contract MediTrustRoles",
          "name": "",
          "type": "address"
        }
      ],
      "stateMutability": "view",
      "type": "function"
    },
    {
      "inputs": [
        {
          "internalType": "address",
          "name": "funds",
          "type": "address"
        }
      ],
      "name": "setFundsContract",
      "outputs": [],
      "stateMutability": "nonpayable",
      "type": "function"
    },
    {
      "inputs": [
        {
          "internalType": "uint256",
          "name": "campaignID",
          "type": "uint256"
        },
        {
          "internalType": "uint256",
          "name": "amount",
          "type": "uint256"
        }
      ],
      "name": "setRaised",
      "outputs": [],
      "stateMutability": "nonpayable",
      "type": "function"
    },
    {
      "inputs": [
        {
          "internalType": "uint256",
          "name": "target",
          "type": "uint256"
        },
        {
          "internalType": "uint256",
          "name": "duration",
          "type": "uint256"
        },
        {
          "internalType": "string",
          "name": "diagnosisHash",
          "type": "string"
        },
        {
          "internalType": "string",
          "name": "quotationHash",
          "type": "string"
        }
      ],
      "name": "submitCampaign",
      "outputs": [
        {
          "internalType": "uint256",
          "name": "",
          "type": "uint256"
        }
      ],
      "stateMutability": "nonpayable",
      "type": "function"
    }
  ],
  "bytecode": "0x608060405234801561001057600080fd5b506040516129ce3803806129ce833981810160405281019061003291906100db565b806000806101000a81548173ffffffffffffffffffffffffffffffffffffffff021916908373ffffffffffffffffffffffffffffffffffffffff16021790555050610108565b600080fd5b600073ffffffffffffffffffffffffffffffffffffffff82169050919050565b60006100a88261007d565b9050919050565b6100b88161009d565b81146100c357600080fd5b50565b6000815190506100d5816100af565b92915050565b6000602082840312156100f1576100f0610078565b5b60006100ff848285016100c6565b91505092915050565b6128b7806101176000396000f3fe608060405234801561001057600080fd5b50600436106101215760003560e01c80638c1731f7116100ad578063e1e3300911610071578063e1e330091461031b578063ee4e1b531461034b578063effa334c14610367578063f53bded114610397578063f89723b8146103b357610121565b80638c1731f71461027357806399384fd9146102915780639f550293146102c1578063a75576d5146102df578063a77ccd6e146102fd57610121565b80632c9932ec116100f45780632c9932ec146101b35780634c16ad04146101d15780635598f8cc146102015780637274e30d14610237578063863f86771461025557610121565b80630161ca7914610126578063034d09da14610142578063041824961461015e578063141961bc1461017c575b600080fd5b610140600480360381019061013b919061170f565b6103d1565b005b61015c60048036038101906101579190611772565b6104a6565b005b61016661066c565b604051610173919061185d565b60405180910390f35b61019660048036038101906101919190611772565b6106ff565b6040516101aa9897969594939291906119a4565b60405180910390f35b6101bb610884565b6040516101c89190611a30565b60405180910390f35b6101eb60048036038101906101e69190611a70565b6108ae565b6040516101f89190611a9d565b60405180910390f35b61021b60048036038101906102169190611772565b610936565b60405161022e9796959493929190611ab8565b60405180910390f35b61023f610ad7565b60405161024c9190611a9d565b60405180910390f35b61025d610add565b60405161026a919061185d565b60405180910390f35b61027b610c49565b604051610288919061185d565b60405180910390f35b6102ab60048036038101906102a69190611c6a565b610db3565b6040516102b89190611a9d565b60405180910390f35b6102c961101b565b6040516102d69190611a9d565b60405180910390f35b6102e7611068565b6040516102f4919061185d565b60405180910390f35b6103056111d4565b6040516103129190611a30565b60405180910390f35b61033560048036038101906103309190611772565b6111fa565b6040516103429190611d24565b60405180910390f35b61036560048036038101906103609190611772565b611280565b005b610381600480360381019061037c9190611772565b6114aa565b60405161038e9190611d24565b60405180910390f35b6103b160048036038101906103ac9190611d3f565b611518565b005b6103bb611679565b6040516103c89190611dde565b60405180910390f35b600073ffffffffffffffffffffffffffffffffffffffff16600160009054906101000a900473ffffffffffffffffffffffffffffffffffffffff1673ffffffffffffffffffffffffffffffffffffffff1614610462576040517f08c379a000000000000000000000000000000000000000000000000000000000815260040161045990611e6b565b60405180910390fd5b80600160006101000a81548173ffffffffffffffffffffffffffffffffffffffff021916908373ffffffffffffffffffffffffffffffffffffffff16021790555050565b60008054906101000a900473ffffffffffffffffffffffffffffffffffffffff1673ffffffffffffffffffffffffffffffffffffffff16637667984d336040518263ffffffff1660e01b81526004016104ff9190611a30565b602060405180830381865afa15801561051c573d6000803e3d6000fd5b505050506040513d601f19601f820116820180604052508101906105409190611eb7565b61057f576040517f08c379a000000000000000000000000000000000000000000000000000000000815260040161057690611f56565b60405180910390fd5b6000600260008381526020019081526020016000209050600060038111156105aa576105a961192d565b5b8160060160009054906101000a900460ff1660038111156105ce576105cd61192d565b5b1461060e576040517f08c379a000000000000000000000000000000000000000000000000000000000815260040161060590611fe8565b60405180910390fd5b60028160060160006101000a81548160ff021916908360038111156106365761063561192d565b5b0217905550817fda5aab8af1d17b76a11bb897fbd425a6c81bc66c59a3549e52622c5336fa834160405160405180910390a25050565b6060600060035467ffffffffffffffff81111561068c5761068b611b3f565b5b6040519080825280602002602001820160405280156106ba5781602001602082028036833780820191505090505b50905060005b6003548110156106f757808282815181106106de576106dd612008565b5b60200260200101818152505080806001019150506106c0565b508091505090565b60026020528060005260406000206000915090508060000160009054906101000a900473ffffffffffffffffffffffffffffffffffffffff169080600101549080600201549080600301549080600401805461075a90612066565b80601f016020809104026020016040519081016040528092919081815260200182805461078690612066565b80156107d35780601f106107a8576101008083540402835291602001916107d3565b820191906000526020600020905b8154815290600101906020018083116107b657829003601f168201915b5050505050908060050180546107e890612066565b80601f016020809104026020016040519081016040528092919081815260200182805461081490612066565b80156108615780601f1061083657610100808354040283529160200191610861565b820191906000526020600020905b81548152906001019060200180831161084457829003601f168201915b5050505050908060060160009054906101000a900460ff16908060070154905088565b6000600160009054906101000a900473ffffffffffffffffffffffffffffffffffffffff16905090565b6000806000905060005b60035481101561092c578360038111156108d5576108d461192d565b5b6002600083815260200190815260200160002060060160009054906101000a900460ff16600381111561090b5761090a61192d565b5b0361091f57818061091b906120c6565b9250505b80806001019150506108b8565b5080915050919050565b600080600080606080600080600260008a815260200190815260200160002090508060000160009054906101000a900473ffffffffffffffffffffffffffffffffffffffff1681600101548260020154836003015484600401856005018660060160009054906101000a900460ff168280546109b190612066565b80601f01602080910402602001604051908101604052809291908181526020018280546109dd90612066565b8015610a2a5780601f106109ff57610100808354040283529160200191610a2a565b820191906000526020600020905b815481529060010190602001808311610a0d57829003601f168201915b50505050509250818054610a3d90612066565b80601f0160208091040260200160405190810160405280929190818152602001828054610a6990612066565b8015610ab65780601f10610a8b57610100808354040283529160200191610ab6565b820191906000526020600020905b815481529060010190602001808311610a9957829003601f168201915b50505050509150975097509750975097509750975050919395979092949650565b60035481565b60606000805b600354811015610b585760016003811115610b0157610b0061192d565b5b6002600083815260200190815260200160002060060160009054906101000a900460ff166003811115610b3757610b3661192d565b5b03610b4b578180610b47906120c6565b9250505b8080600101915050610ae3565b5060008167ffffffffffffffff811115610b7557610b74611b3f565b5b604051908082528060200260200182016040528015610ba35781602001602082028036833780820191505090505b5090506000805b600354811015610c3f5760016003811115610bc857610bc761192d565b5b6002600083815260200190815260200160002060060160009054906101000a900460ff166003811115610bfe57610bfd61192d565b5b03610c325780838381518110610c1757610c16612008565b5b6020026020010181815250508180610c2e906120c6565b9250505b8080600101915050610baa565b5081935050505090565b60606000805b600354811015610cc357600380811115610c6c57610c6b61192d565b5b6002600083815260200190815260200160002060060160009054906101000a900460ff166003811115610ca257610ca161192d565b5b03610cb6578180610cb2906120c6565b9250505b8080600101915050610c4f565b5060008167ffffffffffffffff811115610ce057610cdf611b3f565b5b604051908082528060200260200182016040528015610d0e5781602001602082028036833780820191505090505b5090506000805b600354811015610da957600380811115610d3257610d3161192d565b5b6002600083815260200190815260200160002060060160009054906101000a900460ff166003811115610d6857610d6761192d565b5b03610d9c5780838381518110610d8157610d80612008565b5b6020026020010181815250508180610d98906120c6565b9250505b8080600101915050610d15565b5081935050505090565b6000808511610df7576040517f08c379a0000000000000000000000000000000000000000000000000000000008152600401610dee9061215a565b60405180910390fd5b600084118015610e09575061016d8411155b610e48576040517f08c379a0000000000000000000000000000000000000000000000000000000008152600401610e3f906121c6565b60405180910390fd5b6000835111610e8c576040517f08c379a0000000000000000000000000000000000000000000000000000000008152600401610e8390612258565b60405180910390fd5b6000825111610ed0576040517f08c379a0000000000000000000000000000000000000000000000000000000008152600401610ec7906122ea565b60405180910390fd5b600060036000815480929190610ee5906120c6565b9190505590506000600260008381526020019081526020016000209050338160000160006101000a81548173ffffffffffffffffffffffffffffffffffffffff021916908373ffffffffffffffffffffffffffffffffffffffff1602179055508681600101819055506000816002018190555085816003018190555084816004019081610f7291906124ac565b5083816005019081610f8491906124ac565b5060008160060160006101000a81548160ff02191690836003811115610fad57610fac61192d565b5b02179055504281600701819055503373ffffffffffffffffffffffffffffffffffffffff16827ff77e2cc7bc169bf4a77704aeff697782ed80d754f8fd942f5ae2cf644b2442e58988886040516110069392919061257e565b60405180910390a38192505050949350505050565b6000806000905060005b6003548110156110605760026000828152602001908152602001600020600201548261105191906125c3565b91508080600101915050611025565b508091505090565b60606000805b6003548110156110e3576000600381111561108c5761108b61192d565b5b6002600083815260200190815260200160002060060160009054906101000a900460ff1660038111156110c2576110c161192d565b5b036110d65781806110d2906120c6565b9250505b808060010191505061106e565b5060008167ffffffffffffffff811115611100576110ff611b3f565b5b60405190808252806020026020018201604052801561112e5781602001602082028036833780820191505090505b5090506000805b6003548110156111ca57600060038111156111535761115261192d565b5b6002600083815260200190815260200160002060060160009054906101000a900460ff1660038111156111895761118861192d565b5b036111bd57808383815181106111a2576111a1612008565b5b60200260200101818152505081806111b9906120c6565b9250505b8080600101915050611135565b5081935050505090565b600160009054906101000a900473ffffffffffffffffffffffffffffffffffffffff1681565b600080600260008481526020019081526020016000209050600160038111156112265761122561192d565b5b8160060160009054906101000a900460ff16600381111561124a5761124961192d565b5b148015611278575062015180816003015461126591906125f7565b816007015461127491906125c3565b4211155b915050919050565b60008054906101000a900473ffffffffffffffffffffffffffffffffffffffff1673ffffffffffffffffffffffffffffffffffffffff16637667984d336040518263ffffffff1660e01b81526004016112d99190611a30565b602060405180830381865afa1580156112f6573d6000803e3d6000fd5b505050506040513d601f19601f8201168201806040525081019061131a9190611eb7565b611359576040517f08c379a0000000000000000000000000000000000000000000000000000000008152600401611350906126ab565b60405180910390fd5b6000600260008381526020019081526020016000209050600060038111156113845761138361192d565b5b8160060160009054906101000a900460ff1660038111156113a8576113a761192d565b5b146113e8576040517f08c379a00000000000000000000000000000000000000000000000000000000081526004016113df9061273d565b60405180910390fd5b6201518081600301546113fb91906125f7565b816007015461140a91906125c3565b42111561144c576040517f08c379a0000000000000000000000000000000000000000000000000000000008152600401611443906127cf565b60405180910390fd5b60018160060160006101000a81548160ff021916908360038111156114745761147361192d565b5b0217905550817fb598c2ae1ba3b00520d1d2a92173108bc8935593bfa8bac8bf7facfe767528a860405160405180910390a25050565b60006002600083815260200190815260200160002060000160009054906101000a900473ffffffffffffffffffffffffffffffffffffffff1673ffffffffffffffffffffffffffffffffffffffff163373ffffffffffffffffffffffffffffffffffffffff16149050919050565b600160009054906101000a900473ffffffffffffffffffffffffffffffffffffffff1673ffffffffffffffffffffffffffffffffffffffff163373ffffffffffffffffffffffffffffffffffffffff16146115a8576040517f08c379a000000000000000000000000000000000000000000000000000000000815260040161159f90612861565b60405180910390fd5b806002600084815260200190815260200160002060020160008282546115ce91906125c3565b9250508190555060026000838152602001908152602001600020600101546002600084815260200190815260200160002060020154106116755760036002600084815260200190815260200160002060060160006101000a81548160ff021916908360038111156116425761164161192d565b5b0217905550817f7c9ef824eb9b2b83356339e0f54e1b1d33beaa78fbfcecf1f6b92a93d150037f60405160405180910390a25b5050565b60008054906101000a900473ffffffffffffffffffffffffffffffffffffffff1681565b6000604051905090565b600080fd5b600080fd5b600073ffffffffffffffffffffffffffffffffffffffff82169050919050565b60006116dc826116b1565b9050919050565b6116ec816116d1565b81146116f757600080fd5b50565b600081359050611709816116e3565b92915050565b600060208284031215611725576117246116a7565b5b6000611733848285016116fa565b91505092915050565b6000819050919050565b61174f8161173c565b811461175a57600080fd5b50565b60008135905061176c81611746565b92915050565b600060208284031215611788576117876116a7565b5b60006117968482850161175d565b91505092915050565b600081519050919050565b600082825260208201905092915050565b6000819050602082019050919050565b6117d48161173c565b82525050565b60006117e683836117cb565b60208301905092915050565b6000602082019050919050565b600061180a8261179f565b61181481856117aa565b935061181f836117bb565b8060005b8381101561185057815161183788826117da565b9750611842836117f2565b925050600181019050611823565b5085935050505092915050565b6000602082019050818103600083015261187781846117ff565b905092915050565b611888816116d1565b82525050565b6118978161173c565b82525050565b600081519050919050565b600082825260208201905092915050565b60005b838110156118d75780820151818401526020810190506118bc565b60008484015250505050565b6000601f19601f8301169050919050565b60006118ff8261189d565b61190981856118a8565b93506119198185602086016118b9565b611922816118e3565b840191505092915050565b7f4e487b7100000000000000000000000000000000000000000000000000000000600052602160045260246000fd5b6004811061196d5761196c61192d565b5b50565b600081905061197e8261195c565b919050565b600061198e82611970565b9050919050565b61199e81611983565b82525050565b6000610100820190506119ba600083018b61187f565b6119c7602083018a61188e565b6119d4604083018961188e565b6119e1606083018861188e565b81810360808301526119f381876118f4565b905081810360a0830152611a0781866118f4565b9050611a1660c0830185611995565b611a2360e083018461188e565b9998505050505050505050565b6000602082019050611a45600083018461187f565b92915050565b60048110611a5857600080fd5b50565b600081359050611a6a81611a4b565b92915050565b600060208284031215611a8657611a856116a7565b5b6000611a9484828501611a5b565b91505092915050565b6000602082019050611ab2600083018461188e565b92915050565b600060e082019050611acd600083018a61187f565b611ada602083018961188e565b611ae7604083018861188e565b611af4606083018761188e565b8181036080830152611b0681866118f4565b905081810360a0830152611b1a81856118f4565b9050611b2960c0830184611995565b98975050505050505050565b600080fd5b600080fd5b7f4e487b7100000000000000000000000000000000000000000000000000000000600052604160045260246000fd5b611b77826118e3565b810181811067ffffffffffffffff82111715611b9657611b95611b3f565b5b80604052505050565b6000611ba961169d565b9050611bb58282611b6e565b919050565b600067ffffffffffffffff821115611bd557611bd4611b3f565b5b611bde826118e3565b9050602081019050919050565b82818337600083830152505050565b6000611c0d611c0884611bba565b611b9f565b905082815260208101848484011115611c2957611c28611b3a565b5b611c34848285611beb565b509392505050565b600082601f830112611c5157611c50611b35565b5b8135611c61848260208601611bfa565b91505092915050565b60008060008060808587031215611c8457611c836116a7565b5b6000611c928782880161175d565b9450506020611ca38782880161175d565b935050604085013567ffffffffffffffff811115611cc457611cc36116ac565b5b611cd087828801611c3c565b925050606085013567ffffffffffffffff811115611cf157611cf06116ac565b5b611cfd87828801611c3c565b91505092959194509250565b60008115159050919050565b611d1e81611d09565b82525050565b6000602082019050611d396000830184611d15565b92915050565b60008060408385031215611d5657611d556116a7565b5b6000611d648582860161175d565b9250506020611d758582860161175d565b9150509250929050565b6000819050919050565b6000611da4611d9f611d9a846116b1565b611d7f565b6116b1565b9050919050565b6000611db682611d89565b9050919050565b6000611dc882611dab565b9050919050565b611dd881611dbd565b82525050565b6000602082019050611df36000830184611dcf565b92915050565b7f556e617574686f72697a65642c2066756e647320636f6e747261637420616c7260008201527f6561647920736574000000000000000000000000000000000000000000000000602082015250565b6000611e556028836118a8565b9150611e6082611df9565b604082019050919050565b60006020820190508181036000830152611e8481611e48565b9050919050565b611e9481611d09565b8114611e9f57600080fd5b50565b600081519050611eb181611e8b565b92915050565b600060208284031215611ecd57611ecc6116a7565b5b6000611edb84828501611ea2565b91505092915050565b7f536f7272792c206f6e6c7920686f73706974616c20726570726573656e74617460008201527f697665732063616e2072656a6563740000000000000000000000000000000000602082015250565b6000611f40602f836118a8565b9150611f4b82611ee4565b604082019050919050565b60006020820190508181036000830152611f6f81611f33565b9050919050565b7f556e61626c6520746f2072656a6563742c2063616d706169676e206e6f74207060008201527f656e64696e670000000000000000000000000000000000000000000000000000602082015250565b6000611fd26026836118a8565b9150611fdd82611f76565b604082019050919050565b6000602082019050818103600083015261200181611fc5565b9050919050565b7f4e487b7100000000000000000000000000000000000000000000000000000000600052603260045260246000fd5b7f4e487b7100000000000000000000000000000000000000000000000000000000600052602260045260246000fd5b6000600282049050600182168061207e57607f821691505b60208210810361209157612090612037565b5b50919050565b7f4e487b7100000000000000000000000000000000000000000000000000000000600052601160045260246000fd5b60006120d18261173c565b91507fffffffffffffffffffffffffffffffffffffffffffffffffffffffffffffffff820361210357612102612097565b5b600182019050919050565b7f54727920616761696e2c20696e76616c69642074617267657420616d6f756e74600082015250565b60006121446020836118a8565b915061214f8261210e565b602082019050919050565b6000602082019050818103600083015261217381612137565b9050919050565b7f54727920616761696e2c20696e76616c6964206475726174696f6e0000000000600082015250565b60006121b0601b836118a8565b91506121bb8261217a565b602082019050919050565b600060208201905081810360008301526121df816121a3565b9050919050565b7f54727920616761696e2c204d65646963616c20446961676e6f7369732068617360008201527f6820726571756972656400000000000000000000000000000000000000000000602082015250565b6000612242602a836118a8565b915061224d826121e6565b604082019050919050565b6000602082019050818103600083015261227181612235565b9050919050565b7f54727920616761696e2c2054726561746d656e7420517561746174696f6e206860008201527f6173682072657175697265640000000000000000000000000000000000000000602082015250565b60006122d4602c836118a8565b91506122df82612278565b604082019050919050565b60006020820190508181036000830152612303816122c7565b9050919050565b60008190508160005260206000209050919050565b60006020601f8301049050919050565b600082821b905092915050565b60006008830261236c7fffffffffffffffffffffffffffffffffffffffffffffffffffffffffffffffff8261232f565b612376868361232f565b95508019841693508086168417925050509392505050565b60006123a96123a461239f8461173c565b611d7f565b61173c565b9050919050565b6000819050919050565b6123c38361238e565b6123d76123cf826123b0565b84845461233c565b825550505050565b600090565b6123ec6123df565b6123f78184846123ba565b505050565b5b8181101561241b576124106000826123e4565b6001810190506123fd565b5050565b601f821115612460576124318161230a565b61243a8461231f565b81016020851015612449578190505b61245d6124558561231f565b8301826123fc565b50505b505050565b600082821c905092915050565b600061248360001984600802612465565b1980831691505092915050565b600061249c8383612472565b9150826002028217905092915050565b6124b58261189d565b67ffffffffffffffff8111156124ce576124cd611b3f565b5b6124d88254612066565b6124e382828561241f565b600060209050601f8311600181146125165760008415612504578287015190505b61250e8582612490565b865550612576565b601f1984166125248661230a565b60005b8281101561254c57848901518255600182019150602085019450602081019050612527565b868310156125695784890151612565601f891682612472565b8355505b6001600288020188555050505b505050505050565b6000606082019050612593600083018661188e565b81810360208301526125a581856118f4565b905081810360408301526125b981846118f4565b9050949350505050565b60006125ce8261173c565b91506125d98361173c565b92508282019050808211156125f1576125f0612097565b5b92915050565b60006126028261173c565b915061260d8361173c565b925082820261261b8161173c565b9150828204841483151761263257612631612097565b5b5092915050565b7f536f7272792c206f6e6c7920686f73706974616c20726570726573656e74617460008201527f697665732063616e20617070726f766500000000000000000000000000000000602082015250565b60006126956030836118a8565b91506126a082612639565b604082019050919050565b600060208201905081810360008301526126c481612688565b9050919050565b7f556e61626c6520746f20617070726f76652c2063616d706169676e206e6f742060008201527f70656e64696e6700000000000000000000000000000000000000000000000000602082015250565b60006127276027836118a8565b9150612732826126cb565b604082019050919050565b600060208201905081810360008301526127568161271a565b9050919050565b7f556e61626c6520746f20617070726f76652c2063616d706169676e206578706960008201527f7265640000000000000000000000000000000000000000000000000000000000602082015250565b60006127b96023836118a8565b91506127c48261275d565b604082019050919050565b600060208201905081810360008301526127e8816127ac565b9050919050565b7f556e617574686f72697a65642c20696e76616c696420636f6e7472616374206160008201527f6464726573730000000000000000000000000000000000000000000000000000602082015250565b600061284b6026836118a8565b9150612856826127ef565b604082019050919050565b6000602082019050818103600083015261287a8161283e565b905091905056fea2646970667358221220c8d88143f614e94dbaef5deee88cfbc9f78af3d1c47765a809310081fc22fb3664736f6c634300081c0033",
  "linkReferences": {},
  "deployedLinkReferences": {}
}