{
  "_format": "hh-sol-artifact-1",
  "contractName": "MediTrustCampaign",
  "sourceName": "contracts/MediTrustCampaign.sol",
  "abi": [
    {
      "inputs": [
        {
          "internalType": "address",
          "name": "roleAddress",
          "type": "address"
        }
      ],
      "stateMutability": "nonpayable",
      "type": "constructor"
    },
    {
      "anonymous": false,
      "inputs": [
        {
          "indexed": true,
          "internalType": "uint256",
          "name": "campaignID",
          "type": "uint256"
        }
      ],
      "name": "CampaignApprove",
      "type": "event"
    },
    {
      "anonymous": false,
      "inputs": [
        {
          "indexed": true,
          "internalType": "uint256",
          "name": "campaignID",
          "type": "uint256"
        }
      ],
      "name": "CampaignComplete",
      "type": "event"
    },
    {
      "anonymous": false,
      "inputs": [
        {
          "indexed": true,
          "internalType": "uint256",
          "name": "campaignID",
          "type": "uint256"
        }
      ],
      "name": "CampaignReject",
      "type": "event"
    },
    {
      "anonymous": false,
      "inputs": [
        {
          "indexed": true,
          "internalType": "uint256",
          "name": "campaignID",
          "type": "uint256"
        },
        {
          "indexed": true,
          "internalType": "address",
          "name": "patient",
          "type": "address"
        },
        {
          "indexed": false,
          "internalType": "uint256",
          "name": "target",
          "type": "uint256"
        },
        {
          "indexed": false,
          "internalType": "string",
          "name": "diagnosisHash",
          "type": "string"
        },
        {
          "indexed": false,
          "internalType": "string",
          "name": "quotationHash",
          "type": "string"
        }
      ],
      "name": "CampaignSubmit",
      "type": "event"
    },
    {
      "inputs": [
        {
          "internalType": "uint256",
          "name": "campaignID",
          "type": "uint256"
        }
      ],
      "name": "approveCampaign",
      "outputs": [],
      "stateMutability": "nonpayable",
      "type": "function"
    },
    {
      "inputs": [],
      "name": "campaignCount",
      "outputs": [
        {
          "internalType": "uint256",
          "name": "",
          "type": "uint256"
        }
      ],
      "stateMutability": "view",
      "type": "function"
    },
    {
      "inputs": [
        {
          "internalType": "uint256",
          "name": "",
          "type": "uint256"
        }
      ],
      "name": "campaigns",
      "outputs": [
        {
          "internalType": "address",
          "name": "patient",
          "type": "address"
        },
        {
          "internalType": "uint256",
          "name": "target",
          "type": "uint256"
        },
        {
          "internalType": "uint256",
          "name": "raised",
          "type": "uint256"
        },
        {
          "internalType": "uint256",
          "name": "duration",
          "type": "uint256"
        },
        {
          "internalType": "string",
          "name": "diagnosisHash",
          "type": "string"
        },
        {
          "internalType": "string",
          "name": "quotationHash",
          "type": "string"
        },
        {
          "internalType": "enum MediTrustCampaign.CampaignStatus",
          "name": "status",
          "type": "uint8"
        },
        {
          "internalType": "uint256",
          "name": "startDate",
          "type": "uint256"
        }
      ],
      "stateMutability": "view",
      "type": "function"
    },
    {
      "inputs": [],
      "name": "fundsAddress",
      "outputs": [
        {
          "internalType": "address",
          "name": "",
          "type": "address"
        }
      ],
      "stateMutability": "view",
      "type": "function"
    },
    {
      "inputs": [],
      "name": "getAllCampaignIDs",
      "outputs": [
        {
          "internalType": "uint256[]",
          "name": "",
          "type": "uint256[]"
        }
      ],
      "stateMutability": "view",
      "type": "function"
    },
    {
      "inputs": [
        {
          "internalType": "uint256",
          "name": "campaignID",
          "type": "uint256"
        }
      ],
      "name": "getCampaign",
      "outputs": [
        {
          "internalType": "address",
          "name": "patient",
          "type": "address"
        },
        {
          "internalType": "uint256",
          "name": "target",
          "type": "uint256"
        },
        {
          "internalType": "uint256",
          "name": "raised",
          "type": "uint256"
        },
        {
          "internalType": "uint256",
          "name": "duration",
          "type": "uint256"
        },
        {
          "internalType": "string",
          "name": "diagnosisHash",
          "type": "string"
        },
        {
          "internalType": "string",
          "name": "quotationHash",
          "type": "string"
        },
        {
          "internalType": "enum MediTrustCampaign.CampaignStatus",
          "name": "status",
          "type": "uint8"
        }
      ],
      "stateMutability": "view",
      "type": "function"
    },
    {
      "inputs": [
        {
          "internalType": "enum MediTrustCampaign.CampaignStatus",
          "name": "status",
          "type": "uint8"
        }
      ],
      "name": "getCampaignCount",
      "outputs": [
        {
          "internalType": "uint256",
          "name": "",
          "type": "uint256"
        }
      ],
      "stateMutability": "view",
      "type": "function"
    },
    {
      "inputs": [
        {
          "internalType": "enum MediTrustCampaign.CampaignStatus",
          "name": "status",
          "type": "uint8"
        }
      ],
      "name": "getCampaignIDs",
      "outputs": [
        {
          "internalType": "uint256[]",
          "name": "",
          "type": "uint256[]"
        }
      ],
      "stateMutability": "view",
      "type": "function"
    },
    {
      "inputs": [],
      "name": "getFundsContract",
      "outputs": [
        {
          "internalType": "address",
          "name": "",
          "type": "address"
        }
      ],
      "stateMutability": "view",
      "type": "function"
    },
    {
      "inputs": [],
      "name": "getTotalRaised",
      "outputs": [
        {
          "internalType": "uint256",
          "name": "",
          "type": "uint256"
        }
      ],
      "stateMutability": "view",
      "type": "function"
    },
    {
      "inputs": [
        {
          "internalType": "uint256",
          "name": "campaignID",
          "type": "uint256"
        }
      ],
      "name": "isCampaignActive",
      "outputs": [
        {
          "internalType": "bool",
          "name": "",
          "type": "bool"
        }
      ],
      "stateMutability": "view",
      "type": "function"
    },
    {
      "inputs": [
        {
          "internalType": "uint256",
          "name": "campaignID",
          "type": "uint256"
        }
      ],
      "name": "isPatient",
      "outputs": [
        {
          "internalType": "bool",
          "name": "",
          "type": "bool"
        }
      ],
      "stateMutability": "view",
      "type": "function"
    },
    {
      "inputs": [
        {
          "internalType": "uint256",
          "name": "campaignID",
          "type": "uint256"
        }
      ],
      "name": "rejectCampaign",
      "outputs": [],
      "stateMutability": "nonpayable",
      "type": "function"
    },
    {
      "inputs": [],
      "name": "roleContract",
      "outputs": [
        {
          "internalType": "contract MediTrustRoles",
          "name": "",
          "type": "address"
        }
      ],
      "stateMutability": "view",
      "type": "function"
    },
    {
      "inputs": [
        {
          "internalType": "address",
          "name": "funds",
          "type": "address"
        }
      ],
      "name": "setFundsContract",
      "outputs": [],
      "stateMutability": "nonpayable",
      "type": "function"
    },
    {
      "inputs": [
        {
          "internalType": "uint256",
          "name": "campaignID",
          "type": "uint256"
        },
        {
          "internalType": "uint256",
          "name": "amount",
          "type": "uint256"
        }
      ],
      "name": "setRaised",
      "outputs": [],
      "stateMutability": "nonpayable",
      "type": "function"
    },
    {
      "inputs": [
        {
          "internalType": "uint256",
          "name": "target",
          "type": "uint256"
        },
        {
          "internalType": "uint256",
          "name": "duration",
          "type": "uint256"
        },
        {
          "internalType": "string",
          "name": "diagnosisHash",
          "type": "string"
        },
        {
          "internalType": "string",
          "name": "quotationHash",
          "type": "string"
        }
      ],
      "name": "submitCampaign",
      "outputs": [],
      "stateMutability": "nonpayable",
      "type": "function"
    }
  ],
  "bytecode": "0x608060405234801561001057600080fd5b5060405161262c38038061262c833981810160405281019061003291906100db565b806000806101000a81548173ffffffffffffffffffffffffffffffffffffffff021916908373ffffffffffffffffffffffffffffffffffffffff16021790555050610108565b600080fd5b600073ffffffffffffffffffffffffffffffffffffffff82169050919050565b60006100a88261007d565b9050919050565b6100b88161009d565b81146100c357600080fd5b50565b6000815190506100d5816100af565b92915050565b6000602082840312156100f1576100f0610078565b5b60006100ff848285016100c6565b91505092915050565b612515806101176000396000f3fe608060405234801561001057600080fd5b506004361061010b5760003560e01c80639f550293116100a2578063e2b0820811610071578063e2b08208146102d9578063ee4e1b53146102f7578063effa334c14610313578063f53bded114610343578063f89723b81461035f5761010b565b80639f5502931461023d578063a77ccd6e1461025b578063b9a9298f14610279578063e1e33009146102a95761010b565b80634c16ad04116100de5780634c16ad041461019d5780635598f8cc146101cd5780637274e30d1461020357806399384fd9146102215761010b565b80630161ca7914610110578063034d09da1461012c578063141961bc146101485780632c9932ec1461017f575b600080fd5b61012a6004803603810190610125919061136d565b61037d565b005b610146600480360381019061014191906113d0565b610452565b005b610162600480360381019061015d91906113d0565b610618565b604051610176989796959493929190611522565b60405180910390f35b61018761079d565b60405161019491906115ae565b60405180910390f35b6101b760048036038101906101b291906115ee565b6107c7565b6040516101c4919061161b565b60405180910390f35b6101e760048036038101906101e291906113d0565b61084f565b6040516101fa9796959493929190611636565b60405180910390f35b61020b6109f0565b604051610218919061161b565b60405180910390f35b61023b600480360381019061023691906117e8565b6109f6565b005b610245610c58565b604051610252919061161b565b60405180910390f35b610263610ca5565b60405161027091906115ae565b60405180910390f35b610293600480360381019061028e91906115ee565b610ccb565b6040516102a09190611945565b60405180910390f35b6102c360048036038101906102be91906113d0565b610dc5565b6040516102d09190611982565b60405180910390f35b6102e1610e4b565b6040516102ee9190611945565b60405180910390f35b610311600480360381019061030c91906113d0565b610ede565b005b61032d600480360381019061032891906113d0565b611108565b60405161033a9190611982565b60405180910390f35b61035d6004803603810190610358919061199d565b611176565b005b6103676112d7565b6040516103749190611a3c565b60405180910390f35b600073ffffffffffffffffffffffffffffffffffffffff16600160009054906101000a900473ffffffffffffffffffffffffffffffffffffffff1673ffffffffffffffffffffffffffffffffffffffff161461040e576040517f08c379a000000000000000000000000000000000000000000000000000000000815260040161040590611ac9565b60405180910390fd5b80600160006101000a81548173ffffffffffffffffffffffffffffffffffffffff021916908373ffffffffffffffffffffffffffffffffffffffff16021790555050565b60008054906101000a900473ffffffffffffffffffffffffffffffffffffffff1673ffffffffffffffffffffffffffffffffffffffff16637667984d336040518263ffffffff1660e01b81526004016104ab91906115ae565b602060405180830381865afa1580156104c8573d6000803e3d6000fd5b505050506040513d601f19601f820116820180604052508101906104ec9190611b15565b61052b576040517f08c379a000000000000000000000000000000000000000000000000000000000815260040161052290611bb4565b60405180910390fd5b600060026000838152602001908152602001600020905060006003811115610556576105556114ab565b5b8160060160009054906101000a900460ff16600381111561057a576105796114ab565b5b146105ba576040517f08c379a00000000000000000000000000000000000000000000000000000000081526004016105b190611c46565b60405180910390fd5b60028160060160006101000a81548160ff021916908360038111156105e2576105e16114ab565b5b0217905550817fda5aab8af1d17b76a11bb897fbd425a6c81bc66c59a3549e52622c5336fa834160405160405180910390a25050565b60026020528060005260406000206000915090508060000160009054906101000a900473ffffffffffffffffffffffffffffffffffffffff169080600101549080600201549080600301549080600401805461067390611c95565b80601f016020809104026020016040519081016040528092919081815260200182805461069f90611c95565b80156106ec5780601f106106c1576101008083540402835291602001916106ec565b820191906000526020600020905b8154815290600101906020018083116106cf57829003601f168201915b50505050509080600501805461070190611c95565b80601f016020809104026020016040519081016040528092919081815260200182805461072d90611c95565b801561077a5780601f1061074f5761010080835404028352916020019161077a565b820191906000526020600020905b81548152906001019060200180831161075d57829003601f168201915b5050505050908060060160009054906101000a900460ff16908060070154905088565b6000600160009054906101000a900473ffffffffffffffffffffffffffffffffffffffff16905090565b6000806000905060005b600354811015610845578360038111156107ee576107ed6114ab565b5b6002600083815260200190815260200160002060060160009054906101000a900460ff166003811115610824576108236114ab565b5b0361083857818061083490611cf5565b9250505b80806001019150506107d1565b5080915050919050565b600080600080606080600080600260008a815260200190815260200160002090508060000160009054906101000a900473ffffffffffffffffffffffffffffffffffffffff1681600101548260020154836003015484600401856005018660060160009054906101000a900460ff168280546108ca90611c95565b80601f01602080910402602001604051908101604052809291908181526020018280546108f690611c95565b80156109435780601f1061091857610100808354040283529160200191610943565b820191906000526020600020905b81548152906001019060200180831161092657829003601f168201915b5050505050925081805461095690611c95565b80601f016020809104026020016040519081016040528092919081815260200182805461098290611c95565b80156109cf5780601f106109a4576101008083540402835291602001916109cf565b820191906000526020600020905b8154815290600101906020018083116109b257829003601f168201915b50505050509150975097509750975097509750975050919395979092949650565b60035481565b60008411610a39576040517f08c379a0000000000000000000000000000000000000000000000000000000008152600401610a3090611d89565b60405180910390fd5b600083118015610a4b575061016d8311155b610a8a576040517f08c379a0000000000000000000000000000000000000000000000000000000008152600401610a8190611df5565b60405180910390fd5b6000825111610ace576040517f08c379a0000000000000000000000000000000000000000000000000000000008152600401610ac590611e87565b60405180910390fd5b6000815111610b12576040517f08c379a0000000000000000000000000000000000000000000000000000000008152600401610b0990611f19565b60405180910390fd5b600060036000815480929190610b2790611cf5565b9190505590506000600260008381526020019081526020016000209050338160000160006101000a81548173ffffffffffffffffffffffffffffffffffffffff021916908373ffffffffffffffffffffffffffffffffffffffff1602179055508581600101819055506000816002018190555084816003018190555083816004019081610bb491906120db565b5082816005019081610bc691906120db565b5060008160060160006101000a81548160ff02191690836003811115610bef57610bee6114ab565b5b02179055504281600701819055503373ffffffffffffffffffffffffffffffffffffffff16827ff77e2cc7bc169bf4a77704aeff697782ed80d754f8fd942f5ae2cf644b2442e5888787604051610c48939291906121ad565b60405180910390a3505050505050565b6000806000905060005b600354811015610c9d57600260008281526020019081526020016000206002015482610c8e91906121f2565b91508080600101915050610c62565b508091505090565b600160009054906101000a900473ffffffffffffffffffffffffffffffffffffffff1681565b60606000610cd8836107c7565b67ffffffffffffffff811115610cf157610cf06116bd565b5b604051908082528060200260200182016040528015610d1f5781602001602082028036833780820191505090505b5090506000805b600354811015610dba57846003811115610d4357610d426114ab565b5b6002600083815260200190815260200160002060060160009054906101000a900460ff166003811115610d7957610d786114ab565b5b03610dad5780838381518110610d9257610d91612226565b5b6020026020010181815250508180610da990611cf5565b9250505b8080600101915050610d26565b508192505050919050565b60008060026000848152602001908152602001600020905060016003811115610df157610df06114ab565b5b8160060160009054906101000a900460ff166003811115610e1557610e146114ab565b5b148015610e435750620151808160030154610e309190612255565b8160070154610e3f91906121f2565b4211155b915050919050565b6060600060035467ffffffffffffffff811115610e6b57610e6a6116bd565b5b604051908082528060200260200182016040528015610e995781602001602082028036833780820191505090505b50905060005b600354811015610ed65780828281518110610ebd57610ebc612226565b5b6020026020010181815250508080600101915050610e9f565b508091505090565b60008054906101000a900473ffffffffffffffffffffffffffffffffffffffff1673ffffffffffffffffffffffffffffffffffffffff16637667984d336040518263ffffffff1660e01b8152600401610f3791906115ae565b602060405180830381865afa158015610f54573d6000803e3d6000fd5b505050506040513d601f19601f82011682018060405250810190610f789190611b15565b610fb7576040517f08c379a0000000000000000000000000000000000000000000000000000000008152600401610fae90612309565b60405180910390fd5b600060026000838152602001908152602001600020905060006003811115610fe257610fe16114ab565b5b8160060160009054906101000a900460ff166003811115611006576110056114ab565b5b14611046576040517f08c379a000000000000000000000000000000000000000000000000000000000815260040161103d9061239b565b60405180910390fd5b6201518081600301546110599190612255565b816007015461106891906121f2565b4211156110aa576040517f08c379a00000000000000000000000000000000000000000000000000000000081526004016110a19061242d565b60405180910390fd5b60018160060160006101000a81548160ff021916908360038111156110d2576110d16114ab565b5b0217905550817fb598c2ae1ba3b00520d1d2a92173108bc8935593bfa8bac8bf7facfe767528a860405160405180910390a25050565b60006002600083815260200190815260200160002060000160009054906101000a900473ffffffffffffffffffffffffffffffffffffffff1673ffffffffffffffffffffffffffffffffffffffff163373ffffffffffffffffffffffffffffffffffffffff16149050919050565b600160009054906101000a900473ffffffffffffffffffffffffffffffffffffffff1673ffffffffffffffffffffffffffffffffffffffff163373ffffffffffffffffffffffffffffffffffffffff1614611206576040517f08c379a00000000000000000000000000000000000000000000000000000000081526004016111fd906124bf565b60405180910390fd5b8060026000848152602001908152602001600020600201600082825461122c91906121f2565b9250508190555060026000838152602001908152602001600020600101546002600084815260200190815260200160002060020154106112d35760036002600084815260200190815260200160002060060160006101000a81548160ff021916908360038111156112a05761129f6114ab565b5b0217905550817f7c9ef824eb9b2b83356339e0f54e1b1d33beaa78fbfcecf1f6b92a93d150037f60405160405180910390a25b5050565b60008054906101000a900473ffffffffffffffffffffffffffffffffffffffff1681565b6000604051905090565b600080fd5b600080fd5b600073ffffffffffffffffffffffffffffffffffffffff82169050919050565b600061133a8261130f565b9050919050565b61134a8161132f565b811461135557600080fd5b50565b60008135905061136781611341565b92915050565b60006020828403121561138357611382611305565b5b600061139184828501611358565b91505092915050565b6000819050919050565b6113ad8161139a565b81146113b857600080fd5b50565b6000813590506113ca816113a4565b92915050565b6000602082840312156113e6576113e5611305565b5b60006113f4848285016113bb565b91505092915050565b6114068161132f565b82525050565b6114158161139a565b82525050565b600081519050919050565b600082825260208201905092915050565b60005b8381101561145557808201518184015260208101905061143a565b60008484015250505050565b6000601f19601f8301169050919050565b600061147d8261141b565b6114878185611426565b9350611497818560208601611437565b6114a081611461565b840191505092915050565b7f4e487b7100000000000000000000000000000000000000000000000000000000600052602160045260246000fd5b600481106114eb576114ea6114ab565b5b50565b60008190506114fc826114da565b919050565b600061150c826114ee565b9050919050565b61151c81611501565b82525050565b600061010082019050611538600083018b6113fd565b611545602083018a61140c565b611552604083018961140c565b61155f606083018861140c565b81810360808301526115718187611472565b905081810360a08301526115858186611472565b905061159460c0830185611513565b6115a160e083018461140c565b9998505050505050505050565b60006020820190506115c360008301846113fd565b92915050565b600481106115d657600080fd5b50565b6000813590506115e8816115c9565b92915050565b60006020828403121561160457611603611305565b5b6000611612848285016115d9565b91505092915050565b6000602082019050611630600083018461140c565b92915050565b600060e08201905061164b600083018a6113fd565b611658602083018961140c565b611665604083018861140c565b611672606083018761140c565b81810360808301526116848186611472565b905081810360a08301526116988185611472565b90506116a760c0830184611513565b98975050505050505050565b600080fd5b600080fd5b7f4e487b7100000000000000000000000000000000000000000000000000000000600052604160045260246000fd5b6116f582611461565b810181811067ffffffffffffffff82111715611714576117136116bd565b5b80604052505050565b60006117276112fb565b905061173382826116ec565b919050565b600067ffffffffffffffff821115611753576117526116bd565b5b61175c82611461565b9050602081019050919050565b82818337600083830152505050565b600061178b61178684611738565b61171d565b9050828152602081018484840111156117a7576117a66116b8565b5b6117b2848285611769565b509392505050565b600082601f8301126117cf576117ce6116b3565b5b81356117df848260208601611778565b91505092915050565b6000806000806080858703121561180257611801611305565b5b6000611810878288016113bb565b9450506020611821878288016113bb565b935050604085013567ffffffffffffffff8111156118425761184161130a565b5b61184e878288016117ba565b925050606085013567ffffffffffffffff81111561186f5761186e61130a565b5b61187b878288016117ba565b91505092959194509250565b600081519050919050565b600082825260208201905092915050565b6000819050602082019050919050565b6118bc8161139a565b82525050565b60006118ce83836118b3565b60208301905092915050565b6000602082019050919050565b60006118f282611887565b6118fc8185611892565b9350611907836118a3565b8060005b8381101561193857815161191f88826118c2565b975061192a836118da565b92505060018101905061190b565b5085935050505092915050565b6000602082019050818103600083015261195f81846118e7565b905092915050565b60008115159050919050565b61197c81611967565b82525050565b60006020820190506119976000830184611973565b92915050565b600080604083850312156119b4576119b3611305565b5b60006119c2858286016113bb565b92505060206119d3858286016113bb565b9150509250929050565b6000819050919050565b6000611a026119fd6119f88461130f565b6119dd565b61130f565b9050919050565b6000611a14826119e7565b9050919050565b6000611a2682611a09565b9050919050565b611a3681611a1b565b82525050565b6000602082019050611a516000830184611a2d565b92915050565b7f556e617574686f72697a65642c2066756e647320636f6e747261637420616c7260008201527f6561647920736574000000000000000000000000000000000000000000000000602082015250565b6000611ab3602883611426565b9150611abe82611a57565b604082019050919050565b60006020820190508181036000830152611ae281611aa6565b9050919050565b611af281611967565b8114611afd57600080fd5b50565b600081519050611b0f81611ae9565b92915050565b600060208284031215611b2b57611b2a611305565b5b6000611b3984828501611b00565b91505092915050565b7f536f7272792c206f6e6c7920686f73706974616c20726570726573656e74617460008201527f697665732063616e2072656a6563740000000000000000000000000000000000602082015250565b6000611b9e602f83611426565b9150611ba982611b42565b604082019050919050565b60006020820190508181036000830152611bcd81611b91565b9050919050565b7f556e61626c6520746f2072656a6563742c2063616d706169676e206e6f74207060008201527f656e64696e670000000000000000000000000000000000000000000000000000602082015250565b6000611c30602683611426565b9150611c3b82611bd4565b604082019050919050565b60006020820190508181036000830152611c5f81611c23565b9050919050565b7f4e487b7100000000000000000000000000000000000000000000000000000000600052602260045260246000fd5b60006002820490506001821680611cad57607f821691505b602082108103611cc057611cbf611c66565b5b50919050565b7f4e487b7100000000000000000000000000000000000000000000000000000000600052601160045260246000fd5b6000611d008261139a565b91507fffffffffffffffffffffffffffffffffffffffffffffffffffffffffffffffff8203611d3257611d31611cc6565b5b600182019050919050565b7f54727920616761696e2c20696e76616c69642074617267657420616d6f756e74600082015250565b6000611d73602083611426565b9150611d7e82611d3d565b602082019050919050565b60006020820190508181036000830152611da281611d66565b9050919050565b7f54727920616761696e2c20696e76616c6964206475726174696f6e0000000000600082015250565b6000611ddf601b83611426565b9150611dea82611da9565b602082019050919050565b60006020820190508181036000830152611e0e81611dd2565b9050919050565b7f54727920616761696e2c204d65646963616c20446961676e6f7369732068617360008201527f6820726571756972656400000000000000000000000000000000000000000000602082015250565b6000611e71602a83611426565b9150611e7c82611e15565b604082019050919050565b60006020820190508181036000830152611ea081611e64565b9050919050565b7f54727920616761696e2c2054726561746d656e7420517561746174696f6e206860008201527f6173682072657175697265640000000000000000000000000000000000000000602082015250565b6000611f03602c83611426565b9150611f0e82611ea7565b604082019050919050565b60006020820190508181036000830152611f3281611ef6565b9050919050565b60008190508160005260206000209050919050565b60006020601f8301049050919050565b600082821b905092915050565b600060088302611f9b7fffffffffffffffffffffffffffffffffffffffffffffffffffffffffffffffff82611f5e565b611fa58683611f5e565b95508019841693508086168417925050509392505050565b6000611fd8611fd3611fce8461139a565b6119dd565b61139a565b9050919050565b6000819050919050565b611ff283611fbd565b612006611ffe82611fdf565b848454611f6b565b825550505050565b600090565b61201b61200e565b612026818484611fe9565b505050565b5b8181101561204a5761203f600082612013565b60018101905061202c565b5050565b601f82111561208f5761206081611f39565b61206984611f4e565b81016020851015612078578190505b61208c61208485611f4e565b83018261202b565b50505b505050565b600082821c905092915050565b60006120b260001984600802612094565b1980831691505092915050565b60006120cb83836120a1565b9150826002028217905092915050565b6120e48261141b565b67ffffffffffffffff8111156120fd576120fc6116bd565b5b6121078254611c95565b61211282828561204e565b600060209050601f8311600181146121455760008415612133578287015190505b61213d85826120bf565b8655506121a5565b601f19841661215386611f39565b60005b8281101561217b57848901518255600182019150602085019450602081019050612156565b868310156121985784890151612194601f8916826120a1565b8355505b6001600288020188555050505b505050505050565b60006060820190506121c2600083018661140c565b81810360208301526121d48185611472565b905081810360408301526121e88184611472565b9050949350505050565b60006121fd8261139a565b91506122088361139a565b92508282019050808211156122205761221f611cc6565b5b92915050565b7f4e487b7100000000000000000000000000000000000000000000000000000000600052603260045260246000fd5b60006122608261139a565b915061226b8361139a565b92508282026122798161139a565b915082820484148315176122905761228f611cc6565b5b5092915050565b7f536f7272792c206f6e6c7920686f73706974616c20726570726573656e74617460008201527f697665732063616e20617070726f766500000000000000000000000000000000602082015250565b60006122f3603083611426565b91506122fe82612297565b604082019050919050565b60006020820190508181036000830152612322816122e6565b9050919050565b7f556e61626c6520746f20617070726f76652c2063616d706169676e206e6f742060008201527f70656e64696e6700000000000000000000000000000000000000000000000000602082015250565b6000612385602783611426565b915061239082612329565b604082019050919050565b600060208201905081810360008301526123b481612378565b9050919050565b7f556e61626c6520746f20617070726f76652c2063616d706169676e206578706960008201527f7265640000000000000000000000000000000000000000000000000000000000602082015250565b6000612417602383611426565b9150612422826123bb565b604082019050919050565b600060208201905081810360008301526124468161240a565b9050919050565b7f556e617574686f72697a65642c20696e76616c696420636f6e7472616374206160008201527f6464726573730000000000000000000000000000000000000000000000000000602082015250565b60006124a9602683611426565b91506124b48261244d565b604082019050919050565b600060208201905081810360008301526124d88161249c565b905091905056fea2646970667358221220b1b159239bf91258b7baeebf32f139f9e5c297d53bbc565029212db24f48ecef64736f6c634300081c0033",
  "linkReferences": {},
  "deployedLinkReferences": {}
}