{
  "_format": "hh-sol-artifact-1",
  "contractName": "MediTrustFunds",
  "sourceName": "contracts/MediTrustFunds.sol",
  "abi": [
    {
      "inputs": [
        {
          "internalType": "address",
          "name": "_campaignContract",
          "type": "address"
        },
        {
          "internalType": "address",
          "name": "_daoContract",
          "type": "address"
        }
      ],
      "stateMutability": "nonpayable",
      "type": "constructor"
    },
    {
      "anonymous": false,
      "inputs": [
        {
          "indexed": true,
          "internalType": "uint256",
          "name": "campaignId",
          "type": "uint256"
        },
        {
          "indexed": true,
          "internalType": "address",
          "name": "donor",
          "type": "address"
        },
        {
          "indexed": false,
          "internalType": "uint256",
          "name": "amount",
          "type": "uint256"
        }
      ],
      "name": "DonationReceived",
      "type": "event"
    },
    {
      "anonymous": false,
      "inputs": [
        {
          "indexed": true,
          "internalType": "uint256",
          "name": "campaignId",
          "type": "uint256"
        },
        {
          "indexed": true,
          "internalType": "uint256",
          "name": "claimId",
          "type": "uint256"
        },
        {
          "indexed": true,
          "internalType": "address",
          "name": "patient",
          "type": "address"
        },
        {
          "indexed": false,
          "internalType": "uint256",
          "name": "amount",
          "type": "uint256"
        }
      ],
      "name": "FundsReleased",
      "type": "event"
    },
    {
      "inputs": [
        {
          "internalType": "uint256",
          "name": "",
          "type": "uint256"
        }
      ],
      "name": "campaignBalances",
      "outputs": [
        {
          "internalType": "uint256",
          "name": "",
          "type": "uint256"
        }
      ],
      "stateMutability": "view",
      "type": "function"
    },
    {
      "inputs": [],
      "name": "campaignContract",
      "outputs": [
        {
          "internalType": "contract MediTrustCampaign",
          "name": "",
          "type": "address"
        }
      ],
      "stateMutability": "view",
      "type": "function"
    },
    {
      "inputs": [],
      "name": "daoContract",
      "outputs": [
        {
          "internalType": "contract MediTrustDAO",
          "name": "",
          "type": "address"
        }
      ],
      "stateMutability": "view",
      "type": "function"
    },
    {
      "inputs": [
        {
          "internalType": "uint256",
          "name": "_campaignId",
          "type": "uint256"
        }
      ],
      "name": "donate",
      "outputs": [],
      "stateMutability": "payable",
      "type": "function"
    },
    {
      "inputs": [
        {
          "internalType": "uint256",
          "name": "",
          "type": "uint256"
        },
        {
          "internalType": "address",
          "name": "",
          "type": "address"
        }
      ],
      "name": "donations",
      "outputs": [
        {
          "internalType": "uint256",
          "name": "",
          "type": "uint256"
        }
      ],
      "stateMutability": "view",
      "type": "function"
    },
    {
      "inputs": [
        {
          "internalType": "uint256",
          "name": "_claimId",
          "type": "uint256"
        }
      ],
      "name": "executeClaim",
      "outputs": [],
      "stateMutability": "nonpayable",
      "type": "function"
    },
    {
      "inputs": [
        {
          "internalType": "uint256",
          "name": "_campaignId",
          "type": "uint256"
        }
      ],
      "name": "getCampaignBalance",
      "outputs": [
        {
          "internalType": "uint256",
          "name": "",
          "type": "uint256"
        }
      ],
      "stateMutability": "view",
      "type": "function"
    },
    {
      "inputs": [
        {
          "internalType": "uint256",
          "name": "_campaignId",
          "type": "uint256"
        },
        {
          "internalType": "address",
          "name": "_donor",
          "type": "address"
        }
      ],
      "name": "getDonationAmount",
      "outputs": [
        {
          "internalType": "uint256",
          "name": "",
          "type": "uint256"
        }
      ],
      "stateMutability": "view",
      "type": "function"
    },
    {
      "stateMutability": "payable",
      "type": "receive"
    }
  ],
  "bytecode": "0x608060405234801561001057600080fd5b506040516118143803806118148339818101604052810190610032919061011d565b816000806101000a81548173ffffffffffffffffffffffffffffffffffffffff021916908373ffffffffffffffffffffffffffffffffffffffff16021790555080600160006101000a81548173ffffffffffffffffffffffffffffffffffffffff021916908373ffffffffffffffffffffffffffffffffffffffff160217905550505061015d565b600080fd5b600073ffffffffffffffffffffffffffffffffffffffff82169050919050565b60006100ea826100bf565b9050919050565b6100fa816100df565b811461010557600080fd5b50565b600081519050610117816100f1565b92915050565b60008060408385031215610134576101336100ba565b5b600061014285828601610108565b925050602061015385828601610108565b9150509250929050565b6116a88061016c6000396000f3fe60806040526004361061007f5760003560e01c8063eb044b971161004e578063eb044b9714610194578063ee1554a3146101d1578063f14faf6f1461020e578063fc58b54a1461022a576100bf565b80630235cacc146100c45780634a7ffcbc1461010157806358ae05cd1461012c578063e43826d814610157576100bf565b366100bf576040517f08c379a00000000000000000000000000000000000000000000000000000000081526004016100b690610bf6565b60405180910390fd5b600080fd5b3480156100d057600080fd5b506100eb60048036038101906100e69190610c60565b610253565b6040516100f89190610c9c565b60405180910390f35b34801561010d57600080fd5b5061011661026b565b6040516101239190610d36565b60405180910390f35b34801561013857600080fd5b50610141610291565b60405161014e9190610d72565b60405180910390f35b34801561016357600080fd5b5061017e60048036038101906101799190610dcb565b6102b5565b60405161018b9190610c9c565b60405180910390f35b3480156101a057600080fd5b506101bb60048036038101906101b69190610c60565b610310565b6040516101c89190610c9c565b60405180910390f35b3480156101dd57600080fd5b506101f860048036038101906101f39190610dcb565b61032d565b6040516102059190610c9c565b60405180910390f35b61022860048036038101906102239190610c60565b610352565b005b34801561023657600080fd5b50610251600480360381019061024c9190610c60565b6106e7565b005b60026020528060005260406000206000915090505481565b600160009054906101000a900473ffffffffffffffffffffffffffffffffffffffff1681565b60008054906101000a900473ffffffffffffffffffffffffffffffffffffffff1681565b60006003600084815260200190815260200160002060008373ffffffffffffffffffffffffffffffffffffffff1673ffffffffffffffffffffffffffffffffffffffff16815260200190815260200160002054905092915050565b600060026000838152602001908152602001600020549050919050565b6003602052816000526040600020602052806000526040600020600091509150505481565b60003411610395576040517f08c379a000000000000000000000000000000000000000000000000000000000815260040161038c90610e57565b60405180910390fd5b60008054906101000a900473ffffffffffffffffffffffffffffffffffffffff1673ffffffffffffffffffffffffffffffffffffffff16637274e30d6040518163ffffffff1660e01b8152600401602060405180830381865afa158015610400573d6000803e3d6000fd5b505050506040513d601f19601f820116820180604052508101906104249190610e8c565b8110610465576040517f08c379a000000000000000000000000000000000000000000000000000000000815260040161045c90610f05565b60405180910390fd5b60008060009054906101000a900473ffffffffffffffffffffffffffffffffffffffff1673ffffffffffffffffffffffffffffffffffffffff16635598f8cc836040518263ffffffff1660e01b81526004016104c19190610c9c565b600060405180830381865afa1580156104de573d6000803e3d6000fd5b505050506040513d6000823e3d601f19601f8201168201806040525081019061050791906110c0565b5095505050505050600160038111156105235761052261117e565b5b8160038111156105365761053561117e565b5b14610576576040517f08c379a000000000000000000000000000000000000000000000000000000000815260040161056d906111f9565b60405180910390fd5b346002600084815260200190815260200160002060008282546105999190611248565b92505081905550346003600084815260200190815260200160002060003373ffffffffffffffffffffffffffffffffffffffff1673ffffffffffffffffffffffffffffffffffffffff16815260200190815260200160002060008282546106009190611248565b9250508190555060008054906101000a900473ffffffffffffffffffffffffffffffffffffffff1673ffffffffffffffffffffffffffffffffffffffff16631400797483346040518363ffffffff1660e01b815260040161066292919061127c565b600060405180830381600087803b15801561067c57600080fd5b505af1158015610690573d6000803e3d6000fd5b505050503373ffffffffffffffffffffffffffffffffffffffff16827f0b5b4c52969ff7329ecf7ee536409fda87812b15a8622bc6e8cdeab3aee14a26346040516106db9190610c9c565b60405180910390a35050565b600160009054906101000a900473ffffffffffffffffffffffffffffffffffffffff1673ffffffffffffffffffffffffffffffffffffffff1663c526ee97826040518263ffffffff1660e01b81526004016107429190610c9c565b602060405180830381865afa15801561075f573d6000803e3d6000fd5b505050506040513d601f19601f8201168201806040525081019061078391906112dd565b6107c2576040517f08c379a00000000000000000000000000000000000000000000000000000000081526004016107b990611356565b60405180910390fd5b600160009054906101000a900473ffffffffffffffffffffffffffffffffffffffff1673ffffffffffffffffffffffffffffffffffffffff16638da4d3c96040518163ffffffff1660e01b8152600401602060405180830381865afa15801561082f573d6000803e3d6000fd5b505050506040513d601f19601f820116820180604052508101906108539190610e8c565b8110610894576040517f08c379a000000000000000000000000000000000000000000000000000000000815260040161088b906113c2565b60405180910390fd5b600080600080600160009054906101000a900473ffffffffffffffffffffffffffffffffffffffff1673ffffffffffffffffffffffffffffffffffffffff1663bac71e00866040518263ffffffff1660e01b81526004016108f59190610c9c565b600060405180830381865afa158015610912573d6000803e3d6000fd5b505050506040513d6000823e3d601f19601f8201168201806040525081019061093b91906113e2565b5096505050509350935093508015610988576040517f08c379a000000000000000000000000000000000000000000000000000000000815260040161097f90611500565b60405180910390fd5b81600260008681526020019081526020016000205410156109de576040517f08c379a00000000000000000000000000000000000000000000000000000000081526004016109d59061156c565b60405180910390fd5b81600260008681526020019081526020016000206000828254610a01919061158c565b92505081905550600160009054906101000a900473ffffffffffffffffffffffffffffffffffffffff1673ffffffffffffffffffffffffffffffffffffffff1663672ec918866040518263ffffffff1660e01b8152600401610a639190610c9c565b600060405180830381600087803b158015610a7d57600080fd5b505af1158015610a91573d6000803e3d6000fd5b5050505060008373ffffffffffffffffffffffffffffffffffffffff1683604051610abb906115f1565b60006040518083038185875af1925050503d8060008114610af8576040519150601f19603f3d011682016040523d82523d6000602084013e610afd565b606091505b5050905080610b41576040517f08c379a0000000000000000000000000000000000000000000000000000000008152600401610b3890611652565b60405180910390fd5b8373ffffffffffffffffffffffffffffffffffffffff1686867fd5eb304362ffe48045a3ae2ed7e0d2cfed08eb62f44dc87c694d42606e8205d986604051610b899190610c9c565b60405180910390a4505050505050565b600082825260208201905092915050565b7f55736520646f6e61746528292066756e6374696f6e0000000000000000000000600082015250565b6000610be0601583610b99565b9150610beb82610baa565b602082019050919050565b60006020820190508181036000830152610c0f81610bd3565b9050919050565b6000604051905090565b600080fd5b600080fd5b6000819050919050565b610c3d81610c2a565b8114610c4857600080fd5b50565b600081359050610c5a81610c34565b92915050565b600060208284031215610c7657610c75610c20565b5b6000610c8484828501610c4b565b91505092915050565b610c9681610c2a565b82525050565b6000602082019050610cb16000830184610c8d565b92915050565b600073ffffffffffffffffffffffffffffffffffffffff82169050919050565b6000819050919050565b6000610cfc610cf7610cf284610cb7565b610cd7565b610cb7565b9050919050565b6000610d0e82610ce1565b9050919050565b6000610d2082610d03565b9050919050565b610d3081610d15565b82525050565b6000602082019050610d4b6000830184610d27565b92915050565b6000610d5c82610d03565b9050919050565b610d6c81610d51565b82525050565b6000602082019050610d876000830184610d63565b92915050565b6000610d9882610cb7565b9050919050565b610da881610d8d565b8114610db357600080fd5b50565b600081359050610dc581610d9f565b92915050565b60008060408385031215610de257610de1610c20565b5b6000610df085828601610c4b565b9250506020610e0185828601610db6565b9150509250929050565b7f446f6e6174696f6e206d757374206265203e2030000000000000000000000000600082015250565b6000610e41601483610b99565b9150610e4c82610e0b565b602082019050919050565b60006020820190508181036000830152610e7081610e34565b9050919050565b600081519050610e8681610c34565b92915050565b600060208284031215610ea257610ea1610c20565b5b6000610eb084828501610e77565b91505092915050565b7f496e76616c69642063616d706169676e00000000000000000000000000000000600082015250565b6000610eef601083610b99565b9150610efa82610eb9565b602082019050919050565b60006020820190508181036000830152610f1e81610ee2565b9050919050565b600081519050610f3481610d9f565b92915050565b600080fd5b600080fd5b6000601f19601f8301169050919050565b7f4e487b7100000000000000000000000000000000000000000000000000000000600052604160045260246000fd5b610f8d82610f44565b810181811067ffffffffffffffff82111715610fac57610fab610f55565b5b80604052505050565b6000610fbf610c16565b9050610fcb8282610f84565b919050565b600067ffffffffffffffff821115610feb57610fea610f55565b5b610ff482610f44565b9050602081019050919050565b60005b8381101561101f578082015181840152602081019050611004565b60008484015250505050565b600061103e61103984610fd0565b610fb5565b90508281526020810184848401111561105a57611059610f3f565b5b611065848285611001565b509392505050565b600082601f83011261108257611081610f3a565b5b815161109284826020860161102b565b91505092915050565b600481106110a857600080fd5b50565b6000815190506110ba8161109b565b92915050565b600080600080600080600060e0888a0312156110df576110de610c20565b5b60006110ed8a828b01610f25565b97505060206110fe8a828b01610e77565b965050604061110f8a828b01610e77565b95505060606111208a828b01610e77565b945050608088015167ffffffffffffffff81111561114157611140610c25565b5b61114d8a828b0161106d565b93505060a061115e8a828b016110ab565b92505060c061116f8a828b01610e77565b91505092959891949750929550565b7f4e487b7100000000000000000000000000000000000000000000000000000000600052602160045260246000fd5b7f43616d706169676e206e6f7420617070726f7665640000000000000000000000600082015250565b60006111e3601583610b99565b91506111ee826111ad565b602082019050919050565b60006020820190508181036000830152611212816111d6565b9050919050565b7f4e487b7100000000000000000000000000000000000000000000000000000000600052601160045260246000fd5b600061125382610c2a565b915061125e83610c2a565b925082820190508082111561127657611275611219565b5b92915050565b60006040820190506112916000830185610c8d565b61129e6020830184610c8d565b9392505050565b60008115159050919050565b6112ba816112a5565b81146112c557600080fd5b50565b6000815190506112d7816112b1565b92915050565b6000602082840312156112f3576112f2610c20565b5b6000611301848285016112c8565b91505092915050565b7f436c61696d206e6f7420617070726f7665642062792044414f00000000000000600082015250565b6000611340601983610b99565b915061134b8261130a565b602082019050919050565b6000602082019050818103600083015261136f81611333565b9050919050565b7f496e76616c696420636c61696d00000000000000000000000000000000000000600082015250565b60006113ac600d83610b99565b91506113b782611376565b602082019050919050565b600060208201905081810360008301526113db8161139f565b9050919050565b600080600080600080600080610100898b03121561140357611402610c20565b5b60006114118b828c01610e77565b98505060206114228b828c01610f25565b97505060406114338b828c01610e77565b965050606089015167ffffffffffffffff81111561145457611453610c25565b5b6114608b828c0161106d565b95505060806114718b828c01610e77565b94505060a06114828b828c01610e77565b93505060c06114938b828c016112c8565b92505060e06114a48b828c01610e77565b9150509295985092959890939650565b7f436c61696d20616c726561647920657865637574656400000000000000000000600082015250565b60006114ea601683610b99565b91506114f5826114b4565b602082019050919050565b60006020820190508181036000830152611519816114dd565b9050919050565b7f496e73756666696369656e742063616d706169676e2066756e64730000000000600082015250565b6000611556601b83610b99565b915061156182611520565b602082019050919050565b6000602082019050818103600083015261158581611549565b9050919050565b600061159782610c2a565b91506115a283610c2a565b92508282039050818111156115ba576115b9611219565b5b92915050565b600081905092915050565b50565b60006115db6000836115c0565b91506115e6826115cb565b600082019050919050565b60006115fc826115ce565b9150819050919050565b7f5472616e73666572206661696c65640000000000000000000000000000000000600082015250565b600061163c600f83610b99565b915061164782611606565b602082019050919050565b6000602082019050818103600083015261166b8161162f565b905091905056fea2646970667358221220b2cefe93f0b85b0636794b55ab5b938d743db83c9e412f623be06dcbdeda897064736f6c634300081c0033",
  "linkReferences": {},
  "deployedLinkReferences": {}
}