{
  "_format": "hh-sol-artifact-1",
  "contractName": "MediTrustRoles",
  "sourceName": "contracts/MediTrustRoles.sol",
  "abi": [
    {
      "inputs": [],
      "stateMutability": "nonpayable",
      "type": "constructor"
    },
    {
      "inputs": [
        {
          "internalType": "address",
          "name": "owner",
          "type": "address"
        }
      ],
      "name": "OwnableInvalidOwner",
      "type": "error"
    },
    {
      "inputs": [
        {
          "internalType": "address",
          "name": "account",
          "type": "address"
        }
      ],
      "name": "OwnableUnauthorizedAccount",
      "type": "error"
    },
    {
      "anonymous": false,
      "inputs": [
        {
          "indexed": true,
          "internalType": "address",
          "name": "member",
          "type": "address"
        }
      ],
      "name": "DAOMemberAdd",
      "type": "event"
    },
    {
      "anonymous": false,
      "inputs": [
        {
          "indexed": true,
          "internalType": "address",
          "name": "member",
          "type": "address"
        }
      ],
      "name": "DAOMemberRemove",
      "type": "event"
    },
    {
      "anonymous": false,
      "inputs": [
        {
          "indexed": true,
          "internalType": "address",
          "name": "previousOwner",
          "type": "address"
        },
        {
          "indexed": true,
          "internalType": "address",
          "name": "newOwner",
          "type": "address"
        }
      ],
      "name": "OwnershipTransferred",
      "type": "event"
    },
    {
      "anonymous": false,
      "inputs": [
        {
          "indexed": true,
          "internalType": "address",
          "name": "rep",
          "type": "address"
        }
      ],
      "name": "hospitalRepAdd",
      "type": "event"
    },
    {
      "anonymous": false,
      "inputs": [
        {
          "indexed": true,
          "internalType": "address",
          "name": "rep",
          "type": "address"
        }
      ],
      "name": "hospitalRepRemove",
      "type": "event"
    },
    {
      "inputs": [
        {
          "internalType": "address",
          "name": "",
          "type": "address"
        }
      ],
      "name": "DAOMembers",
      "outputs": [
        {
          "internalType": "bool",
          "name": "",
          "type": "bool"
        }
      ],
      "stateMutability": "view",
      "type": "function"
    },
    {
      "inputs": [
        {
          "internalType": "address",
          "name": "member",
          "type": "address"
        }
      ],
      "name": "addDAOMember",
      "outputs": [],
      "stateMutability": "nonpayable",
      "type": "function"
    },
    {
      "inputs": [
        {
          "internalType": "address",
          "name": "rep",
          "type": "address"
        }
      ],
      "name": "addHospitalRep",
      "outputs": [],
      "stateMutability": "nonpayable",
      "type": "function"
    },
    {
      "inputs": [],
      "name": "getTotalDAOMembers",
      "outputs": [
        {
          "internalType": "uint256",
          "name": "",
          "type": "uint256"
        }
      ],
      "stateMutability": "view",
      "type": "function"
    },
    {
      "inputs": [],
      "name": "getTotalHospitalRep",
      "outputs": [
        {
          "internalType": "uint256",
          "name": "",
          "type": "uint256"
        }
      ],
      "stateMutability": "view",
      "type": "function"
    },
    {
      "inputs": [
        {
          "internalType": "address",
          "name": "",
          "type": "address"
        }
      ],
      "name": "hospitalRepresentatives",
      "outputs": [
        {
          "internalType": "bool",
          "name": "",
          "type": "bool"
        }
      ],
      "stateMutability": "view",
      "type": "function"
    },
    {
      "inputs": [
        {
          "internalType": "address",
          "name": "addr",
          "type": "address"
        }
      ],
      "name": "isDAOMember",
      "outputs": [
        {
          "internalType": "bool",
          "name": "",
          "type": "bool"
        }
      ],
      "stateMutability": "view",
      "type": "function"
    },
    {
      "inputs": [
        {
          "internalType": "address",
          "name": "addr",
          "type": "address"
        }
      ],
      "name": "isHospitalRep",
      "outputs": [
        {
          "internalType": "bool",
          "name": "",
          "type": "bool"
        }
      ],
      "stateMutability": "view",
      "type": "function"
    },
    {
      "inputs": [],
      "name": "owner",
      "outputs": [
        {
          "internalType": "address",
          "name": "",
          "type": "address"
        }
      ],
      "stateMutability": "view",
      "type": "function"
    },
    {
      "inputs": [
        {
          "internalType": "address",
          "name": "member",
          "type": "address"
        }
      ],
      "name": "removeDAOMember",
      "outputs": [],
      "stateMutability": "nonpayable",
      "type": "function"
    },
    {
      "inputs": [
        {
          "internalType": "address",
          "name": "rep",
          "type": "address"
        }
      ],
      "name": "removeHospitalRep",
      "outputs": [],
      "stateMutability": "nonpayable",
      "type": "function"
    },
    {
      "inputs": [],
      "name": "renounceOwnership",
      "outputs": [],
      "stateMutability": "nonpayable",
      "type": "function"
    },
    {
      "inputs": [],
      "name": "totalDAOMembers",
      "outputs": [
        {
          "internalType": "uint256",
          "name": "",
          "type": "uint256"
        }
      ],
      "stateMutability": "view",
      "type": "function"
    },
    {
      "inputs": [],
      "name": "totalHospitalRep",
      "outputs": [
        {
          "internalType": "uint256",
          "name": "",
          "type": "uint256"
        }
      ],
      "stateMutability": "view",
      "type": "function"
    },
    {
      "inputs": [
        {
          "internalType": "address",
          "name": "newOwner",
          "type": "address"
        }
      ],
      "name": "transferOwnership",
      "outputs": [],
      "stateMutability": "nonpayable",
      "type": "function"
    }
  ],
  "bytecode": "0x608060405234801561001057600080fd5b5033600073ffffffffffffffffffffffffffffffffffffffff168173ffffffffffffffffffffffffffffffffffffffff16036100845760006040517f1e4fbdf700000000000000000000000000000000000000000000000000000000815260040161007b919061019e565b60405180910390fd5b6100938161009960201b60201c565b506101b9565b60008060009054906101000a900473ffffffffffffffffffffffffffffffffffffffff169050816000806101000a81548173ffffffffffffffffffffffffffffffffffffffff021916908373ffffffffffffffffffffffffffffffffffffffff1602179055508173ffffffffffffffffffffffffffffffffffffffff168173ffffffffffffffffffffffffffffffffffffffff167f8be0079c531659141344cd1fd0a4f28419497f9722a3daafe3b4186f6b6457e060405160405180910390a35050565b600073ffffffffffffffffffffffffffffffffffffffff82169050919050565b60006101888261015d565b9050919050565b6101988161017d565b82525050565b60006020820190506101b3600083018461018f565b92915050565b611035806101c86000396000f3fe608060405234801561001057600080fd5b50600436106100f55760003560e01c80638da5cb5b11610097578063ce2ef58d11610066578063ce2ef58d14610274578063d686f45914610292578063dde01955146102ae578063f2fde38b146102ca576100f5565b80638da5cb5b146101ea578063b1e44d8f14610208578063b8c3de3514610238578063c77dbf6814610256576100f5565b80636da1a9f8116100d35780636da1a9f814610164578063715018a6146101945780637667984d1461019e57806387d85ee1146101ce576100f5565b806322a9e01b146100fa57806325c996791461012a5780635ea58e7714610146575b600080fd5b610114600480360381019061010f9190610bd9565b6102e6565b6040516101219190610c21565b60405180910390f35b610144600480360381019061013f9190610bd9565b610306565b005b61014e610450565b60405161015b9190610c55565b60405180910390f35b61017e60048036038101906101799190610bd9565b61045a565b60405161018b9190610c21565b60405180910390f35b61019c61047a565b005b6101b860048036038101906101b39190610bd9565b61048e565b6040516101c59190610c21565b60405180910390f35b6101e860048036038101906101e39190610bd9565b6104e4565b005b6101f261062e565b6040516101ff9190610c7f565b60405180910390f35b610222600480360381019061021d9190610bd9565b610657565b60405161022f9190610c21565b60405180910390f35b6102406106ad565b60405161024d9190610c55565b60405180910390f35b61025e6106b3565b60405161026b9190610c55565b60405180910390f35b61027c6106b9565b6040516102899190610c55565b60405180910390f35b6102ac60048036038101906102a79190610bd9565b6106c3565b005b6102c860048036038101906102c39190610bd9565b610852565b005b6102e460048036038101906102df9190610bd9565b61099d565b005b60016020528060005260406000206000915054906101000a900460ff1681565b61030e610a23565b600160008273ffffffffffffffffffffffffffffffffffffffff1673ffffffffffffffffffffffffffffffffffffffff16815260200190815260200160002060009054906101000a900460ff1661039a576040517f08c379a000000000000000000000000000000000000000000000000000000000815260040161039190610d1d565b60405180910390fd5b6000600160008373ffffffffffffffffffffffffffffffffffffffff1673ffffffffffffffffffffffffffffffffffffffff16815260200190815260200160002060006101000a81548160ff0219169083151502179055506004600081548092919061040590610d6c565b91905055508073ffffffffffffffffffffffffffffffffffffffff167fb861b1b5f49805731a1a70f27b5e03a1de6d8ba83d023b5ee5032a5690ea14be60405160405180910390a250565b6000600454905090565b60026020528060005260406000206000915054906101000a900460ff1681565b610482610a23565b61048c6000610aaa565b565b6000600160008373ffffffffffffffffffffffffffffffffffffffff1673ffffffffffffffffffffffffffffffffffffffff16815260200190815260200160002060009054906101000a900460ff169050919050565b6104ec610a23565b600160008273ffffffffffffffffffffffffffffffffffffffff1673ffffffffffffffffffffffffffffffffffffffff16815260200190815260200160002060009054906101000a900460ff1615610579576040517f08c379a000000000000000000000000000000000000000000000000000000000815260040161057090610e07565b60405180910390fd5b60018060008373ffffffffffffffffffffffffffffffffffffffff1673ffffffffffffffffffffffffffffffffffffffff16815260200190815260200160002060006101000a81548160ff021916908315150217905550600460008154809291906105e390610e27565b91905055508073ffffffffffffffffffffffffffffffffffffffff167f533558c74bcba14c4ffa9cdb14483c733479bee0b4da36ddaf16348d39f0d3f960405160405180910390a250565b60008060009054906101000a900473ffffffffffffffffffffffffffffffffffffffff16905090565b6000600260008373ffffffffffffffffffffffffffffffffffffffff1673ffffffffffffffffffffffffffffffffffffffff16815260200190815260200160002060009054906101000a900460ff169050919050565b60045481565b60035481565b6000600354905090565b6106cb610a23565b600260008273ffffffffffffffffffffffffffffffffffffffff1673ffffffffffffffffffffffffffffffffffffffff16815260200190815260200160002060009054906101000a900460ff16610757576040517f08c379a000000000000000000000000000000000000000000000000000000000815260040161074e90610ee1565b60405180910390fd5b60016003541161079c576040517f08c379a000000000000000000000000000000000000000000000000000000000815260040161079390610f4d565b60405180910390fd5b6000600260008373ffffffffffffffffffffffffffffffffffffffff1673ffffffffffffffffffffffffffffffffffffffff16815260200190815260200160002060006101000a81548160ff0219169083151502179055506003600081548092919061080790610d6c565b91905055508073ffffffffffffffffffffffffffffffffffffffff167f556f0f131426cb9172ebd574a4b04d8cc446a895b43ab4eebd0308d8edc5bdb260405160405180910390a250565b61085a610a23565b600260008273ffffffffffffffffffffffffffffffffffffffff1673ffffffffffffffffffffffffffffffffffffffff16815260200190815260200160002060009054906101000a900460ff16156108e7576040517f08c379a00000000000000000000000000000000000000000000000000000000081526004016108de90610fdf565b60405180910390fd5b6001600260008373ffffffffffffffffffffffffffffffffffffffff1673ffffffffffffffffffffffffffffffffffffffff16815260200190815260200160002060006101000a81548160ff0219169083151502179055506003600081548092919061095290610e27565b91905055508073ffffffffffffffffffffffffffffffffffffffff167f8a50686624f3707e4b4469816c78eeaa934016ad81d575529f13b8ebb28f40fd60405160405180910390a250565b6109a5610a23565b600073ffffffffffffffffffffffffffffffffffffffff168173ffffffffffffffffffffffffffffffffffffffff1603610a175760006040517f1e4fbdf7000000000000000000000000000000000000000000000000000000008152600401610a0e9190610c7f565b60405180910390fd5b610a2081610aaa565b50565b610a2b610b6e565b73ffffffffffffffffffffffffffffffffffffffff16610a4961062e565b73ffffffffffffffffffffffffffffffffffffffff1614610aa857610a6c610b6e565b6040517f118cdaa7000000000000000000000000000000000000000000000000000000008152600401610a9f9190610c7f565b60405180910390fd5b565b60008060009054906101000a900473ffffffffffffffffffffffffffffffffffffffff169050816000806101000a81548173ffffffffffffffffffffffffffffffffffffffff021916908373ffffffffffffffffffffffffffffffffffffffff1602179055508173ffffffffffffffffffffffffffffffffffffffff168173ffffffffffffffffffffffffffffffffffffffff167f8be0079c531659141344cd1fd0a4f28419497f9722a3daafe3b4186f6b6457e060405160405180910390a35050565b600033905090565b600080fd5b600073ffffffffffffffffffffffffffffffffffffffff82169050919050565b6000610ba682610b7b565b9050919050565b610bb681610b9b565b8114610bc157600080fd5b50565b600081359050610bd381610bad565b92915050565b600060208284031215610bef57610bee610b76565b5b6000610bfd84828501610bc4565b91505092915050565b60008115159050919050565b610c1b81610c06565b82525050565b6000602082019050610c366000830184610c12565b92915050565b6000819050919050565b610c4f81610c3c565b82525050565b6000602082019050610c6a6000830184610c46565b92915050565b610c7981610b9b565b82525050565b6000602082019050610c946000830184610c70565b92915050565b600082825260208201905092915050565b7f556e61626c6520746f2072656d6f76652c206e6f74206120686f73706974616c60008201527f20726570726573656e7461746976650000000000000000000000000000000000602082015250565b6000610d07602f83610c9a565b9150610d1282610cab565b604082019050919050565b60006020820190508181036000830152610d3681610cfa565b9050919050565b7f4e487b7100000000000000000000000000000000000000000000000000000000600052601160045260246000fd5b6000610d7782610c3c565b915060008203610d8a57610d89610d3d565b5b600182039050919050565b7f556e61626c6520746f206164642c20616c7265616479206120686f737069746160008201527f6c20726570726573656e74617469766500000000000000000000000000000000602082015250565b6000610df1603083610c9a565b9150610dfc82610d95565b604082019050919050565b60006020820190508181036000830152610e2081610de4565b9050919050565b6000610e3282610c3c565b91507fffffffffffffffffffffffffffffffffffffffffffffffffffffffffffffffff8203610e6457610e63610d3d565b5b600182019050919050565b7f556e61626c6520746f2072656d6f76652c206e6f7420612044414f206d656d6260008201527f6572000000000000000000000000000000000000000000000000000000000000602082015250565b6000610ecb602283610c9a565b9150610ed682610e6f565b604082019050919050565b60006020820190508181036000830152610efa81610ebe565b9050919050565b7f43616e6e6f742072656d6f7665206c6173742044414f206d656d626572000000600082015250565b6000610f37601d83610c9a565b9150610f4282610f01565b602082019050919050565b60006020820190508181036000830152610f6681610f2a565b9050919050565b7f556e61626c6520746f206164642c20616c726561647920612044414f206d656d60008201527f6265720000000000000000000000000000000000000000000000000000000000602082015250565b6000610fc9602383610c9a565b9150610fd482610f6d565b604082019050919050565b60006020820190508181036000830152610ff881610fbc565b905091905056fea2646970667358221220f4087bd5a0dc4c3fb82723e029abdec73a9c87362f044a660632ec236c2a2e7364736f6c634300081c0033",
  "linkReferences": {},
  "deployedLinkReferences": {}
}