{
  "_format": "hh-sol-artifact-1",
  "contractName": "MediTrustFunds",
  "sourceName": "contracts/MediTrustFunds.sol",
  "abi": [
    {
      "inputs": [
        {
          "internalType": "address",
          "name": "campaignAddress",
          "type": "address"
        },
        {
          "internalType": "address",
          "name": "DAOAddress",
          "type": "address"
        }
      ],
      "stateMutability": "nonpayable",
      "type": "constructor"
    },
    {
      "inputs": [],
      "name": "ReentrancyGuardReentrantCall",
      "type": "error"
    },
    {
      "inputs": [],
      "name": "DAOContract",
      "outputs": [
        {
          "internalType": "contract MediTrustDAO",
          "name": "",
          "type": "address"
        }
      ],
      "stateMutability": "view",
      "type": "function"
    },
    {
      "inputs": [
        {
          "internalType": "uint256",
          "name": "",
          "type": "uint256"
        }
      ],
      "name": "campaignBalance",
      "outputs": [
        {
          "internalType": "uint256",
          "name": "",
          "type": "uint256"
        }
      ],
      "stateMutability": "view",
      "type": "function"
    },
    {
      "inputs": [],
      "name": "campaignContract",
      "outputs": [
        {
          "internalType": "contract MediTrustCampaign",
          "name": "",
          "type": "address"
        }
      ],
      "stateMutability": "view",
      "type": "function"
    },
    {
      "inputs": [
        {
          "internalType": "uint256",
          "name": "campaignID",
          "type": "uint256"
        }
      ],
      "name": "donate",
      "outputs": [],
      "stateMutability": "payable",
      "type": "function"
    },
    {
      "inputs": [
        {
          "internalType": "uint256",
          "name": "",
          "type": "uint256"
        },
        {
          "internalType": "address",
          "name": "",
          "type": "address"
        }
      ],
      "name": "donation",
      "outputs": [
        {
          "internalType": "uint256",
          "name": "",
          "type": "uint256"
        }
      ],
      "stateMutability": "view",
      "type": "function"
    },
    {
      "inputs": [
        {
          "internalType": "uint256",
          "name": "claimID",
          "type": "uint256"
        }
      ],
      "name": "executeMilestoneClaim",
      "outputs": [],
      "stateMutability": "nonpayable",
      "type": "function"
    },
    {
      "inputs": [
        {
          "internalType": "uint256",
          "name": "campaignID",
          "type": "uint256"
        }
      ],
      "name": "getCampaignBalance",
      "outputs": [
        {
          "internalType": "uint256",
          "name": "",
          "type": "uint256"
        }
      ],
      "stateMutability": "view",
      "type": "function"
    },
    {
      "inputs": [
        {
          "internalType": "uint256",
          "name": "campaignID",
          "type": "uint256"
        },
        {
          "internalType": "address",
          "name": "donor",
          "type": "address"
        }
      ],
      "name": "getDonation",
      "outputs": [
        {
          "internalType": "uint256",
          "name": "",
          "type": "uint256"
        }
      ],
      "stateMutability": "view",
      "type": "function"
    },
    {
      "inputs": [
        {
          "internalType": "address",
          "name": "patient",
          "type": "address"
        }
      ],
      "name": "getTotalReceived",
      "outputs": [
        {
          "internalType": "uint256",
          "name": "",
          "type": "uint256"
        }
      ],
      "stateMutability": "view",
      "type": "function"
    }
  ],
  "bytecode": "0x608060405234801561001057600080fd5b50604051611bd3380380611bd383398181016040528101906100329190610126565b600160008190555081600160006101000a81548173ffffffffffffffffffffffffffffffffffffffff021916908373ffffffffffffffffffffffffffffffffffffffff16021790555080600260006101000a81548173ffffffffffffffffffffffffffffffffffffffff021916908373ffffffffffffffffffffffffffffffffffffffff1602179055505050610166565b600080fd5b600073ffffffffffffffffffffffffffffffffffffffff82169050919050565b60006100f3826100c8565b9050919050565b610103816100e8565b811461010e57600080fd5b50565b600081519050610120816100fa565b92915050565b6000806040838503121561013d5761013c6100c3565b5b600061014b85828601610111565b925050602061015c85828601610111565b9150509250929050565b611a5e806101756000396000f3fe6080604052600436106100865760003560e01c8063b377f8ae11610059578063b377f8ae14610159578063bd6c67e914610184578063c2bacfa8146101c1578063eb044b97146101fe578063f14faf6f1461023b57610086565b806358ae05cd1461008b57806385823d0c146100b65780638b5c9b64146100f3578063948c543314610130575b600080fd5b34801561009757600080fd5b506100a0610257565b6040516100ad9190610e96565b60405180910390f35b3480156100c257600080fd5b506100dd60048036038101906100d89190610f03565b61027d565b6040516100ea9190610f49565b60405180910390f35b3480156100ff57600080fd5b5061011a60048036038101906101159190610f90565b61043c565b6040516101279190610f49565b60405180910390f35b34801561013c57600080fd5b5061015760048036038101906101529190610fd0565b610461565b005b34801561016557600080fd5b5061016e6108d3565b60405161017b919061101e565b60405180910390f35b34801561019057600080fd5b506101ab60048036038101906101a69190610fd0565b6108f9565b6040516101b89190610f49565b60405180910390f35b3480156101cd57600080fd5b506101e860048036038101906101e39190610f90565b610911565b6040516101f59190610f49565b60405180910390f35b34801561020a57600080fd5b5061022560048036038101906102209190610fd0565b61096c565b6040516102329190610f49565b60405180910390f35b61025560048036038101906102509190610fd0565b610989565b005b600160009054906101000a900473ffffffffffffffffffffffffffffffffffffffff1681565b600080600090506000600260009054906101000a900473ffffffffffffffffffffffffffffffffffffffff1673ffffffffffffffffffffffffffffffffffffffff16638da4d3c96040518163ffffffff1660e01b8152600401602060405180830381865afa1580156102f3573d6000803e3d6000fd5b505050506040513d601f19601f82011682018060405250810190610317919061104e565b905060005b81811015610431576000806000600260009054906101000a900473ffffffffffffffffffffffffffffffffffffffff1673ffffffffffffffffffffffffffffffffffffffff166358afcd5f856040518263ffffffff1660e01b81526004016103849190610f49565b600060405180830381865afa1580156103a1573d6000803e3d6000fd5b505050506040513d6000823e3d601f19601f820116820180604052508101906103ca9190611229565b509650505050935093505080801561040d57508773ffffffffffffffffffffffffffffffffffffffff168373ffffffffffffffffffffffffffffffffffffffff16145b1561042157818661041e919061132a565b95505b505050808060010191505061031c565b508192505050919050565b6004602052816000526040600020602052806000526040600020600091509150505481565b610469610dc7565b600260009054906101000a900473ffffffffffffffffffffffffffffffffffffffff1673ffffffffffffffffffffffffffffffffffffffff16638da4d3c96040518163ffffffff1660e01b8152600401602060405180830381865afa1580156104d6573d6000803e3d6000fd5b505050506040513d601f19601f820116820180604052508101906104fa919061104e565b811061053b576040517f08c379a0000000000000000000000000000000000000000000000000000000008152600401610532906113e1565b60405180910390fd5b600260009054906101000a900473ffffffffffffffffffffffffffffffffffffffff1673ffffffffffffffffffffffffffffffffffffffff1663c646bc67826040518263ffffffff1660e01b81526004016105969190610f49565b602060405180830381865afa1580156105b3573d6000803e3d6000fd5b505050506040513d601f19601f820116820180604052508101906105d79190611401565b610616576040517f08c379a000000000000000000000000000000000000000000000000000000000815260040161060d906114a0565b60405180910390fd5b600080600080600260009054906101000a900473ffffffffffffffffffffffffffffffffffffffff1673ffffffffffffffffffffffffffffffffffffffff166358afcd5f866040518263ffffffff1660e01b81526004016106779190610f49565b600060405180830381865afa158015610694573d6000803e3d6000fd5b505050506040513d6000823e3d601f19601f820116820180604052508101906106bd9190611229565b509650505050935093509350801561070a576040517f08c379a00000000000000000000000000000000000000000000000000000000081526004016107019061150c565b60405180910390fd5b8160036000868152602001908152602001600020541015610760576040517f08c379a00000000000000000000000000000000000000000000000000000000081526004016107579061159e565b60405180910390fd5b8160036000868152602001908152602001600020600082825461078391906115be565b92505081905550600260009054906101000a900473ffffffffffffffffffffffffffffffffffffffff1673ffffffffffffffffffffffffffffffffffffffff1663e809bae0866040518263ffffffff1660e01b81526004016107e59190610f49565b600060405180830381600087803b1580156107ff57600080fd5b505af1158015610813573d6000803e3d6000fd5b5050505060008373ffffffffffffffffffffffffffffffffffffffff168360405161083d90611623565b60006040518083038185875af1925050503d806000811461087a576040519150601f19603f3d011682016040523d82523d6000602084013e61087f565b606091505b50509050806108c3576040517f08c379a00000000000000000000000000000000000000000000000000000000081526004016108ba90611684565b60405180910390fd5b50505050506108d0610e0d565b50565b600260009054906101000a900473ffffffffffffffffffffffffffffffffffffffff1681565b60036020528060005260406000206000915090505481565b60006004600084815260200190815260200160002060008373ffffffffffffffffffffffffffffffffffffffff1673ffffffffffffffffffffffffffffffffffffffff16815260200190815260200160002054905092915050565b600060036000838152602001908152602001600020549050919050565b610991610dc7565b600034116109d4576040517f08c379a00000000000000000000000000000000000000000000000000000000081526004016109cb90611716565b60405180910390fd5b600160009054906101000a900473ffffffffffffffffffffffffffffffffffffffff1673ffffffffffffffffffffffffffffffffffffffff16637274e30d6040518163ffffffff1660e01b8152600401602060405180830381865afa158015610a41573d6000803e3d6000fd5b505050506040513d601f19601f82011682018060405250810190610a65919061104e565b8110610aa6576040517f08c379a0000000000000000000000000000000000000000000000000000000008152600401610a9d906117a8565b60405180910390fd5b600160009054906101000a900473ffffffffffffffffffffffffffffffffffffffff1673ffffffffffffffffffffffffffffffffffffffff1663e1e33009826040518263ffffffff1660e01b8152600401610b019190610f49565b602060405180830381865afa158015610b1e573d6000803e3d6000fd5b505050506040513d601f19601f82011682018060405250810190610b429190611401565b610b81576040517f08c379a0000000000000000000000000000000000000000000000000000000008152600401610b789061183a565b60405180910390fd5b6000600160009054906101000a900473ffffffffffffffffffffffffffffffffffffffff1673ffffffffffffffffffffffffffffffffffffffff16635598f8cc836040518263ffffffff1660e01b8152600401610bde9190610f49565b600060405180830381865afa158015610bfb573d6000803e3d6000fd5b505050506040513d6000823e3d601f19601f82011682018060405250810190610c24919061187f565b5050505050505090508073ffffffffffffffffffffffffffffffffffffffff163373ffffffffffffffffffffffffffffffffffffffff1603610c9b576040517f08c379a0000000000000000000000000000000000000000000000000000000008152600401610c92906119df565b60405180910390fd5b34600360008481526020019081526020016000206000828254610cbe919061132a565b92505081905550346004600084815260200190815260200160002060003373ffffffffffffffffffffffffffffffffffffffff1673ffffffffffffffffffffffffffffffffffffffff1681526020019081526020016000206000828254610d25919061132a565b92505081905550600160009054906101000a900473ffffffffffffffffffffffffffffffffffffffff1673ffffffffffffffffffffffffffffffffffffffff1663f53bded183346040518363ffffffff1660e01b8152600401610d899291906119ff565b600060405180830381600087803b158015610da357600080fd5b505af1158015610db7573d6000803e3d6000fd5b5050505050610dc4610e0d565b50565b600260005403610e03576040517f3ee5aeb500000000000000000000000000000000000000000000000000000000815260040160405180910390fd5b6002600081905550565b6001600081905550565b600073ffffffffffffffffffffffffffffffffffffffff82169050919050565b6000819050919050565b6000610e5c610e57610e5284610e17565b610e37565b610e17565b9050919050565b6000610e6e82610e41565b9050919050565b6000610e8082610e63565b9050919050565b610e9081610e75565b82525050565b6000602082019050610eab6000830184610e87565b92915050565b6000604051905090565b600080fd5b600080fd5b6000610ed082610e17565b9050919050565b610ee081610ec5565b8114610eeb57600080fd5b50565b600081359050610efd81610ed7565b92915050565b600060208284031215610f1957610f18610ebb565b5b6000610f2784828501610eee565b91505092915050565b6000819050919050565b610f4381610f30565b82525050565b6000602082019050610f5e6000830184610f3a565b92915050565b610f6d81610f30565b8114610f7857600080fd5b50565b600081359050610f8a81610f64565b92915050565b60008060408385031215610fa757610fa6610ebb565b5b6000610fb585828601610f7b565b9250506020610fc685828601610eee565b9150509250929050565b600060208284031215610fe657610fe5610ebb565b5b6000610ff484828501610f7b565b91505092915050565b600061100882610e63565b9050919050565b61101881610ffd565b82525050565b6000602082019050611033600083018461100f565b92915050565b60008151905061104881610f64565b92915050565b60006020828403121561106457611063610ebb565b5b600061107284828501611039565b91505092915050565b60008151905061108a81610ed7565b92915050565b600080fd5b600080fd5b6000601f19601f8301169050919050565b7f4e487b7100000000000000000000000000000000000000000000000000000000600052604160045260246000fd5b6110e38261109a565b810181811067ffffffffffffffff82111715611102576111016110ab565b5b80604052505050565b6000611115610eb1565b905061112182826110da565b919050565b600067ffffffffffffffff821115611141576111406110ab565b5b61114a8261109a565b9050602081019050919050565b60005b8381101561117557808201518184015260208101905061115a565b60008484015250505050565b600061119461118f84611126565b61110b565b9050828152602081018484840111156111b0576111af611095565b5b6111bb848285611157565b509392505050565b600082601f8301126111d8576111d7611090565b5b81516111e8848260208601611181565b91505092915050565b60008115159050919050565b611206816111f1565b811461121157600080fd5b50565b600081519050611223816111fd565b92915050565b600080600080600080600080610100898b03121561124a57611249610ebb565b5b60006112588b828c01611039565b98505060206112698b828c0161107b565b975050604061127a8b828c01611039565b965050606089015167ffffffffffffffff81111561129b5761129a610ec0565b5b6112a78b828c016111c3565b95505060806112b88b828c01611039565b94505060a06112c98b828c01611039565b93505060c06112da8b828c01611214565b92505060e06112eb8b828c01611039565b9150509295985092959890939650565b7f4e487b7100000000000000000000000000000000000000000000000000000000600052601160045260246000fd5b600061133582610f30565b915061134083610f30565b9250828201905080821115611358576113576112fb565b5b92915050565b600082825260208201905092915050565b7f556e61626c6520746f20657865637574652c20696e76616c6964206d696c657360008201527f746f6e6520636c61696d00000000000000000000000000000000000000000000602082015250565b60006113cb602a8361135e565b91506113d68261136f565b604082019050919050565b600060208201905081810360008301526113fa816113be565b9050919050565b60006020828403121561141757611416610ebb565b5b600061142584828501611214565b91505092915050565b7f556e61626c6520746f20657865637574652c206d696c6573746f6e6520636c6160008201527f696d206e6f7420617070726f7665642062792044414f00000000000000000000602082015250565b600061148a60368361135e565b91506114958261142e565b604082019050919050565b600060208201905081810360008301526114b98161147d565b9050919050565b7f436c61696d20616c726561647920657865637574656400000000000000000000600082015250565b60006114f660168361135e565b9150611501826114c0565b602082019050919050565b60006020820190508181036000830152611525816114e9565b9050919050565b7f536f7272792c20696e73756666696369656e742063616d706169676e2066756e60008201527f6473000000000000000000000000000000000000000000000000000000000000602082015250565b600061158860228361135e565b91506115938261152c565b604082019050919050565b600060208201905081810360008301526115b78161157b565b9050919050565b60006115c982610f30565b91506115d483610f30565b92508282039050818111156115ec576115eb6112fb565b5b92915050565b600081905092915050565b50565b600061160d6000836115f2565b9150611618826115fd565b600082019050919050565b600061162e82611600565b9150819050919050565b7f4572726f722c2066756e64207472616e73666572206661696c65640000000000600082015250565b600061166e601b8361135e565b915061167982611638565b602082019050919050565b6000602082019050818103600083015261169d81611661565b9050919050565b7f556e61626c6520746f20646f6e6174652c20616d6f756e74206d75737420626560008201527f206d6f7265207468616e20484554482030000000000000000000000000000000602082015250565b600061170060318361135e565b915061170b826116a4565b604082019050919050565b6000602082019050818103600083015261172f816116f3565b9050919050565b7f556e61626c6520746f20646f6e6174652c20696e76616c69642063616d70616960008201527f676e204944000000000000000000000000000000000000000000000000000000602082015250565b600061179260258361135e565b915061179d82611736565b604082019050919050565b600060208201905081810360008301526117c181611785565b9050919050565b7f556e61626c6520746f20646f6e6174652c2063616d706169676e20696e61637460008201527f6976650000000000000000000000000000000000000000000000000000000000602082015250565b600061182460238361135e565b915061182f826117c8565b604082019050919050565b6000602082019050818103600083015261185381611817565b9050919050565b6004811061186757600080fd5b50565b6000815190506118798161185a565b92915050565b600080600080600080600080610100898b0312156118a05761189f610ebb565b5b60006118ae8b828c0161107b565b98505060206118bf8b828c01611039565b97505060406118d08b828c01611039565b96505060606118e18b828c01611039565b955050608089015167ffffffffffffffff81111561190257611901610ec0565b5b61190e8b828c016111c3565b94505060a089015167ffffffffffffffff81111561192f5761192e610ec0565b5b61193b8b828c016111c3565b93505060c061194c8b828c0161186a565b92505060e061195d8b828c01611039565b9150509295985092959890939650565b7f556e61626c6520746f20646f6e6174652c2063616e6e6f7420646f6e6174652060008201527f746f20796f7572206f776e2063616d706169676e000000000000000000000000602082015250565b60006119c960348361135e565b91506119d48261196d565b604082019050919050565b600060208201905081810360008301526119f8816119bc565b9050919050565b6000604082019050611a146000830185610f3a565b611a216020830184610f3a565b939250505056fea26469706673582212209b941827a7b5dbed9df74f59b32e45833addb9acd439b8f16feeb24e24d72c3364736f6c634300081c0033",
  "linkReferences": {},
  "deployedLinkReferences": {}
}