{
  "_format": "hh-sol-artifact-1",
  "contractName": "MediTrustDAO",
  "sourceName": "contracts/MediTrustDAO.sol",
  "abi": [
    {
      "inputs": [
        {
          "internalType": "address",
          "name": "roleAddress",
          "type": "address"
        },
        {
          "internalType": "address",
          "name": "campaignAddress",
          "type": "address"
        }
      ],
      "stateMutability": "nonpayable",
      "type": "constructor"
    },
    {
      "anonymous": false,
      "inputs": [
        {
          "indexed": true,
          "internalType": "uint256",
          "name": "claimID",
          "type": "uint256"
        },
        {
          "indexed": false,
          "internalType": "uint256",
          "name": "amount",
          "type": "uint256"
        }
      ],
      "name": "MilestoneClaimExecute",
      "type": "event"
    },
    {
      "anonymous": false,
      "inputs": [
        {
          "indexed": true,
          "internalType": "uint256",
          "name": "claimID",
          "type": "uint256"
        },
        {
          "indexed": true,
          "internalType": "uint256",
          "name": "campaignID",
          "type": "uint256"
        },
        {
          "indexed": true,
          "internalType": "address",
          "name": "patient",
          "type": "address"
        },
        {
          "indexed": false,
          "internalType": "uint256",
          "name": "amount",
          "type": "uint256"
        },
        {
          "indexed": false,
          "internalType": "string",
          "name": "ipfsHash",
          "type": "string"
        }
      ],
      "name": "MilestoneClaimSubmit",
      "type": "event"
    },
    {
      "anonymous": false,
      "inputs": [
        {
          "indexed": true,
          "internalType": "uint256",
          "name": "claimID",
          "type": "uint256"
        },
        {
          "indexed": true,
          "internalType": "address",
          "name": "DAOMember",
          "type": "address"
        },
        {
          "indexed": false,
          "internalType": "bool",
          "name": "voteChoice",
          "type": "bool"
        }
      ],
      "name": "VoteCast",
      "type": "event"
    },
    {
      "anonymous": false,
      "inputs": [
        {
          "indexed": true,
          "internalType": "uint256",
          "name": "claimID",
          "type": "uint256"
        },
        {
          "indexed": true,
          "internalType": "address",
          "name": "DAOMember",
          "type": "address"
        },
        {
          "indexed": false,
          "internalType": "bool",
          "name": "voteChoice",
          "type": "bool"
        }
      ],
      "name": "VoteChange",
      "type": "event"
    },
    {
      "inputs": [],
      "name": "approvalPercentage",
      "outputs": [
        {
          "internalType": "uint256",
          "name": "",
          "type": "uint256"
        }
      ],
      "stateMutability": "view",
      "type": "function"
    },
    {
      "inputs": [],
      "name": "campaignContract",
      "outputs": [
        {
          "internalType": "contract MediTrustCampaign",
          "name": "",
          "type": "address"
        }
      ],
      "stateMutability": "view",
      "type": "function"
    },
    {
      "inputs": [],
      "name": "claimCount",
      "outputs": [
        {
          "internalType": "uint256",
          "name": "",
          "type": "uint256"
        }
      ],
      "stateMutability": "view",
      "type": "function"
    },
    {
      "inputs": [
        {
          "internalType": "uint256",
          "name": "",
          "type": "uint256"
        }
      ],
      "name": "claims",
      "outputs": [
        {
          "internalType": "uint256",
          "name": "campaignID",
          "type": "uint256"
        },
        {
          "internalType": "address",
          "name": "patient",
          "type": "address"
        },
        {
          "internalType": "uint256",
          "name": "amount",
          "type": "uint256"
        },
        {
          "internalType": "string",
          "name": "ipfsHash",
          "type": "string"
        },
        {
          "internalType": "uint256",
          "name": "yesCount",
          "type": "uint256"
        },
        {
          "internalType": "uint256",
          "name": "noCount",
          "type": "uint256"
        },
        {
          "internalType": "bool",
          "name": "executed",
          "type": "bool"
        },
        {
          "internalType": "uint256",
          "name": "startDate",
          "type": "uint256"
        }
      ],
      "stateMutability": "view",
      "type": "function"
    },
    {
      "inputs": [],
      "name": "fundsAddress",
      "outputs": [
        {
          "internalType": "address",
          "name": "",
          "type": "address"
        }
      ],
      "stateMutability": "view",
      "type": "function"
    },
    {
      "inputs": [
        {
          "internalType": "uint256",
          "name": "MilestoneType",
          "type": "uint256"
        }
      ],
      "name": "getMilestoneClaimCount",
      "outputs": [
        {
          "internalType": "uint256",
          "name": "",
          "type": "uint256"
        }
      ],
      "stateMutability": "view",
      "type": "function"
    },
    {
      "inputs": [
        {
          "internalType": "uint256",
          "name": "claimID",
          "type": "uint256"
        }
      ],
      "name": "getMilestoneClaimDetails",
      "outputs": [
        {
          "internalType": "uint256",
          "name": "campaignID",
          "type": "uint256"
        },
        {
          "internalType": "address",
          "name": "patient",
          "type": "address"
        },
        {
          "internalType": "uint256",
          "name": "amount",
          "type": "uint256"
        },
        {
          "internalType": "string",
          "name": "ipfsHash",
          "type": "string"
        },
        {
          "internalType": "uint256",
          "name": "yesCount",
          "type": "uint256"
        },
        {
          "internalType": "uint256",
          "name": "noCount",
          "type": "uint256"
        },
        {
          "internalType": "bool",
          "name": "executed",
          "type": "bool"
        },
        {
          "internalType": "uint256",
          "name": "startDate",
          "type": "uint256"
        }
      ],
      "stateMutability": "view",
      "type": "function"
    },
    {
      "inputs": [
        {
          "internalType": "uint256",
          "name": "claimID",
          "type": "uint256"
        }
      ],
      "name": "getMilestoneClaimVotes",
      "outputs": [
        {
          "internalType": "uint256",
          "name": "yesCount",
          "type": "uint256"
        },
        {
          "internalType": "uint256",
          "name": "noCount",
          "type": "uint256"
        }
      ],
      "stateMutability": "view",
      "type": "function"
    },
    {
      "inputs": [
        {
          "internalType": "uint256",
          "name": "claimID",
          "type": "uint256"
        },
        {
          "internalType": "address",
          "name": "DAOMember",
          "type": "address"
        }
      ],
      "name": "getVoteChoice",
      "outputs": [
        {
          "internalType": "bool",
          "name": "",
          "type": "bool"
        }
      ],
      "stateMutability": "view",
      "type": "function"
    },
    {
      "inputs": [
        {
          "internalType": "uint256",
          "name": "claimID",
          "type": "uint256"
        },
        {
          "internalType": "address",
          "name": "DAOMember",
          "type": "address"
        }
      ],
      "name": "getVoted",
      "outputs": [
        {
          "internalType": "bool",
          "name": "",
          "type": "bool"
        }
      ],
      "stateMutability": "view",
      "type": "function"
    },
    {
      "inputs": [
        {
          "internalType": "uint256",
          "name": "claimID",
          "type": "uint256"
        }
      ],
      "name": "isMilestoneClaimApproved",
      "outputs": [
        {
          "internalType": "bool",
          "name": "",
          "type": "bool"
        }
      ],
      "stateMutability": "view",
      "type": "function"
    },
    {
      "inputs": [],
      "name": "quorumPercentage",
      "outputs": [
        {
          "internalType": "uint256",
          "name": "",
          "type": "uint256"
        }
      ],
      "stateMutability": "view",
      "type": "function"
    },
    {
      "inputs": [],
      "name": "roleContract",
      "outputs": [
        {
          "internalType": "contract MediTrustRoles",
          "name": "",
          "type": "address"
        }
      ],
      "stateMutability": "view",
      "type": "function"
    },
    {
      "inputs": [
        {
          "internalType": "uint256",
          "name": "claimID",
          "type": "uint256"
        }
      ],
      "name": "setMilestoneClaimExecuted",
      "outputs": [],
      "stateMutability": "nonpayable",
      "type": "function"
    },
    {
      "inputs": [
        {
          "internalType": "uint256",
          "name": "campaignID",
          "type": "uint256"
        },
        {
          "internalType": "uint256",
          "name": "amount",
          "type": "uint256"
        },
        {
          "internalType": "string",
          "name": "ipfsHash",
          "type": "string"
        }
      ],
      "name": "submitMilestoneClaim",
      "outputs": [
        {
          "internalType": "uint256",
          "name": "",
          "type": "uint256"
        }
      ],
      "stateMutability": "nonpayable",
      "type": "function"
    },
    {
      "inputs": [
        {
          "internalType": "uint256",
          "name": "claimID",
          "type": "uint256"
        },
        {
          "internalType": "bool",
          "name": "newVote",
          "type": "bool"
        }
      ],
      "name": "vote",
      "outputs": [],
      "stateMutability": "nonpayable",
      "type": "function"
    }
  ],
  "bytecode": "0x608060405234801561001057600080fd5b506040516129923803806129928339818101604052810190610032919061011d565b816000806101000a81548173ffffffffffffffffffffffffffffffffffffffff021916908373ffffffffffffffffffffffffffffffffffffffff16021790555080600160006101000a81548173ffffffffffffffffffffffffffffffffffffffff021916908373ffffffffffffffffffffffffffffffffffffffff160217905550505061015d565b600080fd5b600073ffffffffffffffffffffffffffffffffffffffff82169050919050565b60006100ea826100bf565b9050919050565b6100fa816100df565b811461010557600080fd5b50565b600081519050610117816100f1565b92915050565b60008060408385031215610134576101336100ba565b5b600061014285828601610108565b925050602061015385828601610108565b9150509250929050565b6128268061016c6000396000f3fe608060405234801561001057600080fd5b50600436106101005760003560e01c80638dd6261d11610097578063c646bc6711610066578063c646bc67146102fa578063c9d27afe1461032a578063e809bae014610346578063f89723b81461036257610100565b80638dd6261d14610245578063a77ccd6e14610275578063a888c2cd14610293578063bdaf2b18146102ca57610100565b806358ae05cd116100d357806358ae05cd146101a257806358afcd5f146101c05780637f318a5f146101f75780638da4d3c91461022757610100565b80630cc20c4a146101055780633008d4371461013657806330a89710146101545780634fa76ec914610184575b600080fd5b61011f600480360381019061011a9190611672565b610380565b60405161012d9291906116ae565b60405180910390f35b61013e6103ae565b60405161014b91906116d7565b60405180910390f35b61016e60048036038101906101699190611750565b6103b3565b60405161017b91906117ab565b60405180910390f35b61018c61041e565b60405161019991906116d7565b60405180910390f35b6101aa610423565b6040516101b79190611825565b60405180910390f35b6101da60048036038101906101d59190611672565b610449565b6040516101ee9897969594939291906118df565b60405180910390f35b610211600480360381019061020c9190611750565b610569565b60405161021e91906117ab565b60405180910390f35b61022f610674565b60405161023c91906116d7565b60405180910390f35b61025f600480360381019061025a9190611672565b61067a565b60405161026c91906116d7565b60405180910390f35b61027d61078a565b60405161028a9190611964565b60405180910390f35b6102ad60048036038101906102a89190611672565b6107b0565b6040516102c19897969594939291906118df565b60405180910390f35b6102e460048036038101906102df9190611ab4565b6108ad565b6040516102f191906116d7565b60405180910390f35b610314600480360381019061030f9190611672565b610c3e565b60405161032191906117ab565b60405180910390f35b610344600480360381019061033f9190611b4f565b610da4565b005b610360600480360381019061035b9190611672565b61129b565b005b61036a6114c5565b6040516103779190611bb0565b60405180910390f35b6000806000600360008581526020019081526020016000209050806004015481600501549250925050915091565b603c81565b60006003600084815260200190815260200160002060060160008373ffffffffffffffffffffffffffffffffffffffff1673ffffffffffffffffffffffffffffffffffffffff16815260200190815260200160002060009054906101000a900460ff16905092915050565b603281565b600160009054906101000a900473ffffffffffffffffffffffffffffffffffffffff1681565b600080600060606000806000806000600360008b8152602001908152602001600020905080600001548160010160009054906101000a900473ffffffffffffffffffffffffffffffffffffffff16826002015483600301846004015485600501548660080160009054906101000a900460ff1687600901548480546104cd90611bfa565b80601f01602080910402602001604051908101604052809291908181526020018280546104f990611bfa565b80156105465780601f1061051b57610100808354040283529160200191610546565b820191906000526020600020905b81548152906001019060200180831161052957829003601f168201915b505050505094509850985098509850985098509850985050919395975091939597565b60006003600084815260200190815260200160002060060160008373ffffffffffffffffffffffffffffffffffffffff1673ffffffffffffffffffffffffffffffffffffffff16815260200190815260200160002060009054906101000a900460ff1661060b576040517f08c379a000000000000000000000000000000000000000000000000000000000815260040161060290611c9d565b60405180910390fd5b6003600084815260200190815260200160002060070160008373ffffffffffffffffffffffffffffffffffffffff1673ffffffffffffffffffffffffffffffffffffffff16815260200190815260200160002060009054906101000a900460ff16905092915050565b60045481565b6000806000905060005b600454811015610780576000841480156106bf57506003600082815260200190815260200160002060080160009054906101000a900460ff16155b156106d75781806106cf90611cec565b925050610773565b6001841480156106ec57506106eb81610c3e565b5b156107045781806106fc90611cec565b925050610772565b60028414801561073457506003600082815260200190815260200160002060080160009054906101000a900460ff165b156107625760036000828152602001908152602001600020600201548261075b9190611d34565b9150610771565b600384036107705760045491505b5b5b5b8080600101915050610684565b5080915050919050565b600260009054906101000a900473ffffffffffffffffffffffffffffffffffffffff1681565b60036020528060005260406000206000915090508060000154908060010160009054906101000a900473ffffffffffffffffffffffffffffffffffffffff169080600201549080600301805461080590611bfa565b80601f016020809104026020016040519081016040528092919081815260200182805461083190611bfa565b801561087e5780601f106108535761010080835404028352916020019161087e565b820191906000526020600020905b81548152906001019060200180831161086157829003601f168201915b5050505050908060040154908060050154908060080160009054906101000a900460ff16908060090154905088565b6000600160009054906101000a900473ffffffffffffffffffffffffffffffffffffffff1673ffffffffffffffffffffffffffffffffffffffff1663e1e33009856040518263ffffffff1660e01b815260040161090a91906116d7565b602060405180830381865afa158015610927573d6000803e3d6000fd5b505050506040513d601f19601f8201168201806040525081019061094b9190611d7d565b61098a576040517f08c379a000000000000000000000000000000000000000000000000000000000815260040161098190611df6565b60405180910390fd5b600083116109cd576040517f08c379a00000000000000000000000000000000000000000000000000000000081526004016109c490611e62565b60405180910390fd5b6000825111610a11576040517f08c379a0000000000000000000000000000000000000000000000000000000008152600401610a0890611ece565b60405180910390fd5b6000600160009054906101000a900473ffffffffffffffffffffffffffffffffffffffff1673ffffffffffffffffffffffffffffffffffffffff16635598f8cc866040518263ffffffff1660e01b8152600401610a6e91906116d7565b600060405180830381865afa158015610a8b573d6000803e3d6000fd5b505050506040513d6000823e3d601f19601f82011682018060405250810190610ab49190611fad565b505050505090508073ffffffffffffffffffffffffffffffffffffffff163373ffffffffffffffffffffffffffffffffffffffff1614610b29576040517f08c379a0000000000000000000000000000000000000000000000000000000008152600401610b20906120c8565b60405180910390fd5b600060046000815480929190610b3e90611cec565b9190505590506000600360008381526020019081526020016000209050868160000181905550338160010160006101000a81548173ffffffffffffffffffffffffffffffffffffffff021916908373ffffffffffffffffffffffffffffffffffffffff16021790555085816002018190555084816003019081610bc1919061228a565b5060008160040181905550600081600501819055504281600901819055503373ffffffffffffffffffffffffffffffffffffffff1687837fbd98f45a161c0984c2655a7fcbb2a3b336dc55b4780617f2d6dc49f737e10c5b8989604051610c2992919061235c565b60405180910390a48193505050509392505050565b600080600360008481526020019081526020016000209050600081600501548260040154610c6c9190611d34565b905060008103610c8157600092505050610d9f565b60008060009054906101000a900473ffffffffffffffffffffffffffffffffffffffff1673ffffffffffffffffffffffffffffffffffffffff1663ce2ef58d6040518163ffffffff1660e01b8152600401602060405180830381865afa158015610cef573d6000803e3d6000fd5b505050506040513d601f19601f82011682018060405250810190610d13919061238c565b905060008111610d58576040517f08c379a0000000000000000000000000000000000000000000000000000000008152600401610d4f9061242b565b60405180910390fd5b6000610d66836064846114e9565b90506032811015610d7e576000945050505050610d9f565b6000610d9085600401546064866114e9565b9050603c811015955050505050505b919050565b60008054906101000a900473ffffffffffffffffffffffffffffffffffffffff1673ffffffffffffffffffffffffffffffffffffffff1663b1e44d8f336040518263ffffffff1660e01b8152600401610dfd9190611964565b602060405180830381865afa158015610e1a573d6000803e3d6000fd5b505050506040513d601f19601f82011682018060405250810190610e3e9190611d7d565b610e7d576040517f08c379a0000000000000000000000000000000000000000000000000000000008152600401610e7490612497565b60405180910390fd5b6004548210610ec1576040517f08c379a0000000000000000000000000000000000000000000000000000000008152600401610eb890612503565b60405180910390fd5b60006003600084815260200190815260200160002090508060080160009054906101000a900460ff1615610f2a576040517f08c379a0000000000000000000000000000000000000000000000000000000008152600401610f2190612595565b60405180910390fd5b8060060160003373ffffffffffffffffffffffffffffffffffffffff1673ffffffffffffffffffffffffffffffffffffffff16815260200190815260200160002060009054906101000a900460ff1615611153578115158160070160003373ffffffffffffffffffffffffffffffffffffffff1673ffffffffffffffffffffffffffffffffffffffff16815260200190815260200160002060009054906101000a900460ff1615151461114e578060070160003373ffffffffffffffffffffffffffffffffffffffff1673ffffffffffffffffffffffffffffffffffffffff16815260200190815260200160002060009054906101000a900460ff161561104a57806004016000815480929190611040906125b5565b9190505550611065565b80600501600081548092919061105f906125b5565b91905055505b811561108a5780600401600081548092919061108090611cec565b91905055506110a5565b80600501600081548092919061109f90611cec565b91905055505b818160070160003373ffffffffffffffffffffffffffffffffffffffff1673ffffffffffffffffffffffffffffffffffffffff16815260200190815260200160002060006101000a81548160ff0219169083151502179055503373ffffffffffffffffffffffffffffffffffffffff16837f8adf67fcddcede850000c0f5a171766950c24705395fe0ffcf1f61312713f5088460405161114591906117ab565b60405180910390a35b611296565b81156111785780600401600081548092919061116e90611cec565b9190505550611193565b80600501600081548092919061118d90611cec565b91905055505b60018160060160003373ffffffffffffffffffffffffffffffffffffffff1673ffffffffffffffffffffffffffffffffffffffff16815260200190815260200160002060006101000a81548160ff021916908315150217905550818160070160003373ffffffffffffffffffffffffffffffffffffffff1673ffffffffffffffffffffffffffffffffffffffff16815260200190815260200160002060006101000a81548160ff0219169083151502179055503373ffffffffffffffffffffffffffffffffffffffff16837fe71fcdac32df1877c1700e7bda2a03157e20993363a28fc35ac495cefc76e4d48460405161128d91906117ab565b60405180910390a35b505050565b600160009054906101000a900473ffffffffffffffffffffffffffffffffffffffff1673ffffffffffffffffffffffffffffffffffffffff16632c9932ec6040518163ffffffff1660e01b8152600401602060405180830381865afa158015611308573d6000803e3d6000fd5b505050506040513d601f19601f8201168201806040525081019061132c91906125de565b73ffffffffffffffffffffffffffffffffffffffff163373ffffffffffffffffffffffffffffffffffffffff1614611399576040517f08c379a00000000000000000000000000000000000000000000000000000000081526004016113909061267d565b60405180910390fd5b6113a281610c3e565b6113e1576040517f08c379a00000000000000000000000000000000000000000000000000000000081526004016113d89061270f565b60405180910390fd5b6003600082815260200190815260200160002060080160009054906101000a900460ff1615611445576040517f08c379a000000000000000000000000000000000000000000000000000000000815260040161143c906127a1565b60405180910390fd5b60016003600083815260200190815260200160002060080160006101000a81548160ff021916908315150217905550807f2901d10c47c593ca857b50ed52c025920f7b7b75198ec6aee6f61aa09a40089660036000848152602001908152602001600020600201546040516114ba91906116d7565b60405180910390a250565b60008054906101000a900473ffffffffffffffffffffffffffffffffffffffff1681565b60008060006114f886866115d1565b915091506000820361151e57838181611514576115136127c1565b5b04925050506115ca565b81841161153e5761153d61153860008614601260116115f0565b61160a565b5b600084868809905081811183039250808203915060008560000386169050808604955080830492506001818260000304019050808402831792506000600287600302189050808702600203810290508087026002038102905080870260020381029050808702600203810290508087026002038102905080870260020381029050808402955050505050505b9392505050565b6000806000198385098385029150818110828203039250509250929050565b60006115fb8461161c565b82841802821890509392505050565b634e487b71600052806020526024601cfd5b60008115159050919050565b6000604051905090565b600080fd5b600080fd5b6000819050919050565b61164f8161163c565b811461165a57600080fd5b50565b60008135905061166c81611646565b92915050565b60006020828403121561168857611687611632565b5b60006116968482850161165d565b91505092915050565b6116a88161163c565b82525050565b60006040820190506116c3600083018561169f565b6116d0602083018461169f565b9392505050565b60006020820190506116ec600083018461169f565b92915050565b600073ffffffffffffffffffffffffffffffffffffffff82169050919050565b600061171d826116f2565b9050919050565b61172d81611712565b811461173857600080fd5b50565b60008135905061174a81611724565b92915050565b6000806040838503121561176757611766611632565b5b60006117758582860161165d565b92505060206117868582860161173b565b9150509250929050565b60008115159050919050565b6117a581611790565b82525050565b60006020820190506117c0600083018461179c565b92915050565b6000819050919050565b60006117eb6117e66117e1846116f2565b6117c6565b6116f2565b9050919050565b60006117fd826117d0565b9050919050565b600061180f826117f2565b9050919050565b61181f81611804565b82525050565b600060208201905061183a6000830184611816565b92915050565b61184981611712565b82525050565b600081519050919050565b600082825260208201905092915050565b60005b8381101561188957808201518184015260208101905061186e565b60008484015250505050565b6000601f19601f8301169050919050565b60006118b18261184f565b6118bb818561185a565b93506118cb81856020860161186b565b6118d481611895565b840191505092915050565b6000610100820190506118f5600083018b61169f565b611902602083018a611840565b61190f604083018961169f565b818103606083015261192181886118a6565b9050611930608083018761169f565b61193d60a083018661169f565b61194a60c083018561179c565b61195760e083018461169f565b9998505050505050505050565b60006020820190506119796000830184611840565b92915050565b600080fd5b600080fd5b7f4e487b7100000000000000000000000000000000000000000000000000000000600052604160045260246000fd5b6119c182611895565b810181811067ffffffffffffffff821117156119e0576119df611989565b5b80604052505050565b60006119f3611628565b90506119ff82826119b8565b919050565b600067ffffffffffffffff821115611a1f57611a1e611989565b5b611a2882611895565b9050602081019050919050565b82818337600083830152505050565b6000611a57611a5284611a04565b6119e9565b905082815260208101848484011115611a7357611a72611984565b5b611a7e848285611a35565b509392505050565b600082601f830112611a9b57611a9a61197f565b5b8135611aab848260208601611a44565b91505092915050565b600080600060608486031215611acd57611acc611632565b5b6000611adb8682870161165d565b9350506020611aec8682870161165d565b925050604084013567ffffffffffffffff811115611b0d57611b0c611637565b5b611b1986828701611a86565b9150509250925092565b611b2c81611790565b8114611b3757600080fd5b50565b600081359050611b4981611b23565b92915050565b60008060408385031215611b6657611b65611632565b5b6000611b748582860161165d565b9250506020611b8585828601611b3a565b9150509250929050565b6000611b9a826117f2565b9050919050565b611baa81611b8f565b82525050565b6000602082019050611bc56000830184611ba1565b92915050565b7f4e487b7100000000000000000000000000000000000000000000000000000000600052602260045260246000fd5b60006002820490506001821680611c1257607f821691505b602082108103611c2557611c24611bcb565b5b50919050565b7f556e61626c6520746f2072657472696576652c2044414f206d656d626572206860008201527f6173206e6f7420766f7465640000000000000000000000000000000000000000602082015250565b6000611c87602c8361185a565b9150611c9282611c2b565b604082019050919050565b60006020820190508181036000830152611cb681611c7a565b9050919050565b7f4e487b7100000000000000000000000000000000000000000000000000000000600052601160045260246000fd5b6000611cf78261163c565b91507fffffffffffffffffffffffffffffffffffffffffffffffffffffffffffffffff8203611d2957611d28611cbd565b5b600182019050919050565b6000611d3f8261163c565b9150611d4a8361163c565b9250828201905080821115611d6257611d61611cbd565b5b92915050565b600081519050611d7781611b23565b92915050565b600060208284031215611d9357611d92611632565b5b6000611da184828501611d68565b91505092915050565b7f54727920616761696e2c2063616d706169676e206e6f74206163746976650000600082015250565b6000611de0601e8361185a565b9150611deb82611daa565b602082019050919050565b60006020820190508181036000830152611e0f81611dd3565b9050919050565b7f54727920616761696e2c20696e76616c69642074617267657420616d6f756e74600082015250565b6000611e4c60208361185a565b9150611e5782611e16565b602082019050919050565b60006020820190508181036000830152611e7b81611e3f565b9050919050565b7f54727920616761696e2c20495046532068617368207265717569726564000000600082015250565b6000611eb8601d8361185a565b9150611ec382611e82565b602082019050919050565b60006020820190508181036000830152611ee781611eab565b9050919050565b600081519050611efd81611724565b92915050565b600081519050611f1281611646565b92915050565b6000611f2b611f2684611a04565b6119e9565b905082815260208101848484011115611f4757611f46611984565b5b611f5284828561186b565b509392505050565b600082601f830112611f6f57611f6e61197f565b5b8151611f7f848260208601611f18565b91505092915050565b60048110611f9557600080fd5b50565b600081519050611fa781611f88565b92915050565b60008060008060008060c08789031215611fca57611fc9611632565b5b6000611fd889828a01611eee565b9650506020611fe989828a01611f03565b9550506040611ffa89828a01611f03565b945050606061200b89828a01611f03565b935050608087015167ffffffffffffffff81111561202c5761202b611637565b5b61203889828a01611f5a565b92505060a061204989828a01611f98565b9150509295509295509295565b7f556e61626c6520746f207375626d69742c206e6f742070617469656e74206f6660008201527f20746869732063616d706169676e000000000000000000000000000000000000602082015250565b60006120b2602e8361185a565b91506120bd82612056565b604082019050919050565b600060208201905081810360008301526120e1816120a5565b9050919050565b60008190508160005260206000209050919050565b60006020601f8301049050919050565b600082821b905092915050565b60006008830261214a7fffffffffffffffffffffffffffffffffffffffffffffffffffffffffffffffff8261210d565b612154868361210d565b95508019841693508086168417925050509392505050565b600061218761218261217d8461163c565b6117c6565b61163c565b9050919050565b6000819050919050565b6121a18361216c565b6121b56121ad8261218e565b84845461211a565b825550505050565b600090565b6121ca6121bd565b6121d5818484612198565b505050565b5b818110156121f9576121ee6000826121c2565b6001810190506121db565b5050565b601f82111561223e5761220f816120e8565b612218846120fd565b81016020851015612227578190505b61223b612233856120fd565b8301826121da565b50505b505050565b600082821c905092915050565b600061226160001984600802612243565b1980831691505092915050565b600061227a8383612250565b9150826002028217905092915050565b6122938261184f565b67ffffffffffffffff8111156122ac576122ab611989565b5b6122b68254611bfa565b6122c18282856121fd565b600060209050601f8311600181146122f457600084156122e2578287015190505b6122ec858261226e565b865550612354565b601f198416612302866120e8565b60005b8281101561232a57848901518255600182019150602085019450602081019050612305565b868310156123475784890151612343601f891682612250565b8355505b6001600288020188555050505b505050505050565b6000604082019050612371600083018561169f565b818103602083015261238381846118a6565b90509392505050565b6000602082840312156123a2576123a1611632565b5b60006123b084828501611f03565b91505092915050565b7f556e61626c6520746f2064657465726d696e652c206e6f2044414f206d656d6260008201527f6572730000000000000000000000000000000000000000000000000000000000602082015250565b600061241560238361185a565b9150612420826123b9565b604082019050919050565b6000602082019050818103600083015261244481612408565b9050919050565b7f536f7272792c206f6e6c792044414f206d656d626572732063616e20766f7465600082015250565b600061248160208361185a565b915061248c8261244b565b602082019050919050565b600060208201905081810360008301526124b081612474565b9050919050565b7f556e61626c6520746f20766f74652c20696e76616c696420636c61696d204944600082015250565b60006124ed60208361185a565b91506124f8826124b7565b602082019050919050565b6000602082019050818103600083015261251c816124e0565b9050919050565b7f556e61626c6520746f20766f74652c20636c61696d20616c726561647920657860008201527f6563757465640000000000000000000000000000000000000000000000000000602082015250565b600061257f60268361185a565b915061258a82612523565b604082019050919050565b600060208201905081810360008301526125ae81612572565b9050919050565b60006125c08261163c565b9150600082036125d3576125d2611cbd565b5b600182039050919050565b6000602082840312156125f4576125f3611632565b5b600061260284828501611eee565b91505092915050565b7f556e617574686f72697a65642c20696e76616c696420636f6e7472616374206160008201527f6464726573730000000000000000000000000000000000000000000000000000602082015250565b600061266760268361185a565b91506126728261260b565b604082019050919050565b600060208201905081810360008301526126968161265a565b9050919050565b7f556e61626c6520746f20657865637574652c20636c61696d206e6f742061707060008201527f726f766564000000000000000000000000000000000000000000000000000000602082015250565b60006126f960258361185a565b91506127048261269d565b604082019050919050565b60006020820190508181036000830152612728816126ec565b9050919050565b7f556e61626c6520746f20657865637574652c20636c61696d20616c726561647960008201527f2065786563757465640000000000000000000000000000000000000000000000602082015250565b600061278b60298361185a565b91506127968261272f565b604082019050919050565b600060208201905081810360008301526127ba8161277e565b9050919050565b7f4e487b7100000000000000000000000000000000000000000000000000000000600052601260045260246000fdfea2646970667358221220b90f71cb0ceff181885a811fe6cf930c1965283bd0bda59ef2a8237783a89d9564736f6c634300081c0033",
  "linkReferences": {},
  "deployedLinkReferences": {}
}