{
  "_format": "hh-sol-artifact-1",
  "contractName": "MediTrustCampaign",
  "sourceName": "contracts/MediTrustCampaign.sol",
  "abi": [
    {
      "inputs": [
        {
          "internalType": "address",
          "name": "_rolesContract",
          "type": "address"
        }
      ],
      "stateMutability": "nonpayable",
      "type": "constructor"
    },
    {
      "anonymous": false,
      "inputs": [
        {
          "indexed": true,
          "internalType": "uint256",
          "name": "campaignId",
          "type": "uint256"
        }
      ],
      "name": "CampaignApproved",
      "type": "event"
    },
    {
      "anonymous": false,
      "inputs": [
        {
          "indexed": true,
          "internalType": "uint256",
          "name": "campaignId",
          "type": "uint256"
        }
      ],
      "name": "CampaignCompleted",
      "type": "event"
    },
    {
      "anonymous": false,
      "inputs": [
        {
          "indexed": true,
          "internalType": "uint256",
          "name": "campaignId",
          "type": "uint256"
        },
        {
          "indexed": true,
          "internalType": "address",
          "name": "patient",
          "type": "address"
        },
        {
          "indexed": false,
          "internalType": "uint256",
          "name": "targetAmount",
          "type": "uint256"
        },
        {
          "indexed": false,
          "internalType": "string",
          "name": "ipfsHash",
          "type": "string"
        }
      ],
      "name": "CampaignCreated",
      "type": "event"
    },
    {
      "anonymous": false,
      "inputs": [
        {
          "indexed": true,
          "internalType": "uint256",
          "name": "campaignId",
          "type": "uint256"
        },
        {
          "indexed": false,
          "internalType": "string",
          "name": "reason",
          "type": "string"
        }
      ],
      "name": "CampaignRejected",
      "type": "event"
    },
    {
      "inputs": [
        {
          "internalType": "uint256",
          "name": "_campaignId",
          "type": "uint256"
        }
      ],
      "name": "approveCampaign",
      "outputs": [],
      "stateMutability": "nonpayable",
      "type": "function"
    },
    {
      "inputs": [],
      "name": "campaignCount",
      "outputs": [
        {
          "internalType": "uint256",
          "name": "",
          "type": "uint256"
        }
      ],
      "stateMutability": "view",
      "type": "function"
    },
    {
      "inputs": [
        {
          "internalType": "uint256",
          "name": "",
          "type": "uint256"
        }
      ],
      "name": "campaigns",
      "outputs": [
        {
          "internalType": "address",
          "name": "patient",
          "type": "address"
        },
        {
          "internalType": "uint256",
          "name": "targetAmount",
          "type": "uint256"
        },
        {
          "internalType": "uint256",
          "name": "raisedAmount",
          "type": "uint256"
        },
        {
          "internalType": "uint256",
          "name": "expiry",
          "type": "uint256"
        },
        {
          "internalType": "string",
          "name": "ipfsHash",
          "type": "string"
        },
        {
          "internalType": "enum MediTrustCampaign.CampaignStatus",
          "name": "status",
          "type": "uint8"
        },
        {
          "internalType": "uint256",
          "name": "createdAt",
          "type": "uint256"
        }
      ],
      "stateMutability": "view",
      "type": "function"
    },
    {
      "inputs": [
        {
          "internalType": "uint256",
          "name": "_targetAmount",
          "type": "uint256"
        },
        {
          "internalType": "uint256",
          "name": "_durationDays",
          "type": "uint256"
        },
        {
          "internalType": "string",
          "name": "_ipfsHash",
          "type": "string"
        }
      ],
      "name": "createCampaign",
      "outputs": [
        {
          "internalType": "uint256",
          "name": "",
          "type": "uint256"
        }
      ],
      "stateMutability": "nonpayable",
      "type": "function"
    },
    {
      "inputs": [
        {
          "internalType": "uint256",
          "name": "_campaignId",
          "type": "uint256"
        }
      ],
      "name": "getCampaign",
      "outputs": [
        {
          "internalType": "address",
          "name": "patient",
          "type": "address"
        },
        {
          "internalType": "uint256",
          "name": "targetAmount",
          "type": "uint256"
        },
        {
          "internalType": "uint256",
          "name": "raisedAmount",
          "type": "uint256"
        },
        {
          "internalType": "uint256",
          "name": "expiry",
          "type": "uint256"
        },
        {
          "internalType": "string",
          "name": "ipfsHash",
          "type": "string"
        },
        {
          "internalType": "enum MediTrustCampaign.CampaignStatus",
          "name": "status",
          "type": "uint8"
        },
        {
          "internalType": "uint256",
          "name": "createdAt",
          "type": "uint256"
        }
      ],
      "stateMutability": "view",
      "type": "function"
    },
    {
      "inputs": [
        {
          "internalType": "uint256",
          "name": "_campaignId",
          "type": "uint256"
        }
      ],
      "name": "isActive",
      "outputs": [
        {
          "internalType": "bool",
          "name": "",
          "type": "bool"
        }
      ],
      "stateMutability": "view",
      "type": "function"
    },
    {
      "inputs": [
        {
          "internalType": "uint256",
          "name": "_campaignId",
          "type": "uint256"
        },
        {
          "internalType": "string",
          "name": "_reason",
          "type": "string"
        }
      ],
      "name": "rejectCampaign",
      "outputs": [],
      "stateMutability": "nonpayable",
      "type": "function"
    },
    {
      "inputs": [],
      "name": "rolesContract",
      "outputs": [
        {
          "internalType": "contract MediTrustRoles",
          "name": "",
          "type": "address"
        }
      ],
      "stateMutability": "view",
      "type": "function"
    },
    {
      "inputs": [
        {
          "internalType": "uint256",
          "name": "_campaignId",
          "type": "uint256"
        },
        {
          "internalType": "uint256",
          "name": "_amount",
          "type": "uint256"
        }
      ],
      "name": "updateRaisedAmount",
      "outputs": [],
      "stateMutability": "nonpayable",
      "type": "function"
    }
  ],
  "bytecode": "0x608060405234801561001057600080fd5b50604051611bd2380380611bd2833981810160405281019061003291906100db565b806000806101000a81548173ffffffffffffffffffffffffffffffffffffffff021916908373ffffffffffffffffffffffffffffffffffffffff16021790555050610108565b600080fd5b600073ffffffffffffffffffffffffffffffffffffffff82169050919050565b60006100a88261007d565b9050919050565b6100b88161009d565b81146100c357600080fd5b50565b6000815190506100d5816100af565b92915050565b6000602082840312156100f1576100f0610078565b5b60006100ff848285016100c6565b91505092915050565b611abb806101176000396000f3fe608060405234801561001057600080fd5b50600436106100935760003560e01c806382afd23b1161006657806382afd23b1461013e57806391cbf44e1461016e578063ca53b3911461019e578063e8550f8e146101bc578063ee4e1b53146101d857610093565b80631400797414610098578063141961bc146100b45780635598f8cc146100ea5780637274e30d14610120575b600080fd5b6100b260048036038101906100ad9190610e05565b6101f4565b005b6100ce60048036038101906100c99190610e45565b6102c5565b6040516100e19796959493929190610fc9565b60405180910390f35b61010460048036038101906100ff9190610e45565b6103bc565b6040516101179796959493929190610fc9565b60405180910390f35b610128610571565b604051610135919061103f565b60405180910390f35b61015860048036038101906101539190610e45565b610577565b6040516101659190611075565b60405180910390f35b610188600480360381019061018391906111c5565b610728565b604051610195919061103f565b60405180910390f35b6101a66109b9565b6040516101b39190611293565b60405180910390f35b6101d660048036038101906101d191906112ae565b6109dd565b005b6101f260048036038101906101ed9190610e45565b610baf565b005b8060016000848152602001908152602001600020600201600082825461021a9190611339565b9250508190555060016000838152602001908152602001600020600101546001600084815260200190815260200160002060020154106102c15760036001600084815260200190815260200160002060050160006101000a81548160ff0219169083600381111561028e5761028d610f52565b5b0217905550817fbdef6a2e3aa892961a2dab48272f72f2bc1c7121eb1c0ed7e4a58e081c1e4be060405160405180910390a25b5050565b60016020528060005260406000206000915090508060000160009054906101000a900473ffffffffffffffffffffffffffffffffffffffff16908060010154908060020154908060030154908060040180546103209061139c565b80601f016020809104026020016040519081016040528092919081815260200182805461034c9061139c565b80156103995780601f1061036e57610100808354040283529160200191610399565b820191906000526020600020905b81548152906001019060200180831161037c57829003601f168201915b5050505050908060050160009054906101000a900460ff16908060060154905087565b60008060008060606000806000600160008a81526020019081526020016000206040518060e00160405290816000820160009054906101000a900473ffffffffffffffffffffffffffffffffffffffff1673ffffffffffffffffffffffffffffffffffffffff1673ffffffffffffffffffffffffffffffffffffffff16815260200160018201548152602001600282015481526020016003820154815260200160048201805461046b9061139c565b80601f01602080910402602001604051908101604052809291908181526020018280546104979061139c565b80156104e45780601f106104b9576101008083540402835291602001916104e4565b820191906000526020600020905b8154815290600101906020018083116104c757829003601f168201915b505050505081526020016005820160009054906101000a900460ff16600381111561051257610511610f52565b5b600381111561052457610523610f52565b5b81526020016006820154815250509050806000015181602001518260400151836060015184608001518560a001518660c00151975097509750975097509750975050919395979092949650565b60025481565b600080600160008481526020019081526020016000206040518060e00160405290816000820160009054906101000a900473ffffffffffffffffffffffffffffffffffffffff1673ffffffffffffffffffffffffffffffffffffffff1673ffffffffffffffffffffffffffffffffffffffff16815260200160018201548152602001600282015481526020016003820154815260200160048201805461061c9061139c565b80601f01602080910402602001604051908101604052809291908181526020018280546106489061139c565b80156106955780601f1061066a57610100808354040283529160200191610695565b820191906000526020600020905b81548152906001019060200180831161067857829003601f168201915b505050505081526020016005820160009054906101000a900460ff1660038111156106c3576106c2610f52565b5b60038111156106d5576106d4610f52565b5b81526020016006820154815250509050600160038111156106f9576106f8610f52565b5b8160a0015160038111156107105761070f610f52565b5b1480156107205750806060015142105b915050919050565b600080841161076c576040517f08c379a000000000000000000000000000000000000000000000000000000000815260040161076390611419565b60405180910390fd5b60008311801561077e575061016d8311155b6107bd576040517f08c379a00000000000000000000000000000000000000000000000000000000081526004016107b490611485565b60405180910390fd5b6000825111610801576040517f08c379a00000000000000000000000000000000000000000000000000000000081526004016107f8906114f1565b60405180910390fd5b60006002600081548092919061081690611511565b9190505590506040518060e001604052803373ffffffffffffffffffffffffffffffffffffffff16815260200186815260200160008152602001620151808661085f9190611559565b4261086a9190611339565b81526020018481526020016000600381111561088957610888610f52565b5b8152602001428152506001600083815260200190815260200160002060008201518160000160006101000a81548173ffffffffffffffffffffffffffffffffffffffff021916908373ffffffffffffffffffffffffffffffffffffffff160217905550602082015181600101556040820151816002015560608201518160030155608082015181600401908161091f919061173d565b5060a08201518160050160006101000a81548160ff0219169083600381111561094b5761094a610f52565b5b021790555060c082015181600601559050503373ffffffffffffffffffffffffffffffffffffffff16817fa0b75b3d48f1d411faf8eb6b3a6985271fc12369efb160c320304fbcfdc3f3b387866040516109a692919061180f565b60405180910390a3809150509392505050565b60008054906101000a900473ffffffffffffffffffffffffffffffffffffffff1681565b60008054906101000a900473ffffffffffffffffffffffffffffffffffffffff1673ffffffffffffffffffffffffffffffffffffffff16637667984d336040518263ffffffff1660e01b8152600401610a36919061183f565b602060405180830381865afa158015610a53573d6000803e3d6000fd5b505050506040513d601f19601f82011682018060405250810190610a779190611886565b610ab6576040517f08c379a0000000000000000000000000000000000000000000000000000000008152600401610aad906118ff565b60405180910390fd5b600060016000848152602001908152602001600020905060006003811115610ae157610ae0610f52565b5b8160050160009054906101000a900460ff166003811115610b0557610b04610f52565b5b14610b45576040517f08c379a0000000000000000000000000000000000000000000000000000000008152600401610b3c9061196b565b60405180910390fd5b60028160050160006101000a81548160ff02191690836003811115610b6d57610b6c610f52565b5b0217905550827ffb8bb34c4811dd1fe7089a7b4d530c218d43abc7a095989d9132a6155bc394b183604051610ba2919061198b565b60405180910390a2505050565b60008054906101000a900473ffffffffffffffffffffffffffffffffffffffff1673ffffffffffffffffffffffffffffffffffffffff16637667984d336040518263ffffffff1660e01b8152600401610c08919061183f565b602060405180830381865afa158015610c25573d6000803e3d6000fd5b505050506040513d601f19601f82011682018060405250810190610c499190611886565b610c88576040517f08c379a0000000000000000000000000000000000000000000000000000000008152600401610c7f906119f9565b60405180910390fd5b600060016000838152602001908152602001600020905060006003811115610cb357610cb2610f52565b5b8160050160009054906101000a900460ff166003811115610cd757610cd6610f52565b5b14610d17576040517f08c379a0000000000000000000000000000000000000000000000000000000008152600401610d0e9061196b565b60405180910390fd5b80600301544210610d5d576040517f08c379a0000000000000000000000000000000000000000000000000000000008152600401610d5490611a65565b60405180910390fd5b60018160050160006101000a81548160ff02191690836003811115610d8557610d84610f52565b5b0217905550817f3aa476b7499359259e68e236e4ba85f83ff093e3b6341e6a3f6f295d9cd6887760405160405180910390a25050565b6000604051905090565b600080fd5b600080fd5b6000819050919050565b610de281610dcf565b8114610ded57600080fd5b50565b600081359050610dff81610dd9565b92915050565b60008060408385031215610e1c57610e1b610dc5565b5b6000610e2a85828601610df0565b9250506020610e3b85828601610df0565b9150509250929050565b600060208284031215610e5b57610e5a610dc5565b5b6000610e6984828501610df0565b91505092915050565b600073ffffffffffffffffffffffffffffffffffffffff82169050919050565b6000610e9d82610e72565b9050919050565b610ead81610e92565b82525050565b610ebc81610dcf565b82525050565b600081519050919050565b600082825260208201905092915050565b60005b83811015610efc578082015181840152602081019050610ee1565b60008484015250505050565b6000601f19601f8301169050919050565b6000610f2482610ec2565b610f2e8185610ecd565b9350610f3e818560208601610ede565b610f4781610f08565b840191505092915050565b7f4e487b7100000000000000000000000000000000000000000000000000000000600052602160045260246000fd5b60048110610f9257610f91610f52565b5b50565b6000819050610fa382610f81565b919050565b6000610fb382610f95565b9050919050565b610fc381610fa8565b82525050565b600060e082019050610fde600083018a610ea4565b610feb6020830189610eb3565b610ff86040830188610eb3565b6110056060830187610eb3565b81810360808301526110178186610f19565b905061102660a0830185610fba565b61103360c0830184610eb3565b98975050505050505050565b60006020820190506110546000830184610eb3565b92915050565b60008115159050919050565b61106f8161105a565b82525050565b600060208201905061108a6000830184611066565b92915050565b600080fd5b600080fd5b7f4e487b7100000000000000000000000000000000000000000000000000000000600052604160045260246000fd5b6110d282610f08565b810181811067ffffffffffffffff821117156110f1576110f061109a565b5b80604052505050565b6000611104610dbb565b905061111082826110c9565b919050565b600067ffffffffffffffff8211156111305761112f61109a565b5b61113982610f08565b9050602081019050919050565b82818337600083830152505050565b600061116861116384611115565b6110fa565b90508281526020810184848401111561118457611183611095565b5b61118f848285611146565b509392505050565b600082601f8301126111ac576111ab611090565b5b81356111bc848260208601611155565b91505092915050565b6000806000606084860312156111de576111dd610dc5565b5b60006111ec86828701610df0565b93505060206111fd86828701610df0565b925050604084013567ffffffffffffffff81111561121e5761121d610dca565b5b61122a86828701611197565b9150509250925092565b6000819050919050565b600061125961125461124f84610e72565b611234565b610e72565b9050919050565b600061126b8261123e565b9050919050565b600061127d82611260565b9050919050565b61128d81611272565b82525050565b60006020820190506112a86000830184611284565b92915050565b600080604083850312156112c5576112c4610dc5565b5b60006112d385828601610df0565b925050602083013567ffffffffffffffff8111156112f4576112f3610dca565b5b61130085828601611197565b9150509250929050565b7f4e487b7100000000000000000000000000000000000000000000000000000000600052601160045260246000fd5b600061134482610dcf565b915061134f83610dcf565b92508282019050808211156113675761136661130a565b5b92915050565b7f4e487b7100000000000000000000000000000000000000000000000000000000600052602260045260246000fd5b600060028204905060018216806113b457607f821691505b6020821081036113c7576113c661136d565b5b50919050565b7f496e76616c69642074617267657420616d6f756e740000000000000000000000600082015250565b6000611403601583610ecd565b915061140e826113cd565b602082019050919050565b60006020820190508181036000830152611432816113f6565b9050919050565b7f496e76616c6964206475726174696f6e00000000000000000000000000000000600082015250565b600061146f601083610ecd565b915061147a82611439565b602082019050919050565b6000602082019050818103600083015261149e81611462565b9050919050565b7f4950465320686173682072657175697265640000000000000000000000000000600082015250565b60006114db601283610ecd565b91506114e6826114a5565b602082019050919050565b6000602082019050818103600083015261150a816114ce565b9050919050565b600061151c82610dcf565b91507fffffffffffffffffffffffffffffffffffffffffffffffffffffffffffffffff820361154e5761154d61130a565b5b600182019050919050565b600061156482610dcf565b915061156f83610dcf565b925082820261157d81610dcf565b915082820484148315176115945761159361130a565b5b5092915050565b60008190508160005260206000209050919050565b60006020601f8301049050919050565b600082821b905092915050565b6000600883026115fd7fffffffffffffffffffffffffffffffffffffffffffffffffffffffffffffffff826115c0565b61160786836115c0565b95508019841693508086168417925050509392505050565b600061163a61163561163084610dcf565b611234565b610dcf565b9050919050565b6000819050919050565b6116548361161f565b61166861166082611641565b8484546115cd565b825550505050565b600090565b61167d611670565b61168881848461164b565b505050565b5b818110156116ac576116a1600082611675565b60018101905061168e565b5050565b601f8211156116f1576116c28161159b565b6116cb846115b0565b810160208510156116da578190505b6116ee6116e6856115b0565b83018261168d565b50505b505050565b600082821c905092915050565b6000611714600019846008026116f6565b1980831691505092915050565b600061172d8383611703565b9150826002028217905092915050565b61174682610ec2565b67ffffffffffffffff81111561175f5761175e61109a565b5b611769825461139c565b6117748282856116b0565b600060209050601f8311600181146117a75760008415611795578287015190505b61179f8582611721565b865550611807565b601f1984166117b58661159b565b60005b828110156117dd578489015182556001820191506020850194506020810190506117b8565b868310156117fa57848901516117f6601f891682611703565b8355505b6001600288020188555050505b505050505050565b60006040820190506118246000830185610eb3565b81810360208301526118368184610f19565b90509392505050565b60006020820190506118546000830184610ea4565b92915050565b6118638161105a565b811461186e57600080fd5b50565b6000815190506118808161185a565b92915050565b60006020828403121561189c5761189b610dc5565b5b60006118aa84828501611871565b91505092915050565b7f4f6e6c7920686f73706974616c20726570732063616e2072656a656374000000600082015250565b60006118e9601d83610ecd565b91506118f4826118b3565b602082019050919050565b60006020820190508181036000830152611918816118dc565b9050919050565b7f43616d706169676e206e6f742070656e64696e67000000000000000000000000600082015250565b6000611955601483610ecd565b91506119608261191f565b602082019050919050565b6000602082019050818103600083015261198481611948565b9050919050565b600060208201905081810360008301526119a58184610f19565b905092915050565b7f4f6e6c7920686f73706974616c20726570732063616e20617070726f76650000600082015250565b60006119e3601e83610ecd565b91506119ee826119ad565b602082019050919050565b60006020820190508181036000830152611a12816119d6565b9050919050565b7f43616d706169676e206578706972656400000000000000000000000000000000600082015250565b6000611a4f601083610ecd565b9150611a5a82611a19565b602082019050919050565b60006020820190508181036000830152611a7e81611a42565b905091905056fea2646970667358221220c409d3d1c4a0301a57db752612d726b0c033feb6d90014e2ef101f2d0da3c2e564736f6c634300081c0033",
  "linkReferences": {},
  "deployedLinkReferences": {}
}