{
  "_format": "hh-sol-artifact-1",
  "contractName": "MediTrustDAO",
  "sourceName": "contracts/MediTrustDAO.sol",
  "abi": [
    {
      "inputs": [
        {
          "internalType": "address",
          "name": "_rolesContract",
          "type": "address"
        }
      ],
      "stateMutability": "nonpayable",
      "type": "constructor"
    },
    {
      "anonymous": false,
      "inputs": [
        {
          "indexed": true,
          "internalType": "uint256",
          "name": "claimId",
          "type": "uint256"
        }
      ],
      "name": "ClaimApproved",
      "type": "event"
    },
    {
      "anonymous": false,
      "inputs": [
        {
          "indexed": true,
          "internalType": "uint256",
          "name": "claimId",
          "type": "uint256"
        },
        {
          "indexed": false,
          "internalType": "uint256",
          "name": "amount",
          "type": "uint256"
        }
      ],
      "name": "ClaimExecuted",
      "type": "event"
    },
    {
      "anonymous": false,
      "inputs": [
        {
          "indexed": true,
          "internalType": "uint256",
          "name": "claimId",
          "type": "uint256"
        },
        {
          "indexed": true,
          "internalType": "uint256",
          "name": "campaignId",
          "type": "uint256"
        },
        {
          "indexed": true,
          "internalType": "address",
          "name": "patient",
          "type": "address"
        },
        {
          "indexed": false,
          "internalType": "uint256",
          "name": "amount",
          "type": "uint256"
        },
        {
          "indexed": false,
          "internalType": "string",
          "name": "ipfsHash",
          "type": "string"
        }
      ],
      "name": "ClaimSubmitted",
      "type": "event"
    },
    {
      "anonymous": false,
      "inputs": [
        {
          "indexed": true,
          "internalType": "uint256",
          "name": "claimId",
          "type": "uint256"
        },
        {
          "indexed": true,
          "internalType": "address",
          "name": "voter",
          "type": "address"
        },
        {
          "indexed": false,
          "internalType": "bool",
          "name": "support",
          "type": "bool"
        }
      ],
      "name": "VoteCast",
      "type": "event"
    },
    {
      "anonymous": false,
      "inputs": [
        {
          "indexed": true,
          "internalType": "uint256",
          "name": "claimId",
          "type": "uint256"
        },
        {
          "indexed": true,
          "internalType": "address",
          "name": "voter",
          "type": "address"
        },
        {
          "indexed": false,
          "internalType": "bool",
          "name": "newSupport",
          "type": "bool"
        }
      ],
      "name": "VoteChanged",
      "type": "event"
    },
    {
      "inputs": [],
      "name": "APPROVAL_THRESHOLD",
      "outputs": [
        {
          "internalType": "uint256",
          "name": "",
          "type": "uint256"
        }
      ],
      "stateMutability": "view",
      "type": "function"
    },
    {
      "inputs": [],
      "name": "QUORUM_PERCENTAGE",
      "outputs": [
        {
          "internalType": "uint256",
          "name": "",
          "type": "uint256"
        }
      ],
      "stateMutability": "view",
      "type": "function"
    },
    {
      "inputs": [],
      "name": "claimCount",
      "outputs": [
        {
          "internalType": "uint256",
          "name": "",
          "type": "uint256"
        }
      ],
      "stateMutability": "view",
      "type": "function"
    },
    {
      "inputs": [
        {
          "internalType": "uint256",
          "name": "",
          "type": "uint256"
        }
      ],
      "name": "claims",
      "outputs": [
        {
          "internalType": "uint256",
          "name": "campaignId",
          "type": "uint256"
        },
        {
          "internalType": "address",
          "name": "patient",
          "type": "address"
        },
        {
          "internalType": "uint256",
          "name": "amount",
          "type": "uint256"
        },
        {
          "internalType": "string",
          "name": "ipfsHash",
          "type": "string"
        },
        {
          "internalType": "uint256",
          "name": "votesFor",
          "type": "uint256"
        },
        {
          "internalType": "uint256",
          "name": "votesAgainst",
          "type": "uint256"
        },
        {
          "internalType": "bool",
          "name": "executed",
          "type": "bool"
        },
        {
          "internalType": "uint256",
          "name": "createdAt",
          "type": "uint256"
        }
      ],
      "stateMutability": "view",
      "type": "function"
    },
    {
      "inputs": [
        {
          "internalType": "uint256",
          "name": "_claimId",
          "type": "uint256"
        }
      ],
      "name": "getClaimDetails",
      "outputs": [
        {
          "internalType": "uint256",
          "name": "campaignId",
          "type": "uint256"
        },
        {
          "internalType": "address",
          "name": "patient",
          "type": "address"
        },
        {
          "internalType": "uint256",
          "name": "amount",
          "type": "uint256"
        },
        {
          "internalType": "string",
          "name": "ipfsHash",
          "type": "string"
        },
        {
          "internalType": "uint256",
          "name": "votesFor",
          "type": "uint256"
        },
        {
          "internalType": "uint256",
          "name": "votesAgainst",
          "type": "uint256"
        },
        {
          "internalType": "bool",
          "name": "executed",
          "type": "bool"
        },
        {
          "internalType": "uint256",
          "name": "createdAt",
          "type": "uint256"
        }
      ],
      "stateMutability": "view",
      "type": "function"
    },
    {
      "inputs": [
        {
          "internalType": "uint256",
          "name": "_claimId",
          "type": "uint256"
        }
      ],
      "name": "getClaimVotes",
      "outputs": [
        {
          "internalType": "uint256",
          "name": "votesFor",
          "type": "uint256"
        },
        {
          "internalType": "uint256",
          "name": "votesAgainst",
          "type": "uint256"
        }
      ],
      "stateMutability": "view",
      "type": "function"
    },
    {
      "inputs": [
        {
          "internalType": "uint256",
          "name": "_claimId",
          "type": "uint256"
        },
        {
          "internalType": "address",
          "name": "_voter",
          "type": "address"
        }
      ],
      "name": "getVoteChoice",
      "outputs": [
        {
          "internalType": "bool",
          "name": "",
          "type": "bool"
        }
      ],
      "stateMutability": "view",
      "type": "function"
    },
    {
      "inputs": [
        {
          "internalType": "uint256",
          "name": "_claimId",
          "type": "uint256"
        },
        {
          "internalType": "address",
          "name": "_voter",
          "type": "address"
        }
      ],
      "name": "hasVoted",
      "outputs": [
        {
          "internalType": "bool",
          "name": "",
          "type": "bool"
        }
      ],
      "stateMutability": "view",
      "type": "function"
    },
    {
      "inputs": [
        {
          "internalType": "uint256",
          "name": "_claimId",
          "type": "uint256"
        }
      ],
      "name": "isClaimApproved",
      "outputs": [
        {
          "internalType": "bool",
          "name": "",
          "type": "bool"
        }
      ],
      "stateMutability": "view",
      "type": "function"
    },
    {
      "inputs": [
        {
          "internalType": "uint256",
          "name": "_claimId",
          "type": "uint256"
        }
      ],
      "name": "markClaimExecuted",
      "outputs": [],
      "stateMutability": "nonpayable",
      "type": "function"
    },
    {
      "inputs": [],
      "name": "rolesContract",
      "outputs": [
        {
          "internalType": "contract MediTrustRoles",
          "name": "",
          "type": "address"
        }
      ],
      "stateMutability": "view",
      "type": "function"
    },
    {
      "inputs": [
        {
          "internalType": "uint256",
          "name": "_campaignId",
          "type": "uint256"
        },
        {
          "internalType": "uint256",
          "name": "_amount",
          "type": "uint256"
        },
        {
          "internalType": "string",
          "name": "_ipfsHash",
          "type": "string"
        }
      ],
      "name": "submitClaim",
      "outputs": [
        {
          "internalType": "uint256",
          "name": "",
          "type": "uint256"
        }
      ],
      "stateMutability": "nonpayable",
      "type": "function"
    },
    {
      "inputs": [
        {
          "internalType": "uint256",
          "name": "_claimId",
          "type": "uint256"
        },
        {
          "internalType": "bool",
          "name": "_support",
          "type": "bool"
        }
      ],
      "name": "vote",
      "outputs": [],
      "stateMutability": "nonpayable",
      "type": "function"
    }
  ],
  "bytecode": "0x608060405234801561001057600080fd5b50604051611eb9380380611eb9833981810160405281019061003291906100db565b806000806101000a81548173ffffffffffffffffffffffffffffffffffffffff021916908373ffffffffffffffffffffffffffffffffffffffff16021790555050610108565b600080fd5b600073ffffffffffffffffffffffffffffffffffffffff82169050919050565b60006100a88261007d565b9050919050565b6100b88161009d565b81146100c357600080fd5b50565b6000815190506100d5816100af565b92915050565b6000602082840312156100f1576100f0610078565b5b60006100ff848285016100c6565b91505092915050565b611da2806101176000396000f3fe608060405234801561001057600080fd5b50600436106100cf5760003560e01c8063a888c2cd1161008c578063c9d27afe11610066578063c9d27afe1461025a578063ca53b39114610276578063da2b196c14610294578063ee8a7c15146102c5576100cf565b8063a888c2cd146101bc578063bac71e00146101f3578063c526ee971461022a576100cf565b806306964de7146100d45780633ab34290146101045780634385963214610122578063672ec918146101525780637f318a5f1461016e5780638da4d3c91461019e575b600080fd5b6100ee60048036038101906100e99190611137565b6102e3565b6040516100fb91906111b5565b60405180910390f35b61010c61049c565b60405161011991906111b5565b60405180910390f35b61013c6004803603810190610137919061122e565b6104a1565b6040516101499190611289565b60405180910390f35b61016c600480360381019061016791906112a4565b61050c565b005b6101886004803603810190610183919061122e565b6105ef565b6040516101959190611289565b60405180910390f35b6101a66106fa565b6040516101b391906111b5565b60405180910390f35b6101d660048036038101906101d191906112a4565b610700565b6040516101ea98979695949392919061135f565b60405180910390f35b61020d600480360381019061020891906112a4565b6107fd565b60405161022198979695949392919061135f565b60405180910390f35b610244600480360381019061023f91906112a4565b61091d565b6040516102519190611289565b60405180910390f35b610274600480360381019061026f9190611410565b610a9b565b005b61027e610f50565b60405161028b91906114af565b60405180910390f35b6102ae60048036038101906102a991906112a4565b610f74565b6040516102bc9291906114ca565b60405180910390f35b6102cd610fa2565b6040516102da91906111b5565b60405180910390f35b6000808311610327576040517f08c379a000000000000000000000000000000000000000000000000000000000815260040161031e9061153f565b60405180910390fd5b600082511161036b576040517f08c379a0000000000000000000000000000000000000000000000000000000008152600401610362906115ab565b60405180910390fd5b600060026000815480929190610380906115fa565b9190505590506000600160008381526020019081526020016000209050858160000181905550338160010160006101000a81548173ffffffffffffffffffffffffffffffffffffffff021916908373ffffffffffffffffffffffffffffffffffffffff160217905550848160020181905550838160030190816104039190611844565b50600081600401819055506000816005018190555060008160080160006101000a81548160ff0219169083151502179055504281600901819055503373ffffffffffffffffffffffffffffffffffffffff1686837fd91ad459d6781ac1a94eb5c677e1aa55ab8d256cae923e543a7e969235a041ca8888604051610488929190611916565b60405180910390a481925050509392505050565b603c81565b60006001600084815260200190815260200160002060060160008373ffffffffffffffffffffffffffffffffffffffff1673ffffffffffffffffffffffffffffffffffffffff16815260200190815260200160002060009054906101000a900460ff16905092915050565b6001600082815260200190815260200160002060080160009054906101000a900460ff1615610570576040517f08c379a000000000000000000000000000000000000000000000000000000000815260040161056790611992565b60405180910390fd5b600180600083815260200190815260200160002060080160006101000a81548160ff021916908315150217905550807f749a1f8d41c63e7123adac0637a8c06d2e0d0412d454a0edf7708ba27e86c69760016000848152602001908152602001600020600201546040516105e491906111b5565b60405180910390a250565b60006001600084815260200190815260200160002060060160008373ffffffffffffffffffffffffffffffffffffffff1673ffffffffffffffffffffffffffffffffffffffff16815260200190815260200160002060009054906101000a900460ff16610691576040517f08c379a0000000000000000000000000000000000000000000000000000000008152600401610688906119fe565b60405180910390fd5b6001600084815260200190815260200160002060070160008373ffffffffffffffffffffffffffffffffffffffff1673ffffffffffffffffffffffffffffffffffffffff16815260200190815260200160002060009054906101000a900460ff16905092915050565b60025481565b60016020528060005260406000206000915090508060000154908060010160009054906101000a900473ffffffffffffffffffffffffffffffffffffffff169080600201549080600301805461075590611671565b80601f016020809104026020016040519081016040528092919081815260200182805461078190611671565b80156107ce5780601f106107a3576101008083540402835291602001916107ce565b820191906000526020600020905b8154815290600101906020018083116107b157829003601f168201915b5050505050908060040154908060050154908060080160009054906101000a900460ff16908060090154905088565b600080600060606000806000806000600160008b8152602001908152602001600020905080600001548160010160009054906101000a900473ffffffffffffffffffffffffffffffffffffffff16826002015483600301846004015485600501548660080160009054906101000a900460ff16876009015484805461088190611671565b80601f01602080910402602001604051908101604052809291908181526020018280546108ad90611671565b80156108fa5780601f106108cf576101008083540402835291602001916108fa565b820191906000526020600020905b8154815290600101906020018083116108dd57829003601f168201915b505050505094509850985098509850985098509850985050919395975091939597565b60008060016000848152602001908152602001600020905060008160050154826004015461094b9190611a1e565b90506000810361096057600092505050610a96565b60008060009054906101000a900473ffffffffffffffffffffffffffffffffffffffff1673ffffffffffffffffffffffffffffffffffffffff1663ce2ef58d6040518163ffffffff1660e01b8152600401602060405180830381865afa1580156109ce573d6000803e3d6000fd5b505050506040513d601f19601f820116820180604052508101906109f29190611a67565b905060008111610a37576040517f08c379a0000000000000000000000000000000000000000000000000000000008152600401610a2e90611ae0565b60405180910390fd5b60006064603283610a489190611b00565b610a529190611b71565b905080831015610a69576000945050505050610a96565b60008360648660040154610a7d9190611b00565b610a879190611b71565b9050603c811015955050505050505b919050565b60008054906101000a900473ffffffffffffffffffffffffffffffffffffffff1673ffffffffffffffffffffffffffffffffffffffff1663b1e44d8f336040518263ffffffff1660e01b8152600401610af49190611ba2565b602060405180830381865afa158015610b11573d6000803e3d6000fd5b505050506040513d601f19601f82011682018060405250810190610b359190611bd2565b610b74576040517f08c379a0000000000000000000000000000000000000000000000000000000008152600401610b6b90611c4b565b60405180910390fd5b60006001600084815260200190815260200160002090508060080160009054906101000a900460ff1615610bdd576040517f08c379a0000000000000000000000000000000000000000000000000000000008152600401610bd490611cb7565b60405180910390fd5b6002548310610c21576040517f08c379a0000000000000000000000000000000000000000000000000000000008152600401610c1890611d23565b60405180910390fd5b60008160060160003373ffffffffffffffffffffffffffffffffffffffff1673ffffffffffffffffffffffffffffffffffffffff16815260200190815260200160002060009054906101000a900460ff16905060008260070160003373ffffffffffffffffffffffffffffffffffffffff1673ffffffffffffffffffffffffffffffffffffffff16815260200190815260200160002060009054906101000a900460ff1690508115610e065783151581151514610e01578015610cfd57826004016000815480929190610cf390611d43565b9190505550610d18565b826005016000815480929190610d1290611d43565b91905055505b8315610d3d57826004016000815480929190610d33906115fa565b9190505550610d58565b826005016000815480929190610d52906115fa565b91905055505b838360070160003373ffffffffffffffffffffffffffffffffffffffff1673ffffffffffffffffffffffffffffffffffffffff16815260200190815260200160002060006101000a81548160ff0219169083151502179055503373ffffffffffffffffffffffffffffffffffffffff16857f2f475a610e396a450e463b731fb287e847558aca846b324e60cb06b0da0e8c6986604051610df89190611289565b60405180910390a35b610f49565b60018360060160003373ffffffffffffffffffffffffffffffffffffffff1673ffffffffffffffffffffffffffffffffffffffff16815260200190815260200160002060006101000a81548160ff021916908315150217905550838360070160003373ffffffffffffffffffffffffffffffffffffffff1673ffffffffffffffffffffffffffffffffffffffff16815260200190815260200160002060006101000a81548160ff0219169083151502179055508315610ede57826004016000815480929190610ed4906115fa565b9190505550610ef9565b826005016000815480929190610ef3906115fa565b91905055505b3373ffffffffffffffffffffffffffffffffffffffff16857fe71fcdac32df1877c1700e7bda2a03157e20993363a28fc35ac495cefc76e4d486604051610f409190611289565b60405180910390a35b5050505050565b60008054906101000a900473ffffffffffffffffffffffffffffffffffffffff1681565b6000806000600160008581526020019081526020016000209050806004015481600501549250925050915091565b603281565b6000604051905090565b600080fd5b600080fd5b6000819050919050565b610fce81610fbb565b8114610fd957600080fd5b50565b600081359050610feb81610fc5565b92915050565b600080fd5b600080fd5b6000601f19601f8301169050919050565b7f4e487b7100000000000000000000000000000000000000000000000000000000600052604160045260246000fd5b61104482610ffb565b810181811067ffffffffffffffff821117156110635761106261100c565b5b80604052505050565b6000611076610fa7565b9050611082828261103b565b919050565b600067ffffffffffffffff8211156110a2576110a161100c565b5b6110ab82610ffb565b9050602081019050919050565b82818337600083830152505050565b60006110da6110d584611087565b61106c565b9050828152602081018484840111156110f6576110f5610ff6565b5b6111018482856110b8565b509392505050565b600082601f83011261111e5761111d610ff1565b5b813561112e8482602086016110c7565b91505092915050565b6000806000606084860312156111505761114f610fb1565b5b600061115e86828701610fdc565b935050602061116f86828701610fdc565b925050604084013567ffffffffffffffff8111156111905761118f610fb6565b5b61119c86828701611109565b9150509250925092565b6111af81610fbb565b82525050565b60006020820190506111ca60008301846111a6565b92915050565b600073ffffffffffffffffffffffffffffffffffffffff82169050919050565b60006111fb826111d0565b9050919050565b61120b816111f0565b811461121657600080fd5b50565b60008135905061122881611202565b92915050565b6000806040838503121561124557611244610fb1565b5b600061125385828601610fdc565b925050602061126485828601611219565b9150509250929050565b60008115159050919050565b6112838161126e565b82525050565b600060208201905061129e600083018461127a565b92915050565b6000602082840312156112ba576112b9610fb1565b5b60006112c884828501610fdc565b91505092915050565b6112da816111f0565b82525050565b600081519050919050565b600082825260208201905092915050565b60005b8381101561131a5780820151818401526020810190506112ff565b60008484015250505050565b6000611331826112e0565b61133b81856112eb565b935061134b8185602086016112fc565b61135481610ffb565b840191505092915050565b600061010082019050611375600083018b6111a6565b611382602083018a6112d1565b61138f60408301896111a6565b81810360608301526113a18188611326565b90506113b060808301876111a6565b6113bd60a08301866111a6565b6113ca60c083018561127a565b6113d760e08301846111a6565b9998505050505050505050565b6113ed8161126e565b81146113f857600080fd5b50565b60008135905061140a816113e4565b92915050565b6000806040838503121561142757611426610fb1565b5b600061143585828601610fdc565b9250506020611446858286016113fb565b9150509250929050565b6000819050919050565b600061147561147061146b846111d0565b611450565b6111d0565b9050919050565b60006114878261145a565b9050919050565b60006114998261147c565b9050919050565b6114a98161148e565b82525050565b60006020820190506114c460008301846114a0565b92915050565b60006040820190506114df60008301856111a6565b6114ec60208301846111a6565b9392505050565b7f496e76616c696420616d6f756e74000000000000000000000000000000000000600082015250565b6000611529600e836112eb565b9150611534826114f3565b602082019050919050565b600060208201905081810360008301526115588161151c565b9050919050565b7f4950465320686173682072657175697265640000000000000000000000000000600082015250565b60006115956012836112eb565b91506115a08261155f565b602082019050919050565b600060208201905081810360008301526115c481611588565b9050919050565b7f4e487b7100000000000000000000000000000000000000000000000000000000600052601160045260246000fd5b600061160582610fbb565b91507fffffffffffffffffffffffffffffffffffffffffffffffffffffffffffffffff8203611637576116366115cb565b5b600182019050919050565b7f4e487b7100000000000000000000000000000000000000000000000000000000600052602260045260246000fd5b6000600282049050600182168061168957607f821691505b60208210810361169c5761169b611642565b5b50919050565b60008190508160005260206000209050919050565b60006020601f8301049050919050565b600082821b905092915050565b6000600883026117047fffffffffffffffffffffffffffffffffffffffffffffffffffffffffffffffff826116c7565b61170e86836116c7565b95508019841693508086168417925050509392505050565b600061174161173c61173784610fbb565b611450565b610fbb565b9050919050565b6000819050919050565b61175b83611726565b61176f61176782611748565b8484546116d4565b825550505050565b600090565b611784611777565b61178f818484611752565b505050565b5b818110156117b3576117a860008261177c565b600181019050611795565b5050565b601f8211156117f8576117c9816116a2565b6117d2846116b7565b810160208510156117e1578190505b6117f56117ed856116b7565b830182611794565b50505b505050565b600082821c905092915050565b600061181b600019846008026117fd565b1980831691505092915050565b6000611834838361180a565b9150826002028217905092915050565b61184d826112e0565b67ffffffffffffffff8111156118665761186561100c565b5b6118708254611671565b61187b8282856117b7565b600060209050601f8311600181146118ae576000841561189c578287015190505b6118a68582611828565b86555061190e565b601f1984166118bc866116a2565b60005b828110156118e4578489015182556001820191506020850194506020810190506118bf565b8683101561190157848901516118fd601f89168261180a565b8355505b6001600288020188555050505b505050505050565b600060408201905061192b60008301856111a6565b818103602083015261193d8184611326565b90509392505050565b7f416c726561647920657865637574656400000000000000000000000000000000600082015250565b600061197c6010836112eb565b915061198782611946565b602082019050919050565b600060208201905081810360008301526119ab8161196f565b9050919050565b7f486173206e6f7420766f74656400000000000000000000000000000000000000600082015250565b60006119e8600d836112eb565b91506119f3826119b2565b602082019050919050565b60006020820190508181036000830152611a17816119db565b9050919050565b6000611a2982610fbb565b9150611a3483610fbb565b9250828201905080821115611a4c57611a4b6115cb565b5b92915050565b600081519050611a6181610fc5565b92915050565b600060208284031215611a7d57611a7c610fb1565b5b6000611a8b84828501611a52565b91505092915050565b7f4e6f2044414f206d656d62657273000000000000000000000000000000000000600082015250565b6000611aca600e836112eb565b9150611ad582611a94565b602082019050919050565b60006020820190508181036000830152611af981611abd565b9050919050565b6000611b0b82610fbb565b9150611b1683610fbb565b9250828202611b2481610fbb565b91508282048414831517611b3b57611b3a6115cb565b5b5092915050565b7f4e487b7100000000000000000000000000000000000000000000000000000000600052601260045260246000fd5b6000611b7c82610fbb565b9150611b8783610fbb565b925082611b9757611b96611b42565b5b828204905092915050565b6000602082019050611bb760008301846112d1565b92915050565b600081519050611bcc816113e4565b92915050565b600060208284031215611be857611be7610fb1565b5b6000611bf684828501611bbd565b91505092915050565b7f4e6f7420612044414f206d656d62657200000000000000000000000000000000600082015250565b6000611c356010836112eb565b9150611c4082611bff565b602082019050919050565b60006020820190508181036000830152611c6481611c28565b9050919050565b7f436c61696d20616c726561647920657865637574656400000000000000000000600082015250565b6000611ca16016836112eb565b9150611cac82611c6b565b602082019050919050565b60006020820190508181036000830152611cd081611c94565b9050919050565b7f496e76616c696420636c61696d20494400000000000000000000000000000000600082015250565b6000611d0d6010836112eb565b9150611d1882611cd7565b602082019050919050565b60006020820190508181036000830152611d3c81611d00565b9050919050565b6000611d4e82610fbb565b915060008203611d6157611d606115cb565b5b60018203905091905056fea264697066735822122082360846c54d5bca957c0c495210447ff873556f83cbd0d69ef86440c959d3ed64736f6c634300081c0033",
  "linkReferences": {},
  "deployedLinkReferences": {}
}