{
  "_format": "hh-sol-artifact-1",
  "contractName": "MediTrustDAO",
  "sourceName": "contracts/MediTrustDAO.sol",
  "abi": [
    {
      "inputs": [
        {
          "internalType": "address",
          "name": "roleAddress",
          "type": "address"
        },
        {
          "internalType": "address",
          "name": "campaignAddress",
          "type": "address"
        }
      ],
      "stateMutability": "nonpayable",
      "type": "constructor"
    },
    {
      "anonymous": false,
      "inputs": [
        {
          "indexed": true,
          "internalType": "uint256",
          "name": "claimID",
          "type": "uint256"
        },
        {
          "indexed": false,
          "internalType": "uint256",
          "name": "amount",
          "type": "uint256"
        }
      ],
      "name": "MilestoneClaimExecute",
      "type": "event"
    },
    {
      "anonymous": false,
      "inputs": [
        {
          "indexed": true,
          "internalType": "uint256",
          "name": "claimID",
          "type": "uint256"
        },
        {
          "indexed": true,
          "internalType": "uint256",
          "name": "campaignID",
          "type": "uint256"
        },
        {
          "indexed": true,
          "internalType": "address",
          "name": "patient",
          "type": "address"
        },
        {
          "indexed": false,
          "internalType": "uint256",
          "name": "amount",
          "type": "uint256"
        },
        {
          "indexed": false,
          "internalType": "string",
          "name": "invoiceHash",
          "type": "string"
        }
      ],
      "name": "MilestoneClaimSubmit",
      "type": "event"
    },
    {
      "anonymous": false,
      "inputs": [
        {
          "indexed": true,
          "internalType": "uint256",
          "name": "claimID",
          "type": "uint256"
        },
        {
          "indexed": true,
          "internalType": "address",
          "name": "DAOMember",
          "type": "address"
        },
        {
          "indexed": false,
          "internalType": "bool",
          "name": "voteChoice",
          "type": "bool"
        }
      ],
      "name": "VoteCast",
      "type": "event"
    },
    {
      "anonymous": false,
      "inputs": [
        {
          "indexed": true,
          "internalType": "uint256",
          "name": "claimID",
          "type": "uint256"
        },
        {
          "indexed": true,
          "internalType": "address",
          "name": "DAOMember",
          "type": "address"
        },
        {
          "indexed": false,
          "internalType": "bool",
          "name": "voteChoice",
          "type": "bool"
        }
      ],
      "name": "VoteChange",
      "type": "event"
    },
    {
      "inputs": [],
      "name": "approvalPercentage",
      "outputs": [
        {
          "internalType": "uint256",
          "name": "",
          "type": "uint256"
        }
      ],
      "stateMutability": "view",
      "type": "function"
    },
    {
      "inputs": [],
      "name": "campaignContract",
      "outputs": [
        {
          "internalType": "contract MediTrustCampaign",
          "name": "",
          "type": "address"
        }
      ],
      "stateMutability": "view",
      "type": "function"
    },
    {
      "inputs": [],
      "name": "claimCount",
      "outputs": [
        {
          "internalType": "uint256",
          "name": "",
          "type": "uint256"
        }
      ],
      "stateMutability": "view",
      "type": "function"
    },
    {
      "inputs": [
        {
          "internalType": "uint256",
          "name": "",
          "type": "uint256"
        }
      ],
      "name": "claims",
      "outputs": [
        {
          "internalType": "uint256",
          "name": "campaignID",
          "type": "uint256"
        },
        {
          "internalType": "address",
          "name": "patient",
          "type": "address"
        },
        {
          "internalType": "uint256",
          "name": "amount",
          "type": "uint256"
        },
        {
          "internalType": "string",
          "name": "invoiceHash",
          "type": "string"
        },
        {
          "internalType": "uint256",
          "name": "yesCount",
          "type": "uint256"
        },
        {
          "internalType": "uint256",
          "name": "noCount",
          "type": "uint256"
        },
        {
          "internalType": "bool",
          "name": "executed",
          "type": "bool"
        },
        {
          "internalType": "uint256",
          "name": "startDate",
          "type": "uint256"
        }
      ],
      "stateMutability": "view",
      "type": "function"
    },
    {
      "inputs": [],
      "name": "fundsAddress",
      "outputs": [
        {
          "internalType": "address",
          "name": "",
          "type": "address"
        }
      ],
      "stateMutability": "view",
      "type": "function"
    },
    {
      "inputs": [
        {
          "internalType": "uint256",
          "name": "MilestoneType",
          "type": "uint256"
        }
      ],
      "name": "getMilestoneClaimCount",
      "outputs": [
        {
          "internalType": "uint256",
          "name": "",
          "type": "uint256"
        }
      ],
      "stateMutability": "view",
      "type": "function"
    },
    {
      "inputs": [
        {
          "internalType": "uint256",
          "name": "claimID",
          "type": "uint256"
        }
      ],
      "name": "getMilestoneClaimDetails",
      "outputs": [
        {
          "internalType": "uint256",
          "name": "campaignID",
          "type": "uint256"
        },
        {
          "internalType": "address",
          "name": "patient",
          "type": "address"
        },
        {
          "internalType": "uint256",
          "name": "amount",
          "type": "uint256"
        },
        {
          "internalType": "string",
          "name": "invoiceHash",
          "type": "string"
        },
        {
          "internalType": "uint256",
          "name": "yesCount",
          "type": "uint256"
        },
        {
          "internalType": "uint256",
          "name": "noCount",
          "type": "uint256"
        },
        {
          "internalType": "bool",
          "name": "executed",
          "type": "bool"
        },
        {
          "internalType": "uint256",
          "name": "startDate",
          "type": "uint256"
        }
      ],
      "stateMutability": "view",
      "type": "function"
    },
    {
      "inputs": [
        {
          "internalType": "uint256",
          "name": "claimID",
          "type": "uint256"
        }
      ],
      "name": "getMilestoneClaimVotes",
      "outputs": [
        {
          "internalType": "uint256",
          "name": "yesCount",
          "type": "uint256"
        },
        {
          "internalType": "uint256",
          "name": "noCount",
          "type": "uint256"
        }
      ],
      "stateMutability": "view",
      "type": "function"
    },
    {
      "inputs": [
        {
          "internalType": "uint256",
          "name": "claimID",
          "type": "uint256"
        },
        {
          "internalType": "address",
          "name": "DAOMember",
          "type": "address"
        }
      ],
      "name": "getVoteChoice",
      "outputs": [
        {
          "internalType": "bool",
          "name": "",
          "type": "bool"
        }
      ],
      "stateMutability": "view",
      "type": "function"
    },
    {
      "inputs": [
        {
          "internalType": "uint256",
          "name": "claimID",
          "type": "uint256"
        },
        {
          "internalType": "address",
          "name": "DAOMember",
          "type": "address"
        }
      ],
      "name": "getVoted",
      "outputs": [
        {
          "internalType": "bool",
          "name": "",
          "type": "bool"
        }
      ],
      "stateMutability": "view",
      "type": "function"
    },
    {
      "inputs": [
        {
          "internalType": "uint256",
          "name": "claimID",
          "type": "uint256"
        }
      ],
      "name": "isMilestoneClaimApproved",
      "outputs": [
        {
          "internalType": "bool",
          "name": "",
          "type": "bool"
        }
      ],
      "stateMutability": "view",
      "type": "function"
    },
    {
      "inputs": [],
      "name": "quorumPercentage",
      "outputs": [
        {
          "internalType": "uint256",
          "name": "",
          "type": "uint256"
        }
      ],
      "stateMutability": "view",
      "type": "function"
    },
    {
      "inputs": [],
      "name": "roleContract",
      "outputs": [
        {
          "internalType": "contract MediTrustRoles",
          "name": "",
          "type": "address"
        }
      ],
      "stateMutability": "view",
      "type": "function"
    },
    {
      "inputs": [
        {
          "internalType": "uint256",
          "name": "claimID",
          "type": "uint256"
        }
      ],
      "name": "setMilestoneClaimExecuted",
      "outputs": [],
      "stateMutability": "nonpayable",
      "type": "function"
    },
    {
      "inputs": [
        {
          "internalType": "uint256",
          "name": "campaignID",
          "type": "uint256"
        },
        {
          "internalType": "uint256",
          "name": "amount",
          "type": "uint256"
        },
        {
          "internalType": "string",
          "name": "invoiceHash",
          "type": "string"
        }
      ],
      "name": "submitMilestoneClaim",
      "outputs": [
        {
          "internalType": "uint256",
          "name": "",
          "type": "uint256"
        }
      ],
      "stateMutability": "nonpayable",
      "type": "function"
    },
    {
      "inputs": [
        {
          "internalType": "uint256",
          "name": "claimID",
          "type": "uint256"
        },
        {
          "internalType": "bool",
          "name": "newVote",
          "type": "bool"
        }
      ],
      "name": "vote",
      "outputs": [],
      "stateMutability": "nonpayable",
      "type": "function"
    }
  ],
  "bytecode": "0x608060405234801561001057600080fd5b506040516129c43803806129c48339818101604052810190610032919061011d565b816000806101000a81548173ffffffffffffffffffffffffffffffffffffffff021916908373ffffffffffffffffffffffffffffffffffffffff16021790555080600160006101000a81548173ffffffffffffffffffffffffffffffffffffffff021916908373ffffffffffffffffffffffffffffffffffffffff160217905550505061015d565b600080fd5b600073ffffffffffffffffffffffffffffffffffffffff82169050919050565b60006100ea826100bf565b9050919050565b6100fa816100df565b811461010557600080fd5b50565b600081519050610117816100f1565b92915050565b60008060408385031215610134576101336100ba565b5b600061014285828601610108565b925050602061015385828601610108565b9150509250929050565b6128588061016c6000396000f3fe608060405234801561001057600080fd5b50600436106101005760003560e01c80638dd6261d11610097578063c646bc6711610066578063c646bc67146102fa578063c9d27afe1461032a578063e809bae014610346578063f89723b81461036257610100565b80638dd6261d14610245578063a77ccd6e14610275578063a888c2cd14610293578063bdaf2b18146102ca57610100565b806358ae05cd116100d357806358ae05cd146101a257806358afcd5f146101c05780637f318a5f146101f75780638da4d3c91461022757610100565b80630cc20c4a146101055780633008d4371461013657806330a89710146101545780634fa76ec914610184575b600080fd5b61011f600480360381019061011a9190611673565b610380565b60405161012d9291906116af565b60405180910390f35b61013e6103ae565b60405161014b91906116d8565b60405180910390f35b61016e60048036038101906101699190611751565b6103b3565b60405161017b91906117ac565b60405180910390f35b61018c61041e565b60405161019991906116d8565b60405180910390f35b6101aa610423565b6040516101b79190611826565b60405180910390f35b6101da60048036038101906101d59190611673565b610449565b6040516101ee9897969594939291906118e0565b60405180910390f35b610211600480360381019061020c9190611751565b610569565b60405161021e91906117ac565b60405180910390f35b61022f610674565b60405161023c91906116d8565b60405180910390f35b61025f600480360381019061025a9190611673565b61067a565b60405161026c91906116d8565b60405180910390f35b61027d61078a565b60405161028a9190611965565b60405180910390f35b6102ad60048036038101906102a89190611673565b6107b0565b6040516102c19897969594939291906118e0565b60405180910390f35b6102e460048036038101906102df9190611ab5565b6108ad565b6040516102f191906116d8565b60405180910390f35b610314600480360381019061030f9190611673565b610c3f565b60405161032191906117ac565b60405180910390f35b610344600480360381019061033f9190611b50565b610da5565b005b610360600480360381019061035b9190611673565b61129c565b005b61036a6114c6565b6040516103779190611bb1565b60405180910390f35b6000806000600360008581526020019081526020016000209050806004015481600501549250925050915091565b603c81565b60006003600084815260200190815260200160002060060160008373ffffffffffffffffffffffffffffffffffffffff1673ffffffffffffffffffffffffffffffffffffffff16815260200190815260200160002060009054906101000a900460ff16905092915050565b603281565b600160009054906101000a900473ffffffffffffffffffffffffffffffffffffffff1681565b600080600060606000806000806000600360008b8152602001908152602001600020905080600001548160010160009054906101000a900473ffffffffffffffffffffffffffffffffffffffff16826002015483600301846004015485600501548660080160009054906101000a900460ff1687600901548480546104cd90611bfb565b80601f01602080910402602001604051908101604052809291908181526020018280546104f990611bfb565b80156105465780601f1061051b57610100808354040283529160200191610546565b820191906000526020600020905b81548152906001019060200180831161052957829003601f168201915b505050505094509850985098509850985098509850985050919395975091939597565b60006003600084815260200190815260200160002060060160008373ffffffffffffffffffffffffffffffffffffffff1673ffffffffffffffffffffffffffffffffffffffff16815260200190815260200160002060009054906101000a900460ff1661060b576040517f08c379a000000000000000000000000000000000000000000000000000000000815260040161060290611c9e565b60405180910390fd5b6003600084815260200190815260200160002060070160008373ffffffffffffffffffffffffffffffffffffffff1673ffffffffffffffffffffffffffffffffffffffff16815260200190815260200160002060009054906101000a900460ff16905092915050565b60045481565b6000806000905060005b600454811015610780576000841480156106bf57506003600082815260200190815260200160002060080160009054906101000a900460ff16155b156106d75781806106cf90611ced565b925050610773565b6001841480156106ec57506106eb81610c3f565b5b156107045781806106fc90611ced565b925050610772565b60028414801561073457506003600082815260200190815260200160002060080160009054906101000a900460ff165b156107625760036000828152602001908152602001600020600201548261075b9190611d35565b9150610771565b600384036107705760045491505b5b5b5b8080600101915050610684565b5080915050919050565b600260009054906101000a900473ffffffffffffffffffffffffffffffffffffffff1681565b60036020528060005260406000206000915090508060000154908060010160009054906101000a900473ffffffffffffffffffffffffffffffffffffffff169080600201549080600301805461080590611bfb565b80601f016020809104026020016040519081016040528092919081815260200182805461083190611bfb565b801561087e5780601f106108535761010080835404028352916020019161087e565b820191906000526020600020905b81548152906001019060200180831161086157829003601f168201915b5050505050908060040154908060050154908060080160009054906101000a900460ff16908060090154905088565b6000600160009054906101000a900473ffffffffffffffffffffffffffffffffffffffff1673ffffffffffffffffffffffffffffffffffffffff1663e1e33009856040518263ffffffff1660e01b815260040161090a91906116d8565b602060405180830381865afa158015610927573d6000803e3d6000fd5b505050506040513d601f19601f8201168201806040525081019061094b9190611d7e565b61098a576040517f08c379a000000000000000000000000000000000000000000000000000000000815260040161098190611df7565b60405180910390fd5b600083116109cd576040517f08c379a00000000000000000000000000000000000000000000000000000000081526004016109c490611e63565b60405180910390fd5b6000825111610a11576040517f08c379a0000000000000000000000000000000000000000000000000000000008152600401610a0890611ecf565b60405180910390fd5b6000600160009054906101000a900473ffffffffffffffffffffffffffffffffffffffff1673ffffffffffffffffffffffffffffffffffffffff16635598f8cc866040518263ffffffff1660e01b8152600401610a6e91906116d8565b600060405180830381865afa158015610a8b573d6000803e3d6000fd5b505050506040513d6000823e3d601f19601f82011682018060405250810190610ab49190611fae565b50505050505090508073ffffffffffffffffffffffffffffffffffffffff163373ffffffffffffffffffffffffffffffffffffffff1614610b2a576040517f08c379a0000000000000000000000000000000000000000000000000000000008152600401610b21906120fa565b60405180910390fd5b600060046000815480929190610b3f90611ced565b9190505590506000600360008381526020019081526020016000209050868160000181905550338160010160006101000a81548173ffffffffffffffffffffffffffffffffffffffff021916908373ffffffffffffffffffffffffffffffffffffffff16021790555085816002018190555084816003019081610bc291906122bc565b5060008160040181905550600081600501819055504281600901819055503373ffffffffffffffffffffffffffffffffffffffff1687837fbd98f45a161c0984c2655a7fcbb2a3b336dc55b4780617f2d6dc49f737e10c5b8989604051610c2a92919061238e565b60405180910390a48193505050509392505050565b600080600360008481526020019081526020016000209050600081600501548260040154610c6d9190611d35565b905060008103610c8257600092505050610da0565b60008060009054906101000a900473ffffffffffffffffffffffffffffffffffffffff1673ffffffffffffffffffffffffffffffffffffffff1663ce2ef58d6040518163ffffffff1660e01b8152600401602060405180830381865afa158015610cf0573d6000803e3d6000fd5b505050506040513d601f19601f82011682018060405250810190610d1491906123be565b905060008111610d59576040517f08c379a0000000000000000000000000000000000000000000000000000000008152600401610d509061245d565b60405180910390fd5b6000610d67836064846114ea565b90506032811015610d7f576000945050505050610da0565b6000610d9185600401546064866114ea565b9050603c811015955050505050505b919050565b60008054906101000a900473ffffffffffffffffffffffffffffffffffffffff1673ffffffffffffffffffffffffffffffffffffffff1663b1e44d8f336040518263ffffffff1660e01b8152600401610dfe9190611965565b602060405180830381865afa158015610e1b573d6000803e3d6000fd5b505050506040513d601f19601f82011682018060405250810190610e3f9190611d7e565b610e7e576040517f08c379a0000000000000000000000000000000000000000000000000000000008152600401610e75906124c9565b60405180910390fd5b6004548210610ec2576040517f08c379a0000000000000000000000000000000000000000000000000000000008152600401610eb990612535565b60405180910390fd5b60006003600084815260200190815260200160002090508060080160009054906101000a900460ff1615610f2b576040517f08c379a0000000000000000000000000000000000000000000000000000000008152600401610f22906125c7565b60405180910390fd5b8060060160003373ffffffffffffffffffffffffffffffffffffffff1673ffffffffffffffffffffffffffffffffffffffff16815260200190815260200160002060009054906101000a900460ff1615611154578115158160070160003373ffffffffffffffffffffffffffffffffffffffff1673ffffffffffffffffffffffffffffffffffffffff16815260200190815260200160002060009054906101000a900460ff1615151461114f578060070160003373ffffffffffffffffffffffffffffffffffffffff1673ffffffffffffffffffffffffffffffffffffffff16815260200190815260200160002060009054906101000a900460ff161561104b57806004016000815480929190611041906125e7565b9190505550611066565b806005016000815480929190611060906125e7565b91905055505b811561108b5780600401600081548092919061108190611ced565b91905055506110a6565b8060050160008154809291906110a090611ced565b91905055505b818160070160003373ffffffffffffffffffffffffffffffffffffffff1673ffffffffffffffffffffffffffffffffffffffff16815260200190815260200160002060006101000a81548160ff0219169083151502179055503373ffffffffffffffffffffffffffffffffffffffff16837f8adf67fcddcede850000c0f5a171766950c24705395fe0ffcf1f61312713f5088460405161114691906117ac565b60405180910390a35b611297565b81156111795780600401600081548092919061116f90611ced565b9190505550611194565b80600501600081548092919061118e90611ced565b91905055505b60018160060160003373ffffffffffffffffffffffffffffffffffffffff1673ffffffffffffffffffffffffffffffffffffffff16815260200190815260200160002060006101000a81548160ff021916908315150217905550818160070160003373ffffffffffffffffffffffffffffffffffffffff1673ffffffffffffffffffffffffffffffffffffffff16815260200190815260200160002060006101000a81548160ff0219169083151502179055503373ffffffffffffffffffffffffffffffffffffffff16837fe71fcdac32df1877c1700e7bda2a03157e20993363a28fc35ac495cefc76e4d48460405161128e91906117ac565b60405180910390a35b505050565b600160009054906101000a900473ffffffffffffffffffffffffffffffffffffffff1673ffffffffffffffffffffffffffffffffffffffff16632c9932ec6040518163ffffffff1660e01b8152600401602060405180830381865afa158015611309573d6000803e3d6000fd5b505050506040513d601f19601f8201168201806040525081019061132d9190612610565b73ffffffffffffffffffffffffffffffffffffffff163373ffffffffffffffffffffffffffffffffffffffff161461139a576040517f08c379a0000000000000000000000000000000000000000000000000000000008152600401611391906126af565b60405180910390fd5b6113a381610c3f565b6113e2576040517f08c379a00000000000000000000000000000000000000000000000000000000081526004016113d990612741565b60405180910390fd5b6003600082815260200190815260200160002060080160009054906101000a900460ff1615611446576040517f08c379a000000000000000000000000000000000000000000000000000000000815260040161143d906127d3565b60405180910390fd5b60016003600083815260200190815260200160002060080160006101000a81548160ff021916908315150217905550807f2901d10c47c593ca857b50ed52c025920f7b7b75198ec6aee6f61aa09a40089660036000848152602001908152602001600020600201546040516114bb91906116d8565b60405180910390a250565b60008054906101000a900473ffffffffffffffffffffffffffffffffffffffff1681565b60008060006114f986866115d2565b915091506000820361151f57838181611515576115146127f3565b5b04925050506115cb565b81841161153f5761153e61153960008614601260116115f1565b61160b565b5b600084868809905081811183039250808203915060008560000386169050808604955080830492506001818260000304019050808402831792506000600287600302189050808702600203810290508087026002038102905080870260020381029050808702600203810290508087026002038102905080870260020381029050808402955050505050505b9392505050565b6000806000198385098385029150818110828203039250509250929050565b60006115fc8461161d565b82841802821890509392505050565b634e487b71600052806020526024601cfd5b60008115159050919050565b6000604051905090565b600080fd5b600080fd5b6000819050919050565b6116508161163d565b811461165b57600080fd5b50565b60008135905061166d81611647565b92915050565b60006020828403121561168957611688611633565b5b60006116978482850161165e565b91505092915050565b6116a98161163d565b82525050565b60006040820190506116c460008301856116a0565b6116d160208301846116a0565b9392505050565b60006020820190506116ed60008301846116a0565b92915050565b600073ffffffffffffffffffffffffffffffffffffffff82169050919050565b600061171e826116f3565b9050919050565b61172e81611713565b811461173957600080fd5b50565b60008135905061174b81611725565b92915050565b6000806040838503121561176857611767611633565b5b60006117768582860161165e565b92505060206117878582860161173c565b9150509250929050565b60008115159050919050565b6117a681611791565b82525050565b60006020820190506117c1600083018461179d565b92915050565b6000819050919050565b60006117ec6117e76117e2846116f3565b6117c7565b6116f3565b9050919050565b60006117fe826117d1565b9050919050565b6000611810826117f3565b9050919050565b61182081611805565b82525050565b600060208201905061183b6000830184611817565b92915050565b61184a81611713565b82525050565b600081519050919050565b600082825260208201905092915050565b60005b8381101561188a57808201518184015260208101905061186f565b60008484015250505050565b6000601f19601f8301169050919050565b60006118b282611850565b6118bc818561185b565b93506118cc81856020860161186c565b6118d581611896565b840191505092915050565b6000610100820190506118f6600083018b6116a0565b611903602083018a611841565b61191060408301896116a0565b818103606083015261192281886118a7565b905061193160808301876116a0565b61193e60a08301866116a0565b61194b60c083018561179d565b61195860e08301846116a0565b9998505050505050505050565b600060208201905061197a6000830184611841565b92915050565b600080fd5b600080fd5b7f4e487b7100000000000000000000000000000000000000000000000000000000600052604160045260246000fd5b6119c282611896565b810181811067ffffffffffffffff821117156119e1576119e061198a565b5b80604052505050565b60006119f4611629565b9050611a0082826119b9565b919050565b600067ffffffffffffffff821115611a2057611a1f61198a565b5b611a2982611896565b9050602081019050919050565b82818337600083830152505050565b6000611a58611a5384611a05565b6119ea565b905082815260208101848484011115611a7457611a73611985565b5b611a7f848285611a36565b509392505050565b600082601f830112611a9c57611a9b611980565b5b8135611aac848260208601611a45565b91505092915050565b600080600060608486031215611ace57611acd611633565b5b6000611adc8682870161165e565b9350506020611aed8682870161165e565b925050604084013567ffffffffffffffff811115611b0e57611b0d611638565b5b611b1a86828701611a87565b9150509250925092565b611b2d81611791565b8114611b3857600080fd5b50565b600081359050611b4a81611b24565b92915050565b60008060408385031215611b6757611b66611633565b5b6000611b758582860161165e565b9250506020611b8685828601611b3b565b9150509250929050565b6000611b9b826117f3565b9050919050565b611bab81611b90565b82525050565b6000602082019050611bc66000830184611ba2565b92915050565b7f4e487b7100000000000000000000000000000000000000000000000000000000600052602260045260246000fd5b60006002820490506001821680611c1357607f821691505b602082108103611c2657611c25611bcc565b5b50919050565b7f556e61626c6520746f2072657472696576652c2044414f206d656d626572206860008201527f6173206e6f7420766f7465640000000000000000000000000000000000000000602082015250565b6000611c88602c8361185b565b9150611c9382611c2c565b604082019050919050565b60006020820190508181036000830152611cb781611c7b565b9050919050565b7f4e487b7100000000000000000000000000000000000000000000000000000000600052601160045260246000fd5b6000611cf88261163d565b91507fffffffffffffffffffffffffffffffffffffffffffffffffffffffffffffffff8203611d2a57611d29611cbe565b5b600182019050919050565b6000611d408261163d565b9150611d4b8361163d565b9250828201905080821115611d6357611d62611cbe565b5b92915050565b600081519050611d7881611b24565b92915050565b600060208284031215611d9457611d93611633565b5b6000611da284828501611d69565b91505092915050565b7f54727920616761696e2c2063616d706169676e206e6f74206163746976650000600082015250565b6000611de1601e8361185b565b9150611dec82611dab565b602082019050919050565b60006020820190508181036000830152611e1081611dd4565b9050919050565b7f54727920616761696e2c20696e76616c69642074617267657420616d6f756e74600082015250565b6000611e4d60208361185b565b9150611e5882611e17565b602082019050919050565b60006020820190508181036000830152611e7c81611e40565b9050919050565b7f54727920616761696e2c20496e766f6963652068617368207265717569726564600082015250565b6000611eb960208361185b565b9150611ec482611e83565b602082019050919050565b60006020820190508181036000830152611ee881611eac565b9050919050565b600081519050611efe81611725565b92915050565b600081519050611f1381611647565b92915050565b6000611f2c611f2784611a05565b6119ea565b905082815260208101848484011115611f4857611f47611985565b5b611f5384828561186c565b509392505050565b600082601f830112611f7057611f6f611980565b5b8151611f80848260208601611f19565b91505092915050565b60048110611f9657600080fd5b50565b600081519050611fa881611f89565b92915050565b600080600080600080600060e0888a031215611fcd57611fcc611633565b5b6000611fdb8a828b01611eef565b9750506020611fec8a828b01611f04565b9650506040611ffd8a828b01611f04565b955050606061200e8a828b01611f04565b945050608088015167ffffffffffffffff81111561202f5761202e611638565b5b61203b8a828b01611f5b565b93505060a088015167ffffffffffffffff81111561205c5761205b611638565b5b6120688a828b01611f5b565b92505060c06120798a828b01611f99565b91505092959891949750929550565b7f556e61626c6520746f207375626d69742c206e6f742070617469656e74206f6660008201527f20746869732063616d706169676e000000000000000000000000000000000000602082015250565b60006120e4602e8361185b565b91506120ef82612088565b604082019050919050565b60006020820190508181036000830152612113816120d7565b9050919050565b60008190508160005260206000209050919050565b60006020601f8301049050919050565b600082821b905092915050565b60006008830261217c7fffffffffffffffffffffffffffffffffffffffffffffffffffffffffffffffff8261213f565b612186868361213f565b95508019841693508086168417925050509392505050565b60006121b96121b46121af8461163d565b6117c7565b61163d565b9050919050565b6000819050919050565b6121d38361219e565b6121e76121df826121c0565b84845461214c565b825550505050565b600090565b6121fc6121ef565b6122078184846121ca565b505050565b5b8181101561222b576122206000826121f4565b60018101905061220d565b5050565b601f821115612270576122418161211a565b61224a8461212f565b81016020851015612259578190505b61226d6122658561212f565b83018261220c565b50505b505050565b600082821c905092915050565b600061229360001984600802612275565b1980831691505092915050565b60006122ac8383612282565b9150826002028217905092915050565b6122c582611850565b67ffffffffffffffff8111156122de576122dd61198a565b5b6122e88254611bfb565b6122f382828561222f565b600060209050601f8311600181146123265760008415612314578287015190505b61231e85826122a0565b865550612386565b601f1984166123348661211a565b60005b8281101561235c57848901518255600182019150602085019450602081019050612337565b868310156123795784890151612375601f891682612282565b8355505b6001600288020188555050505b505050505050565b60006040820190506123a360008301856116a0565b81810360208301526123b581846118a7565b90509392505050565b6000602082840312156123d4576123d3611633565b5b60006123e284828501611f04565b91505092915050565b7f556e61626c6520746f2064657465726d696e652c206e6f2044414f206d656d6260008201527f6572730000000000000000000000000000000000000000000000000000000000602082015250565b600061244760238361185b565b9150612452826123eb565b604082019050919050565b600060208201905081810360008301526124768161243a565b9050919050565b7f536f7272792c206f6e6c792044414f206d656d626572732063616e20766f7465600082015250565b60006124b360208361185b565b91506124be8261247d565b602082019050919050565b600060208201905081810360008301526124e2816124a6565b9050919050565b7f556e61626c6520746f20766f74652c20696e76616c696420636c61696d204944600082015250565b600061251f60208361185b565b915061252a826124e9565b602082019050919050565b6000602082019050818103600083015261254e81612512565b9050919050565b7f556e61626c6520746f20766f74652c20636c61696d20616c726561647920657860008201527f6563757465640000000000000000000000000000000000000000000000000000602082015250565b60006125b160268361185b565b91506125bc82612555565b604082019050919050565b600060208201905081810360008301526125e0816125a4565b9050919050565b60006125f28261163d565b91506000820361260557612604611cbe565b5b600182039050919050565b60006020828403121561262657612625611633565b5b600061263484828501611eef565b91505092915050565b7f556e617574686f72697a65642c20696e76616c696420636f6e7472616374206160008201527f6464726573730000000000000000000000000000000000000000000000000000602082015250565b600061269960268361185b565b91506126a48261263d565b604082019050919050565b600060208201905081810360008301526126c88161268c565b9050919050565b7f556e61626c6520746f20657865637574652c20636c61696d206e6f742061707060008201527f726f766564000000000000000000000000000000000000000000000000000000602082015250565b600061272b60258361185b565b9150612736826126cf565b604082019050919050565b6000602082019050818103600083015261275a8161271e565b9050919050565b7f556e61626c6520746f20657865637574652c20636c61696d20616c726561647960008201527f2065786563757465640000000000000000000000000000000000000000000000602082015250565b60006127bd60298361185b565b91506127c882612761565b604082019050919050565b600060208201905081810360008301526127ec816127b0565b9050919050565b7f4e487b7100000000000000000000000000000000000000000000000000000000600052601260045260246000fdfea2646970667358221220dedffb2d0380f481c59e42cddbef94de63512737d217af7c6356ad2a8c68287a64736f6c634300081c0033",
  "linkReferences": {},
  "deployedLinkReferences": {}
}