{
  "_format": "hh-sol-artifact-1",
  "contractName": "MediTrustDAO",
  "sourceName": "contracts/MediTrustDAO.sol",
  "abi": [
    {
      "inputs": [
        {
          "internalType": "address",
          "name": "roleAddress",
          "type": "address"
        },
        {
          "internalType": "address",
          "name": "campaignAddress",
          "type": "address"
        }
      ],
      "stateMutability": "nonpayable",
      "type": "constructor"
    },
    {
      "anonymous": false,
      "inputs": [
        {
          "indexed": true,
          "internalType": "uint256",
          "name": "claimID",
          "type": "uint256"
        },
        {
          "indexed": false,
          "internalType": "uint256",
          "name": "amount",
          "type": "uint256"
        }
      ],
      "name": "MilestoneClaimExecute",
      "type": "event"
    },
    {
      "anonymous": false,
      "inputs": [
        {
          "indexed": true,
          "internalType": "uint256",
          "name": "claimID",
          "type": "uint256"
        },
        {
          "indexed": true,
          "internalType": "uint256",
          "name": "campaignID",
          "type": "uint256"
        },
        {
          "indexed": true,
          "internalType": "address",
          "name": "patient",
          "type": "address"
        },
        {
          "indexed": false,
          "internalType": "uint256",
          "name": "amount",
          "type": "uint256"
        },
        {
          "indexed": false,
          "internalType": "string",
          "name": "ipfsHash",
          "type": "string"
        }
      ],
      "name": "MilestoneClaimSubmit",
      "type": "event"
    },
    {
      "anonymous": false,
      "inputs": [
        {
          "indexed": true,
          "internalType": "uint256",
          "name": "claimID",
          "type": "uint256"
        },
        {
          "indexed": true,
          "internalType": "address",
          "name": "DAOMember",
          "type": "address"
        },
        {
          "indexed": false,
          "internalType": "bool",
          "name": "voteChoice",
          "type": "bool"
        }
      ],
      "name": "VoteCast",
      "type": "event"
    },
    {
      "anonymous": false,
      "inputs": [
        {
          "indexed": true,
          "internalType": "uint256",
          "name": "claimID",
          "type": "uint256"
        },
        {
          "indexed": true,
          "internalType": "address",
          "name": "DAOMember",
          "type": "address"
        },
        {
          "indexed": false,
          "internalType": "bool",
          "name": "voteChoice",
          "type": "bool"
        }
      ],
      "name": "VoteChange",
      "type": "event"
    },
    {
      "inputs": [],
      "name": "approvalPercentage",
      "outputs": [
        {
          "internalType": "uint256",
          "name": "",
          "type": "uint256"
        }
      ],
      "stateMutability": "view",
      "type": "function"
    },
    {
      "inputs": [],
      "name": "campaignContract",
      "outputs": [
        {
          "internalType": "contract MediTrustCampaign",
          "name": "",
          "type": "address"
        }
      ],
      "stateMutability": "view",
      "type": "function"
    },
    {
      "inputs": [],
      "name": "claimCount",
      "outputs": [
        {
          "internalType": "uint256",
          "name": "",
          "type": "uint256"
        }
      ],
      "stateMutability": "view",
      "type": "function"
    },
    {
      "inputs": [
        {
          "internalType": "uint256",
          "name": "",
          "type": "uint256"
        }
      ],
      "name": "claims",
      "outputs": [
        {
          "internalType": "uint256",
          "name": "campaignID",
          "type": "uint256"
        },
        {
          "internalType": "address",
          "name": "patient",
          "type": "address"
        },
        {
          "internalType": "uint256",
          "name": "amount",
          "type": "uint256"
        },
        {
          "internalType": "string",
          "name": "ipfsHash",
          "type": "string"
        },
        {
          "internalType": "uint256",
          "name": "yesCount",
          "type": "uint256"
        },
        {
          "internalType": "uint256",
          "name": "noCount",
          "type": "uint256"
        },
        {
          "internalType": "bool",
          "name": "executed",
          "type": "bool"
        },
        {
          "internalType": "uint256",
          "name": "startDate",
          "type": "uint256"
        }
      ],
      "stateMutability": "view",
      "type": "function"
    },
    {
      "inputs": [],
      "name": "fundsAddress",
      "outputs": [
        {
          "internalType": "address",
          "name": "",
          "type": "address"
        }
      ],
      "stateMutability": "view",
      "type": "function"
    },
    {
      "inputs": [
        {
          "internalType": "uint256",
          "name": "claimID",
          "type": "uint256"
        }
      ],
      "name": "getMilestoneClaimDetails",
      "outputs": [
        {
          "internalType": "uint256",
          "name": "campaignID",
          "type": "uint256"
        },
        {
          "internalType": "address",
          "name": "patient",
          "type": "address"
        },
        {
          "internalType": "uint256",
          "name": "amount",
          "type": "uint256"
        },
        {
          "internalType": "string",
          "name": "ipfsHash",
          "type": "string"
        },
        {
          "internalType": "uint256",
          "name": "yesCount",
          "type": "uint256"
        },
        {
          "internalType": "uint256",
          "name": "noCount",
          "type": "uint256"
        },
        {
          "internalType": "bool",
          "name": "executed",
          "type": "bool"
        },
        {
          "internalType": "uint256",
          "name": "startDate",
          "type": "uint256"
        }
      ],
      "stateMutability": "view",
      "type": "function"
    },
    {
      "inputs": [
        {
          "internalType": "uint256",
          "name": "claimID",
          "type": "uint256"
        }
      ],
      "name": "getMilestoneClaimVotes",
      "outputs": [
        {
          "internalType": "uint256",
          "name": "yesCount",
          "type": "uint256"
        },
        {
          "internalType": "uint256",
          "name": "noCount",
          "type": "uint256"
        }
      ],
      "stateMutability": "view",
      "type": "function"
    },
    {
      "inputs": [
        {
          "internalType": "uint256",
          "name": "claimID",
          "type": "uint256"
        },
        {
          "internalType": "address",
          "name": "DAOMember",
          "type": "address"
        }
      ],
      "name": "getVoteChoice",
      "outputs": [
        {
          "internalType": "bool",
          "name": "",
          "type": "bool"
        }
      ],
      "stateMutability": "view",
      "type": "function"
    },
    {
      "inputs": [
        {
          "internalType": "uint256",
          "name": "claimID",
          "type": "uint256"
        },
        {
          "internalType": "address",
          "name": "DAOMember",
          "type": "address"
        }
      ],
      "name": "getVoted",
      "outputs": [
        {
          "internalType": "bool",
          "name": "",
          "type": "bool"
        }
      ],
      "stateMutability": "view",
      "type": "function"
    },
    {
      "inputs": [
        {
          "internalType": "uint256",
          "name": "claimID",
          "type": "uint256"
        }
      ],
      "name": "isMilestoneClaimApproved",
      "outputs": [
        {
          "internalType": "bool",
          "name": "",
          "type": "bool"
        }
      ],
      "stateMutability": "view",
      "type": "function"
    },
    {
      "inputs": [],
      "name": "quorumPercentage",
      "outputs": [
        {
          "internalType": "uint256",
          "name": "",
          "type": "uint256"
        }
      ],
      "stateMutability": "view",
      "type": "function"
    },
    {
      "inputs": [],
      "name": "roleContract",
      "outputs": [
        {
          "internalType": "contract MediTrustRoles",
          "name": "",
          "type": "address"
        }
      ],
      "stateMutability": "view",
      "type": "function"
    },
    {
      "inputs": [
        {
          "internalType": "uint256",
          "name": "claimID",
          "type": "uint256"
        }
      ],
      "name": "setMilestoneClaimExecuted",
      "outputs": [],
      "stateMutability": "nonpayable",
      "type": "function"
    },
    {
      "inputs": [
        {
          "internalType": "uint256",
          "name": "campaignID",
          "type": "uint256"
        },
        {
          "internalType": "uint256",
          "name": "amount",
          "type": "uint256"
        },
        {
          "internalType": "string",
          "name": "ipfsHash",
          "type": "string"
        }
      ],
      "name": "submitMilestoneClaim",
      "outputs": [
        {
          "internalType": "uint256",
          "name": "",
          "type": "uint256"
        }
      ],
      "stateMutability": "nonpayable",
      "type": "function"
    },
    {
      "inputs": [
        {
          "internalType": "uint256",
          "name": "claimID",
          "type": "uint256"
        },
        {
          "internalType": "bool",
          "name": "newVote",
          "type": "bool"
        }
      ],
      "name": "vote",
      "outputs": [],
      "stateMutability": "nonpayable",
      "type": "function"
    }
  ],
  "bytecode": "0x608060405234801561001057600080fd5b506040516126cb3803806126cb8339818101604052810190610032919061011d565b816000806101000a81548173ffffffffffffffffffffffffffffffffffffffff021916908373ffffffffffffffffffffffffffffffffffffffff16021790555080600160006101000a81548173ffffffffffffffffffffffffffffffffffffffff021916908373ffffffffffffffffffffffffffffffffffffffff160217905550505061015d565b600080fd5b600073ffffffffffffffffffffffffffffffffffffffff82169050919050565b60006100ea826100bf565b9050919050565b6100fa816100df565b811461010557600080fd5b50565b600081519050610117816100f1565b92915050565b60008060408385031215610134576101336100ba565b5b600061014285828601610108565b925050602061015385828601610108565b9150509250929050565b61255f8061016c6000396000f3fe608060405234801561001057600080fd5b50600436106100f55760003560e01c80638da4d3c911610097578063c646bc6711610066578063c646bc67146102bf578063c9d27afe146102ef578063e809bae01461030b578063f89723b814610327576100f5565b80638da4d3c91461021c578063a77ccd6e1461023a578063a888c2cd14610258578063bdaf2b181461028f576100f5565b80634fa76ec9116100d35780634fa76ec91461017957806358ae05cd1461019757806358afcd5f146101b55780637f318a5f146101ec576100f5565b80630cc20c4a146100fa5780633008d4371461012b57806330a8971014610149575b600080fd5b610114600480360381019061010f91906114e9565b610345565b604051610122929190611525565b60405180910390f35b610133610373565b604051610140919061154e565b60405180910390f35b610163600480360381019061015e91906115c7565b610378565b6040516101709190611622565b60405180910390f35b6101816103e3565b60405161018e919061154e565b60405180910390f35b61019f6103e8565b6040516101ac919061169c565b60405180910390f35b6101cf60048036038101906101ca91906114e9565b61040e565b6040516101e3989796959493929190611756565b60405180910390f35b610206600480360381019061020191906115c7565b61052e565b6040516102139190611622565b60405180910390f35b610224610639565b604051610231919061154e565b60405180910390f35b61024261063f565b60405161024f91906117db565b60405180910390f35b610272600480360381019061026d91906114e9565b610665565b604051610286989796959493929190611756565b60405180910390f35b6102a960048036038101906102a4919061192b565b610762565b6040516102b6919061154e565b60405180910390f35b6102d960048036038101906102d491906114e9565b610ab5565b6040516102e69190611622565b60405180910390f35b610309600480360381019061030491906119c6565b610c1b565b005b610325600480360381019061032091906114e9565b611112565b005b61032f61133c565b60405161033c9190611a27565b60405180910390f35b6000806000600360008581526020019081526020016000209050806004015481600501549250925050915091565b603c81565b60006003600084815260200190815260200160002060060160008373ffffffffffffffffffffffffffffffffffffffff1673ffffffffffffffffffffffffffffffffffffffff16815260200190815260200160002060009054906101000a900460ff16905092915050565b603281565b600160009054906101000a900473ffffffffffffffffffffffffffffffffffffffff1681565b600080600060606000806000806000600360008b8152602001908152602001600020905080600001548160010160009054906101000a900473ffffffffffffffffffffffffffffffffffffffff16826002015483600301846004015485600501548660080160009054906101000a900460ff16876009015484805461049290611a71565b80601f01602080910402602001604051908101604052809291908181526020018280546104be90611a71565b801561050b5780601f106104e05761010080835404028352916020019161050b565b820191906000526020600020905b8154815290600101906020018083116104ee57829003601f168201915b505050505094509850985098509850985098509850985050919395975091939597565b60006003600084815260200190815260200160002060060160008373ffffffffffffffffffffffffffffffffffffffff1673ffffffffffffffffffffffffffffffffffffffff16815260200190815260200160002060009054906101000a900460ff166105d0576040517f08c379a00000000000000000000000000000000000000000000000000000000081526004016105c790611b14565b60405180910390fd5b6003600084815260200190815260200160002060070160008373ffffffffffffffffffffffffffffffffffffffff1673ffffffffffffffffffffffffffffffffffffffff16815260200190815260200160002060009054906101000a900460ff16905092915050565b60045481565b600260009054906101000a900473ffffffffffffffffffffffffffffffffffffffff1681565b60036020528060005260406000206000915090508060000154908060010160009054906101000a900473ffffffffffffffffffffffffffffffffffffffff16908060020154908060030180546106ba90611a71565b80601f01602080910402602001604051908101604052809291908181526020018280546106e690611a71565b80156107335780601f1061070857610100808354040283529160200191610733565b820191906000526020600020905b81548152906001019060200180831161071657829003601f168201915b5050505050908060040154908060050154908060080160009054906101000a900460ff16908060090154905088565b6000600160009054906101000a900473ffffffffffffffffffffffffffffffffffffffff1673ffffffffffffffffffffffffffffffffffffffff1663e1e33009856040518263ffffffff1660e01b81526004016107bf919061154e565b602060405180830381865afa1580156107dc573d6000803e3d6000fd5b505050506040513d601f19601f820116820180604052508101906108009190611b49565b61083f576040517f08c379a000000000000000000000000000000000000000000000000000000000815260040161083690611bc2565b60405180910390fd5b60008311610882576040517f08c379a000000000000000000000000000000000000000000000000000000000815260040161087990611c2e565b60405180910390fd5b60008251116108c6576040517f08c379a00000000000000000000000000000000000000000000000000000000081526004016108bd90611c9a565b60405180910390fd5b600160009054906101000a900473ffffffffffffffffffffffffffffffffffffffff1673ffffffffffffffffffffffffffffffffffffffff1663effa334c856040518263ffffffff1660e01b8152600401610921919061154e565b602060405180830381865afa15801561093e573d6000803e3d6000fd5b505050506040513d601f19601f820116820180604052508101906109629190611b49565b6109a1576040517f08c379a000000000000000000000000000000000000000000000000000000000815260040161099890611d2c565b60405180910390fd5b6000600460008154809291906109b690611d7b565b9190505590506000600360008381526020019081526020016000209050858160000181905550338160010160006101000a81548173ffffffffffffffffffffffffffffffffffffffff021916908373ffffffffffffffffffffffffffffffffffffffff16021790555084816002018190555083816003019081610a399190611f65565b5060008160040181905550600081600501819055504281600901819055503373ffffffffffffffffffffffffffffffffffffffff1686837fbd98f45a161c0984c2655a7fcbb2a3b336dc55b4780617f2d6dc49f737e10c5b8888604051610aa1929190612037565b60405180910390a481925050509392505050565b600080600360008481526020019081526020016000209050600081600501548260040154610ae39190612067565b905060008103610af857600092505050610c16565b60008060009054906101000a900473ffffffffffffffffffffffffffffffffffffffff1673ffffffffffffffffffffffffffffffffffffffff1663ce2ef58d6040518163ffffffff1660e01b8152600401602060405180830381865afa158015610b66573d6000803e3d6000fd5b505050506040513d601f19601f82011682018060405250810190610b8a91906120b0565b905060008111610bcf576040517f08c379a0000000000000000000000000000000000000000000000000000000008152600401610bc69061214f565b60405180910390fd5b6000610bdd83606484611360565b90506032811015610bf5576000945050505050610c16565b6000610c078560040154606486611360565b9050603c811015955050505050505b919050565b60008054906101000a900473ffffffffffffffffffffffffffffffffffffffff1673ffffffffffffffffffffffffffffffffffffffff1663b1e44d8f336040518263ffffffff1660e01b8152600401610c7491906117db565b602060405180830381865afa158015610c91573d6000803e3d6000fd5b505050506040513d601f19601f82011682018060405250810190610cb59190611b49565b610cf4576040517f08c379a0000000000000000000000000000000000000000000000000000000008152600401610ceb906121bb565b60405180910390fd5b6004548210610d38576040517f08c379a0000000000000000000000000000000000000000000000000000000008152600401610d2f90612227565b60405180910390fd5b60006003600084815260200190815260200160002090508060080160009054906101000a900460ff1615610da1576040517f08c379a0000000000000000000000000000000000000000000000000000000008152600401610d98906122b9565b60405180910390fd5b8060060160003373ffffffffffffffffffffffffffffffffffffffff1673ffffffffffffffffffffffffffffffffffffffff16815260200190815260200160002060009054906101000a900460ff1615610fca578115158160070160003373ffffffffffffffffffffffffffffffffffffffff1673ffffffffffffffffffffffffffffffffffffffff16815260200190815260200160002060009054906101000a900460ff16151514610fc5578060070160003373ffffffffffffffffffffffffffffffffffffffff1673ffffffffffffffffffffffffffffffffffffffff16815260200190815260200160002060009054906101000a900460ff1615610ec157806004016000815480929190610eb7906122d9565b9190505550610edc565b806005016000815480929190610ed6906122d9565b91905055505b8115610f0157806004016000815480929190610ef790611d7b565b9190505550610f1c565b806005016000815480929190610f1690611d7b565b91905055505b818160070160003373ffffffffffffffffffffffffffffffffffffffff1673ffffffffffffffffffffffffffffffffffffffff16815260200190815260200160002060006101000a81548160ff0219169083151502179055503373ffffffffffffffffffffffffffffffffffffffff16837f8adf67fcddcede850000c0f5a171766950c24705395fe0ffcf1f61312713f50884604051610fbc9190611622565b60405180910390a35b61110d565b8115610fef57806004016000815480929190610fe590611d7b565b919050555061100a565b80600501600081548092919061100490611d7b565b91905055505b60018160060160003373ffffffffffffffffffffffffffffffffffffffff1673ffffffffffffffffffffffffffffffffffffffff16815260200190815260200160002060006101000a81548160ff021916908315150217905550818160070160003373ffffffffffffffffffffffffffffffffffffffff1673ffffffffffffffffffffffffffffffffffffffff16815260200190815260200160002060006101000a81548160ff0219169083151502179055503373ffffffffffffffffffffffffffffffffffffffff16837fe71fcdac32df1877c1700e7bda2a03157e20993363a28fc35ac495cefc76e4d4846040516111049190611622565b60405180910390a35b505050565b600160009054906101000a900473ffffffffffffffffffffffffffffffffffffffff1673ffffffffffffffffffffffffffffffffffffffff16632c9932ec6040518163ffffffff1660e01b8152600401602060405180830381865afa15801561117f573d6000803e3d6000fd5b505050506040513d601f19601f820116820180604052508101906111a39190612317565b73ffffffffffffffffffffffffffffffffffffffff163373ffffffffffffffffffffffffffffffffffffffff1614611210576040517f08c379a0000000000000000000000000000000000000000000000000000000008152600401611207906123b6565b60405180910390fd5b61121981610ab5565b611258576040517f08c379a000000000000000000000000000000000000000000000000000000000815260040161124f90612448565b60405180910390fd5b6003600082815260200190815260200160002060080160009054906101000a900460ff16156112bc576040517f08c379a00000000000000000000000000000000000000000000000000000000081526004016112b3906124da565b60405180910390fd5b60016003600083815260200190815260200160002060080160006101000a81548160ff021916908315150217905550807f2901d10c47c593ca857b50ed52c025920f7b7b75198ec6aee6f61aa09a4008966003600084815260200190815260200160002060020154604051611331919061154e565b60405180910390a250565b60008054906101000a900473ffffffffffffffffffffffffffffffffffffffff1681565b600080600061136f8686611448565b91509150600082036113955783818161138b5761138a6124fa565b5b0492505050611441565b8184116113b5576113b46113af6000861460126011611467565b611481565b5b600084868809905081811183039250808203915060008560000386169050808604955080830492506001818260000304019050808402831792506000600287600302189050808702600203810290508087026002038102905080870260020381029050808702600203810290508087026002038102905080870260020381029050808402955050505050505b9392505050565b6000806000198385098385029150818110828203039250509250929050565b600061147284611493565b82841802821890509392505050565b634e487b71600052806020526024601cfd5b60008115159050919050565b6000604051905090565b600080fd5b600080fd5b6000819050919050565b6114c6816114b3565b81146114d157600080fd5b50565b6000813590506114e3816114bd565b92915050565b6000602082840312156114ff576114fe6114a9565b5b600061150d848285016114d4565b91505092915050565b61151f816114b3565b82525050565b600060408201905061153a6000830185611516565b6115476020830184611516565b9392505050565b60006020820190506115636000830184611516565b92915050565b600073ffffffffffffffffffffffffffffffffffffffff82169050919050565b600061159482611569565b9050919050565b6115a481611589565b81146115af57600080fd5b50565b6000813590506115c18161159b565b92915050565b600080604083850312156115de576115dd6114a9565b5b60006115ec858286016114d4565b92505060206115fd858286016115b2565b9150509250929050565b60008115159050919050565b61161c81611607565b82525050565b60006020820190506116376000830184611613565b92915050565b6000819050919050565b600061166261165d61165884611569565b61163d565b611569565b9050919050565b600061167482611647565b9050919050565b600061168682611669565b9050919050565b6116968161167b565b82525050565b60006020820190506116b1600083018461168d565b92915050565b6116c081611589565b82525050565b600081519050919050565b600082825260208201905092915050565b60005b838110156117005780820151818401526020810190506116e5565b60008484015250505050565b6000601f19601f8301169050919050565b6000611728826116c6565b61173281856116d1565b93506117428185602086016116e2565b61174b8161170c565b840191505092915050565b60006101008201905061176c600083018b611516565b611779602083018a6116b7565b6117866040830189611516565b8181036060830152611798818861171d565b90506117a76080830187611516565b6117b460a0830186611516565b6117c160c0830185611613565b6117ce60e0830184611516565b9998505050505050505050565b60006020820190506117f060008301846116b7565b92915050565b600080fd5b600080fd5b7f4e487b7100000000000000000000000000000000000000000000000000000000600052604160045260246000fd5b6118388261170c565b810181811067ffffffffffffffff8211171561185757611856611800565b5b80604052505050565b600061186a61149f565b9050611876828261182f565b919050565b600067ffffffffffffffff82111561189657611895611800565b5b61189f8261170c565b9050602081019050919050565b82818337600083830152505050565b60006118ce6118c98461187b565b611860565b9050828152602081018484840111156118ea576118e96117fb565b5b6118f58482856118ac565b509392505050565b600082601f830112611912576119116117f6565b5b81356119228482602086016118bb565b91505092915050565b600080600060608486031215611944576119436114a9565b5b6000611952868287016114d4565b9350506020611963868287016114d4565b925050604084013567ffffffffffffffff811115611984576119836114ae565b5b611990868287016118fd565b9150509250925092565b6119a381611607565b81146119ae57600080fd5b50565b6000813590506119c08161199a565b92915050565b600080604083850312156119dd576119dc6114a9565b5b60006119eb858286016114d4565b92505060206119fc858286016119b1565b9150509250929050565b6000611a1182611669565b9050919050565b611a2181611a06565b82525050565b6000602082019050611a3c6000830184611a18565b92915050565b7f4e487b7100000000000000000000000000000000000000000000000000000000600052602260045260246000fd5b60006002820490506001821680611a8957607f821691505b602082108103611a9c57611a9b611a42565b5b50919050565b7f556e61626c6520746f2072657472696576652c2044414f206d656d626572206860008201527f6173206e6f7420766f7465640000000000000000000000000000000000000000602082015250565b6000611afe602c836116d1565b9150611b0982611aa2565b604082019050919050565b60006020820190508181036000830152611b2d81611af1565b9050919050565b600081519050611b438161199a565b92915050565b600060208284031215611b5f57611b5e6114a9565b5b6000611b6d84828501611b34565b91505092915050565b7f54727920616761696e2c2063616d706169676e206e6f74206163746976650000600082015250565b6000611bac601e836116d1565b9150611bb782611b76565b602082019050919050565b60006020820190508181036000830152611bdb81611b9f565b9050919050565b7f54727920616761696e2c20696e76616c69642074617267657420616d6f756e74600082015250565b6000611c186020836116d1565b9150611c2382611be2565b602082019050919050565b60006020820190508181036000830152611c4781611c0b565b9050919050565b7f54727920616761696e2c20495046532068617368207265717569726564000000600082015250565b6000611c84601d836116d1565b9150611c8f82611c4e565b602082019050919050565b60006020820190508181036000830152611cb381611c77565b9050919050565b7f556e61626c6520746f207375626d69742c206e6f742070617469656e74206f6660008201527f20746869732063616d706169676e000000000000000000000000000000000000602082015250565b6000611d16602e836116d1565b9150611d2182611cba565b604082019050919050565b60006020820190508181036000830152611d4581611d09565b9050919050565b7f4e487b7100000000000000000000000000000000000000000000000000000000600052601160045260246000fd5b6000611d86826114b3565b91507fffffffffffffffffffffffffffffffffffffffffffffffffffffffffffffffff8203611db857611db7611d4c565b5b600182019050919050565b60008190508160005260206000209050919050565b60006020601f8301049050919050565b600082821b905092915050565b600060088302611e257fffffffffffffffffffffffffffffffffffffffffffffffffffffffffffffffff82611de8565b611e2f8683611de8565b95508019841693508086168417925050509392505050565b6000611e62611e5d611e58846114b3565b61163d565b6114b3565b9050919050565b6000819050919050565b611e7c83611e47565b611e90611e8882611e69565b848454611df5565b825550505050565b600090565b611ea5611e98565b611eb0818484611e73565b505050565b5b81811015611ed457611ec9600082611e9d565b600181019050611eb6565b5050565b601f821115611f1957611eea81611dc3565b611ef384611dd8565b81016020851015611f02578190505b611f16611f0e85611dd8565b830182611eb5565b50505b505050565b600082821c905092915050565b6000611f3c60001984600802611f1e565b1980831691505092915050565b6000611f558383611f2b565b9150826002028217905092915050565b611f6e826116c6565b67ffffffffffffffff811115611f8757611f86611800565b5b611f918254611a71565b611f9c828285611ed8565b600060209050601f831160018114611fcf5760008415611fbd578287015190505b611fc78582611f49565b86555061202f565b601f198416611fdd86611dc3565b60005b8281101561200557848901518255600182019150602085019450602081019050611fe0565b86831015612022578489015161201e601f891682611f2b565b8355505b6001600288020188555050505b505050505050565b600060408201905061204c6000830185611516565b818103602083015261205e818461171d565b90509392505050565b6000612072826114b3565b915061207d836114b3565b925082820190508082111561209557612094611d4c565b5b92915050565b6000815190506120aa816114bd565b92915050565b6000602082840312156120c6576120c56114a9565b5b60006120d48482850161209b565b91505092915050565b7f556e61626c6520746f2064657465726d696e652c206e6f2044414f206d656d6260008201527f6572730000000000000000000000000000000000000000000000000000000000602082015250565b60006121396023836116d1565b9150612144826120dd565b604082019050919050565b600060208201905081810360008301526121688161212c565b9050919050565b7f536f7272792c206f6e6c792044414f206d656d626572732063616e20766f7465600082015250565b60006121a56020836116d1565b91506121b08261216f565b602082019050919050565b600060208201905081810360008301526121d481612198565b9050919050565b7f556e61626c6520746f20766f74652c20696e76616c696420636c61696d204944600082015250565b60006122116020836116d1565b915061221c826121db565b602082019050919050565b6000602082019050818103600083015261224081612204565b9050919050565b7f556e61626c6520746f20766f74652c20636c61696d20616c726561647920657860008201527f6563757465640000000000000000000000000000000000000000000000000000602082015250565b60006122a36026836116d1565b91506122ae82612247565b604082019050919050565b600060208201905081810360008301526122d281612296565b9050919050565b60006122e4826114b3565b9150600082036122f7576122f6611d4c565b5b600182039050919050565b6000815190506123118161159b565b92915050565b60006020828403121561232d5761232c6114a9565b5b600061233b84828501612302565b91505092915050565b7f556e617574686f72697a65642c20696e76616c696420636f6e7472616374206160008201527f6464726573730000000000000000000000000000000000000000000000000000602082015250565b60006123a06026836116d1565b91506123ab82612344565b604082019050919050565b600060208201905081810360008301526123cf81612393565b9050919050565b7f556e61626c6520746f20657865637574652c20636c61696d206e6f742061707060008201527f726f766564000000000000000000000000000000000000000000000000000000602082015250565b60006124326025836116d1565b915061243d826123d6565b604082019050919050565b6000602082019050818103600083015261246181612425565b9050919050565b7f556e61626c6520746f20657865637574652c20636c61696d20616c726561647960008201527f2065786563757465640000000000000000000000000000000000000000000000602082015250565b60006124c46029836116d1565b91506124cf82612468565b604082019050919050565b600060208201905081810360008301526124f3816124b7565b9050919050565b7f4e487b7100000000000000000000000000000000000000000000000000000000600052601260045260246000fdfea26469706673582212209de997e66f044d20b0556443958dcbd7b7ad7fb96ed01183bb8a19c301e04c0464736f6c634300081c0033",
  "linkReferences": {},
  "deployedLinkReferences": {}
}