{
  "_format": "hh-sol-artifact-1",
  "contractName": "MediTrustRoles",
  "sourceName": "contracts/MediTrustRoles.sol",
  "abi": [
    {
      "inputs": [],
      "stateMutability": "nonpayable",
      "type": "constructor"
    },
    {
      "inputs": [
        {
          "internalType": "address",
          "name": "owner",
          "type": "address"
        }
      ],
      "name": "OwnableInvalidOwner",
      "type": "error"
    },
    {
      "inputs": [
        {
          "internalType": "address",
          "name": "account",
          "type": "address"
        }
      ],
      "name": "OwnableUnauthorizedAccount",
      "type": "error"
    },
    {
      "anonymous": false,
      "inputs": [
        {
          "indexed": true,
          "internalType": "address",
          "name": "member",
          "type": "address"
        }
      ],
      "name": "DAOMemberAdd",
      "type": "event"
    },
    {
      "anonymous": false,
      "inputs": [
        {
          "indexed": true,
          "internalType": "address",
          "name": "member",
          "type": "address"
        }
      ],
      "name": "DAOMemberRemove",
      "type": "event"
    },
    {
      "anonymous": false,
      "inputs": [
        {
          "indexed": true,
          "internalType": "address",
          "name": "previousOwner",
          "type": "address"
        },
        {
          "indexed": true,
          "internalType": "address",
          "name": "newOwner",
          "type": "address"
        }
      ],
      "name": "OwnershipTransferred",
      "type": "event"
    },
    {
      "anonymous": false,
      "inputs": [
        {
          "indexed": true,
          "internalType": "address",
          "name": "rep",
          "type": "address"
        }
      ],
      "name": "hospitalRepAdd",
      "type": "event"
    },
    {
      "anonymous": false,
      "inputs": [
        {
          "indexed": true,
          "internalType": "address",
          "name": "rep",
          "type": "address"
        }
      ],
      "name": "hospitalRepRemove",
      "type": "event"
    },
    {
      "inputs": [
        {
          "internalType": "address",
          "name": "",
          "type": "address"
        }
      ],
      "name": "DAOMembers",
      "outputs": [
        {
          "internalType": "bool",
          "name": "",
          "type": "bool"
        }
      ],
      "stateMutability": "view",
      "type": "function"
    },
    {
      "inputs": [
        {
          "internalType": "address",
          "name": "member",
          "type": "address"
        }
      ],
      "name": "addDAOMember",
      "outputs": [],
      "stateMutability": "nonpayable",
      "type": "function"
    },
    {
      "inputs": [
        {
          "internalType": "address",
          "name": "rep",
          "type": "address"
        }
      ],
      "name": "addHospitalRep",
      "outputs": [],
      "stateMutability": "nonpayable",
      "type": "function"
    },
    {
      "inputs": [],
      "name": "getTotalDAOMembers",
      "outputs": [
        {
          "internalType": "uint256",
          "name": "",
          "type": "uint256"
        }
      ],
      "stateMutability": "view",
      "type": "function"
    },
    {
      "inputs": [],
      "name": "getTotalHospitalRep",
      "outputs": [
        {
          "internalType": "uint256",
          "name": "",
          "type": "uint256"
        }
      ],
      "stateMutability": "view",
      "type": "function"
    },
    {
      "inputs": [
        {
          "internalType": "address",
          "name": "",
          "type": "address"
        }
      ],
      "name": "hospitalRepresentatives",
      "outputs": [
        {
          "internalType": "bool",
          "name": "",
          "type": "bool"
        }
      ],
      "stateMutability": "view",
      "type": "function"
    },
    {
      "inputs": [
        {
          "internalType": "address",
          "name": "addr",
          "type": "address"
        }
      ],
      "name": "isDAOMember",
      "outputs": [
        {
          "internalType": "bool",
          "name": "",
          "type": "bool"
        }
      ],
      "stateMutability": "view",
      "type": "function"
    },
    {
      "inputs": [
        {
          "internalType": "address",
          "name": "addr",
          "type": "address"
        }
      ],
      "name": "isHospitalRep",
      "outputs": [
        {
          "internalType": "bool",
          "name": "",
          "type": "bool"
        }
      ],
      "stateMutability": "view",
      "type": "function"
    },
    {
      "inputs": [
        {
          "internalType": "address",
          "name": "addr",
          "type": "address"
        }
      ],
      "name": "isPlatformAdmin",
      "outputs": [
        {
          "internalType": "bool",
          "name": "",
          "type": "bool"
        }
      ],
      "stateMutability": "view",
      "type": "function"
    },
    {
      "inputs": [],
      "name": "owner",
      "outputs": [
        {
          "internalType": "address",
          "name": "",
          "type": "address"
        }
      ],
      "stateMutability": "view",
      "type": "function"
    },
    {
      "inputs": [
        {
          "internalType": "address",
          "name": "member",
          "type": "address"
        }
      ],
      "name": "removeDAOMember",
      "outputs": [],
      "stateMutability": "nonpayable",
      "type": "function"
    },
    {
      "inputs": [
        {
          "internalType": "address",
          "name": "rep",
          "type": "address"
        }
      ],
      "name": "removeHospitalRep",
      "outputs": [],
      "stateMutability": "nonpayable",
      "type": "function"
    },
    {
      "inputs": [],
      "name": "renounceOwnership",
      "outputs": [],
      "stateMutability": "nonpayable",
      "type": "function"
    },
    {
      "inputs": [],
      "name": "totalDAOMembers",
      "outputs": [
        {
          "internalType": "uint256",
          "name": "",
          "type": "uint256"
        }
      ],
      "stateMutability": "view",
      "type": "function"
    },
    {
      "inputs": [],
      "name": "totalHospitalRep",
      "outputs": [
        {
          "internalType": "uint256",
          "name": "",
          "type": "uint256"
        }
      ],
      "stateMutability": "view",
      "type": "function"
    },
    {
      "inputs": [
        {
          "internalType": "address",
          "name": "newOwner",
          "type": "address"
        }
      ],
      "name": "transferOwnership",
      "outputs": [],
      "stateMutability": "nonpayable",
      "type": "function"
    }
  ],
  "bytecode": "0x608060405234801561001057600080fd5b5033600073ffffffffffffffffffffffffffffffffffffffff168173ffffffffffffffffffffffffffffffffffffffff16036100845760006040517f1e4fbdf700000000000000000000000000000000000000000000000000000000815260040161007b919061019e565b60405180910390fd5b6100938161009960201b60201c565b506101b9565b60008060009054906101000a900473ffffffffffffffffffffffffffffffffffffffff169050816000806101000a81548173ffffffffffffffffffffffffffffffffffffffff021916908373ffffffffffffffffffffffffffffffffffffffff1602179055508173ffffffffffffffffffffffffffffffffffffffff168173ffffffffffffffffffffffffffffffffffffffff167f8be0079c531659141344cd1fd0a4f28419497f9722a3daafe3b4186f6b6457e060405160405180910390a35050565b600073ffffffffffffffffffffffffffffffffffffffff82169050919050565b60006101888261015d565b9050919050565b6101988161017d565b82525050565b60006020820190506101b3600083018461018f565b92915050565b6110af806101c86000396000f3fe608060405234801561001057600080fd5b50600436106101005760003560e01c8063b1e44d8f11610097578063d686f45911610066578063d686f4591461029d578063dde01955146102b9578063f2fde38b146102d5578063f9183854146102f157610100565b8063b1e44d8f14610213578063b8c3de3514610243578063c77dbf6814610261578063ce2ef58d1461027f57610100565b8063715018a6116100d3578063715018a61461019f5780637667984d146101a957806387d85ee1146101d95780638da5cb5b146101f557610100565b806322a9e01b1461010557806325c99679146101355780635ea58e77146101515780636da1a9f81461016f575b600080fd5b61011f600480360381019061011a9190610c53565b610321565b60405161012c9190610c9b565b60405180910390f35b61014f600480360381019061014a9190610c53565b610341565b005b61015961048b565b6040516101669190610ccf565b60405180910390f35b61018960048036038101906101849190610c53565b610495565b6040516101969190610c9b565b60405180910390f35b6101a76104b5565b005b6101c360048036038101906101be9190610c53565b6104c9565b6040516101d09190610c9b565b60405180910390f35b6101f360048036038101906101ee9190610c53565b61051f565b005b6101fd610669565b60405161020a9190610cf9565b60405180910390f35b61022d60048036038101906102289190610c53565b610692565b60405161023a9190610c9b565b60405180910390f35b61024b6106e8565b6040516102589190610ccf565b60405180910390f35b6102696106ee565b6040516102769190610ccf565b60405180910390f35b6102876106f4565b6040516102949190610ccf565b60405180910390f35b6102b760048036038101906102b29190610c53565b6106fe565b005b6102d360048036038101906102ce9190610c53565b61088d565b005b6102ef60048036038101906102ea9190610c53565b6109d8565b005b61030b60048036038101906103069190610c53565b610a5e565b6040516103189190610c9b565b60405180910390f35b60016020528060005260406000206000915054906101000a900460ff1681565b610349610a9d565b600160008273ffffffffffffffffffffffffffffffffffffffff1673ffffffffffffffffffffffffffffffffffffffff16815260200190815260200160002060009054906101000a900460ff166103d5576040517f08c379a00000000000000000000000000000000000000000000000000000000081526004016103cc90610d97565b60405180910390fd5b6000600160008373ffffffffffffffffffffffffffffffffffffffff1673ffffffffffffffffffffffffffffffffffffffff16815260200190815260200160002060006101000a81548160ff0219169083151502179055506004600081548092919061044090610de6565b91905055508073ffffffffffffffffffffffffffffffffffffffff167fb861b1b5f49805731a1a70f27b5e03a1de6d8ba83d023b5ee5032a5690ea14be60405160405180910390a250565b6000600454905090565b60026020528060005260406000206000915054906101000a900460ff1681565b6104bd610a9d565b6104c76000610b24565b565b6000600160008373ffffffffffffffffffffffffffffffffffffffff1673ffffffffffffffffffffffffffffffffffffffff16815260200190815260200160002060009054906101000a900460ff169050919050565b610527610a9d565b600160008273ffffffffffffffffffffffffffffffffffffffff1673ffffffffffffffffffffffffffffffffffffffff16815260200190815260200160002060009054906101000a900460ff16156105b4576040517f08c379a00000000000000000000000000000000000000000000000000000000081526004016105ab90610e81565b60405180910390fd5b60018060008373ffffffffffffffffffffffffffffffffffffffff1673ffffffffffffffffffffffffffffffffffffffff16815260200190815260200160002060006101000a81548160ff0219169083151502179055506004600081548092919061061e90610ea1565b91905055508073ffffffffffffffffffffffffffffffffffffffff167f533558c74bcba14c4ffa9cdb14483c733479bee0b4da36ddaf16348d39f0d3f960405160405180910390a250565b60008060009054906101000a900473ffffffffffffffffffffffffffffffffffffffff16905090565b6000600260008373ffffffffffffffffffffffffffffffffffffffff1673ffffffffffffffffffffffffffffffffffffffff16815260200190815260200160002060009054906101000a900460ff169050919050565b60045481565b60035481565b6000600354905090565b610706610a9d565b600260008273ffffffffffffffffffffffffffffffffffffffff1673ffffffffffffffffffffffffffffffffffffffff16815260200190815260200160002060009054906101000a900460ff16610792576040517f08c379a000000000000000000000000000000000000000000000000000000000815260040161078990610f5b565b60405180910390fd5b6001600354116107d7576040517f08c379a00000000000000000000000000000000000000000000000000000000081526004016107ce90610fc7565b60405180910390fd5b6000600260008373ffffffffffffffffffffffffffffffffffffffff1673ffffffffffffffffffffffffffffffffffffffff16815260200190815260200160002060006101000a81548160ff0219169083151502179055506003600081548092919061084290610de6565b91905055508073ffffffffffffffffffffffffffffffffffffffff167f556f0f131426cb9172ebd574a4b04d8cc446a895b43ab4eebd0308d8edc5bdb260405160405180910390a250565b610895610a9d565b600260008273ffffffffffffffffffffffffffffffffffffffff1673ffffffffffffffffffffffffffffffffffffffff16815260200190815260200160002060009054906101000a900460ff1615610922576040517f08c379a000000000000000000000000000000000000000000000000000000000815260040161091990611059565b60405180910390fd5b6001600260008373ffffffffffffffffffffffffffffffffffffffff1673ffffffffffffffffffffffffffffffffffffffff16815260200190815260200160002060006101000a81548160ff0219169083151502179055506003600081548092919061098d90610ea1565b91905055508073ffffffffffffffffffffffffffffffffffffffff167f8a50686624f3707e4b4469816c78eeaa934016ad81d575529f13b8ebb28f40fd60405160405180910390a250565b6109e0610a9d565b600073ffffffffffffffffffffffffffffffffffffffff168173ffffffffffffffffffffffffffffffffffffffff1603610a525760006040517f1e4fbdf7000000000000000000000000000000000000000000000000000000008152600401610a499190610cf9565b60405180910390fd5b610a5b81610b24565b50565b6000610a68610669565b73ffffffffffffffffffffffffffffffffffffffff168273ffffffffffffffffffffffffffffffffffffffff16149050919050565b610aa5610be8565b73ffffffffffffffffffffffffffffffffffffffff16610ac3610669565b73ffffffffffffffffffffffffffffffffffffffff1614610b2257610ae6610be8565b6040517f118cdaa7000000000000000000000000000000000000000000000000000000008152600401610b199190610cf9565b60405180910390fd5b565b60008060009054906101000a900473ffffffffffffffffffffffffffffffffffffffff169050816000806101000a81548173ffffffffffffffffffffffffffffffffffffffff021916908373ffffffffffffffffffffffffffffffffffffffff1602179055508173ffffffffffffffffffffffffffffffffffffffff168173ffffffffffffffffffffffffffffffffffffffff167f8be0079c531659141344cd1fd0a4f28419497f9722a3daafe3b4186f6b6457e060405160405180910390a35050565b600033905090565b600080fd5b600073ffffffffffffffffffffffffffffffffffffffff82169050919050565b6000610c2082610bf5565b9050919050565b610c3081610c15565b8114610c3b57600080fd5b50565b600081359050610c4d81610c27565b92915050565b600060208284031215610c6957610c68610bf0565b5b6000610c7784828501610c3e565b91505092915050565b60008115159050919050565b610c9581610c80565b82525050565b6000602082019050610cb06000830184610c8c565b92915050565b6000819050919050565b610cc981610cb6565b82525050565b6000602082019050610ce46000830184610cc0565b92915050565b610cf381610c15565b82525050565b6000602082019050610d0e6000830184610cea565b92915050565b600082825260208201905092915050565b7f556e61626c6520746f2072656d6f76652c206e6f74206120686f73706974616c60008201527f20726570726573656e7461746976650000000000000000000000000000000000602082015250565b6000610d81602f83610d14565b9150610d8c82610d25565b604082019050919050565b60006020820190508181036000830152610db081610d74565b9050919050565b7f4e487b7100000000000000000000000000000000000000000000000000000000600052601160045260246000fd5b6000610df182610cb6565b915060008203610e0457610e03610db7565b5b600182039050919050565b7f556e61626c6520746f206164642c20616c7265616479206120686f737069746160008201527f6c20726570726573656e74617469766500000000000000000000000000000000602082015250565b6000610e6b603083610d14565b9150610e7682610e0f565b604082019050919050565b60006020820190508181036000830152610e9a81610e5e565b9050919050565b6000610eac82610cb6565b91507fffffffffffffffffffffffffffffffffffffffffffffffffffffffffffffffff8203610ede57610edd610db7565b5b600182019050919050565b7f556e61626c6520746f2072656d6f76652c206e6f7420612044414f206d656d6260008201527f6572000000000000000000000000000000000000000000000000000000000000602082015250565b6000610f45602283610d14565b9150610f5082610ee9565b604082019050919050565b60006020820190508181036000830152610f7481610f38565b9050919050565b7f43616e6e6f742072656d6f7665206c6173742044414f206d656d626572000000600082015250565b6000610fb1601d83610d14565b9150610fbc82610f7b565b602082019050919050565b60006020820190508181036000830152610fe081610fa4565b9050919050565b7f556e61626c6520746f206164642c20616c726561647920612044414f206d656d60008201527f6265720000000000000000000000000000000000000000000000000000000000602082015250565b6000611043602383610d14565b915061104e82610fe7565b604082019050919050565b6000602082019050818103600083015261107281611036565b905091905056fea2646970667358221220173efd640ac4832006b89f9b726373bf83b68d2542484fdbafe805bb160f99aa64736f6c634300081c0033",
  "linkReferences": {},
  "deployedLinkReferences": {}
}