{
  "_format": "hh-sol-artifact-1",
  "contractName": "MediTrustDAO",
  "sourceName": "contracts/MediTrustDAO.sol",
  "abi": [
    {
      "inputs": [
        {
          "internalType": "address",
          "name": "roleAddress",
          "type": "address"
        },
        {
          "internalType": "address",
          "name": "campaignAddress",
          "type": "address"
        }
      ],
      "stateMutability": "nonpayable",
      "type": "constructor"
    },
    {
      "anonymous": false,
      "inputs": [
        {
          "indexed": true,
          "internalType": "uint256",
          "name": "claimID",
          "type": "uint256"
        },
        {
          "indexed": false,
          "internalType": "uint256",
          "name": "amount",
          "type": "uint256"
        }
      ],
      "name": "MilestoneClaimExecute",
      "type": "event"
    },
    {
      "anonymous": false,
      "inputs": [
        {
          "indexed": true,
          "internalType": "uint256",
          "name": "claimID",
          "type": "uint256"
        },
        {
          "indexed": true,
          "internalType": "uint256",
          "name": "campaignID",
          "type": "uint256"
        },
        {
          "indexed": true,
          "internalType": "address",
          "name": "patient",
          "type": "address"
        },
        {
          "indexed": false,
          "internalType": "uint256",
          "name": "amount",
          "type": "uint256"
        },
        {
          "indexed": false,
          "internalType": "string",
          "name": "invoiceHash",
          "type": "string"
        }
      ],
      "name": "MilestoneClaimSubmit",
      "type": "event"
    },
    {
      "anonymous": false,
      "inputs": [
        {
          "indexed": true,
          "internalType": "uint256",
          "name": "claimID",
          "type": "uint256"
        },
        {
          "indexed": true,
          "internalType": "address",
          "name": "DAOMember",
          "type": "address"
        },
        {
          "indexed": false,
          "internalType": "bool",
          "name": "voteChoice",
          "type": "bool"
        }
      ],
      "name": "VoteCast",
      "type": "event"
    },
    {
      "anonymous": false,
      "inputs": [
        {
          "indexed": true,
          "internalType": "uint256",
          "name": "claimID",
          "type": "uint256"
        },
        {
          "indexed": true,
          "internalType": "address",
          "name": "DAOMember",
          "type": "address"
        },
        {
          "indexed": false,
          "internalType": "bool",
          "name": "voteChoice",
          "type": "bool"
        }
      ],
      "name": "VoteChange",
      "type": "event"
    },
    {
      "inputs": [],
      "name": "approvalPercentage",
      "outputs": [
        {
          "internalType": "uint256",
          "name": "",
          "type": "uint256"
        }
      ],
      "stateMutability": "view",
      "type": "function"
    },
    {
      "inputs": [],
      "name": "campaignContract",
      "outputs": [
        {
          "internalType": "contract MediTrustCampaign",
          "name": "",
          "type": "address"
        }
      ],
      "stateMutability": "view",
      "type": "function"
    },
    {
      "inputs": [],
      "name": "claimCount",
      "outputs": [
        {
          "internalType": "uint256",
          "name": "",
          "type": "uint256"
        }
      ],
      "stateMutability": "view",
      "type": "function"
    },
    {
      "inputs": [
        {
          "internalType": "uint256",
          "name": "",
          "type": "uint256"
        }
      ],
      "name": "claims",
      "outputs": [
        {
          "internalType": "uint256",
          "name": "campaignID",
          "type": "uint256"
        },
        {
          "internalType": "address",
          "name": "patient",
          "type": "address"
        },
        {
          "internalType": "uint256",
          "name": "amount",
          "type": "uint256"
        },
        {
          "internalType": "string",
          "name": "invoiceHash",
          "type": "string"
        },
        {
          "internalType": "uint256",
          "name": "yesCount",
          "type": "uint256"
        },
        {
          "internalType": "uint256",
          "name": "noCount",
          "type": "uint256"
        },
        {
          "internalType": "bool",
          "name": "executed",
          "type": "bool"
        },
        {
          "internalType": "uint256",
          "name": "startDate",
          "type": "uint256"
        }
      ],
      "stateMutability": "view",
      "type": "function"
    },
    {
      "inputs": [],
      "name": "fundsAddress",
      "outputs": [
        {
          "internalType": "address",
          "name": "",
          "type": "address"
        }
      ],
      "stateMutability": "view",
      "type": "function"
    },
    {
      "inputs": [],
      "name": "getAllMilestoneClaimIDs",
      "outputs": [
        {
          "internalType": "uint256[]",
          "name": "",
          "type": "uint256[]"
        }
      ],
      "stateMutability": "view",
      "type": "function"
    },
    {
      "inputs": [
        {
          "internalType": "uint256",
          "name": "MilestoneType",
          "type": "uint256"
        }
      ],
      "name": "getMilestoneClaimCount",
      "outputs": [
        {
          "internalType": "uint256",
          "name": "",
          "type": "uint256"
        }
      ],
      "stateMutability": "view",
      "type": "function"
    },
    {
      "inputs": [
        {
          "internalType": "uint256",
          "name": "claimID",
          "type": "uint256"
        }
      ],
      "name": "getMilestoneClaimDetails",
      "outputs": [
        {
          "internalType": "uint256",
          "name": "campaignID",
          "type": "uint256"
        },
        {
          "internalType": "address",
          "name": "patient",
          "type": "address"
        },
        {
          "internalType": "uint256",
          "name": "amount",
          "type": "uint256"
        },
        {
          "internalType": "string",
          "name": "invoiceHash",
          "type": "string"
        },
        {
          "internalType": "uint256",
          "name": "yesCount",
          "type": "uint256"
        },
        {
          "internalType": "uint256",
          "name": "noCount",
          "type": "uint256"
        },
        {
          "internalType": "bool",
          "name": "executed",
          "type": "bool"
        },
        {
          "internalType": "uint256",
          "name": "startDate",
          "type": "uint256"
        }
      ],
      "stateMutability": "view",
      "type": "function"
    },
    {
      "inputs": [
        {
          "internalType": "uint256",
          "name": "milestoneStatus",
          "type": "uint256"
        }
      ],
      "name": "getMilestoneClaimIDs",
      "outputs": [
        {
          "internalType": "uint256[]",
          "name": "",
          "type": "uint256[]"
        }
      ],
      "stateMutability": "view",
      "type": "function"
    },
    {
      "inputs": [
        {
          "internalType": "uint256",
          "name": "claimID",
          "type": "uint256"
        }
      ],
      "name": "getMilestoneClaimVotes",
      "outputs": [
        {
          "internalType": "uint256",
          "name": "yesCount",
          "type": "uint256"
        },
        {
          "internalType": "uint256",
          "name": "noCount",
          "type": "uint256"
        }
      ],
      "stateMutability": "view",
      "type": "function"
    },
    {
      "inputs": [
        {
          "internalType": "uint256",
          "name": "claimID",
          "type": "uint256"
        }
      ],
      "name": "getMilestoneClaimVotingStats",
      "outputs": [
        {
          "internalType": "uint256",
          "name": "totalVotes",
          "type": "uint256"
        },
        {
          "internalType": "uint256",
          "name": "approvalRate",
          "type": "uint256"
        },
        {
          "internalType": "uint256",
          "name": "quorumAchieved",
          "type": "uint256"
        },
        {
          "internalType": "uint256",
          "name": "totalDAOMembers",
          "type": "uint256"
        },
        {
          "internalType": "bool",
          "name": "approved",
          "type": "bool"
        }
      ],
      "stateMutability": "view",
      "type": "function"
    },
    {
      "inputs": [
        {
          "internalType": "uint256",
          "name": "claimID",
          "type": "uint256"
        },
        {
          "internalType": "address",
          "name": "DAOMember",
          "type": "address"
        }
      ],
      "name": "getVoteChoice",
      "outputs": [
        {
          "internalType": "bool",
          "name": "",
          "type": "bool"
        }
      ],
      "stateMutability": "view",
      "type": "function"
    },
    {
      "inputs": [
        {
          "internalType": "uint256",
          "name": "claimID",
          "type": "uint256"
        },
        {
          "internalType": "address",
          "name": "DAOMember",
          "type": "address"
        }
      ],
      "name": "getVoted",
      "outputs": [
        {
          "internalType": "bool",
          "name": "",
          "type": "bool"
        }
      ],
      "stateMutability": "view",
      "type": "function"
    },
    {
      "inputs": [
        {
          "internalType": "uint256",
          "name": "claimID",
          "type": "uint256"
        }
      ],
      "name": "isMilestoneClaimApproved",
      "outputs": [
        {
          "internalType": "bool",
          "name": "",
          "type": "bool"
        }
      ],
      "stateMutability": "view",
      "type": "function"
    },
    {
      "inputs": [],
      "name": "quorumPercentage",
      "outputs": [
        {
          "internalType": "uint256",
          "name": "",
          "type": "uint256"
        }
      ],
      "stateMutability": "view",
      "type": "function"
    },
    {
      "inputs": [],
      "name": "roleContract",
      "outputs": [
        {
          "internalType": "contract MediTrustRoles",
          "name": "",
          "type": "address"
        }
      ],
      "stateMutability": "view",
      "type": "function"
    },
    {
      "inputs": [
        {
          "internalType": "uint256",
          "name": "claimID",
          "type": "uint256"
        }
      ],
      "name": "setMilestoneClaimExecuted",
      "outputs": [],
      "stateMutability": "nonpayable",
      "type": "function"
    },
    {
      "inputs": [
        {
          "internalType": "uint256",
          "name": "campaignID",
          "type": "uint256"
        },
        {
          "internalType": "uint256",
          "name": "amount",
          "type": "uint256"
        },
        {
          "internalType": "string",
          "name": "invoiceHash",
          "type": "string"
        }
      ],
      "name": "submitMilestoneClaim",
      "outputs": [
        {
          "internalType": "uint256",
          "name": "",
          "type": "uint256"
        }
      ],
      "stateMutability": "nonpayable",
      "type": "function"
    },
    {
      "inputs": [
        {
          "internalType": "uint256",
          "name": "claimID",
          "type": "uint256"
        },
        {
          "internalType": "bool",
          "name": "newVote",
          "type": "bool"
        }
      ],
      "name": "vote",
      "outputs": [],
      "stateMutability": "nonpayable",
      "type": "function"
    }
  ],
  "bytecode": "0x608060405234801561001057600080fd5b50604051612ee8380380612ee88339818101604052810190610032919061011d565b816000806101000a81548173ffffffffffffffffffffffffffffffffffffffff021916908373ffffffffffffffffffffffffffffffffffffffff16021790555080600160006101000a81548173ffffffffffffffffffffffffffffffffffffffff021916908373ffffffffffffffffffffffffffffffffffffffff160217905550505061015d565b600080fd5b600073ffffffffffffffffffffffffffffffffffffffff82169050919050565b60006100ea826100bf565b9050919050565b6100fa816100df565b811461010557600080fd5b50565b600081519050610117816100f1565b92915050565b60008060408385031215610134576101336100ba565b5b600061014285828601610108565b925050602061015385828601610108565b9150509250929050565b612d7c8061016c6000396000f3fe608060405234801561001057600080fd5b50600436106101215760003560e01c80638dd6261d116100ad578063c9d27afe11610071578063c9d27afe14610369578063e5e848da14610385578063e809bae0146103b5578063f89723b8146103d1578063fc6c717a146103ef57610121565b80638dd6261d14610284578063a77ccd6e146102b4578063a888c2cd146102d2578063bdaf2b1814610309578063c646bc671461033957610121565b806358ae05cd116100f457806358ae05cd146101c357806358afcd5f146101e157806368dd0550146102185780637f318a5f146102365780638da4d3c91461026657610121565b80630cc20c4a146101265780633008d4371461015757806330a89710146101755780634fa76ec9146101a5575b600080fd5b610140600480360381019061013b9190611a21565b610423565b60405161014e929190611a5d565b60405180910390f35b61015f610451565b60405161016c9190611a86565b60405180910390f35b61018f600480360381019061018a9190611aff565b610456565b60405161019c9190611b5a565b60405180910390f35b6101ad6104c1565b6040516101ba9190611a86565b60405180910390f35b6101cb6104c6565b6040516101d89190611bd4565b60405180910390f35b6101fb60048036038101906101f69190611a21565b6104ec565b60405161020f989796959493929190611c8e565b60405180910390f35b61022061060c565b60405161022d9190611dd1565b60405180910390f35b610250600480360381019061024b9190611aff565b61069f565b60405161025d9190611b5a565b60405180910390f35b61026e6107aa565b60405161027b9190611a86565b60405180910390f35b61029e60048036038101906102999190611a21565b6107b0565b6040516102ab9190611a86565b60405180910390f35b6102bc6108d2565b6040516102c99190611df3565b60405180910390f35b6102ec60048036038101906102e79190611a21565b6108f8565b604051610300989796959493929190611c8e565b60405180910390f35b610323600480360381019061031e9190611f43565b6109f5565b6040516103309190611a86565b60405180910390f35b610353600480360381019061034e9190611a21565b610d88565b6040516103609190611b5a565b60405180910390f35b610383600480360381019061037e9190611fde565b610eee565b005b61039f600480360381019061039a9190611a21565b6113e5565b6040516103ac9190611dd1565b60405180910390f35b6103cf60048036038101906103ca9190611a21565b611527565b005b6103d9611751565b6040516103e6919061203f565b60405180910390f35b61040960048036038101906104049190611a21565b611775565b60405161041a95949392919061205a565b60405180910390f35b6000806000600360008581526020019081526020016000209050806004015481600501549250925050915091565b603c81565b60006003600084815260200190815260200160002060060160008373ffffffffffffffffffffffffffffffffffffffff1673ffffffffffffffffffffffffffffffffffffffff16815260200190815260200160002060009054906101000a900460ff16905092915050565b603281565b600160009054906101000a900473ffffffffffffffffffffffffffffffffffffffff1681565b600080600060606000806000806000600360008b8152602001908152602001600020905080600001548160010160009054906101000a900473ffffffffffffffffffffffffffffffffffffffff16826002015483600301846004015485600501548660080160009054906101000a900460ff168760090154848054610570906120dc565b80601f016020809104026020016040519081016040528092919081815260200182805461059c906120dc565b80156105e95780601f106105be576101008083540402835291602001916105e9565b820191906000526020600020905b8154815290600101906020018083116105cc57829003601f168201915b505050505094509850985098509850985098509850985050919395975091939597565b6060600060045467ffffffffffffffff81111561062c5761062b611e18565b5b60405190808252806020026020018201604052801561065a5781602001602082028036833780820191505090505b50905060005b600454811015610697578082828151811061067e5761067d61210d565b5b6020026020010181815250508080600101915050610660565b508091505090565b60006003600084815260200190815260200160002060060160008373ffffffffffffffffffffffffffffffffffffffff1673ffffffffffffffffffffffffffffffffffffffff16815260200190815260200160002060009054906101000a900460ff16610741576040517f08c379a0000000000000000000000000000000000000000000000000000000008152600401610738906121ae565b60405180910390fd5b6003600084815260200190815260200160002060070160008373ffffffffffffffffffffffffffffffffffffffff1673ffffffffffffffffffffffffffffffffffffffff16815260200190815260200160002060009054906101000a900460ff16905092915050565b60045481565b6000806000905060005b6004548110156108c8576000841480156107da57506107d881610d88565b155b801561080757506003600082815260200190815260200160002060080160009054906101000a900460ff16155b1561081f578180610817906121fd565b9250506108bb565b600184148015610834575061083381610d88565b5b1561084c578180610844906121fd565b9250506108ba565b60028414801561087c57506003600082815260200190815260200160002060080160009054906101000a900460ff165b156108aa576003600082815260200190815260200160002060020154826108a39190612245565b91506108b9565b600384036108b85760045491505b5b5b5b80806001019150506107ba565b5080915050919050565b600260009054906101000a900473ffffffffffffffffffffffffffffffffffffffff1681565b60036020528060005260406000206000915090508060000154908060010160009054906101000a900473ffffffffffffffffffffffffffffffffffffffff169080600201549080600301805461094d906120dc565b80601f0160208091040260200160405190810160405280929190818152602001828054610979906120dc565b80156109c65780601f1061099b576101008083540402835291602001916109c6565b820191906000526020600020905b8154815290600101906020018083116109a957829003601f168201915b5050505050908060040154908060050154908060080160009054906101000a900460ff16908060090154905088565b6000600160009054906101000a900473ffffffffffffffffffffffffffffffffffffffff1673ffffffffffffffffffffffffffffffffffffffff1663e1e33009856040518263ffffffff1660e01b8152600401610a529190611a86565b602060405180830381865afa158015610a6f573d6000803e3d6000fd5b505050506040513d601f19601f82011682018060405250810190610a93919061228e565b610ad2576040517f08c379a0000000000000000000000000000000000000000000000000000000008152600401610ac990612307565b60405180910390fd5b60008311610b15576040517f08c379a0000000000000000000000000000000000000000000000000000000008152600401610b0c90612373565b60405180910390fd5b6000825111610b59576040517f08c379a0000000000000000000000000000000000000000000000000000000008152600401610b50906123df565b60405180910390fd5b6000600160009054906101000a900473ffffffffffffffffffffffffffffffffffffffff1673ffffffffffffffffffffffffffffffffffffffff16635598f8cc866040518263ffffffff1660e01b8152600401610bb69190611a86565b600060405180830381865afa158015610bd3573d6000803e3d6000fd5b505050506040513d6000823e3d601f19601f82011682018060405250810190610bfc91906124be565b5050505050505090508073ffffffffffffffffffffffffffffffffffffffff163373ffffffffffffffffffffffffffffffffffffffff1614610c73576040517f08c379a0000000000000000000000000000000000000000000000000000000008152600401610c6a9061261e565b60405180910390fd5b600060046000815480929190610c88906121fd565b9190505590506000600360008381526020019081526020016000209050868160000181905550338160010160006101000a81548173ffffffffffffffffffffffffffffffffffffffff021916908373ffffffffffffffffffffffffffffffffffffffff16021790555085816002018190555084816003019081610d0b91906127e0565b5060008160040181905550600081600501819055504281600901819055503373ffffffffffffffffffffffffffffffffffffffff1687837fbd98f45a161c0984c2655a7fcbb2a3b336dc55b4780617f2d6dc49f737e10c5b8989604051610d739291906128b2565b60405180910390a48193505050509392505050565b600080600360008481526020019081526020016000209050600081600501548260040154610db69190612245565b905060008103610dcb57600092505050610ee9565b60008060009054906101000a900473ffffffffffffffffffffffffffffffffffffffff1673ffffffffffffffffffffffffffffffffffffffff1663ce2ef58d6040518163ffffffff1660e01b8152600401602060405180830381865afa158015610e39573d6000803e3d6000fd5b505050506040513d601f19601f82011682018060405250810190610e5d91906128e2565b905060008111610ea2576040517f08c379a0000000000000000000000000000000000000000000000000000000008152600401610e9990612981565b60405180910390fd5b6000610eb083606484611898565b90506032811015610ec8576000945050505050610ee9565b6000610eda8560040154606486611898565b9050603c811015955050505050505b919050565b60008054906101000a900473ffffffffffffffffffffffffffffffffffffffff1673ffffffffffffffffffffffffffffffffffffffff1663b1e44d8f336040518263ffffffff1660e01b8152600401610f479190611df3565b602060405180830381865afa158015610f64573d6000803e3d6000fd5b505050506040513d601f19601f82011682018060405250810190610f88919061228e565b610fc7576040517f08c379a0000000000000000000000000000000000000000000000000000000008152600401610fbe906129ed565b60405180910390fd5b600454821061100b576040517f08c379a000000000000000000000000000000000000000000000000000000000815260040161100290612a59565b60405180910390fd5b60006003600084815260200190815260200160002090508060080160009054906101000a900460ff1615611074576040517f08c379a000000000000000000000000000000000000000000000000000000000815260040161106b90612aeb565b60405180910390fd5b8060060160003373ffffffffffffffffffffffffffffffffffffffff1673ffffffffffffffffffffffffffffffffffffffff16815260200190815260200160002060009054906101000a900460ff161561129d578115158160070160003373ffffffffffffffffffffffffffffffffffffffff1673ffffffffffffffffffffffffffffffffffffffff16815260200190815260200160002060009054906101000a900460ff16151514611298578060070160003373ffffffffffffffffffffffffffffffffffffffff1673ffffffffffffffffffffffffffffffffffffffff16815260200190815260200160002060009054906101000a900460ff16156111945780600401600081548092919061118a90612b0b565b91905055506111af565b8060050160008154809291906111a990612b0b565b91905055505b81156111d4578060040160008154809291906111ca906121fd565b91905055506111ef565b8060050160008154809291906111e9906121fd565b91905055505b818160070160003373ffffffffffffffffffffffffffffffffffffffff1673ffffffffffffffffffffffffffffffffffffffff16815260200190815260200160002060006101000a81548160ff0219169083151502179055503373ffffffffffffffffffffffffffffffffffffffff16837f8adf67fcddcede850000c0f5a171766950c24705395fe0ffcf1f61312713f5088460405161128f9190611b5a565b60405180910390a35b6113e0565b81156112c2578060040160008154809291906112b8906121fd565b91905055506112dd565b8060050160008154809291906112d7906121fd565b91905055505b60018160060160003373ffffffffffffffffffffffffffffffffffffffff1673ffffffffffffffffffffffffffffffffffffffff16815260200190815260200160002060006101000a81548160ff021916908315150217905550818160070160003373ffffffffffffffffffffffffffffffffffffffff1673ffffffffffffffffffffffffffffffffffffffff16815260200190815260200160002060006101000a81548160ff0219169083151502179055503373ffffffffffffffffffffffffffffffffffffffff16837fe71fcdac32df1877c1700e7bda2a03157e20993363a28fc35ac495cefc76e4d4846040516113d79190611b5a565b60405180910390a35b505050565b606060006113f2836107b0565b67ffffffffffffffff81111561140b5761140a611e18565b5b6040519080825280602002602001820160405280156114395781602001602082028036833780820191505090505b5090506000805b60045481101561151c57600085148015611460575061145e81610d88565b155b801561148d57506003600082815260200190815260200160002060080160009054906101000a900460ff16155b156114c557808383815181106114a6576114a561210d565b5b60200260200101818152505081806114bd906121fd565b92505061150f565b6001851480156114da57506114d981610d88565b5b1561150e57808383815181106114f3576114f261210d565b5b602002602001018181525050818061150a906121fd565b9250505b5b8080600101915050611440565b508192505050919050565b600160009054906101000a900473ffffffffffffffffffffffffffffffffffffffff1673ffffffffffffffffffffffffffffffffffffffff16632c9932ec6040518163ffffffff1660e01b8152600401602060405180830381865afa158015611594573d6000803e3d6000fd5b505050506040513d601f19601f820116820180604052508101906115b89190612b34565b73ffffffffffffffffffffffffffffffffffffffff163373ffffffffffffffffffffffffffffffffffffffff1614611625576040517f08c379a000000000000000000000000000000000000000000000000000000000815260040161161c90612bd3565b60405180910390fd5b61162e81610d88565b61166d576040517f08c379a000000000000000000000000000000000000000000000000000000000815260040161166490612c65565b60405180910390fd5b6003600082815260200190815260200160002060080160009054906101000a900460ff16156116d1576040517f08c379a00000000000000000000000000000000000000000000000000000000081526004016116c890612cf7565b60405180910390fd5b60016003600083815260200190815260200160002060080160006101000a81548160ff021916908315150217905550807f2901d10c47c593ca857b50ed52c025920f7b7b75198ec6aee6f61aa09a40089660036000848152602001908152602001600020600201546040516117469190611a86565b60405180910390a250565b60008054906101000a900473ffffffffffffffffffffffffffffffffffffffff1681565b600080600080600080600360008881526020019081526020016000209050806005015481600401546117a79190612245565b955060008054906101000a900473ffffffffffffffffffffffffffffffffffffffff1673ffffffffffffffffffffffffffffffffffffffff1663ce2ef58d6040518163ffffffff1660e01b8152600401602060405180830381865afa158015611814573d6000803e3d6000fd5b505050506040513d601f19601f8201168201806040525081019061183891906128e2565b925060008311611849576000611856565b61185586606485611898565b5b935060008611611867576000611878565b6118778160040154606488611898565b5b94506032841015801561188c5750603c8510155b91505091939590929450565b60008060006118a78686611980565b91509150600082036118cd578381816118c3576118c2612d17565b5b0492505050611979565b8184116118ed576118ec6118e7600086146012601161199f565b6119b9565b5b600084868809905081811183039250808203915060008560000386169050808604955080830492506001818260000304019050808402831792506000600287600302189050808702600203810290508087026002038102905080870260020381029050808702600203810290508087026002038102905080870260020381029050808402955050505050505b9392505050565b6000806000198385098385029150818110828203039250509250929050565b60006119aa846119cb565b82841802821890509392505050565b634e487b71600052806020526024601cfd5b60008115159050919050565b6000604051905090565b600080fd5b600080fd5b6000819050919050565b6119fe816119eb565b8114611a0957600080fd5b50565b600081359050611a1b816119f5565b92915050565b600060208284031215611a3757611a366119e1565b5b6000611a4584828501611a0c565b91505092915050565b611a57816119eb565b82525050565b6000604082019050611a726000830185611a4e565b611a7f6020830184611a4e565b9392505050565b6000602082019050611a9b6000830184611a4e565b92915050565b600073ffffffffffffffffffffffffffffffffffffffff82169050919050565b6000611acc82611aa1565b9050919050565b611adc81611ac1565b8114611ae757600080fd5b50565b600081359050611af981611ad3565b92915050565b60008060408385031215611b1657611b156119e1565b5b6000611b2485828601611a0c565b9250506020611b3585828601611aea565b9150509250929050565b60008115159050919050565b611b5481611b3f565b82525050565b6000602082019050611b6f6000830184611b4b565b92915050565b6000819050919050565b6000611b9a611b95611b9084611aa1565b611b75565b611aa1565b9050919050565b6000611bac82611b7f565b9050919050565b6000611bbe82611ba1565b9050919050565b611bce81611bb3565b82525050565b6000602082019050611be96000830184611bc5565b92915050565b611bf881611ac1565b82525050565b600081519050919050565b600082825260208201905092915050565b60005b83811015611c38578082015181840152602081019050611c1d565b60008484015250505050565b6000601f19601f8301169050919050565b6000611c6082611bfe565b611c6a8185611c09565b9350611c7a818560208601611c1a565b611c8381611c44565b840191505092915050565b600061010082019050611ca4600083018b611a4e565b611cb1602083018a611bef565b611cbe6040830189611a4e565b8181036060830152611cd08188611c55565b9050611cdf6080830187611a4e565b611cec60a0830186611a4e565b611cf960c0830185611b4b565b611d0660e0830184611a4e565b9998505050505050505050565b600081519050919050565b600082825260208201905092915050565b6000819050602082019050919050565b611d48816119eb565b82525050565b6000611d5a8383611d3f565b60208301905092915050565b6000602082019050919050565b6000611d7e82611d13565b611d888185611d1e565b9350611d9383611d2f565b8060005b83811015611dc4578151611dab8882611d4e565b9750611db683611d66565b925050600181019050611d97565b5085935050505092915050565b60006020820190508181036000830152611deb8184611d73565b905092915050565b6000602082019050611e086000830184611bef565b92915050565b600080fd5b600080fd5b7f4e487b7100000000000000000000000000000000000000000000000000000000600052604160045260246000fd5b611e5082611c44565b810181811067ffffffffffffffff82111715611e6f57611e6e611e18565b5b80604052505050565b6000611e826119d7565b9050611e8e8282611e47565b919050565b600067ffffffffffffffff821115611eae57611ead611e18565b5b611eb782611c44565b9050602081019050919050565b82818337600083830152505050565b6000611ee6611ee184611e93565b611e78565b905082815260208101848484011115611f0257611f01611e13565b5b611f0d848285611ec4565b509392505050565b600082601f830112611f2a57611f29611e0e565b5b8135611f3a848260208601611ed3565b91505092915050565b600080600060608486031215611f5c57611f5b6119e1565b5b6000611f6a86828701611a0c565b9350506020611f7b86828701611a0c565b925050604084013567ffffffffffffffff811115611f9c57611f9b6119e6565b5b611fa886828701611f15565b9150509250925092565b611fbb81611b3f565b8114611fc657600080fd5b50565b600081359050611fd881611fb2565b92915050565b60008060408385031215611ff557611ff46119e1565b5b600061200385828601611a0c565b925050602061201485828601611fc9565b9150509250929050565b600061202982611ba1565b9050919050565b6120398161201e565b82525050565b60006020820190506120546000830184612030565b92915050565b600060a08201905061206f6000830188611a4e565b61207c6020830187611a4e565b6120896040830186611a4e565b6120966060830185611a4e565b6120a36080830184611b4b565b9695505050505050565b7f4e487b7100000000000000000000000000000000000000000000000000000000600052602260045260246000fd5b600060028204905060018216806120f457607f821691505b602082108103612107576121066120ad565b5b50919050565b7f4e487b7100000000000000000000000000000000000000000000000000000000600052603260045260246000fd5b7f556e61626c6520746f2072657472696576652c2044414f206d656d626572206860008201527f6173206e6f7420766f7465640000000000000000000000000000000000000000602082015250565b6000612198602c83611c09565b91506121a38261213c565b604082019050919050565b600060208201905081810360008301526121c78161218b565b9050919050565b7f4e487b7100000000000000000000000000000000000000000000000000000000600052601160045260246000fd5b6000612208826119eb565b91507fffffffffffffffffffffffffffffffffffffffffffffffffffffffffffffffff820361223a576122396121ce565b5b600182019050919050565b6000612250826119eb565b915061225b836119eb565b9250828201905080821115612273576122726121ce565b5b92915050565b60008151905061228881611fb2565b92915050565b6000602082840312156122a4576122a36119e1565b5b60006122b284828501612279565b91505092915050565b7f54727920616761696e2c2063616d706169676e206e6f74206163746976650000600082015250565b60006122f1601e83611c09565b91506122fc826122bb565b602082019050919050565b60006020820190508181036000830152612320816122e4565b9050919050565b7f54727920616761696e2c20696e76616c69642074617267657420616d6f756e74600082015250565b600061235d602083611c09565b915061236882612327565b602082019050919050565b6000602082019050818103600083015261238c81612350565b9050919050565b7f54727920616761696e2c20496e766f6963652068617368207265717569726564600082015250565b60006123c9602083611c09565b91506123d482612393565b602082019050919050565b600060208201905081810360008301526123f8816123bc565b9050919050565b60008151905061240e81611ad3565b92915050565b600081519050612423816119f5565b92915050565b600061243c61243784611e93565b611e78565b90508281526020810184848401111561245857612457611e13565b5b612463848285611c1a565b509392505050565b600082601f8301126124805761247f611e0e565b5b8151612490848260208601612429565b91505092915050565b600481106124a657600080fd5b50565b6000815190506124b881612499565b92915050565b600080600080600080600080610100898b0312156124df576124de6119e1565b5b60006124ed8b828c016123ff565b98505060206124fe8b828c01612414565b975050604061250f8b828c01612414565b96505060606125208b828c01612414565b955050608089015167ffffffffffffffff811115612541576125406119e6565b5b61254d8b828c0161246b565b94505060a089015167ffffffffffffffff81111561256e5761256d6119e6565b5b61257a8b828c0161246b565b93505060c061258b8b828c016124a9565b92505060e061259c8b828c01612414565b9150509295985092959890939650565b7f556e61626c6520746f207375626d69742c206e6f742070617469656e74206f6660008201527f20746869732063616d706169676e000000000000000000000000000000000000602082015250565b6000612608602e83611c09565b9150612613826125ac565b604082019050919050565b60006020820190508181036000830152612637816125fb565b9050919050565b60008190508160005260206000209050919050565b60006020601f8301049050919050565b600082821b905092915050565b6000600883026126a07fffffffffffffffffffffffffffffffffffffffffffffffffffffffffffffffff82612663565b6126aa8683612663565b95508019841693508086168417925050509392505050565b60006126dd6126d86126d3846119eb565b611b75565b6119eb565b9050919050565b6000819050919050565b6126f7836126c2565b61270b612703826126e4565b848454612670565b825550505050565b600090565b612720612713565b61272b8184846126ee565b505050565b5b8181101561274f57612744600082612718565b600181019050612731565b5050565b601f821115612794576127658161263e565b61276e84612653565b8101602085101561277d578190505b61279161278985612653565b830182612730565b50505b505050565b600082821c905092915050565b60006127b760001984600802612799565b1980831691505092915050565b60006127d083836127a6565b9150826002028217905092915050565b6127e982611bfe565b67ffffffffffffffff81111561280257612801611e18565b5b61280c82546120dc565b612817828285612753565b600060209050601f83116001811461284a5760008415612838578287015190505b61284285826127c4565b8655506128aa565b601f1984166128588661263e565b60005b828110156128805784890151825560018201915060208501945060208101905061285b565b8683101561289d5784890151612899601f8916826127a6565b8355505b6001600288020188555050505b505050505050565b60006040820190506128c76000830185611a4e565b81810360208301526128d98184611c55565b90509392505050565b6000602082840312156128f8576128f76119e1565b5b600061290684828501612414565b91505092915050565b7f556e61626c6520746f2064657465726d696e652c206e6f2044414f206d656d6260008201527f6572730000000000000000000000000000000000000000000000000000000000602082015250565b600061296b602383611c09565b91506129768261290f565b604082019050919050565b6000602082019050818103600083015261299a8161295e565b9050919050565b7f536f7272792c206f6e6c792044414f206d656d626572732063616e20766f7465600082015250565b60006129d7602083611c09565b91506129e2826129a1565b602082019050919050565b60006020820190508181036000830152612a06816129ca565b9050919050565b7f556e61626c6520746f20766f74652c20696e76616c696420636c61696d204944600082015250565b6000612a43602083611c09565b9150612a4e82612a0d565b602082019050919050565b60006020820190508181036000830152612a7281612a36565b9050919050565b7f556e61626c6520746f20766f74652c20636c61696d20616c726561647920657860008201527f6563757465640000000000000000000000000000000000000000000000000000602082015250565b6000612ad5602683611c09565b9150612ae082612a79565b604082019050919050565b60006020820190508181036000830152612b0481612ac8565b9050919050565b6000612b16826119eb565b915060008203612b2957612b286121ce565b5b600182039050919050565b600060208284031215612b4a57612b496119e1565b5b6000612b58848285016123ff565b91505092915050565b7f556e617574686f72697a65642c20696e76616c696420636f6e7472616374206160008201527f6464726573730000000000000000000000000000000000000000000000000000602082015250565b6000612bbd602683611c09565b9150612bc882612b61565b604082019050919050565b60006020820190508181036000830152612bec81612bb0565b9050919050565b7f556e61626c6520746f20657865637574652c20636c61696d206e6f742061707060008201527f726f766564000000000000000000000000000000000000000000000000000000602082015250565b6000612c4f602583611c09565b9150612c5a82612bf3565b604082019050919050565b60006020820190508181036000830152612c7e81612c42565b9050919050565b7f556e61626c6520746f20657865637574652c20636c61696d20616c726561647960008201527f2065786563757465640000000000000000000000000000000000000000000000602082015250565b6000612ce1602983611c09565b9150612cec82612c85565b604082019050919050565b60006020820190508181036000830152612d1081612cd4565b9050919050565b7f4e487b7100000000000000000000000000000000000000000000000000000000600052601260045260246000fdfea2646970667358221220a3d04a799588fd29cceef242ea5b012408259373f52bd6faf3681422b8d762d564736f6c634300081c0033",
  "linkReferences": {},
  "deployedLinkReferences": {}
}