{
  "_format": "hh-sol-artifact-1",
  "contractName": "MediTrustDAO",
  "sourceName": "contracts/MediTrustDAO.sol",
  "abi": [
    {
      "inputs": [
        {
          "internalType": "address",
          "name": "roleAddress",
          "type": "address"
        },
        {
          "internalType": "address",
          "name": "campaignAddress",
          "type": "address"
        }
      ],
      "stateMutability": "nonpayable",
      "type": "constructor"
    },
    {
      "inputs": [],
      "name": "approvalPercentage",
      "outputs": [
        {
          "internalType": "uint256",
          "name": "",
          "type": "uint256"
        }
      ],
      "stateMutability": "view",
      "type": "function"
    },
    {
      "inputs": [],
      "name": "campaignContract",
      "outputs": [
        {
          "internalType": "contract MediTrustCampaign",
          "name": "",
          "type": "address"
        }
      ],
      "stateMutability": "view",
      "type": "function"
    },
    {
      "inputs": [],
      "name": "claimCount",
      "outputs": [
        {
          "internalType": "uint256",
          "name": "",
          "type": "uint256"
        }
      ],
      "stateMutability": "view",
      "type": "function"
    },
    {
      "inputs": [
        {
          "internalType": "uint256",
          "name": "",
          "type": "uint256"
        }
      ],
      "name": "claims",
      "outputs": [
        {
          "internalType": "uint256",
          "name": "campaignID",
          "type": "uint256"
        },
        {
          "internalType": "address",
          "name": "patient",
          "type": "address"
        },
        {
          "internalType": "uint256",
          "name": "amount",
          "type": "uint256"
        },
        {
          "internalType": "string",
          "name": "invoiceHash",
          "type": "string"
        },
        {
          "internalType": "uint256",
          "name": "yesCount",
          "type": "uint256"
        },
        {
          "internalType": "uint256",
          "name": "noCount",
          "type": "uint256"
        },
        {
          "internalType": "bool",
          "name": "executed",
          "type": "bool"
        },
        {
          "internalType": "uint256",
          "name": "startDate",
          "type": "uint256"
        }
      ],
      "stateMutability": "view",
      "type": "function"
    },
    {
      "inputs": [],
      "name": "fundsAddress",
      "outputs": [
        {
          "internalType": "address",
          "name": "",
          "type": "address"
        }
      ],
      "stateMutability": "view",
      "type": "function"
    },
    {
      "inputs": [],
      "name": "getAllMilestoneClaimIDs",
      "outputs": [
        {
          "internalType": "uint256[]",
          "name": "",
          "type": "uint256[]"
        }
      ],
      "stateMutability": "view",
      "type": "function"
    },
    {
      "inputs": [
        {
          "internalType": "uint256",
          "name": "MilestoneType",
          "type": "uint256"
        }
      ],
      "name": "getMilestoneClaimCount",
      "outputs": [
        {
          "internalType": "uint256",
          "name": "",
          "type": "uint256"
        }
      ],
      "stateMutability": "view",
      "type": "function"
    },
    {
      "inputs": [
        {
          "internalType": "uint256",
          "name": "claimID",
          "type": "uint256"
        }
      ],
      "name": "getMilestoneClaimDetails",
      "outputs": [
        {
          "internalType": "uint256",
          "name": "campaignID",
          "type": "uint256"
        },
        {
          "internalType": "address",
          "name": "patient",
          "type": "address"
        },
        {
          "internalType": "uint256",
          "name": "amount",
          "type": "uint256"
        },
        {
          "internalType": "string",
          "name": "invoiceHash",
          "type": "string"
        },
        {
          "internalType": "uint256",
          "name": "yesCount",
          "type": "uint256"
        },
        {
          "internalType": "uint256",
          "name": "noCount",
          "type": "uint256"
        },
        {
          "internalType": "bool",
          "name": "executed",
          "type": "bool"
        },
        {
          "internalType": "uint256",
          "name": "startDate",
          "type": "uint256"
        }
      ],
      "stateMutability": "view",
      "type": "function"
    },
    {
      "inputs": [
        {
          "internalType": "uint256",
          "name": "milestoneStatus",
          "type": "uint256"
        }
      ],
      "name": "getMilestoneClaimIDs",
      "outputs": [
        {
          "internalType": "uint256[]",
          "name": "",
          "type": "uint256[]"
        }
      ],
      "stateMutability": "view",
      "type": "function"
    },
    {
      "inputs": [
        {
          "internalType": "uint256",
          "name": "claimID",
          "type": "uint256"
        }
      ],
      "name": "getMilestoneClaimVotes",
      "outputs": [
        {
          "internalType": "uint256",
          "name": "yesCount",
          "type": "uint256"
        },
        {
          "internalType": "uint256",
          "name": "noCount",
          "type": "uint256"
        }
      ],
      "stateMutability": "view",
      "type": "function"
    },
    {
      "inputs": [
        {
          "internalType": "uint256",
          "name": "claimID",
          "type": "uint256"
        }
      ],
      "name": "getMilestoneClaimVotingStats",
      "outputs": [
        {
          "internalType": "uint256",
          "name": "totalVotes",
          "type": "uint256"
        },
        {
          "internalType": "uint256",
          "name": "approvalRate",
          "type": "uint256"
        },
        {
          "internalType": "uint256",
          "name": "quorumAchieved",
          "type": "uint256"
        },
        {
          "internalType": "uint256",
          "name": "totalDAOMembers",
          "type": "uint256"
        },
        {
          "internalType": "bool",
          "name": "approved",
          "type": "bool"
        }
      ],
      "stateMutability": "view",
      "type": "function"
    },
    {
      "inputs": [
        {
          "internalType": "uint256",
          "name": "claimID",
          "type": "uint256"
        },
        {
          "internalType": "address",
          "name": "DAOMember",
          "type": "address"
        }
      ],
      "name": "getVoteChoice",
      "outputs": [
        {
          "internalType": "bool",
          "name": "",
          "type": "bool"
        }
      ],
      "stateMutability": "view",
      "type": "function"
    },
    {
      "inputs": [
        {
          "internalType": "uint256",
          "name": "claimID",
          "type": "uint256"
        },
        {
          "internalType": "address",
          "name": "DAOMember",
          "type": "address"
        }
      ],
      "name": "getVoted",
      "outputs": [
        {
          "internalType": "bool",
          "name": "",
          "type": "bool"
        }
      ],
      "stateMutability": "view",
      "type": "function"
    },
    {
      "inputs": [
        {
          "internalType": "uint256",
          "name": "claimID",
          "type": "uint256"
        }
      ],
      "name": "isMilestoneClaimApproved",
      "outputs": [
        {
          "internalType": "bool",
          "name": "",
          "type": "bool"
        }
      ],
      "stateMutability": "view",
      "type": "function"
    },
    {
      "inputs": [],
      "name": "quorumPercentage",
      "outputs": [
        {
          "internalType": "uint256",
          "name": "",
          "type": "uint256"
        }
      ],
      "stateMutability": "view",
      "type": "function"
    },
    {
      "inputs": [],
      "name": "roleContract",
      "outputs": [
        {
          "internalType": "contract MediTrustRoles",
          "name": "",
          "type": "address"
        }
      ],
      "stateMutability": "view",
      "type": "function"
    },
    {
      "inputs": [
        {
          "internalType": "address",
          "name": "funds",
          "type": "address"
        }
      ],
      "name": "setFundsContract",
      "outputs": [],
      "stateMutability": "nonpayable",
      "type": "function"
    },
    {
      "inputs": [
        {
          "internalType": "uint256",
          "name": "claimID",
          "type": "uint256"
        }
      ],
      "name": "setMilestoneClaimExecuted",
      "outputs": [],
      "stateMutability": "nonpayable",
      "type": "function"
    },
    {
      "inputs": [
        {
          "internalType": "uint256",
          "name": "campaignID",
          "type": "uint256"
        },
        {
          "internalType": "uint256",
          "name": "amount",
          "type": "uint256"
        },
        {
          "internalType": "string",
          "name": "invoiceHash",
          "type": "string"
        }
      ],
      "name": "submitMilestoneClaim",
      "outputs": [
        {
          "internalType": "uint256",
          "name": "",
          "type": "uint256"
        }
      ],
      "stateMutability": "nonpayable",
      "type": "function"
    },
    {
      "inputs": [
        {
          "internalType": "uint256",
          "name": "claimID",
          "type": "uint256"
        },
        {
          "internalType": "bool",
          "name": "newVote",
          "type": "bool"
        }
      ],
      "name": "vote",
      "outputs": [],
      "stateMutability": "nonpayable",
      "type": "function"
    }
  ],
  "bytecode": "0x608060405234801561001057600080fd5b506040516131653803806131658339818101604052810190610032919061011d565b816000806101000a81548173ffffffffffffffffffffffffffffffffffffffff021916908373ffffffffffffffffffffffffffffffffffffffff16021790555080600160006101000a81548173ffffffffffffffffffffffffffffffffffffffff021916908373ffffffffffffffffffffffffffffffffffffffff160217905550505061015d565b600080fd5b600073ffffffffffffffffffffffffffffffffffffffff82169050919050565b60006100ea826100bf565b9050919050565b6100fa816100df565b811461010557600080fd5b50565b600081519050610117816100f1565b92915050565b60008060408385031215610134576101336100ba565b5b600061014285828601610108565b925050602061015385828601610108565b9150509250929050565b612ff98061016c6000396000f3fe608060405234801561001057600080fd5b506004361061012c5760003560e01c80638dd6261d116100ad578063c9d27afe11610071578063c9d27afe14610390578063e5e848da146103ac578063e809bae0146103dc578063f89723b8146103f8578063fc6c717a146104165761012c565b80638dd6261d146102ab578063a77ccd6e146102db578063a888c2cd146102f9578063bdaf2b1814610330578063c646bc67146103605761012c565b806358ae05cd116100f457806358ae05cd146101ea57806358afcd5f1461020857806368dd05501461023f5780637f318a5f1461025d5780638da4d3c91461028d5761012c565b80630161ca79146101315780630cc20c4a1461014d5780633008d4371461017e57806330a897101461019c5780634fa76ec9146101cc575b600080fd5b61014b60048036038101906101469190611ba5565b61044a565b005b61016760048036038101906101629190611c08565b61051f565b604051610175929190611c44565b60405180910390f35b61018661054d565b6040516101939190611c6d565b60405180910390f35b6101b660048036038101906101b19190611c88565b610552565b6040516101c39190611ce3565b60405180910390f35b6101d46105bd565b6040516101e19190611c6d565b60405180910390f35b6101f26105c2565b6040516101ff9190611d5d565b60405180910390f35b610222600480360381019061021d9190611c08565b6105e8565b604051610236989796959493929190611e17565b60405180910390f35b610247610708565b6040516102549190611f5a565b60405180910390f35b61027760048036038101906102729190611c88565b61079b565b6040516102849190611ce3565b60405180910390f35b6102956108a6565b6040516102a29190611c6d565b60405180910390f35b6102c560048036038101906102c09190611c08565b6108ac565b6040516102d29190611c6d565b60405180910390f35b6102e36109ce565b6040516102f09190611f7c565b60405180910390f35b610313600480360381019061030e9190611c08565b6109f4565b604051610327989796959493929190611e17565b60405180910390f35b61034a600480360381019061034591906120cc565b610af1565b6040516103579190611c6d565b60405180910390f35b61037a60048036038101906103759190611c08565b610e32565b6040516103879190611ce3565b60405180910390f35b6103aa60048036038101906103a59190612167565b610f98565b005b6103c660048036038101906103c19190611c08565b61158f565b6040516103d39190611f5a565b60405180910390f35b6103f660048036038101906103f19190611c08565b6116d1565b005b6104006118ad565b60405161040d91906121c8565b60405180910390f35b610430600480360381019061042b9190611c08565b6118d1565b6040516104419594939291906121e3565b60405180910390f35b600073ffffffffffffffffffffffffffffffffffffffff16600260009054906101000a900473ffffffffffffffffffffffffffffffffffffffff1673ffffffffffffffffffffffffffffffffffffffff16146104db576040517f08c379a00000000000000000000000000000000000000000000000000000000081526004016104d2906122a8565b60405180910390fd5b80600260006101000a81548173ffffffffffffffffffffffffffffffffffffffff021916908373ffffffffffffffffffffffffffffffffffffffff16021790555050565b6000806000600360008581526020019081526020016000209050806004015481600501549250925050915091565b603c81565b60006003600084815260200190815260200160002060060160008373ffffffffffffffffffffffffffffffffffffffff1673ffffffffffffffffffffffffffffffffffffffff16815260200190815260200160002060009054906101000a900460ff16905092915050565b603281565b600160009054906101000a900473ffffffffffffffffffffffffffffffffffffffff1681565b600080600060606000806000806000600360008b8152602001908152602001600020905080600001548160010160009054906101000a900473ffffffffffffffffffffffffffffffffffffffff16826002015483600301846004015485600501548660080160009054906101000a900460ff16876009015484805461066c906122f7565b80601f0160208091040260200160405190810160405280929190818152602001828054610698906122f7565b80156106e55780601f106106ba576101008083540402835291602001916106e5565b820191906000526020600020905b8154815290600101906020018083116106c857829003601f168201915b505050505094509850985098509850985098509850985050919395975091939597565b6060600060045467ffffffffffffffff81111561072857610727611fa1565b5b6040519080825280602002602001820160405280156107565781602001602082028036833780820191505090505b50905060005b600454811015610793578082828151811061077a57610779612328565b5b602002602001018181525050808060010191505061075c565b508091505090565b60006003600084815260200190815260200160002060060160008373ffffffffffffffffffffffffffffffffffffffff1673ffffffffffffffffffffffffffffffffffffffff16815260200190815260200160002060009054906101000a900460ff1661083d576040517f08c379a0000000000000000000000000000000000000000000000000000000008152600401610834906123c9565b60405180910390fd5b6003600084815260200190815260200160002060070160008373ffffffffffffffffffffffffffffffffffffffff1673ffffffffffffffffffffffffffffffffffffffff16815260200190815260200160002060009054906101000a900460ff16905092915050565b60045481565b6000806000905060005b6004548110156109c4576000841480156108d657506108d481610e32565b155b801561090357506003600082815260200190815260200160002060080160009054906101000a900460ff16155b1561091b57818061091390612418565b9250506109b7565b600184148015610930575061092f81610e32565b5b1561094857818061094090612418565b9250506109b6565b60028414801561097857506003600082815260200190815260200160002060080160009054906101000a900460ff165b156109a65760036000828152602001908152602001600020600201548261099f9190612460565b91506109b5565b600384036109b45760045491505b5b5b5b80806001019150506108b6565b5080915050919050565b600260009054906101000a900473ffffffffffffffffffffffffffffffffffffffff1681565b60036020528060005260406000206000915090508060000154908060010160009054906101000a900473ffffffffffffffffffffffffffffffffffffffff1690806002015490806003018054610a49906122f7565b80601f0160208091040260200160405190810160405280929190818152602001828054610a75906122f7565b8015610ac25780601f10610a9757610100808354040283529160200191610ac2565b820191906000526020600020905b815481529060010190602001808311610aa557829003601f168201915b5050505050908060040154908060050154908060080160009054906101000a900460ff16908060090154905088565b6000600160009054906101000a900473ffffffffffffffffffffffffffffffffffffffff1673ffffffffffffffffffffffffffffffffffffffff1663e1e33009856040518263ffffffff1660e01b8152600401610b4e9190611c6d565b602060405180830381865afa158015610b6b573d6000803e3d6000fd5b505050506040513d601f19601f82011682018060405250810190610b8f91906124a9565b610bce576040517f08c379a0000000000000000000000000000000000000000000000000000000008152600401610bc590612522565b60405180910390fd5b60008311610c11576040517f08c379a0000000000000000000000000000000000000000000000000000000008152600401610c089061258e565b60405180910390fd5b6000825111610c55576040517f08c379a0000000000000000000000000000000000000000000000000000000008152600401610c4c906125fa565b60405180910390fd5b6000600160009054906101000a900473ffffffffffffffffffffffffffffffffffffffff1673ffffffffffffffffffffffffffffffffffffffff16635598f8cc866040518263ffffffff1660e01b8152600401610cb29190611c6d565b600060405180830381865afa158015610ccf573d6000803e3d6000fd5b505050506040513d6000823e3d601f19601f82011682018060405250810190610cf891906126d9565b5050505050505090508073ffffffffffffffffffffffffffffffffffffffff163373ffffffffffffffffffffffffffffffffffffffff1614610d6f576040517f08c379a0000000000000000000000000000000000000000000000000000000008152600401610d6690612839565b60405180910390fd5b600060046000815480929190610d8490612418565b9190505590506000600360008381526020019081526020016000209050868160000181905550338160010160006101000a81548173ffffffffffffffffffffffffffffffffffffffff021916908373ffffffffffffffffffffffffffffffffffffffff16021790555085816002018190555084816003019081610e0791906129fb565b5060008160040181905550600081600501819055504281600901819055508193505050509392505050565b600080600360008481526020019081526020016000209050600081600501548260040154610e609190612460565b905060008103610e7557600092505050610f93565b60008060009054906101000a900473ffffffffffffffffffffffffffffffffffffffff1673ffffffffffffffffffffffffffffffffffffffff1663ce2ef58d6040518163ffffffff1660e01b8152600401602060405180830381865afa158015610ee3573d6000803e3d6000fd5b505050506040513d601f19601f82011682018060405250810190610f079190612acd565b905060008111610f4c576040517f08c379a0000000000000000000000000000000000000000000000000000000008152600401610f4390612b6c565b60405180910390fd5b6000610f5a836064846119f4565b90506032811015610f72576000945050505050610f93565b6000610f8485600401546064866119f4565b9050603c811015955050505050505b919050565b60008054906101000a900473ffffffffffffffffffffffffffffffffffffffff1673ffffffffffffffffffffffffffffffffffffffff1663b1e44d8f336040518263ffffffff1660e01b8152600401610ff19190611f7c565b602060405180830381865afa15801561100e573d6000803e3d6000fd5b505050506040513d601f19601f8201168201806040525081019061103291906124a9565b611071576040517f08c379a000000000000000000000000000000000000000000000000000000000815260040161106890612bd8565b60405180910390fd5b60045482106110b5576040517f08c379a00000000000000000000000000000000000000000000000000000000081526004016110ac90612c44565b60405180910390fd5b60006003600084815260200190815260200160002090508060080160009054906101000a900460ff161561111e576040517f08c379a000000000000000000000000000000000000000000000000000000000815260040161111590612cd6565b60405180910390fd5b8060010160009054906101000a900473ffffffffffffffffffffffffffffffffffffffff1673ffffffffffffffffffffffffffffffffffffffff163373ffffffffffffffffffffffffffffffffffffffff16036111b0576040517f08c379a00000000000000000000000000000000000000000000000000000000081526004016111a790612d68565b60405180910390fd5b8060060160003373ffffffffffffffffffffffffffffffffffffffff1673ffffffffffffffffffffffffffffffffffffffff16815260200190815260200160002060009054906101000a900460ff161561138a578115158160070160003373ffffffffffffffffffffffffffffffffffffffff1673ffffffffffffffffffffffffffffffffffffffff16815260200190815260200160002060009054906101000a900460ff16151514611385578060070160003373ffffffffffffffffffffffffffffffffffffffff1673ffffffffffffffffffffffffffffffffffffffff16815260200190815260200160002060009054906101000a900460ff16156112d0578060040160008154809291906112c690612d88565b91905055506112eb565b8060050160008154809291906112e590612d88565b91905055505b81156113105780600401600081548092919061130690612418565b919050555061132b565b80600501600081548092919061132590612418565b91905055505b818160070160003373ffffffffffffffffffffffffffffffffffffffff1673ffffffffffffffffffffffffffffffffffffffff16815260200190815260200160002060006101000a81548160ff0219169083151502179055505b61147e565b81156113af578060040160008154809291906113a590612418565b91905055506113ca565b8060050160008154809291906113c490612418565b91905055505b60018160060160003373ffffffffffffffffffffffffffffffffffffffff1673ffffffffffffffffffffffffffffffffffffffff16815260200190815260200160002060006101000a81548160ff021916908315150217905550818160070160003373ffffffffffffffffffffffffffffffffffffffff1673ffffffffffffffffffffffffffffffffffffffff16815260200190815260200160002060006101000a81548160ff0219169083151502179055505b61148783610e32565b80156114a257508060080160009054906101000a900460ff16155b80156114fd5750600073ffffffffffffffffffffffffffffffffffffffff16600260009054906101000a900473ffffffffffffffffffffffffffffffffffffffff1673ffffffffffffffffffffffffffffffffffffffff1614155b1561158a57600260009054906101000a900473ffffffffffffffffffffffffffffffffffffffff1673ffffffffffffffffffffffffffffffffffffffff1663948c5433846040518263ffffffff1660e01b815260040161155d9190611c6d565b600060405180830381600087803b15801561157757600080fd5b505af1925050508015611588575060015b505b505050565b6060600061159c836108ac565b67ffffffffffffffff8111156115b5576115b4611fa1565b5b6040519080825280602002602001820160405280156115e35781602001602082028036833780820191505090505b5090506000805b6004548110156116c65760008514801561160a575061160881610e32565b155b801561163757506003600082815260200190815260200160002060080160009054906101000a900460ff16155b1561166f57808383815181106116505761164f612328565b5b602002602001018181525050818061166790612418565b9250506116b9565b600185148015611684575061168381610e32565b5b156116b8578083838151811061169d5761169c612328565b5b60200260200101818152505081806116b490612418565b9250505b5b80806001019150506115ea565b508192505050919050565b600160009054906101000a900473ffffffffffffffffffffffffffffffffffffffff1673ffffffffffffffffffffffffffffffffffffffff16632c9932ec6040518163ffffffff1660e01b8152600401602060405180830381865afa15801561173e573d6000803e3d6000fd5b505050506040513d601f19601f820116820180604052508101906117629190612db1565b73ffffffffffffffffffffffffffffffffffffffff163373ffffffffffffffffffffffffffffffffffffffff16146117cf576040517f08c379a00000000000000000000000000000000000000000000000000000000081526004016117c690612e50565b60405180910390fd5b6117d881610e32565b611817576040517f08c379a000000000000000000000000000000000000000000000000000000000815260040161180e90612ee2565b60405180910390fd5b6003600082815260200190815260200160002060080160009054906101000a900460ff161561187b576040517f08c379a000000000000000000000000000000000000000000000000000000000815260040161187290612f74565b60405180910390fd5b60016003600083815260200190815260200160002060080160006101000a81548160ff02191690831515021790555050565b60008054906101000a900473ffffffffffffffffffffffffffffffffffffffff1681565b600080600080600080600360008881526020019081526020016000209050806005015481600401546119039190612460565b955060008054906101000a900473ffffffffffffffffffffffffffffffffffffffff1673ffffffffffffffffffffffffffffffffffffffff1663ce2ef58d6040518163ffffffff1660e01b8152600401602060405180830381865afa158015611970573d6000803e3d6000fd5b505050506040513d601f19601f820116820180604052508101906119949190612acd565b9250600083116119a55760006119b2565b6119b1866064856119f4565b5b9350600086116119c35760006119d4565b6119d381600401546064886119f4565b5b9450603284101580156119e85750603c8510155b91505091939590929450565b6000806000611a038686611adc565b9150915060008203611a2957838181611a1f57611a1e612f94565b5b0492505050611ad5565b818411611a4957611a48611a436000861460126011611afb565b611b15565b5b600084868809905081811183039250808203915060008560000386169050808604955080830492506001818260000304019050808402831792506000600287600302189050808702600203810290508087026002038102905080870260020381029050808702600203810290508087026002038102905080870260020381029050808402955050505050505b9392505050565b6000806000198385098385029150818110828203039250509250929050565b6000611b0684611b27565b82841802821890509392505050565b634e487b71600052806020526024601cfd5b60008115159050919050565b6000604051905090565b600080fd5b600080fd5b600073ffffffffffffffffffffffffffffffffffffffff82169050919050565b6000611b7282611b47565b9050919050565b611b8281611b67565b8114611b8d57600080fd5b50565b600081359050611b9f81611b79565b92915050565b600060208284031215611bbb57611bba611b3d565b5b6000611bc984828501611b90565b91505092915050565b6000819050919050565b611be581611bd2565b8114611bf057600080fd5b50565b600081359050611c0281611bdc565b92915050565b600060208284031215611c1e57611c1d611b3d565b5b6000611c2c84828501611bf3565b91505092915050565b611c3e81611bd2565b82525050565b6000604082019050611c596000830185611c35565b611c666020830184611c35565b9392505050565b6000602082019050611c826000830184611c35565b92915050565b60008060408385031215611c9f57611c9e611b3d565b5b6000611cad85828601611bf3565b9250506020611cbe85828601611b90565b9150509250929050565b60008115159050919050565b611cdd81611cc8565b82525050565b6000602082019050611cf86000830184611cd4565b92915050565b6000819050919050565b6000611d23611d1e611d1984611b47565b611cfe565b611b47565b9050919050565b6000611d3582611d08565b9050919050565b6000611d4782611d2a565b9050919050565b611d5781611d3c565b82525050565b6000602082019050611d726000830184611d4e565b92915050565b611d8181611b67565b82525050565b600081519050919050565b600082825260208201905092915050565b60005b83811015611dc1578082015181840152602081019050611da6565b60008484015250505050565b6000601f19601f8301169050919050565b6000611de982611d87565b611df38185611d92565b9350611e03818560208601611da3565b611e0c81611dcd565b840191505092915050565b600061010082019050611e2d600083018b611c35565b611e3a602083018a611d78565b611e476040830189611c35565b8181036060830152611e598188611dde565b9050611e686080830187611c35565b611e7560a0830186611c35565b611e8260c0830185611cd4565b611e8f60e0830184611c35565b9998505050505050505050565b600081519050919050565b600082825260208201905092915050565b6000819050602082019050919050565b611ed181611bd2565b82525050565b6000611ee38383611ec8565b60208301905092915050565b6000602082019050919050565b6000611f0782611e9c565b611f118185611ea7565b9350611f1c83611eb8565b8060005b83811015611f4d578151611f348882611ed7565b9750611f3f83611eef565b925050600181019050611f20565b5085935050505092915050565b60006020820190508181036000830152611f748184611efc565b905092915050565b6000602082019050611f916000830184611d78565b92915050565b600080fd5b600080fd5b7f4e487b7100000000000000000000000000000000000000000000000000000000600052604160045260246000fd5b611fd982611dcd565b810181811067ffffffffffffffff82111715611ff857611ff7611fa1565b5b80604052505050565b600061200b611b33565b90506120178282611fd0565b919050565b600067ffffffffffffffff82111561203757612036611fa1565b5b61204082611dcd565b9050602081019050919050565b82818337600083830152505050565b600061206f61206a8461201c565b612001565b90508281526020810184848401111561208b5761208a611f9c565b5b61209684828561204d565b509392505050565b600082601f8301126120b3576120b2611f97565b5b81356120c384826020860161205c565b91505092915050565b6000806000606084860312156120e5576120e4611b3d565b5b60006120f386828701611bf3565b935050602061210486828701611bf3565b925050604084013567ffffffffffffffff81111561212557612124611b42565b5b6121318682870161209e565b9150509250925092565b61214481611cc8565b811461214f57600080fd5b50565b6000813590506121618161213b565b92915050565b6000806040838503121561217e5761217d611b3d565b5b600061218c85828601611bf3565b925050602061219d85828601612152565b9150509250929050565b60006121b282611d2a565b9050919050565b6121c2816121a7565b82525050565b60006020820190506121dd60008301846121b9565b92915050565b600060a0820190506121f86000830188611c35565b6122056020830187611c35565b6122126040830186611c35565b61221f6060830185611c35565b61222c6080830184611cd4565b9695505050505050565b7f556e617574686f72697a65642c2066756e647320636f6e747261637420616c7260008201527f6561647920736574000000000000000000000000000000000000000000000000602082015250565b6000612292602883611d92565b915061229d82612236565b604082019050919050565b600060208201905081810360008301526122c181612285565b9050919050565b7f4e487b7100000000000000000000000000000000000000000000000000000000600052602260045260246000fd5b6000600282049050600182168061230f57607f821691505b602082108103612322576123216122c8565b5b50919050565b7f4e487b7100000000000000000000000000000000000000000000000000000000600052603260045260246000fd5b7f556e61626c6520746f2072657472696576652c2044414f206d656d626572206860008201527f6173206e6f7420766f7465640000000000000000000000000000000000000000602082015250565b60006123b3602c83611d92565b91506123be82612357565b604082019050919050565b600060208201905081810360008301526123e2816123a6565b9050919050565b7f4e487b7100000000000000000000000000000000000000000000000000000000600052601160045260246000fd5b600061242382611bd2565b91507fffffffffffffffffffffffffffffffffffffffffffffffffffffffffffffffff8203612455576124546123e9565b5b600182019050919050565b600061246b82611bd2565b915061247683611bd2565b925082820190508082111561248e5761248d6123e9565b5b92915050565b6000815190506124a38161213b565b92915050565b6000602082840312156124bf576124be611b3d565b5b60006124cd84828501612494565b91505092915050565b7f54727920616761696e2c2063616d706169676e206e6f74206163746976650000600082015250565b600061250c601e83611d92565b9150612517826124d6565b602082019050919050565b6000602082019050818103600083015261253b816124ff565b9050919050565b7f54727920616761696e2c20696e76616c69642074617267657420616d6f756e74600082015250565b6000612578602083611d92565b915061258382612542565b602082019050919050565b600060208201905081810360008301526125a78161256b565b9050919050565b7f54727920616761696e2c20496e766f6963652068617368207265717569726564600082015250565b60006125e4602083611d92565b91506125ef826125ae565b602082019050919050565b60006020820190508181036000830152612613816125d7565b9050919050565b60008151905061262981611b79565b92915050565b60008151905061263e81611bdc565b92915050565b60006126576126528461201c565b612001565b90508281526020810184848401111561267357612672611f9c565b5b61267e848285611da3565b509392505050565b600082601f83011261269b5761269a611f97565b5b81516126ab848260208601612644565b91505092915050565b600481106126c157600080fd5b50565b6000815190506126d3816126b4565b92915050565b600080600080600080600080610100898b0312156126fa576126f9611b3d565b5b60006127088b828c0161261a565b98505060206127198b828c0161262f565b975050604061272a8b828c0161262f565b965050606061273b8b828c0161262f565b955050608089015167ffffffffffffffff81111561275c5761275b611b42565b5b6127688b828c01612686565b94505060a089015167ffffffffffffffff81111561278957612788611b42565b5b6127958b828c01612686565b93505060c06127a68b828c016126c4565b92505060e06127b78b828c0161262f565b9150509295985092959890939650565b7f556e61626c6520746f207375626d69742c206e6f742070617469656e74206f6660008201527f20746869732063616d706169676e000000000000000000000000000000000000602082015250565b6000612823602e83611d92565b915061282e826127c7565b604082019050919050565b6000602082019050818103600083015261285281612816565b9050919050565b60008190508160005260206000209050919050565b60006020601f8301049050919050565b600082821b905092915050565b6000600883026128bb7fffffffffffffffffffffffffffffffffffffffffffffffffffffffffffffffff8261287e565b6128c5868361287e565b95508019841693508086168417925050509392505050565b60006128f86128f36128ee84611bd2565b611cfe565b611bd2565b9050919050565b6000819050919050565b612912836128dd565b61292661291e826128ff565b84845461288b565b825550505050565b600090565b61293b61292e565b612946818484612909565b505050565b5b8181101561296a5761295f600082612933565b60018101905061294c565b5050565b601f8211156129af5761298081612859565b6129898461286e565b81016020851015612998578190505b6129ac6129a48561286e565b83018261294b565b50505b505050565b600082821c905092915050565b60006129d2600019846008026129b4565b1980831691505092915050565b60006129eb83836129c1565b9150826002028217905092915050565b612a0482611d87565b67ffffffffffffffff811115612a1d57612a1c611fa1565b5b612a2782546122f7565b612a3282828561296e565b600060209050601f831160018114612a655760008415612a53578287015190505b612a5d85826129df565b865550612ac5565b601f198416612a7386612859565b60005b82811015612a9b57848901518255600182019150602085019450602081019050612a76565b86831015612ab85784890151612ab4601f8916826129c1565b8355505b6001600288020188555050505b505050505050565b600060208284031215612ae357612ae2611b3d565b5b6000612af18482850161262f565b91505092915050565b7f556e61626c6520746f2064657465726d696e652c206e6f2044414f206d656d6260008201527f6572730000000000000000000000000000000000000000000000000000000000602082015250565b6000612b56602383611d92565b9150612b6182612afa565b604082019050919050565b60006020820190508181036000830152612b8581612b49565b9050919050565b7f536f7272792c206f6e6c792044414f206d656d626572732063616e20766f7465600082015250565b6000612bc2602083611d92565b9150612bcd82612b8c565b602082019050919050565b60006020820190508181036000830152612bf181612bb5565b9050919050565b7f556e61626c6520746f20766f74652c20696e76616c696420636c61696d204944600082015250565b6000612c2e602083611d92565b9150612c3982612bf8565b602082019050919050565b60006020820190508181036000830152612c5d81612c21565b9050919050565b7f556e61626c6520746f20766f74652c20636c61696d20616c726561647920657860008201527f6563757465640000000000000000000000000000000000000000000000000000602082015250565b6000612cc0602683611d92565b9150612ccb82612c64565b604082019050919050565b60006020820190508181036000830152612cef81612cb3565b9050919050565b7f556e61626c6520746f20766f74652c2063616e6e6f7420766f7465206f6e207960008201527f6f7572206f776e206d696c6573746f6e6520636c61696d000000000000000000602082015250565b6000612d52603783611d92565b9150612d5d82612cf6565b604082019050919050565b60006020820190508181036000830152612d8181612d45565b9050919050565b6000612d9382611bd2565b915060008203612da657612da56123e9565b5b600182039050919050565b600060208284031215612dc757612dc6611b3d565b5b6000612dd58482850161261a565b91505092915050565b7f556e617574686f72697a65642c20696e76616c696420636f6e7472616374206160008201527f6464726573730000000000000000000000000000000000000000000000000000602082015250565b6000612e3a602683611d92565b9150612e4582612dde565b604082019050919050565b60006020820190508181036000830152612e6981612e2d565b9050919050565b7f556e61626c6520746f20657865637574652c20636c61696d206e6f742061707060008201527f726f766564000000000000000000000000000000000000000000000000000000602082015250565b6000612ecc602583611d92565b9150612ed782612e70565b604082019050919050565b60006020820190508181036000830152612efb81612ebf565b9050919050565b7f556e61626c6520746f20657865637574652c20636c61696d20616c726561647960008201527f2065786563757465640000000000000000000000000000000000000000000000602082015250565b6000612f5e602983611d92565b9150612f6982612f02565b604082019050919050565b60006020820190508181036000830152612f8d81612f51565b9050919050565b7f4e487b7100000000000000000000000000000000000000000000000000000000600052601260045260246000fdfea264697066735822122007af9ad90b7c0195ce5fe50a7ea3267d7f81f96318529d725a0778bd5644c8bd64736f6c634300081c0033",
  "linkReferences": {},
  "deployedLinkReferences": {}
}